:10000000A4C30000BEC30000BCC30000BAC300000C
:10001000B8C30000B6C30000B4C300000C94E01ED7
:10002000B0C30000AEC30000ACC30000BFC40000FA
:10003000A8C30000A6C30000A4C30000A2C3000020
:100040000C947B129EC300009CC300009AC3000066
:1000500098C3000096C3000094C3000092C3000040
:100060000C9470148EC30000E30EFC0E030F180FE7
:10007000300F690F700FDA0EE810E8100A10E81060
:100080004310E810DF10E810DE1AEB1AF01AF31A2A
:10009000CE1BCE1BCE1BCE1BCE1BCE1BF61A051BBA
:1000A0001A1B1E1B211BCE1BCE1BCE1BCE1BCE1B19
:1000B0002C1B301B341B4C1BCE1BCE1BCE1BCE1B54
:1000C000CE1BCE1B581B601B641B741BCE1BCE1B90
:1000D000CE1BCE1BCE1BCE1B7F1B901B9E1BA21BC1
:1000E000A51BCE1BCE1BCE1BCE1BCE1BB71BBA1B1C
:1000F000BF1BC21BC61BC91B0D0A20636F6E66693E
:100100006720636F6D706C6574652B2B2B2020202E
:100110000D0A000D0A2075736520686172647761AD
:1001200072652068616E647368616B65206F6E2014
:100130006F75747075743F2063757272656E743A72
:1001400020000D0A207072696E74206D61696E2046
:100150006D656E75206672657175656E746C793F3C
:100160002063757272656E743A20000D0A2070610A
:100170007373776F72643A20000D0A20616E737793
:1001800065726261636B3A20000D0A2064617465D8
:100190002F74696D653A20000D0A20636F6E6669E1
:1001A000672074656C65782073657269616C207670
:1001B000657273696F6E203530322064617465201A
:1001C0004170722031392032303231000D0A003A4C
:1001D00020000D0A737461747573206F6620636F5D
:1001E0006E6E6563746564206D6F64756C65733ADB
:1001F0000D0A000D0A2D2D2D206E6F206D6F72657A
:10020000206D65737361676573202D2D2D0D0A00B8
:100210000D0A002E2E2E61626F7274002E2E2E6E2D
:100220006578742E2E2E002E2E2E64656C657469F2
:100230006E672E2E2E000D0A44656C6574652C20A9
:100240004E6578742C20456E643F202020000D0AF6
:100250002D2D2D20656E64206F66206D6573736192
:100260006765202D2D2D000D0A6E6F20756E72654D
:100270006164206D657373616765730D0A000D0A13
:100280007374617274207072696E746F75742E2E3F
:100290002E0D0A000D0A436F6E6E65637465640D62
:1002A0000A000D0A41626F7274000D0A4469616CA4
:1002B0003A20000D0A446973636F6E6E656374655E
:1002C000640D0A000D0A446973636F6E6E65637492
:1002D00065640D0A000D0A4572726F720D0A000DF9
:1002E0000A496E63616C6C0D0A000D0A696E7661D5
:1002F0006C696420636F6D6D616E64000D0A696ED8
:1003000076616C69642073656C656374696F6E00F7
:100310000D0A6C6F63616C206D6F64650D0A0020BF
:100320004572726F723A206E6F7420636F6E6669E9
:10033000677572656400202D2D3E20002C204374CB
:10034000726C2D453A2073657420656E636F646925
:100350006E67002C204374726C2D543A206C6973C4
:1003600074206D6F64756C6573000D0A4374726C54
:100370002D4B3A20636F6E666967002C20437472C0
:100380006C2D513A2072656164206D6573736167ED
:100390006573002C204374726C2D4C3A206C6F6393
:1003A000616C206D6F6465000D0A4374726C2D41A1
:1003B0003A206469616C2F636F6E6E656374000D23
:1003C0000A000D0A53544152540D0A56657273695E
:1003D0006F6E2041707220313920323032312F302F
:1003E000393A32313A34380070617373776F72641E
:1003F000000D0A7478702D6162000D0A20626C6F26
:10040000636B2074696D657320646570656E6469E3
:100410006E67206F6E207765656B656E643F206345
:10042000757272656E743A20000D0A202E2E2E20F1
:10043000756E74696C3A2000207374617274696E11
:10044000672061743A20000D0A20626C6F636B2094
:1004500074696D6520000D0A20656E7465722074E4
:10046000696D6573207769746820342064696769F1
:10047000747320776974686F75742070756E637417
:10048000756174696F6E000D0A206163746976612D
:1004900074652074696D65642063616C6C20626CA6
:1004A0006F636B696E673F2063757272656E743A35
:1004B00020000D0A73656C65637420636861726166
:1004C00063746572207365743A20303D69746132DB
:1004D00020313D757374747920323D4B4F49374E4E
:1004E0003220333D4B4F49382D5220343D47726501
:1004F000656B20353D4E6F726469633A20000A0ACD
:10050000656565656565732E293A292C29000D0DF1
:10051000616F75414F5573282E283A282C000D0A1B
:10052000E4F6FCC4D6DCDF3C3E5B5D7B7D005F5FB8
:100530005F69746C785F53657269656C6C556E6445
:100540005370656963686572322D454E2D46756C32
:100550006C5F5F5F41707220313920323032315F21
:100560005F5F30393A32313A34385F5F5F3530326D
:100570005F5F5F0023350D3920232C2E0A29342399
:1005800038303A3D332B173F2736232F2D320723A0
:100590003731282323740D6F20686E6D0A6C7267E3
:1005A00069706376657A64627379667861776A23C5
:1005B00075716B2323540D4F20484E4D0A4C524702
:1005C00049504356455A44425359465841574A2385
:1005D00055514B2323740D6F20686E6D0A6C726742
:1005E00069706376657A64627379667861776A2385
:1005F00075716B2323350D39207D2C2E0A29347B10
:1006000038303A3D332B173F27367C2F2D3260236D
:100610003731282323920D8E20868C8B0A8A908274
:10062000888F9697848583819193949580FE8D23FE
:1006300087FE892323350D3920FE2C2E0A293425E7
:1006400038303A3D332B173F2736F82F2D3207230A
:100650003731282323350D3920232C2E0A2934261F
:1006600038303A3B3322243F0736212F2D322723BF
:1006700037312823FE34000023F40DEF20E8EEED9F
:100680000AECF2E7E9F0E3F6E5FAE4E2F3F9E6F87A
:10069000E1F7EA23F5F1EB2323350D3920FD2C2E6C
:1006A0000A2934FB38303A3D332B173F2736FC2FCD
:1006B0002D32E0233731282320616C726561647923
:1006C0002075736564206F7220696E76616C696451
:1006D0002C2063686F6F7365206469666665726558
:1006E0006E742E000D0A206465636C696E65206669
:1006F0006F727761726465642063616C6C733F2014
:1007000063757272656E743A20000D0A2063686525
:10071000636B696E6720000D0A2063757272656EE7
:1007200074206C6F63616C206E756D6265723A2027
:1007300000206E65773A202020202000206F6B2E4D
:1007400020006E6F00796573000011241FBECFEF8B
:10075000D8E0DEBFCDBF11E0A0E0B1E0E4E3F2E419
:1007600002C005900D92AE30B107D9F722E0AEE09D
:10077000B1E001C01D92AF3FB207E1F77CD70C9406
:1007800018213ECC2A9A08952A980895419A0895EE
:1007900041980895429A089542980895439A089579
:1007A0004398089580914101909142010A9790F0F9
:1007B0002FB7F8948091F7028F5F8093F7028091B2
:1007C0004101909142010A97909342018093410127
:1007D0002FBFE8CF8091F7028C3390F12091F50282
:1007E00091E0920F9093F5028C538093F702983129
:1007F00038F18091F902E82FF0E0E050FF4F3081AE
:10080000823029F49091F802937009F43DE19091BF
:10081000F6029F5F9093F60227512093F502391755
:1008200078F48F5F8093F90291E09093F6028D3017
:1008300038F08091F8028F5F8093F8029093F9026C
:100840000895FA01208131814281538124173507AF
:10085000E1F09CE3899FF001112470E06E0F7F1F8F
:100860002417350740F46217730760F081E06417BE
:10087000750748F007C081E06417750720F062171C
:10088000730708F480E08170089580E008958FE692
:1008900091E00E94F81691E08927089583E292E0A2
:1008A0000E94F81691E0892708954B9B04C080911F
:1008B000A301811106C085EE91E00E94F71E81E040
:1008C000089580E008950F931F93CF93DF9300D096
:1008D000CDB7DEB78C01FC0120819181822F6CE3C2
:1008E00070E00E94E820862F6A83FCE36F9F201946
:1008F0001124298362E00E94961862E089810E9497
:10090000961881E397E00E94731862E0CE01029688
:100910000E945A178823C1F062E0CE0101960E941E
:100920005A1787FD13C02A81898190E03CE3239FF9
:10093000800D911D1124813AE5E09E0714F080EAB4
:1009400095E0F8019183808381E001C080E00F9001
:100950000F90DF91CF911F910F910895CF938FE664
:1009600091E00E943A17C82F8FE691E00E944B1742
:10097000893108F45A988C2FCF910895809178028C
:1009800084FF08C08091780280FD02C0FFDE09C0AC
:10099000FFDE07C08091780280FD02C0FBDE01C04F
:1009A000FBDE8091780282FFF9CEFACE1F920F9281
:1009B0000FB60F9211248F939F93809141019091D4
:1009C0004201019690934201809341019F918F9142
:1009D0000F900FBE0F901F901895CF93C82F84EAE9
:1009E00091E00E94FF168823E1F02FD0DBDE0E9409
:1009F000D11B0E94940E59DF85EE91E00E94181FD2
:100A0000893B9B4028F084EA91E00E943A17E7CFA7
:100A10008091EA018111F7CF0E9460118111F3CF1B
:100A2000DECF6C2F84EA91E0CF910C941D17CF9309
:100A3000803248F48D3039F08A3029F0C82F8EE5A5
:100A4000CCDF80E48C0FCF91C8CF1F93CF93DF937F
:100A50008091C00087FF4BC08FE691E00E944B174A
:100A60008F3208F03DC0C091C600CB3121F481E047
:100A70008093130135C080911301811103C0EEE111
:100A8000F5E00CC06C2F6F718FE691E00E941D178E
:100A9000109213018C2FCBDF23C0319684918823D1
:100AA000A9F08491C813F9CFEF01CE51D540FE01D2
:100AB000E25FFA4F1491612F8FE691E00E941D17BB
:100AC000812FB5DFFE01E250FB4FC4918C2FAFDFC9
:100AD000C53209F4C7E06C2F8FE691E00E941D1724
:100AE0008FE691E00E944B178A3108F05A9A84EA07
:100AF00091E00E94F81681110DC08091C00085FF21
:100B000009C0D3DE882331F084EA91E00E943A17CD
:100B10008093C600DF91CF911F9108958FE691E0F9
:100B20000E94F816882371F090DF3CDE0E94940E3C
:100B30000E94D11B8091EA01882381F31092EA017F
:100B400089E008950BDF833131F09FEB980F9A31E4
:100B500018F4805E089580E00895CF93DF931F928C
:100B6000CDB7DEB7CE0101960E94E51181110AC012
:100B70000E94D11B6ADF02DF0E945812882391F382
:100B800085E601C089810F90DF91CF910895CF93C1
:100B9000C82F0E942712811109C00E94D11B55DF66
:100BA0000E945812811107C0E9DEF3CF8C2F0E94FA
:100BB00004128823D9F3CF9108957F928F929F9248
:100BC000AF92BF92CF92DF92EF92FF920F931F935B
:100BD000CF93DF9300D000D0CDB7DEB74C017B01BF
:100BE0006A015901CE0101960E94F71ECE010196BD
:100BF0000E94181F843F914070F4F60109958823E4
:100C000031F0F5010995CE0101960E94F71E0E9470
:100C1000D11B1BDFEBCF0E94F31D8EE792E0F701A3
:100C200009950E94071E811139C087E692E081C0B4
:100C3000F40109951A3F08F092C01F5F0A3089F14C
:100C4000F6010995811110C00E94D11BFEDE0E94A1
:100C5000351E082F8111ECCF8EE492E0F701099543
:100C600086E392E0F70109950E94D11BEEDEF501C3
:100C70000995182FCE0101960E94F71ECE0101960C
:100C80000E94181F8C32914038F1133309F44CC084
:100C9000A0F51C3209F443C0123359F5712C10E051
:100CA000D3CF7394113A18F4F3E0F71548F6CE0158
:100CB00001960E94F71ECE0101960E94181F8C3DDE
:100CC000954020F4F6010995882319F0712C10E065
:100CD000B7CF0E94D11BEFCFF6010995882331F0E1
:100CE000F5010995CE0101960E94F71E0E94D11BC5
:100CF000C5CF173209F0B8CF0BC01536A9F018F4DC
:100D0000143631F0B1CF1E3651F0173739F2ACCF6F
:100D100087E292E0F70109950E945A1E24C08CE1F7
:100D200092E0F70109951FC083E192E002C083EFD2
:100D300091E0F70109950E94C11E0F900F900F904E
:100D40000F90DF91CF911F910F91FF90EF90DF9067
:100D5000CF90BF90AF909F908F907F9008950A3072
:100D600009F06ECFA4CF0E94071E882301F380E113
:100D700092E0F701099592CFCF93DF93EC018FE1D9
:100D80000E94D2118823D9F3FE018491882349F06F
:100D9000FE018491FCDEFE01849149DE219655DE40
:100DA000F3CFDF91CF910895CF93DF938FE10E942E
:100DB000D2118823D9F3C3E4D1E08881882329F0B4
:100DC000E6DE899134DE41DEF8CFDF91CF910895E0
:100DD00062E08091F6020E9496188EE2FEDD62E0EB
:100DE0008091F9020E9496188EE2F7DD62E0809110
:100DF000F8020E94961880E2F0DD62E08091F50230
:100E00000E9496188AE3E9DD62E08091F7020C9473
:100E10009618EF92FF920F931F93CF93DF9300D01A
:100E2000CDB7DEB7082F11DECE0102960E94E51184
:100E3000882309F45EC08A81873109F054C0B4DF89
:100E40008FE10E94D2118823D9F39BE5E92E91E02E
:100E5000F92E0E94D11BF9DD91DDCE0101960E9491
:100E6000E511182F882329F18981B7DD002319F0B6
:100E700089810E94511D89818D3011F08A3051F491
:100E8000F7018081882301F1FBE5EF16F1E0FF0611
:100E900081F02FC0873131F487DF8BE5E82E81E0C8
:100EA000F82E07C0F7019081891323C0FFEFEF1AD6
:100EB000FF0A0E94581281111CC08FE691E00E9427
:100EC000F8168111C6CF15C0112399F00E94EB1DB1
:100ED0002DEA35E04EE454E06CEB76E087EC95E0EB
:100EE0006CDE00E006C079DD002319F08A810E94E3
:100EF000511D0E945812882359F001110E94C51DEE
:100F000084EC92E00E94731881E00E942A1237C09C
:100F10008FE691E00E94F81681112DC00E942712E1
:100F2000882349F11BDD182F893011F0863039F400
:100F30003BDF002301F1812F0E94511D1CC0833132
:100F4000A1F401110E94C51D80E00E942A120E9496
:100F50005812811105C00E94D11B10DD76DDF7CF3C
:100F600083EB92E00E9473180AC0873111F085303C
:100F700009F487E10CDE0E94D11B00DD54CF0F90F5
:100F80000F90DF91CF911F910F91FF90EF900895F7
:100F9000CF93DF9300D000D0CDB7DEB77C0180E8DF
:100FA0008093BC00CE0101960E94F71E00E010E085
:100FB000670121E0C222DD24570182E0A822BB2480
:100FC000470124E08222992488E0E822FF24A895A2
:100FD000CE0101960E94181F81399140F0F0CE0198
:100FE00001960E94F71E309B12C0112381F311500D
:100FF00071F7002361F3F8949EE088E10FB6F8944E
:10100000A895809360000FBE90936000FFCF1530CD
:1010100010F001E0DCCF1F5FDACF01111EC0CE015E
:1010200001960E94181F893C9105B8F0C114D104A3
:1010300011F0A8DB01C0A8DBA114B10411F0A6DBFC
:1010400001C0A6DB8114910411F0A4DB01C0A4DB74
:10105000E114F10429F0A2DBBACF96DB99DB9CDB2B
:101060009FDBB5CFECEDF1E011821082138212828A
:10107000158214821782168210925A011092120160
:10108000EEE0F1E011821082138212820895CF9374
:10109000DF9380911201D091F502C091F70288236D
:1010A00001F1109212016C2F70E02CE3D29F600DC1
:1010B000711D112470930F0160930E01CB010A96EC
:1010C000813A25E0920728F4909311018093100152
:1010D00006C066597540709311016093100180E05D
:1010E00032C04EE051E06C2F8D2FABDB8111F7CF7A
:1010F00010920F0110920E01109211011092100126
:1011000080915A01811111C04CED51E06C2F8D2F4F
:1011100098DB811106C040EE51E06C2F8D2F91DBE2
:1011200002C081E090E081700EC08091FA028630AA
:1011300018F040EE51E002C04CED51E06C2F8D2FC5
:10114000DF91CF917ECBDF91CF910895CF92DF9247
:10115000EF92FF920F931F93CF93DF9300D000D0B5
:10116000CDB7DEB7182FCE0101960E94F71E80E0A2
:101170000E946612112331F0133021F0123021F059
:1011800081E003C082E001C084E090E024EF31E020
:10119000829F7001839FF00C929FF00C11242CE22F
:1011A00031E0829F6001839FD00C929FD00C11246C
:1011B00001E0BAD58091EA01882331F01092EA016A
:1011C00081E08093120138C00E94D11B3EDC8FE683
:1011D00091E00E94F816882379F1CE0101960E94D1
:1011E000181FE816F90628F4CE0101960E94F71E92
:1011F0000AC0CE0101960E94181FC816D90610F425
:10120000CDDA01C0CDDA80916602882391F2609137
:10121000660288E692E00E942E1F882351F0123069
:1012200031F435DF811103C01092660205C00093CE
:10123000E40110926602BDCFB3DA81E00E9466122B
:101240000F900F900F900F90DF91CF911F910F9102
:10125000FF90EF90DF90CF9008950F931F93CF935F
:10126000DF93EC012FE935E040E050E060E070E012
:101270000E947E200CED11E0F801918380832FE91C
:1012800035E040E050E060E070E0CE0102960E9460
:101290007E20F801938382832FE935E040E050E01F
:1012A00060E070E0CE0104960E947E20F8019583F4
:1012B00084832FE935E040E050E060E070E0CE014B
:1012C00006960E947E20F8019783868360E0CE0117
:1012D00008960E94672080935A01DF91CF911F9159
:1012E0000F9108950F931F93CF93DF93EC010CEDB3
:1012F00011E0F801608171810E947020F801628123
:101300007381CE0102960E947020F801648175817C
:10131000CE0104960E947020F80166817781CE018B
:1013200006960E94702060915A01CE010896DF91C6
:10133000CF911F910F910C94B3208091580180930D
:10134000A30160917F0280E090E00E94821F609183
:10135000EB018EE490E00E94B320609159018FE48C
:1013600090E00E94B3206091A30180E590E00E948C
:10137000B32081E590E0B6DF44E163E471E081E011
:1013800090E00E94B42044E16BE571E085E190E0DB
:101390000E94B4208091E401811106C06091F7029F
:1013A0008BE490E00E94821F6091570185E690E0F7
:1013B0000E94821F81E00E946612E6C9EF92FF92AE
:1013C0000F931F93CF93DF931F92CDB7DEB787E8BC
:1013D00094E00E9473182091DC013091DD0180912E
:1013E000DE019091DF012817390771F481E0409107
:1013F000E0015091E1012091E2013091E3014217B7
:10140000530719F480E001C081E0817089830E9454
:10141000A71881E397E00E947318CE0101960E94FD
:101420008F17811102C010E05BC08981811112C049
:101430008091DC019091DD019093DF018093DE01CA
:101440008091E0019091E1019093E3018093E201AA
:1014500011E046C086E594E00E9473188CEDE82EFA
:1014600081E0F82E01E687E494E00E947318802F53
:10147000B4DA88E394E00E947318C70124DA882361
:1014800091F28CE397E00E94731889E294E00E9445
:101490007318C701029617DA182F882321F28CE3FC
:1014A00097E00E9473180F5F84E0E80EF11C03368A
:1014B000D1F68AEF93E00E94731880915A010E943E
:1014C000A71881E397E00E9473188AE591E00E94D3
:1014D0008F17882309F4A7CF8CE397E00E94731835
:1014E000812F0F90DF91CF911F910F91FF90EF907F
:1014F000089548D94DD950D953D980E0E7D7809184
:10150000A301809358011092A301809121028E7F44
:101510008093210288E991E00E9473180E941518B7
:10152000882309F4A7C082EB94E00E94731861E05D
:1015300087E591E00E945A1787FD9CC08091570172
:101540000E9416138091E401811134C089E891E072
:101550000E9473183DDC81E397E00E94731862E0FB
:1015600086EF92E00E945A1787FD84C062E089EFFF
:1015700092E00E945A1787FD7DC062E088EF92E0FA
:101580000E945A1787FD76C062E085EF92E00E94C4
:101590005A1787FD6FC062E087EF92E00E945A17EA
:1015A00087FD68C01092420110924101109285009F
:1015B0001092840089E791E00E9473188DE0809377
:1015C00043018AE08093440185E491E00E948318FE
:1015D00081E397E00E94731861E185E491E00E9445
:1015E000B817882309F446C08BE691E00E9473186F
:1015F0008BE591E00E94831881E397E00E947318C5
:1016000063E18BE591E00E94B817882399F182E4A9
:1016100091E00E947318809159010E94A71881E3FC
:1016200097E00E94731889E591E00E948F17882344
:1016300009F18CE397E00E947318C0DE8823D1F093
:1016400083E191E00E947318809158010E94A718CD
:1016500081E397E00E94731888E591E00E948F175C
:10166000882341F08CE397E00E94731888EF90E0A4
:101670000C9473180895CF93DF9300D000D0CDB7AA
:10168000DEB718E18FE00FB6F894A89510936000CC
:101690000FBE809360008FEF83B986B989B915B802
:1016A00018B81BB814B817B81AB83898409A229AC4
:1016B000399A3A9A3B9A259A24982C9A63D8529A46
:1016C00053985B980E94D11E109280008DE0809309
:1016D00081008FE99CE89093890080938800809135
:1016E0006F00826080936F0085EE91E00E94F71E8C
:1016F000B9DCEEE2F5E0E4910E945E1F2CED42E0E1
:101700006EE380E090E00E944C208E7F80937F0209
:1017100081E080937C028093650260E08EE490E03B
:101720000E9467208093EB0123E640E064E189E2B8
:1017300090E00E944C208093F8022CE041E061E0B0
:101740008AE290E00E944C208093F9022FE141E070
:1017500061E08BE290E00E944C208093F60290E0E2
:1017600027E140E060E08B960E944C208093F502D8
:101770002BE340E060E08BE490E00E944C208093FB
:10178000F7021092E40160E080E590E00E9467209B
:101790008093A30161E08FE490E00E946720809332
:1017A000590100D821EF33E044E163E471E081E0C6
:1017B00090E00E94E81F28EE33E044E16BE571E021
:1017C00085E190E00E94E81F81E590E046DD25E09C
:1017D00040E060E085E690E00E944C208093570155
:1017E0002FEF3FEF40E050E060E070E08CE490E0ED
:1017F0000E947E209093BC028093BB021092C50091
:1018000087E28093C4001092C0001093C10086E06C
:101810008093C20030D5789482EC93E00E947318D4
:10182000CE0101960E94F71ECE0101960E94181F5C
:101830008A3F910510F409D9F7CF0E94C4030E9492
:10184000C6030E946B16CE0101960E94181F843FAA
:10185000914010F4FAD8F7CF0E94C8030E94CA033F
:10186000CE0101960E94181F8E3E924010F4EDD8D2
:10187000F7CF0E94CC030E94CE030E94021D80E994
:101880008093BC00CE0101960E94181F883F9240B1
:1018900010F4DBD8F7CF85EC8093BC00CE01019625
:1018A0000E94181F40917F0254E1459F900111242E
:1018B00028513C4F8217930710F4C7D8EFCF842FDD
:1018C0000E94391680915701B1D601E080917F02C4
:1018D0008F3FB1F4CE0101960E94181F81329340D0
:1018E00050F4CE0101960E94181F8139914068F58D
:1018F0000E94C2032CC0CE0101960E94F71E27C091
:101900002091B7023091B8028091EE029091EF02DF
:1019100028173907D1F00E94C4030E94C803CE01E2
:1019200001960E94181F8134964050F4CE01019612
:101930000E94181F8132934060F40E94CA030BC0BA
:10194000CE0101960E94F71E06C00E94C4030E94A9
:10195000C8030E94CC030E94D0030E94D11B002325
:1019600021F18FEB93E00E9473188091F6028111B0
:101970002FDA88EA93E00E94731883E993E00E94CB
:1019800073188BE793E00E9473188AE693E00E9435
:10199000731883E593E00E9473188CE393E00E9430
:1019A000731886E393E00E947318BED14ED80E944C
:1019B000D20386D48823A9F10E94CA032D9A88ED08
:1019C00091E00E94F71E8FED92E00E947318009143
:1019D000F7022091F5024091F6026091F9028091A0
:1019E000F8020E948B1D182FA2D4811109C085ED29
:1019F00092E00E9473180E94EB1D81E02BD502C07B
:101A0000812F07DA88ED91E00E94F71E6091BB02FA
:101A10007091BC028CE490E00E947020009159010A
:101A200001C000E08FE691E00E94F816811117C115
:101A30000E94AE04182F2D9A88ED91E00E94F71EA7
:101A40001C3009F481C080F4153009F4E0C018F4AA
:101A5000113049F1F2C01A3009F473C01B3009F09B
:101A6000ECC047DD6ADC6DC0123109F484C0A0F41B
:101A70001D3009F466C0113109F0DFC080E026D5C1
:101A80002EE835E047E454E063E778E187E195E04C
:101A900094D881E01BD54DC0143109F47AC01032BE
:101AA00009F44FC0CAC080917F028F3F09F43CC047
:101AB000109312010E94C60311D4811103C00E9429
:101AC000C80337C08AEA92E00E947318F9D38111E3
:101AD00021C00E9425050E94D11B8FE691E00E9443
:101AE000F81681110DC00E94AE0490ED980F9A3047
:101AF00018F4892F35D404C0833111F480E0AAD4BE
:101B0000D7D4882319F382EA92E00E94731880E008
:101B1000A1D40FC084E992E00E94731880E079D9C3
:101B200081E08093120105C08FE193E00E94731859
:101B300008C06091BB027091BC028CE490E00E94EE
:101B400070200091590187C080E0C0D480E193E00B
:101B50000E9473180E9425058FE691E00E94F816F6
:101B60008111F8CF8FE691E00E943A17833191F707
:101B700081E0ACD4E6CF9EE088E10FB6F894A8955A
:101B8000809360000FBE90936000F8940E94CE0393
:101B9000FDCF80E09BD482ED91E00E94731811E0AC
:101BA000113021F499E0A92EB12C03C083E6A82EB0
:101BB000B12CF12C8F2D90E0A816B90614F1612FED
:101BC0008F2D0E94A31690917F02891303C0C090AD
:101BD000780205C00E9411166C0197FD10C0612F9C
:101BE0008F2D0E9496188FEC91E00E94731860E090
:101BF0008C2D0E9496188CEC91E00E947318F3943F
:101C0000D9CF1F5F133061F681E060D424C082EB2E
:101C100094E00E94731861E087E591E00E945A17F2
:101C200087FD19C080915701863028F08CEF92E033
:101C30000E94731810C0FAD40EC08FE691E00E9483
:101C4000F816811103C00E94AE04F7CF8AEE92E02D
:101C50000E94731801E088ED91E00E94F71E8091C8
:101C6000EA01823039F41092EA0143DC66DB00912C
:101C700059012CC08091EA01813041F51092EA01AE
:101C80008091E401811106C06091F7028BE490E03D
:101C90000E94821F0E94C4030E94C8030E94CC03BA
:101CA0000E94CE0380E012D48091EA01811106C027
:101CB0003BD00E94D11B0E942505F6CF1092EA016D
:101CC00081E004D40E94D00380E040DA0E943D1CF1
:101CD000811103C00E94D11BF9CF80916602882335
:101CE00091F06091660288E692E00E942E1F8823A0
:101CF00041F0CDD9882311F082E028DA81E0809389
:101D0000E401109266021C9905C02D9A88ED91E0BD
:101D10000E94F71E88ED91E00E94181F81369A4EAE
:101D200008F4D4CD2D98D2CD80911801813099F04E
:101D300018F0823011F1089584E191E0309909C0E2
:101D40000E94181FC397E0F081E08093180184E19E
:101D500091E00C94F71E30990BC084E191E00E9451
:101D6000181F8132934060F082E08093180102C016
:101D7000109218018093EA01089530991092180189
:101D800008951F93CF93DF939091EC01981709F476
:101D9000B2C0C82F1FB7F8941092210190E088308C
:101DA000910508F0A5C0FC01EC5CFF4F8091780222
:101DB0000C94FC208F7780937802809178028F7E3C
:101DC0008093780216C080748093780280917802A4
:101DD0008068809378028091EB01882329F08091BC
:101DE000780280618093780281E08093260180935D
:101DF000250110927E027CC08F77809378028091BB
:101E000078028F7E73C08F778093780280917802FA
:101E10008F7E80937802109223011092220181E03C
:101E2000809321018DEE91E0DFD71092210260C0F6
:101E30008F7780937802809178028F7E80937802EA
:101E40008091780280618093780280917802886026
:101E50008093780281E0809382028093250148C0BC
:101E600087FF0FC0809178028F77809378028091EE
:101E700078028F7E809378028091780280618093CF
:101E80007802809178028062809378028091780253
:101E900082608093780280917802846080937802D7
:101EA00080917802816080937802D1E0D093000124
:101EB0008DEE91E099D783E292E096D710922102BD
:101EC0000E94CF18D0938202D0932601D09325018F
:101ED0000FC08F7D8093780280917802877F06C043
:101EE0008F7D80937802809178028D7F8093780235
:101EF000C093EC011FBFDF91CF911F9108956AD667
:101F000060912301809122011ED780937E028091EF
:101F10007F02869568D65ED68DE191E00E94F71E1D
:101F20008091810281110AC082E08093210183EABD
:101F30005AD650D68DE191E00C94F71E8091810223
:101F40001092810210927E02833021F08091230151
:101F5000823010F085E015CF08951F93CF93DF9363
:101F600000D0CDB7DEB7CE01029619D7882309F489
:101F700044C08091EC01873019F481E090E008D8EA
:101F80008A81853A01F128F4803850F0833A89F04B
:101F900034C08A3A31F18C3A51F1863A71F519C060
:101FA0009091EC01911129C0880F80937E0281E00D
:101FB00023C08091EC01813021F08091EC018230CE
:101FC000E1F483E019C08091EC018230B1F484E047
:101FD00013C08091EC01823081F483E08093210171
:101FE0000CC08091EC01882341F085E005C0809110
:101FF000EC01863011F480E0C4DEE091EC018E2F1C
:1020000090E08830910508F0E3C0FC01E45CFF4FEC
:102010000C94FC208DEE91E0EBD68111D9C080911B
:102020002101823009F4D4C08DEE91E023D7182F1E
:10203000809123018F5F8093230180912101813062
:10204000A9F480912301813019F4109322010DC06D
:1020500080912301823051F480912201912F2AE056
:10206000829F900D11249093220149DF80912101DC
:10207000833009F0ADC080EB810FB5D58DE191E0E3
:102080000E94F71EA5C080917B02882349F08091B1
:102090008202882319F082E011D402C082E0FBD3CF
:1020A0008DEE91E0A5D681110CC080919002811136
:1020B00008C08DEE91E0DED680938E0281E08093A1
:1020C000900280912202811103C08091260104C0F8
:1020D000813031F480918202BE016F5F7F4F14C066
:1020E000823071F480918202882319F08091260158
:1020F00002C080E090E0BE016F5F7F4F817004C03E
:10210000BE016F5F7F4F81E00E94DA1880918F02DD
:10211000883039F460918D0283E292E08ED610927D
:102120008F02809182028093250110912601809177
:1021300090028823A9F080919002813089F08091EB
:102140005702811104C089818093250109C0813023
:1021500011F4198105C0823019F4198110932501F9
:1021600080E0112311F0AAD301C095D3809183029E
:10217000882371F18091640281112AC0809100014D
:10218000112379F0823021F080910001833011F425
:102190008CE905C08091000181111AC08AE923D51C
:1021A00017C0882321F080910001813011F483E968
:1021B000F6CF80910001823059F486E9F0CF89E1B1
:1021C00091E00E94181F813A9F4010F080E0D9DD15
:1021D000809164028530F9F48DE191E00E94F71E50
:1021E00080918102811115C080916702863961F06A
:1021F00020F4833971F482E00AC08A3939F08C39CD
:1022000041F41092000105C083E001C081E0809399
:1022100000011092640280917E028823C9F08091AF
:1022200083028823A9F080916402882321F08091A1
:102230006402853069F48DE191E00E94181F8231BB
:10224000934030F089EACFD48DE191E00E94F71EEF
:1022500080917E02882341F08091EC01863021F04C
:102260008091EC01853009F4A8950F900F90DF91D3
:10227000CF911F91089514BC82E085BD80916E00BE
:10228000816080936E0080E8809378028091EB01FA
:10229000882329F0809178028061809378027FD72B
:1022A00080E06FDD8DEE91E09FD583E292E09CD5DA
:1022B0001092240181E080935702809322020895B6
:1022C0008091EC01833039F09091EC0181E0943001
:1022D00019F080E001C081E08170089580917F0253
:1022E0008F3F19F18091EC01882321F088E090E084
:1022F0000E94C80781E0809324019FB7F8948091E1
:1023000078028F7780937802809178028F7E809315
:102310007802809178028F7E809378029FBF82E05E
:1023200030DD1092240181E0089580E008958091CD
:10233000EC01833071F481E08093240185EA53D469
:1023400049D489EA50D484E01CDD1092240181E054
:1023500008959091EC0181E0943009F080E00895B7
:102360009091EC01923041F490912101992321F058
:10237000682F8DEE91E061C589E090E00C94C8076C
:10238000CF93DF93EC0183E292E032D5811106C056
:1023900083E292E06FD5888381E001C080E0DF9125
:1023A000CF910895CF93C82F682F8DEE91E045D53A
:1023B000882349F0CF3111F491E003C0CB3119F4F7
:1023C00093E090932102CF910895EF92FF921F9393
:1023D000CF93DF931F92CDB7DEB77C01CE0101967C
:1023E000CFDF182F882341F061E272E08981BFD0EE
:1023F000F7018083882391F3812F0F90DF91CF9194
:102400001F91FF90EF900895CF93DF9300D0CDB749
:10241000DEB79E012F5F3F4FAE014E5F5F4F61E21F
:1024200072E083D1811102C081E00CC06A818DEE1F
:1024300091E003D5882331F069816F3FA9F38DEED8
:1024400091E0FBD40F900F90DF91CF9108958DEE26
:1024500091E0CEC4CF939091EC01992339F1909102
:102460007E02911103C080E0CF918BCCC82F81E018
:10247000809324018091EC01853031F48CEAB3D350
:10248000A9D380E07EDC08C08AEAADD386E079DC9F
:1024900089E191E00E94F71E109224018091EC01E5
:1024A000863021F4CC2311F058DDF8CFCF91089578
:1024B0008091EC01882339F09091EC0181E0953016
:1024C00019F080E001C081E081700895CF93C82F9A
:1024D0008091EC01882341F08091EC01873021F05C
:1024E0008AE090E00E94C807CC2311F080E001C090
:1024F00087E0CF9146CC1F920F920FB60F92112416
:102500002F933F934F935F936F937F938F939F93FB
:10251000AF93BF93CF93EF93FF93809124018111E9
:1025200014C0C1E0C093240180916E008E7F80931F
:102530006E00789412DD84EB86BDC5BB80916E0081
:10254000816080936E0010922401FF91EF91CF91F2
:10255000BF91AF919F918F917F916F915F914F91BB
:102560003F912F910F900FBE0F901F901895FB0178
:102570008B3111F482E00BC08F3111F4108208C04E
:1025800090915A02992331F0811104C084E0808334
:1025900080E008959081292F2E7F20839670282F28
:1025A00030E0923029F4E0915C02F0915D020FC0BE
:1025B00080915A02882339F0943029F4E09158022E
:1025C000F091590204C0E0915E02F0915F02E20FC7
:1025D000F31F849108956670623029F4E0915C02E3
:1025E000F0915D020FC090915A02992339F0643046
:1025F00029F4E0915802F091590204C0E0915E0282
:10260000F0915F029FEB980F9A3120F490915B025A
:102610009111805E90E02491821731F031969F5F96
:102620009032C9F78FEF0895892F0895823099F17C
:10263000B0F4813009F063C024E935E030935F02E3
:1026400020935E0224E536E030935D0220935C0225
:10265000109261021092600210925A0263C083309D
:1026600091F1843009F04BC084E995E090935F02CA
:1026700080935E0284E396E090935D0280935C0217
:1026800084E196E09093590280935802109261027F
:102690001092600230C084EB95E090935F028093CB
:1026A0005E0284EF95E090935D0280935C0284ED7E
:1026B00095E0909359028093580281E080935A02EA
:1026C00010925B02089584E995E090935F028093F5
:1026D0005E0288E996E090935D0280935C0288E751
:1026E00096E0909359028093580284E796E0909385
:1026F00061028093600281E080935A0213C084E9F2
:1027000095E090935F0280935E0284E795E090935A
:102710005D0280935C02109261021092600210923E
:102720005A0281E080935B020895CF92DF92EF928C
:10273000FF920F931F93CF93C82F7B016A018901EA
:102740008FEFF9018083CF3029F48BE1F60180838C
:1027500083E012C0CE3039F48FE1F601808381E04E
:10276000F70180834AC080915A02882341F0C0312A
:1027700031F4F601108285E0F70180833DC0E091DD
:102780006002F0916102309759F08491882341F002
:102790008491C81303C03196C49102C03296F5CF1C
:1027A000F701608160FD08C060E08C2F14DFF80144
:1027B00080838F3F89F609C0C731B1F38C2F0BDFBF
:1027C000F60180838F3FC1F4EFCF62E08C2F03DFEF
:1027D000F80180838F3F09F0B8CF80915A028111B0
:1027E00002C080E00AC064E08C2FF5DEF80180832F
:1027F0008F3F09F0BECFF5CF81E0CF911F910F91B0
:10280000FF90EF90DF90CF9008958A3989F028F4F7
:10281000833941F0863931F011C08C3949F0893A59
:10282000C9F10CC081E080937B021092820208956E
:1028300081E080937B02809382020895E0912A01D7
:1028400091E09E0F90932A01F0E0E55DFE4F8083BA
:1028500080912A01843148F080912901811102C0C0
:1028600083E10CC010922A010BC090912A01809143
:102870002901981305C080912A01815080932A0173
:1028800080917802806480937802809178028F77BB
:102890008093780208955FB7F8944091780221E020
:1028A00030E0B90102C0660F771F8A95E2F7CB01CD
:1028B00080958423809378025FBF08954FB7F89482
:1028C0005091780221E030E0B90102C0660F771F15
:1028D0008A95E2F7CB01852B809378024FBF08954C
:1028E0001F920F920FB60F9211242F933F934F9385
:1028F0005F936F937F938F939F93AF93BF93EF9368
:10290000FF9380916202909163020196909363021B
:10291000809362028091B900887F803609F4CAC032
:10292000B0F5883209F48DC090F4803109F475C097
:1029300038F4882309F4A9C0883009F459C035C196
:10294000883109F46EC0803209F472C02EC180341F
:1029500009F429C160F4803309F473C0883309F0A5
:1029600024C1809180028F5F80938002D8C080351F
:1029700009F47EC0883509F47BC0883409F015C19C
:1029800085E08093640281E0809381027FC0883972
:1029900009F4E8C0C0F4883709F4C3C038F48836B5
:1029A00009F483C0803709F4C1C0FFC0883809F436
:1029B00094C0803909F4C5C0803809F0F6C0809110
:1029C000BB0023DFF0C0803B09F4E1C038F4803A5B
:1029D00009F487C0883A09F4DFC0E7C0803C09F4F5
:1029E000DEC0883C09F4DBC0883B09F0DEC0D4C0FF
:1029F00080916402843029F41092BB001092270168
:102A000009C080916402813041F080917E02816032
:102A10008093BB0010928302C8C080917E028E7F9B
:102A2000F7CF809164028430B1F0809167021DC0BD
:102A300085E08093640280916402843021F181E01A
:102A400031C0809164028430D9F490912701809143
:102A500066029817A8F4E091270181E08E0F809319
:102A60002701F0E0E859FD4F80818093BB009DC0B5
:102A70008091BB008093280180916402823051F0E4
:102A800085E0809364021092810281E0809383024A
:102A900085E58CC08091280187FD41C085E0809349
:102AA000640283E080938102F0CF809180028F5F87
:102AB00080938002A89510927A0210927902109267
:102AC0008302109227018091BB0090917C0291506B
:102AD0008695892380937D0266C08091BB0095DE38
:102AE0005EC081E08093830290912701809166020D
:102AF000891720F4809127018093660280916402F7
:102B0000833069F080916402813049F080916402E1
:102B1000823029F080916402843009F046C085E655
:102B200045C0809180028F5F8093800210927A026C
:102B3000109279021092830210922701109266027D
:102B400034C08091BB0090912701903170F5E091E5
:102B5000270191E09E0F90932701F0E0E859FD4F87
:102B6000808323C08091BB0090912701903150F465
:102B7000E091270191E09E0F90932701F0E0E85942
:102B8000FD4F8083809127018093660208C0809169
:102B900080028F5F809380028091780239CF81E03C
:102BA00080938302ABCF85E001C085E48068809389
:102BB000BC00FF91EF91BF91AF919F918F917F9159
:102BC0006F915F914F913F912F910F900FBE0F909A
:102BD0001F90189580916402882321F080916402EF
:102BE0008530C1F70895CF93C82FF4DF9FB7F894CD
:102BF000C0936702C7FF02C081E001C082E08093FA
:102C0000640280918302882349F08091BC0084FD96
:102C1000FCCF8091BC0080628093BC009FBFCF91AD
:102C20000895CF93DF93D82FD5DFC0917E02D09344
:102C30007E0283E08093640280918302882349F0BE
:102C40008091BC0084FDFCCF8091BC0080628093A9
:102C5000BC00C0DFC0937E0280918102811104C05C
:102C60008091280190E002C08FEF9FEFDF91CF911C
:102C70000895CF939EEF980F9B3DE8F480FD1BC015
:102C8000C82FCFDF97FF17C09FB7F894C093BA0043
:102C900080916502882329F08091BA008160809339
:102CA000BA008091BC0080648093BC00C0937F0216
:102CB0009FBF81E00EC09FB7F8941092BA00809138
:102CC000BC008F7B8093BC008FEF80937F029FBFFF
:102CD00080E0CF91089581E0809383021092640296
:102CE00010928102109280021092290110922A0102
:102CF000109263021092620210927A02109279028C
:102D0000109267028093B90087E18093B8008091A8
:102D10007F028E7F8093BA00109266021092270184
:102D200080916502882329F08091BA0081608093A8
:102D3000BA0084E88093BC0080917C028150880FA7
:102D40008093BD000895613031F48A3080F4882387
:102D500051F08C5906C0623051F4882331F084362A
:102D600030F4880F08958CED089588EC08958FEF66
:102D70000895FB019EEF980F9B3D10F010820DC04F
:102D80008695853630F091E090838E3631F084560A
:102D9000089592E09083843609F480E0089530919C
:102DA000290120912A013217D9F0E091290121E06F
:102DB0002E0F20932901F0E0E55DFE4F2081FC01FC
:102DC000208380912901843110F010922901909183
:102DD000290180912A01981305C086E05CDD02C0BC
:102DE00080E0089581E00895FC0112AA13AA0895D5
:102DF000FC0123A992A981E0291380E00895FC0138
:102E000092A9913310F49F5F01C090E083A98917C4
:102E100089F092A9913320F49F5F913321F001C092
:102E200090E09F5F01C090E023A981E0291719F08D
:102E300080E001C081E081700895FC0182A98133A6
:102E400010F48F5F01C080E093A9891789F09FB7C4
:102E5000F89482A9DF01A80FB11D6C9382A9813378
:102E600010F48F5F01C080E082AB9FBF81E00895C6
:102E700080E00895FC012FB7F89483A9DF01A80F23
:102E8000B11D8C9193A9913310F49F5F01C090E024
:102E900093AB2FBF0895FC0192A983A9981728F03E
:102EA00092A983A9981B892F089582A993A98E5C62
:102EB000891B08950F931F93CF93DF938C01D62F17
:102EC000C0E00E948E0590ED980F9A3090F4F801C2
:102ED000CC2351F09081990F292F220F220F920FAE
:102EE0009053890F808301C09083CF5FCD13E9CFCA
:102EF0000EC093ED980F933050F08B3241F08D332C
:102F000031F0882331F08930E1F2CC23D1F28C2FDB
:102F100001C08FEFDF91CF911F910F910895CF9353
:102F2000DF93EC010E948E058033D9F040F48D329E
:102F3000C1F0D0F4882381F08B32A1F70FC08A361C
:102F400069F028F4813351F08D3371F0EBCF8E3678
:102F500041F0893719F0E6CF80E007C081E088832F
:102F600001C0188282E001C081E0DF91CF91089515
:102F7000FF920F931F93CF93DF938C01F62ED0E037
:102F8000C0E00E948E05811108C0CC2309F444C022
:102F9000F801EC0FF11D108242C0893091F38032AC
:102FA000C0F4C11111C0DD2361F383ED8D0F8330B7
:102FB000A8F1DB3299F1DD3389F1F801D03239F033
:102FC000D083118282E02BC0F801EC0FF11D10823A
:102FD000F9CF8332B1F2803221F4C11114C0D0E2B2
:102FE000D0CFCF1570F6C11111C0D11102C0D82FAA
:102FF000C8CFF801D03219F48083C1E0C2CFD083AA
:103000008183C2E0BECFCF1508F0BBCFF801EC0F33
:10301000F11D8083CF5FB5CF80E001C081E0DF91FB
:10302000CF911F910F91FF9008951F93CF93DF933E
:1030300000D0CDB7DEB7BE016E5F7F4F80917F02BB
:1030400098DE898387E197E04ED06A8189816ED0CE
:1030500081E397E048D062E0CE0101962BDF87FD47
:103060003AC0811108C0BE016E5F7F4F80917F0220
:1030700080DE898301C08A8380917C028195998159
:10308000892389838AE097E02ED06A8189814ED096
:1030900080E20E94ED046A81898155DEEADD182F05
:1030A0008823A9F08CE397E01ED084EE96E01BD035
:1030B0008091EB014CD081E397E015D08BEE91E04D
:1030C0002EDF882341F08CE397E00DD005C088EB1C
:1030D00096E009D0B0CF10E0812F0F900F90DF91D4
:1030E000CF911F910895CF93DF93EC01FE0184915E
:1030F000882331F0FE0184910E94ED042196F6CFE1
:10310000DF91CF910895CF93DF93EC0189918823CC
:1031100019F00E94ED04FACFDF91CF9108958A3023
:1031200010F4805D01C0895A0C94ED04CF93C82F30
:1031300080E0CA3018F08F5FCA50FBCF811102C007
:10314000623014F06150F2DF8C2FCF91E8CF811103
:1031500003C082E497E002C085E497E0C4CF8823EF
:1031600069F080913F01909140018F3F9105B4F447
:1031700080913F019091400101960CC080913F01E8
:1031800090914001181619064CF480913F019091DE
:10319000400101979093400180933F010895109260
:1031A0008F021092900280E890E09093400180930B
:1031B0003F0108950F931F93CF93C82F8B018091E8
:1031C0009002883028F4823078F5813029F055C09B
:1031D000883009F445C051C080918F02882329F0BE
:1031E00080918F02883009F048C084E892E020D6B0
:1031F000CC9708F442C0F801108289E892E0F7D534
:1032000082E08093900280918E028F7180938E0273
:1032100080918E02880F880F80938E0280918E029B
:10322000836080938E0229C080918E02881F882738
:10323000881FFB01808389E892E0FAD54497E8F083
:1032400064E170E089E892E0DFD580918E02880F1A
:1032500080938E02809190028F5F809390020DC0C8
:1032600081E0FB01808389E892E0E2D54E9728F067
:1032700089E892E0BCD51092900280918F0287304D
:1032800040F4823008F04EC0882379F0813001F19B
:103290009FC0873009F454C0883009F099C084E891
:1032A00092E0C6D5039708F493C0C11191C084E899
:1032B00092E09DD581E080938F0210928D0280E88C
:1032C00090E09093400180933F011092880280C06B
:1032D0008C2F45DF80913F01909140018739910506
:1032E000F4F484E892E0A4D50B9708F471C08091BF
:1032F0003F0190914001803891058CF482E08093E9
:103300008F0280E890E09093400180933F0168E055
:1033100070E084E892E0CF911F910F9175C51092F3
:103320008F0256C084E892E083D5409708F450C0DD
:103330008C2F15DF84E892E07BD5449740F548C098
:1033400084E892E075D5409708F442C08C2F07DFDF
:1033500084E892E06DD50F97D8F180918F02873085
:10336000B1F4CC23A9F120913F013091400181E0DB
:10337000203831050CF080E08093880288E080934B
:103380008F0284E892E0CF911F910F9130C5809118
:103390008D02880F80938D0280913F0190914001B2
:1033A000803891052CF080918D02816080938D0290
:1033B00080918F028F5F80938F0264E170E084E8D8
:1033C00092E022D580E890E09093400180933F0105
:1033D000CF911F910F910895209A289808952098D1
:1033E0002898089583B181700895579A5F98089539
:1033F00057985F980895CF93DF93FC0194A19111A2
:1034000006C071836083448381E084A325C085A1C5
:1034100081111FC02081318162177307E8F0E90133
:10342000C90FD11DC617D707B8F0D901A07E909655
:103430006A177B0788F4DF01A60FB71FA21BB30B27
:1034400014964C936C177D0730F0621B6F5F64A37A
:1034500002C080E001C081E0DF91CF9108958091AA
:10346000BF028F3F09F05CC02091C4028091C3026B
:1034700030E090E001962817390709F04FC010920C
:10348000C3028091F0028130A1F48091C00280FDDE
:1034900043C08FB7F89491EA9093C0022CEC32E0CD
:1034A0003093C2022093C10290E29093C3028FBF77
:1034B00035C0823099F51092EC028091B5028823D4
:1034C00049F16FB7F8948091910290919202909394
:1034D000C9028093C8025091B502252F30E02F5FBA
:1034E0003F4F42E0842F90E0281739075CF0FC0141
:1034F000E853FD4FDC01AF56BD4F12968C9182838D
:103500004F5FF0CF5093EC021092B5021092ED0293
:103510006FBF04C01092F0021092ED021092BF0231
:1035200008958091F0028823C9F19091BF02911112
:1035300035C09091ED02911131C0823021F480911B
:10354000EC02882359F19FB7F89481E08093ED0253
:103550008091C8022091C9022093CA028093CB02B5
:103560008091F002813059F480EA8093C0022AEC05
:1035700032E03093C2022093C10282E00CC080EAA4
:103580008093C0022AEC32E03093C2022093C10241
:103590008091EC028E5F8093C3029FBF0895CF930A
:1035A000DF93DC01EC914E2F50E04833510508F0D9
:1035B000F5C0EC01FA01EC5BFF4F1EC68C8188233D
:1035C00009F4ECC0188687E08F8389818E831D8281
:1035D00003DF81E0E2C006DF8111E0C082E0DDC0F0
:1035E00004DF83E0DAC04F9B61C0D8C08E812F8199
:1035F00090E002C0959587952A95E2F780FF02C07A
:10360000EEDE01C0E9DE8BE0C8C08E812F8190E044
:1036100002C0959587952A95E2F780FF07C0E2DE04
:10362000882309F4BBC0E4DE8CE0B7C0DBDE811187
:10363000B5C0F9CF4F9BB2C08DE0AFC0D6DE8EE0F3
:10364000ACC04F99ABC08F81811102C084E1A5C08D
:103650008F8181508F832AC0C2DECADE85E19DC082
:103660004F9B9CC086E199C0BDDE882311F082E3A8
:103670000FC0EA81FB818885E80FF11D80818E8370
:1036800088858F5F888788858D8387E08F8387E132
:103690008883DF91CF91A9CE4F9980C098858C8186
:1036A000891708F460C0898180FD5FC08AE075C019
:1036B0008F81873009F41E8292DE9ADE8FE16DC021
:1036C0004F9B6CC080E269C08DDE882351F03F8142
:1036D0002E8181E090E001C0880F3A95EAF7822BB5
:1036E0008E8383DE81E259C04F9958C08F8181114A
:1036F00002C088E252C08F8181508F8336C0EA8138
:10370000FB8198858E81E90FF11D31978083988523
:103710008C81981710F460DE01C061DE89E23DC043
:1037200098858C81981730F45DDE811137C060DE9A
:103730008AE233C057DE8111FACF30C04F9B2EC0D2
:103740008BE22BC052DE8CE228C04F9927C047DEA7
:1037500088858F5F888787E08F8388858D839885AC
:103760008C81891710F482E318C08EE116C034DE14
:1037700083E313C037DE811111C084E30EC038DE4D
:1037800085E30BC04F9B0AC086E307C028DE87E3B2
:1037900004C028DE882311F08FEF8883DF91CF915A
:1037A00008958FEB92E0FBCE1ADE22DE1092F0023B
:1037B0001092EC021092ED021092B5021092B60235
:1037C000EAECF2E0A3E9B2E095E587E791938D9307
:1037D00022E0EC3EF207D1F70895FF920F931F937A
:1037E000CF93DF93EC01F62E042F8091F00281300D
:1037F00011F41092F00233DE8091F002811107C0C3
:1038000082E08093F0021092EC021092ED02688147
:1038100079814F2D88EC92E0EEDD182F882381F01E
:10382000011102C011E022C08091C8029091C9022A
:103830008F61288139812817390791F472DE10C011
:103840008091BF02811101C06CDE688179814F2DAA
:1038500081E992E0D0DD182F882341F0002311F395
:103860008881998101969F7799838883812FDF9141
:10387000CF911F910F91FF9008958091F0028130B8
:1038800011F41092F0028091F002823071F4809174
:10389000ED02882311F0E3DD01C043DE81E0909169
:1038A000F002923019F480E0089581E00895EF92DB
:1038B000FF920F931F93CF93DF938C017B01D42F43
:1038C0008091F002823091F0CADD8091F002811186
:1038D00011C081E08093F002F80180819181807EA7
:1038E0009093C9028093C8021CDE08C0C6DF811114
:1038F000EBCF04C0C091ED02CC2311F0C0E033C087
:10390000F801808191819C01207E4091C8025091F4
:10391000C9024217530711F5841B950BFC01E653AE
:10392000FD4F8281F7018083DD23B1F0F8018081B2
:10393000918101969C013F7731832083807E9F7720
:103940002091C8023091C9028217930729F0909301
:10395000C9028093C802E5DDC1E005C03093C90209
:103960002093C802DEDD8C2FDF91CF911F910F9144
:10397000FF90EF900895CF93DF9300D01F92CDB7C3
:10398000DEB79B838A8340E0BE016F5F7F4FCE012D
:1039900002968DDF811102C004DFF5CF89810F907F
:1039A0000F900F90DF91CF9108951092BC0210926A
:1039B000BB021092B8021092B7021092EF0210925E
:1039C000EE021092F2021092F10240E06EEE81EFF0
:1039D00092E003DF811102C0E4DEF7CF4EDF8111F8
:1039E00002C0DFDEFBCF8EEF9FEF9093F202809359
:1039F000F1029093BA028093B9029093BE02809331
:103A0000BD0208951F93CF93DF93309B08C0C091F0
:103A1000BB02D091BC02CE3E8EEED80721F4DF91DE
:103A2000CF911F91C2CF10E0BCDECE01A4DF8A3A55
:103A300039F4111112C0D093B802C093B7020DC06F
:103A40008E3E61F4D093EF02C093EE0211110FC0CD
:103A5000D093B802C093B7020AC011E02196DF7775
:103A60008091BB029091BC02C817D907E9F605DF27
:103A7000811102C096DEFBCF111101C096DF8EEFDF
:103A80009FEF9093BA028093B9029093F2028093D1
:103A9000F1029093BE028093BD02DF91CF911F91FE
:103AA00008952091F1023091F2022E3F3F4F31F004
:103AB000682F6F7741E081EF92E08FCE08951F93DA
:103AC000CF93DF93282F6AE077D34091F102509192
:103AD000F2024E3F5F4FD9F0D82FC22F10E3180FDC
:103AE00041E0612F81EF92E078DE811102C059DE62
:103AF000F7CFC05D8AE0D89FC019112441E06C2F38
:103B000081EF92E06ADE811102C04BDEF7CFDF91D8
:103B1000CF911F910895EF92FF920F931F93CF9330
:103B2000DF93182FF62EE42ED22F8091EE02909183
:103B3000EF0201969F779093F2028093F10241E0A9
:103B40006AEA81EF92E049DEC82F8823B1F08E2D1A
:103B5000B6DF8EE2A6DF8F2DB2DF8EE2A2DF812FED
:103B6000AEDF80E29EDF8D2FAADF8AE39ADF802F0F
:103B7000A6DF8DE096DF8AE094DF8C2FDF91CF9176
:103B80001F910F91FF90EF90089540E06EEE81EF4E
:103B900092E023DE811102C004DEF7CF6EDE8111D8
:103BA00002C0FFDDFBCF40E06DED8EEE92E015DE52
:103BB000811102C0F6DDF7CF8091F1029091F202FF
:103BC0009093EF028093EE028EEF9FEF9093F202BC
:103BD0008093F1020895E8DD8EEF9FEF9093F2025B
:103BE0008093F102089549DE811102C0DADDFBCF36
:103BF0008091B7029091B8029093BA028093B90273
:103C00008EEF9FEF9093BE028093BD020895809146
:103C1000B9029091BA02029631F18091B902909165
:103C2000BA02A9DE2091B9023091BA028A3A31F47F
:103C30003093BE022093BD0281E008958E3E59F478
:103C40003093EF022093EE028EEF9FEF9093BA0233
:103C50008093B90208C02F5F3F4F3F773093BA027D
:103C60002093B902DACF80E008958091B902909153
:103C7000BA02029689F08091B9029091BA027BDE75
:103C80008D3D51F02091B9023091BA028E3E31F44F
:103C90003093EF022093EE0280E008952F5F3F4FB4
:103CA0003F773093BA022093B9028A3A21F38C3CD1
:103CB00011F30895EF92FF921F93CF93DF9300D0FB
:103CC000CDB7DEB74091BD025091BE024E3F8FEF9F
:103CD000580709F44EC05A8349838091B7029091E6
:103CE000B8024817590749F001969C013F7781E0D7
:103CF0002417350719F080E001C081E0182F1170FA
:103D000086DF882329F0E090BD02F090BE0204C057
:103D1000E090EE02F090EF02B0DD811102C041DDD3
:103D2000FBCF89819A8127DE8A3A19F08BE00E94C5
:103D3000C80740E06CECCE0101964FDD811102C056
:103D400030DDF7CF1123A9F0F092B802E092B7026C
:103D50008091BB029091BC029C012C503E4F2E15CD
:103D60003F0518F0E816F90620F4F092BC02E09244
:103D7000BB020F900F90DF91CF911F91FF90EF90BA
:103D800008957BDD811102C00CDDFBCF8EEF9FEF2C
:103D90009093BA028093B9029093BE028093BD02C1
:103DA000089582E08093B00083E08093B1008FEBB0
:103DB0008093B300E0E7F0E0808182608083089523
:103DC0001F920F920FB60F9211248F939F938091A1
:103DD000F3029091F40201969093F4028093F3021F
:103DE0009F918F910F900FBE0F901F9018952FB736
:103DF000F8944091F3025091F402FC015183408306
:103E0000138212822FBF0895FC0180819181860F59
:103E1000971F91838083828193818617970718F477
:103E2000138212820895861B970B938382830895D1
:103E3000FC012FB7F8948091F3029091F402408135
:103E40005181841B950B2FBF22813381281739079D
:103E500010F493838283828193810895FC016830FA
:103E6000F0F080818336D9F481818C36C1F482816F
:103E70008B36A9F483818093F80284818093F902C0
:103E800085818093F60286818093F50287818093F5
:103E9000F702683031F080858093FA0202C080E03A
:103EA000089581E008959091FD02981730F4809371
:103EB000FD027093FC026093FB0208951092FD02D4
:103EC0008FEF90E09093FC028093FB021092FE0231
:103ED00008951F93CF93DF93EC01162F93D1811791
:103EE00069F0612FCE0196D1CE018CD1181731F037
:103EF000BE0184E0DF91CF911F91D5CFDF91CF91AB
:103F00001F9108951F93CF93DF93EC01162FE1DFEC
:103F1000612FCE0180569F4FDCDF612FCE01805C88
:103F20009E4FDF91CF911F91D4CFBF92CF92DF925E
:103F3000EF92FF920F931F93CF93DF938C01B62ED6
:103F400061D1C82F680180EAC80ED11CC6015AD1C0
:103F5000D82F780180ECE81A8EEFF80AC70152D109
:103F6000CD1303C0C8130AC007C0DF3F69F48F3FF9
:103F700059F46C2FC801C6DF8C2F20C0CF3FD9F079
:103F8000B70182E090DFF5CFC81302C0B601F9CFC8
:103F9000D81309C060EA70E082E085DF6D2FC801A8
:103FA000B1DF8D2F0BC0B80183E07DDF81E080930E
:103FB000FE028B2D03C08F3FE1F2E2CFDF91CF9164
:103FC0001F910F91FF90EF90DF90CF90BF900895D9
:103FD0004F925F926F927F928F929F92AF92BF9219
:103FE000CF92DF92EF92FF920F931F93CF93DF93C5
:103FF0004C018B01742E79011092FE02662EC42FA3
:10400000D0E05B01C12CD12C442443945C2CCC1611
:10401000DD06A1F0F701EC0DFD1D6491C601880DD0
:10402000991D83DFF50180838F3710F04092FE02E7
:104030008FEFA81AB80A8081811107C08091FE0213
:10404000882399F0F701D80108C0AFEFCA1ADA0A3D
:104050008091FE028823D1F2F1CF8A2F861987152D
:1040600030F484918D933196F8CF571420F0C00F1F
:10407000D11F21971882DF91CF911F910F91FF904F
:10408000EF90DF90CF90BF90AF909F908F907F90F8
:104090006F905F904F900895FF920F931F93CF936F
:1040A000DF938C01C62FF42ED22F3FDF8F1510F037
:1040B000D81738F4B80181E0F6DE6C2FC80122DF92
:1040C0008C2FDF91CF911F910F91FF90089521E0E8
:1040D00040E0E2DF91E0813009F090E0892F08951F
:1040E0001F93CF93DF93EC01162F672F01960ADF02
:1040F000612FCE01DF91CF911F9104CFBF92CF925C
:10410000DF92EF92FF920F931F93CF93DF93EC0117
:104110006B017A0189011092FE026D2D019605DF77
:10412000B82E6C2DCE0101DF9091FE02911110C0CE
:1041300090E09B298E159F0518F00817190738F491
:10414000BE0181E0B0DEB601CE01CADF01C06C0164
:10415000C601DF91CF911F910F91FF90EF90DF90FB
:10416000CF90BF900895CECECF92DF92EF92FF9284
:104170001F93CF93DF936C017B0110E0C42FD0E03D
:104180002197812F90E08C179D075CF060E08C0DEB
:104190009D1DDF91CF911F91FF90EF90DF90CF9009
:1041A000B1CEF701E80FF91F6081662379F38C0D1A
:1041B0009D1DA8DE1F5FE5CF991B79E004C0991F04
:1041C000961708F0961B881F7A95C9F78095089571
:1041D000AA1BBB1B51E107C0AA1FBB1FA617B7072D
:1041E00010F0A61BB70B881F991F5A95A9F7809549
:1041F0009095BC01CD010895EE0FFF1F0590F4913D
:10420000E02D0994F999FECF92BD81BDF89A9927C6
:1042100080B50895262FF999FECF1FBA92BD81BDB2
:1042200020BD0FB6F894FA9AF99A0FBE0196089538
:04423000F894FFCF30
:0E423400011F1C1F1E1F1E1F1F1E1F1E1F000E
:00000001FF
