:100000000C9415030C9432030C9432030C943203B9
:100010000C9432030C9432030C9432030C94E10BD5
:100020000C9432030C9432030C9432030C9462034C
:100030000C9432030C9432030C9432030C9432036C
:100040000C948F160C9432030C9432030C943203EC
:100050000C9432030C9432030C9432030C9432034C
:100060000C94DC0C0C943203202223252628292A08
:100070002C2D2F3031323435363738393A3B3B3C32
:100080003D3D3E3E3E3F3F3F3F3F3F3F3E3E3E3D8C
:100090003D3C3B3B3A3938373635343231302F2D01
:1000A0002C2A292826252322201E1D1B1A18171644
:1000B000141311100F0E0C0B0A090807060505048E
:1000C0000303020202010101010101010202020314
:1000D00003040505060708090A0B0C0E0F1011137F
:1000E000141617181A1B1D1E5F5F5F69746C785F0A
:1000F0004544313030302D50524F544F5F5F5F4692
:10010000656220313520323032305F5F5F31393AFD
:1001100030303A35325F5F5F3339315F5F5F000DFA
:100120000A766F67656C2071756178207A776963EC
:100130006B74206A6F686E797320706665726420D4
:1001400062696D0D0A73796C7669612077616774F5
:1001500020717569636B2064656E206A7578206212
:1001600065692070666F727A6865696D0D0A7072D4
:10017000616C6C20766F6D20776869736B7920668F
:100180006C6F6720717561782064656E206A657494
:10019000207A752062727563680D0A6A65646572FB
:1001A000207761636B657265206261796572207684
:1001B000657274696C67742062657175656D207A0B
:1001C000776F207066756E64206B616C6273686116
:1001D00078656E0D0A6672616E7A206A61677420B6
:1001E000696D206B6F6D706C6574742076657277C5
:1001F0006168726C6F7374656E20746178692071C8
:100200007565722064757263682062617965726ECB
:100210000D0A626569206A6564656D206B6C75679F
:10022000656E20776F727420766F6E20736F6B72BD
:100230006174657320726965662078616E7468699F
:10024000707065207A796E697363683A20717561A0
:10025000747363680D0A31323334353637383930C8
:100260002C2E3A2D2B3D2F28290D0A727972797286
:100270007972797279727972797279727972797226
:100280007972797279727972797279727972797216
:100290007972797279727972797279727972797206
:1002A000797279727972797279720D0A723479364B
:1002B00072347936723479367234793672347936EA
:1002C00072347936723479367234793672347936DA
:1002D00072347936723479367234793672347936CA
:1002E0007234793672347936723479360D0A000DEB
:1002F0000A202B2B2B200D0A0A0A0A0029206E65E2
:10030000753A2020202020000D0A2066756E6B743F
:10031000696F6E20746173746520616D206D6F6408
:10032000756C2028616B742E20002B290D0A20206B
:10033000000D0A207761686C7A69666665726E20C6
:1003400065696E676562656E2C20656E6465206DFB
:100350006974202B2028616B742E3A20000D0A202E
:100360006175746F6D6174697363686520766F720F
:100370007761686C3F20616B7475656C6C3A202006
:10038000200029206E6575202830203D206175737E
:10039000293A202020202000617573000D0A206C6E
:1003A0006F6B616C62657472696562207761656804
:1003B0006C656E206D69743A2028616B742E200084
:1003C00029206E6575202830203D20617573293AFB
:1003D000202020202000617573000D0A206B6F6DB6
:1003E0006D656E646520616E7275666520737065FB
:1003F0007272656E206D69743A2028616B742E20CC
:10040000000D0A202B2B2B200D0A0A0A0A000D0AC8
:100410002065696E6661636865206B6F6E666967EB
:1004200075726174696F6E3F20202020000D0A20D4
:100430006B6F6E66696775726174696F6E20656453
:10044000313030302076657273696F6E2033393108
:1004500020646174756D204665622031352032302C
:100460003230000D0A6C6F630D0A0023740D6F208B
:10047000686E6D0A6C726769706376657A64627320
:1004800079667861776A2375716B2323350D39207E
:10049000232C2E0A29342338303A3D332B173F279B
:1004A00036232F2D32072337312823206F6B2E2040
:1004B00000206E65753A2020202020000D0A20774C
:1004C00065697465726C656974756E67656E2061C7
:1004D0006277656973656E3F20616B7475656C6CDE
:1004E0003A2000207363686F6E20766572676562DC
:1004F000656E206F64657220756E6775656C7469D2
:10050000672C20616E6465726520776165686C6533
:100510006E21000D0A2070727565666520000D0A57
:100520002064757263687761686C20616B747565AF
:100530006C6C3A20000D0A2073706572727A6569DE
:100540007420776F6368656E656E642D61626861A3
:10055000656E6769673F20616B7475656C6C3A20E6
:10056000000D0A202E2E2E206269733A200020767C
:100570006F6E3A20000D0A2073706572727A656999
:100580007420000D0A207A656974656E20766965AD
:10059000727374656C6C6967206F686E6520707526
:1005A0006E6B7420756E64206B6F6D6D6120656974
:1005B0006E676562656E00202020200D0D0A002008
:1005C0006164726573736520006665686C6572634B
:1005D0006F64652000736368726569626665686C44
:1005E0006572007363687765726572206C65736508
:1005F0006665686C6572007761726E756E67206CF7
:100600006573656665686C657200696E666F206902
:100610006E697469616C697369657274000D0D0AA5
:1006200020656570726F6D20000011241FBECFEF32
:10063000D4E0DEBFCDBF11E0A0E0B1E0E6EBF9E32E
:1006400002C005900D92A230B107D9F712E0A2E0E6
:10065000B1E001C01D92AE32B107E1F70E948507FB
:100660000C94D91C0C94000010920201109203010A
:100670001092250110922401109280008AE080934C
:100680008100109282008FE890E09093890080931F
:100690008800EFE6F0E0808182608083089580E644
:1006A00080937C0086EC80937A0080917A0086FDAE
:1006B000FCCF80917A00806180937A0081E0809302
:1006C0007E0008951F920F920FB60F9211248F9300
:1006D0009F93EF93FF93909124018091790080582C
:1006E000E4E0F1E0E90FF11D80839F5F9093240126
:1006F000809124018F718093240190910201809157
:100700000301890F80930201809102018F7780930A
:10071000020180910201E8E6F0E0E80FF11DE491AA
:10072000E5B9EAE7F0E0808180648083FF91EF9192
:100730009F918F910F900FBE0F901F901895BF92B1
:10074000CF92DF92EF92FF920F931F93CF93DF939D
:10075000B0907801BB2029F180917C01882309F1B8
:1007600087E080930301E091660110917901009187
:10077000740120917701F0906201B0915D01909138
:100780006501D090760130915E01409175017091C4
:100790006301E090640160912501CC24C8E2D0E0BF
:1007A00078C085E08093030181E080937A01DBCFFC
:1007B000E62FF0E0EC5FFE4FE0816F5F6F714E2F30
:1007C000552747FD5095892F992787FD9095481B00
:1007D000590B8DE9280290011124F7E50F02C001A1
:1007E0001124280F391FCA01A5E0880F991FAA9567
:1007F000E1F7840F951F280F391F220F232F221F87
:10080000330BA22F2AE9B202C0011124BF2DFDEE45
:10081000BF0290011124820F931F4C9F90014D9FA6
:10082000300D5C9F300D1124820F931F880F892F8C
:10083000881F990B982F8A2F865A853B40F49B3549
:1008400034F4963A24F0112321F0115002C018E23A
:1008500002C0112311F0599A01C05998492F47FD40
:1008600041953A2F37FD319534173CF4723318F027
:10087000EE24E39407C07F5F05C0772311F4EE24D4
:1008800001C07150C394202F0A2FBF2DF92E9D2D2A
:10089000DE2E80912401681709F08ACFE09366016B
:1008A000109379010093740120937701F092620113
:1008B000B0935D0190936501D092760130935E0113
:1008C0004093750170936301E09264016093250188
:1008D000EE2051F021E020937B0110927A0180916B
:1008E0005F01882349F50BC080917A01882321F0AC
:1008F00081E080937B0110C010927B010DC080913C
:100900006701909168018C0D911D35E0803093074F
:10091000C0F020935F0110C080915F01882361F0D7
:1009200080916701909168018C0D911DB9E1803033
:100930009B0738F010925F011092680110926701D6
:1009400004C09093680180936701BB2039F08091C7
:100950007C01882311F45C9A01C05C9880915F014E
:10096000882389F08091960190917B0184FF06C0D5
:10097000992311F45A9A07C05A9805C0992311F483
:100980005B9A01C05B98DF91CF911F910F91FF900F
:10099000EF90DF90CF90BF900895CF92DF92EF92CB
:1009A000FF920F931F93DF93CF93CDB7DEB72897B6
:1009B0000FB6F894DEBF0FBECDBF8E010F5F1F4F85
:1009C000C8010E94F80BB5E0EB2EF12CEC0EFD1ED9
:1009D000C7010E94F80BCC24C394D02E012F1E2DEA
:1009E000EF2CC0927801C0927C010E949F038091FD
:1009F0005F01882321F48D2D902F0E94F80B812F09
:100A00009E2D0E94190C89559B4148F01092780147
:100A100081E080937C010E949F0380E008C08D2DBF
:100A2000902F0E94190C8C529140D8F281E02896A8
:100A30000FB6F894DEBF0FBECDBFCF91DF911F91EF
:100A40000F91FF90EF90DF90CF900895EF92FF927B
:100A50000F931F93DF93CF9300D000D0CDB7DEB7B5
:100A600080915F01882331F080917801882311F40F
:100A70000E94CD048E010F5F1F4FC8010E94F80B2A
:100A8000EE24E394F02E012F10927801E0927C0185
:100A90000E949F0380915F01882321F08F2D902F6A
:100AA0000E94F80B8F2D902F0E94190C845F9140AB
:100AB00058F30F900F900F900F90CF91DF911F91EF
:100AC0000F91FF90EF900895DF93CF9300D000D067
:100AD000CDB7DEB77C0180E88093BC008E010F5F4C
:100AE0001F4FC8010E94F80BDD24BB24C02E012F2C
:100AF00091E0492E512C4E205F2082E0682E712C0F
:100B00006E207F2014E0812E912C8E209F2028E0E3
:100B1000E222FF2402C0BB24B394A8958C2D902F11
:100B20000E94190C81599140F0F08C2D902F0E9459
:100B3000F80B319B05C084E08D1568F3D394EDCF9D
:100B4000DD2059F3DA9449F7BB2039F3F8942EE00D
:100B500088E190E00FB6F894A895809360000FBEEE
:100B600020936000FFCFBB20F1F48C2D902F0E94CA
:100B7000190C893C9105B8F04114510411F0599AAF
:100B800001C059986114710411F05A9A01C05A9821
:100B90008114910411F05B9A01C05B98E114F10497
:100BA00029F05C9ABACF59985A985B985C98B5CF5F
:100BB000FF920F931F93DF93CF9300D000D0CDB758
:100BC000DEB7599A80E00E94CB1681E080937C01C9
:100BD000809178018823A1F40E94CD048E010F5FDB
:100BE0001F4FC8010E94F80BF02E012F02C00E9477
:100BF0009F038F2D902F0E94190C845F9140B8F3B2
:100C000083E694E00E94B91702C00E949F0380917E
:100C10005F018823D1F70E94260581E00E94CB1650
:100C200059980F900F900F900F90CF91DF911F91D7
:100C30000F91FF900895AF92BF92CF92DF92FF92F3
:100C40000F931F93DF93CF9300D000D0CDB7DEB7C3
:100C5000F82ECE0101960E94F80B80E00E94CB1680
:100C6000FF2051F083E0F81639F082E0F81611F019
:100C700081E003C084E001C082E090E024EF31E035
:100C8000829F5001839FB00C929FB00C11242CE2E4
:100C900031E0829F6001839FD00C929FD00C112481
:100CA0008E010F5F1F4F0E942F0C80917F018823C0
:100CB00029F010927F010E94E6192FC00E949F0325
:100CC00080915F01882349F5C8010E94190CA8167C
:100CD000B90620F4C8010E94F80B09C0C8010E949F
:100CE000190CC816D90610F45C9A01C05C98809162
:100CF00084018823C1F26091840186E891E00E941A
:100D0000B118882339F082E0F81621F40E94831983
:100D1000882319F010928401C6CF5C9881E00E946C
:100D2000CB160F900F900F900F90CF91DF911F91E6
:100D30000F91FF90DF90CF90BF90AF9008951092E9
:100D40001B028093AC0181E08093AE0108C08091CA
:100D50007B016CE771E00E949D110E949F038091CE
:100D6000AE018823A1F708951092E6010E949F0327
:100D700080917B016CE771E00E949D118091AD0133
:100D8000883051F48091AB0165EE71E00E94D80F7C
:100D90001092AD01882321F480915F01882331F7FF
:100DA0000895DF92EF92FF920F931F93DF93CF93FB
:100DB00000D000D0CDB7DEB7E82E8E010F5F1F4FF9
:100DC000C8010E94F80B81E00E942B1381E0809300
:100DD0001B028093E601DD24D394F02E012F01C085
:100DE000EE240E949F030E942F0C80915F018823B4
:100DF00061F40E94E2160E94260502C00E949F0331
:100E00000E942E138823D1F356C00E942E138823EC
:100E100031F00E94260580E00E94E2164CC00E943C
:100E2000281380937C018091AE01823060F4809120
:100E30007B010E942B1307C087EE91E00E941B18D4
:100E40008F3109F0EE2487EE91E00E94CB178823C2
:100E500099F3EE2011F18F2D902F0E94190CDD20B7
:100E600019F428E833E102C024EF31E08217930738
:100E7000A0F081EB91E06BE10E94F41781EB91E02F
:100E80006BE10E94F41781EB91E062E10E94F4179C
:100E90008F2D902F0E94F80BDD248F2D902F0E9414
:100EA000190C895E934008F49CCF80917B018823C4
:100EB00009F496CF96CF0F900F900F900F90CF918F
:100EC000DF911F910F91FF90EF90DF900895DF93D6
:100ED000CF9300D0CDB7DEB765EE71E0AE014F5FC6
:100EE0005F4F9E012E5F3F4F0E940E10882341F0FE
:100EF00089810E949F068A818F3F11F00E949F0680
:100F00000F900F90CF91DF9108956F927F928F9203
:100F10009F92AF92BF92CF92DF92EF92FF920F9388
:100F20001F93DF93CF93CDB7DEB72A970FB6F89410
:100F3000DEBF0FBECDBF2FE088E190E00FB6F89482
:100F4000A895809360000FBE20936000519A529A3A
:100F5000539A549A209A219A229A239A249A259A4B
:100F60003898409839984198599A0E944F030E94A6
:100F7000111B0E94D20B10927701109274011092F3
:100F80005E0110925D011092620110927501109243
:100F90006501109276011092660110926401109220
:100FA000780110925F0111E010937C0110937B0196
:100FB0000E9434030E94301980E090E06EE342E02A
:100FC0002CED0E94741C8E7F80939D0110939A01DA
:100FD0001093830187E190E060E00E94991C809368
:100FE000AF0181E090E060E040E023E60E94741CE5
:100FF0008093600188E190E068E540E023E60E948C
:10100000741C8093730182E090E00E94CE1A86E106
:1010100090E060E040E021E00E94741C8093610158
:1010200009E110E0C8016FEF0E94BB1BF801E05B13
:10103000FE4F80830F5F1F4F0332110599F7109207
:10104000780181E080937C0110925F0180937B01A5
:101050000E945617CE0103960E94F80B78948E01D9
:101060000D5F1F4FC8010E94190C8A3F9105D0F3F4
:10107000E6B059985A9A0E943D0F8E010D5F1F4F9E
:10108000C8010E94190C845F9140D0F35A985B9A72
:101090008E010D5F1F4FC8010E94190C8E5E924099
:1010A000D0F35B985C9A80E98093BC008E010D5F61
:1010B0001F4FC8010E94190C885F9240D0F385EC45
:1010C0008093BC008E010D5F1F4F44E1F42EC801D8
:1010D0000E94190C40919D014F9D900111242851AF
:1010E0003C4F8217930798F3E1FE47C010927801B6
:1010F00010925F0110927C0110927B01C8010E9446
:10110000F80BFF24F3948E010D5F1F4F319B03C03A
:1011100010927C0105C0F0927C01C8010E94F80B7E
:101120000E949F0380917801882311F0599A01C091
:10113000599880915F01882311F05A9A01C05A98FA
:1011400080917C01882311F05B9A01C05B988091AB
:101150007B01882311F05C9A01C05C98C8010E9451
:10116000190C895E934090F2809178018F258093CD
:101170007801C8010E94F80BC9CF842F0E940A0F82
:101180001092780181E080937C0133E0A32EB12C92
:10119000AC0EBD1E4E010894811C911C22E0622EF3
:1011A000712C6C0E7D1EC5010E94190C815B944050
:1011B00060F0C5010E94190C8957954040F4809158
:1011C0009D018F3F11F4599A05C0599803C0C5017C
:1011D0000E94F80B5A985B985C980E942F0C0E9412
:1011E0009F0380917F01823009F047C110927F01F7
:1011F0000E94921180E00E94CB16599A0E94CD0461
:10120000882309F402C18091E5018E7F8093E50176
:101210008DE294E00E94B9178EE094E00E94B91725
:10122000C4010E94B410882309F4EFC08BEA94E053
:101230000E94B9170E941611882309F4E6C089811B
:10124000882379F01092600188E5809373010E94F1
:101250003019109261018FEF8093690181E094E071
:10126000D2C08AED93E00E94B91780916001882373
:1012700021F062E00E94871704C086ED93E00E948F
:10128000B91780EC93E00E94B91780E691E062E024
:101290000E94E01087FDB9C08BEA94E00E94B91764
:1012A0008CE993E00E94B91780917301882321F0A3
:1012B00062E00E94871704C088E993E00E94B91792
:1012C00082E893E00E94B91783E791E062E00E9410
:1012D000E01087FD9AC08BEA94E00E94B9170E9443
:1012E000391A882309F491C08DE593E00E94B9175B
:1012F00090E0809169018A3008F491E09A83992303
:1013000011F48EE601C08AE60E94670781EB94E043
:101310000E94B917C3010E94B410882309F475C054
:101320008BEA94E00E94B9178A81882309F44EC0A1
:1013300081E393E00E94B91709E611E0F80180818A
:101340008A3048F460E00E9487170F5F1F4FF1E07A
:1013500003371F0799F78AE293E00E94B91781EBE0
:1013600094E00E94B91710E00E94B406982F9053A1
:101370009A3038F4E12FF0E0E759FE4F90831F5F79
:1013800018C08B32C1F08D3321F08E3211F08F32C4
:1013900029F4112381F48BEA94E035C0882349F4C1
:1013A000112399F1E12FF0E0E759FE4F8FEF808391
:1013B0002CC01930C8F2E12FF0E0E759FE4F8FEF53
:1013C00080838BEA94E00E94B91703C08FEF80936B
:1013D000690188E093E00E94B9178091610160E0A3
:1013E0000E9487178CEF92E00E94B91781E691E086
:1013F00060E00E94E01087FD08C08BEA94E00E9444
:10140000B9178FEE92E00E94B9170E94260580E07E
:1014100090E060919D010E948B1B87E190E06091BC
:10142000AF010E948B1B81E090E0609160010E94FF
:101430008B1B88E190E0609173010E948B1B86E119
:1014400090E0609161010E948B1B09E110E0F801BE
:10145000E05BFE4FC80160810E948B1B0F5F1F4F36
:1014600003321105A1F782E090E00E94A41A81E006
:101470000E94CB16599810927F0180917F01813094
:1014800009F043C010927F0180916101813041F5E4
:101490000E94921180E00E94CB160E94CD04882306
:1014A000A1F15C9A0FE111E00EC00E9467070E9453
:1014B0002F0C80917F01882351F480915F01882354
:1014C00031F00F5F1F4FF8018491882371F710925C
:1014D0007F010E94260581E00E94CB165C9815C012
:1014E0005C9A80E00E94CB1602C00E942F0C809173
:1014F0007F018823D1F310927F0181E00E94CB16F7
:101500005C98599880E00E941B0680915F018823B7
:1015100009F4EAC080919D018F3F09F4DEC00E946A
:10152000E6195A9A0E941617882321F0813009F093
:10153000D7C002C05A98D8C00E94CD04882309F4AD
:10154000A4C00E9492118BE10E949F068091E50148
:1015500082608B7F8093E50109E611E0F8018081CC
:101560008A3040F40E946C130F5F1F4FF1E0033785
:101570001F07A1F78E01095F1F4FC8010E94F80BDA
:10158000EE24FF24DD24C02E012F0E949F038091B2
:101590007B016CE771E00E949D118091AD01883064
:1015A00079F58091AB0165EE71E00E94D80F109241
:1015B000AD01982F90539A3030F4892F0E946C130C
:1015C000DD24D39412C08C3629F4DD2059F40E9416
:1015D000D8055BC0882349F0803239F08D3029F07E
:1015E0008A3019F00894E11CF11C8C2D902F0E9478
:1015F000F80B06C08FE30E9467070894E108F10822
:10160000E114F10439F08C2D902F0E94190C883CC4
:10161000910580F70E941413882309F0BDC08C2D1A
:10162000902F0E94190CDD2029F428E93AE340E0CC
:1016300050E004C028EC3FEA40E050E0A0E0B0E019
:10164000281739074A075B07BCF4599A81E00E94C2
:10165000E21680E00E94CB16DD2029F00E942605CC
:1016600002C00E949F0380915F018823D1F759989F
:1016700081E00E94CB1609C080915F01882329F088
:101680000E942E13882309F480CF81E00E94E21685
:1016900080916001882369F00E9425139091600178
:1016A000891739F45A980E94260583E00E941B0688
:1016B0001BC080917301882331F00E942513909103
:1016C0007301891739F00E94251390919D01969519
:1016D000891719F40E94D80507C00E94260504C086
:1016E0008FE090E00E9464050E941413882309F1A2
:1016F0000E949F035B9A599A0E94CD04882349F463
:101700005B9881E00E94E21681E00E941B065998D6
:1017100010C059980E941617823041F081E00E9453
:10172000E21681E090E00E94260503C080E00E945E
:10173000D10680E00E941A1B8823B9F00E94921102
:1017400080E00E94CB16599A0E94CD04882369F04C
:101750008091E5018E7F8093E5010E94271B0E9406
:10176000260581E00E94CB16599880918401882338
:1017700009F419CD6091840186E891E00E94B118C6
:10178000882339F00E948319882319F082E00E948F
:101790001B061092840107CD81E00E94D1060E94B1
:1017A000E619A2CF82E08093B00084E08093B1007C
:1017B00085EE8093B300E0E7F0E080818260808373
:1017C00008951F920F920FB60F9211248F939F933B
:1017D00080917D0190917E01019690937E0180938E
:1017E0007D019F918F910F900FBE0F901F901895C4
:1017F000FC012FB7F89480917D0190917E01918337
:101800008083138212822FBF0895FC018081918111
:10181000860F971F91838083828193818617970714
:1018200018F4138212820895861B970B9383828388
:101830000895FC018FB7F89440917D0150917E018D
:1018400020813181421B530B8FBF8281938184178A
:10185000950710F453834283828193810895809188
:1018600026018130A9F0813018F0823039F522C08C
:10187000319B09C087E291E00E94190CC397F0F0F8
:1018800081E08093260187E291E00E94F80B0895A1
:10189000319B0BC087E291E00E94190C815293406A
:1018A00068F082E08093260102C0109226018093A6
:1018B0007F010895319902C0109226010895109277
:1018C0007F0103C0A8950E942F0C80917F0188237F
:1018D000C9F380917F0110927F0190E0823009F47A
:1018E00091E0892F08954FB7F8949091960121E0E7
:1018F00030E002C0220F331F8A95E2F7209529239A
:10190000209396014FBF08954FB7F8949091960198
:1019100021E030E002C0220F331F8A95E2F7922BBC
:10192000909396014FBF0895982F8A3991F08B3983
:1019300028F4833941F0863991F405C08C3949F097
:10194000893A69F4089581E0809399011092A00189
:10195000089581E0809399018093A001089580917A
:101960003F01E82FF0E0E55DFE4F90838F5F8093AD
:101970003F0180913F01843148F0809140018823EC
:1019800011F483E10CC010923F010BC090913F0114
:1019900080914001981729F480913F0181508093F4
:1019A0003F01809196018064809396018091960119
:1019B0008F778093960108951F920F920FB60F9222
:1019C00011242F933F934F935F936F937F938F9344
:1019D0009F93AF93BF93EF93FF938091800190917A
:1019E0008101019690938101809380018091B900DB
:1019F00090E0887F90708036910509F4F5C08136BB
:101A00009105CCF58832910509F4A8C08932910579
:101A1000B4F48031910509F480C0813191053CF422
:101A2000009709F4B7C0089709F061C165C0883113
:101A3000910509F476C0809709F059C186C08034B9
:101A4000910509F4E8C08134910544F4803391058F
:101A500009F484C0C89709F04AC1A1C08035910536
:101A600009F4AAC08835910509F4A6C08834910507
:101A700009F03DC19AC08839910509F404C189393A
:101A80009105ECF48837910509F4DBC0893791059D
:101A90004CF48836910509F4A2C08037910509F00D
:101AA00026C1D4C08838910509F4B7C080399105A2
:101AB00009F4D7C08038910509F019C1A8C0803B4E
:101AC000910509F4F5C0813B91054CF4803A9105EC
:101AD00009F4A8C0883A910509F009C1EEC0803C1C
:101AE000910509F4F1C0883C910509F4EDC0883BEB
:101AF000910509F0FCC0E1C080918201843029F495
:101B00001092BB0010924201DCC0809182018130B2
:101B100021F080919C018160D2C080919C018E7FD8
:101B2000CEC080918201843059F480914201E82F27
:101B3000F0E0EA57FE4FE0818F5F8093420102C0E0
:101B4000E0918501E093BB00D2C085E080938201E3
:101B5000809182018430E1F081E03EC08091820179
:101B6000843099F49091420180918401981768F42F
:101B700080914201E82FF0E0EA57FE4F90818F5F9D
:101B8000809342019093BB00B2C085E080938201B4
:101B900010929F0181E08093A10185E5ABC0809107
:101BA0009E018F5F80939E01A4C085E08093820197
:101BB00081E080939F01EFCF8091BB008093410132
:101BC00080918201823009F78091410187FD91C0A7
:101BD00085E08093820183E080939F01DBCF809139
:101BE0009E018F5F80939E01A8951092980110929C
:101BF00097011092A101109242019091BB00809137
:101C00009A0181509695892380939B0104C080910D
:101C1000BB000E94940C85E06DC08091BB000E94C7
:101C2000940C52C081E08093A10190914201809177
:101C30008401891708F04BC0809142018093840190
:101C400046C080919E018F5F80939E011092980103
:101C5000109297011092A1011092420110928401FA
:101C600046C09091BB0080914201803108F03FC096
:101C700080914201E82FF0E0EA57FE4F90838F5F9A
:101C80008093420134C09091BB0080914201803129
:101C900050F480914201E82FF0E0EA57FE4F908324
:101CA0008F5F8093420180914201809384010CC038
:101CB00080919E018F5F80939E0180919601809319
:101CC000BB001092A10113C081E08093A10180911B
:101CD0008201833071F080918201813051F08091D6
:101CE0008201823031F080918201843011F085E4EC
:101CF00001C085E680688093BC00FF91EF91BF91A1
:101D0000AF919F918F917F916F915F914F913F9193
:101D10002F910F900FBE0F901F9018958091820108
:101D2000882321F0809182018530C1F70895982F92
:101D300080918201882321F0809182018530C1F752
:101D40002FB7F8949093850197FF02C081E001C0FE
:101D500082E0809382018091A101882349F08091E3
:101D6000BC0084FDFCCF8091BC0080628093BC00ED
:101D70002FBF089580918201882321F080918201F4
:101D80008530C1F79FB7F89484E0809382018091F9
:101D9000A101882349F08091BC0084FDFCCF809193
:101DA000BC0080628093BC009FBF0895982F8091F3
:101DB0008201882321F0809182018530C1F7209132
:101DC0009C0190939C0183E0809382018091A1010A
:101DD000882349F08091BC0084FDFCCF8091BC0039
:101DE00080628093BC0080918201882321F08091E1
:101DF00082018530C1F720939C0180919F01882347
:101E000019F02FEF3FEF04C080914101282F30E0FF
:101E1000C90108951F93182F82508B3DF0F410FDD7
:101E20001CC0812F0E94D60E97FF17C09FB7F89451
:101E30001093BA0080918301882329F08091BA0021
:101E400081608093BA008091BC0080648093BC0064
:101E500010939D019FBF81E00EC08FB7F894109240
:101E6000BA009091BC009F7B9093BC009FEF909331
:101E70009D018FBF80E01F91089581E08093A101B3
:101E80001092820110929F0110929E0110924001C7
:101E900010923F01109281011092800110929801DE
:101EA00010929701109285018093B9008BE3809383
:101EB000B80080919D018E7F8093BA0010928401BA
:101EC0001092420180918301882329F08091BA0009
:101ED00081608093BA0084E88093BC0080919A016D
:101EE0008150880F8093BD000895613041F48A309D
:101EF00080F4882311F48CED08958C5908C0623069
:101F000041F4882311F488EC0895843610F4880F86
:101F100008958FEF0895982FFB0182508B3D10F0AC
:101F200010820DC09695953630F081E080839E3604
:101F300030F4945605C082E08083943609F490E032
:101F4000892F0895DC019091400180913F019817FD
:101F500011F480E0089590914001E92FF0E0E55DF3
:101F6000FE4F80818C939F5F909340018091400150
:101F7000843110F0109240019091400180913F0116
:101F8000981711F081E008959FB7F8948091960119
:101F90008F7B809396019FBF81E0089590914001CF
:101FA00080913F0120E0981709F421E0822F0895E5
:101FB000982FFB018B3119F482E0808303C08F31AD
:101FC00019F4108280E0089580818E7F808386706E
:101FD000E92FF0E0823021F4E557FB4F849108951A
:101FE000E559FB4F84910895282F6670623019F0EF
:101FF000EBE6F4E002C0EBE8F4E0822F81548A3192
:1020000008F4205E90E08491281731F09F5F9032B1
:1020100011F03196F8CF9FEF892F0895CF92DF927C
:10202000FF920F931F93CF93DF93F82E6B01EA017A
:1020300089018FEFF9018083FFE0FF1641F1FEE097
:10204000FF16A9F0FB01608160FF09C0F7E1FF16F0
:1020500031F08F2D0E94F40F88838F3FE9F48F2D8C
:1020600060E00E94F40FF80180838F3F31F08FE130
:10207000888381E0F601808310C08F2D62E00E948A
:10208000F40FF80180838F3F11F480E006C08BE1EC
:10209000888383E0F601808381E0DF91CF911F91F7
:1020A0000F91FF90DF90CF900895FF920F931F93B1
:1020B000CF93DF93EC01F62E10E000E001C000E2C8
:1020C0000E94B4068A30A9F08B3028F4882351F09E
:1020D000893051F5F5CF803221F1833289F38D308B
:1020E00019F507C0112319F0C10FD11D188280E026
:1020F00035C0112389F4002319F3802F8D528230CB
:1021000060F10B3251F10D3341F10F3231F10032F8
:1021100029F00883198203C0C10FD11D188282E003
:102120001DC0112361F202C0803250F21F1540F62B
:10213000112369F4002311F4082FC2CF003219F4DF
:10214000888311E0BDCF0883898312E0B9CFFE01F7
:10215000E10FF11D80831F5FB3CF81E0DF91CF914D
:102160001F910F91FF900895CF93DF93EC010E9490
:10217000B4068133E9F0823358F48033E0F48E32D0
:10218000A8F48B32A9F08D32B1F0882369F0EFCF3B
:102190008E3689F08F3628F48D3341F08A3639F740
:1021A00007C0893721F704C080E007C081E005C07F
:1021B00081E0888301C0188282E0DF91CF91089589
:1021C000FF920F931F93CF93DF93EC01062F10E044
:1021D0008AE0F82E0E94B406282F80538A3068F4D3
:1021E000112331F088818F9DC00111248053820F0B
:1021F00088831F5F101771F712C0822F8D528230B3
:1022000070F02B3261F02D3351F02F3241F0222348
:1022100011F48FEF05C02930E9F21123D9F2812F93
:10222000DF91CF911F910F91FF900895EF92FF9250
:102230000F931F93DF93CF9300D0CDB7DEB78E01FE
:102240000F5F1F4F92E0E92EF12CEC0EFD1E8091E6
:102250009D01B8010E948B0F8A838EE195E00E9458
:10226000B9178A8169810E94871781EB94E00E94E7
:10227000B917C70162E00E94E01087FD49C08823BA
:1022800039F480919D01B8010E948B0F8A8301C0AF
:10229000898390919A0191958A8189238A8383E128
:1022A00095E00E94B9178A8169810E94871780E2B0
:1022B0000E9467078A8169810E94750F0E940A0F38
:1022C000882371F08BEA94E00E94B9178CEB94E0BC
:1022D0000E94B9178091AF01882339F08AE606C0C1
:1022E00083EE94E00E94B917B2CF8EE60E94670792
:1022F00081EB94E00E94B9178FEA91E00E94B4103C
:10230000882331F08BEA94E00E94B91781E001C084
:1023100080E00F900F90CF91DF911F910F91FF9070
:10232000EF9008951092AD011092AE0180E890E018
:10233000909344018093430108951F93CF93DF93BB
:10234000182FEB018091AE01883030F4823088F58F
:10235000813009F05AC004C0883009F056C047C027
:102360008091AD01882329F08091AD01883009F07A
:102370004CC082EA91E00E94190CCC9708F445C049
:10238000188287EA91E00E94F80B82E08093AE0108
:102390008091AC018F718093AC018091AC01880F6A
:1023A000880F8093AC018091AC0183608093AC0175
:1023B0002CC08091AC01188287FF02C081E0888325
:1023C00087EA91E00E94190C4497F8F087EA91E0BF
:1023D00064E170E00E94050C8091AC01880F80934D
:1023E000AC018091AE018F5F8093AE010EC081E0A1
:1023F000888387EA91E00E94190C4E9730F087EAB3
:1024000091E00E94F80B1092AE018091AD018730EF
:1024100048F4823008F06FC0882389F0813009F0D9
:10242000FFC022C0873009F494C0883009F0F8C09A
:1024300082EA91E00E94190C039708F4F1C011237D
:1024400009F0EEC082EA91E00E94F80B81E08093EF
:10245000AD011092AB0180E890E09093440180932D
:1024600043011092A601DCC0112369F08091430161
:10247000909144018F3F9105B4F480914301909174
:10248000440101960CC080914301909144011816BB
:1024900019064CF480914301909144010197909367
:1024A0004401809343018091430190914401873915
:1024B0009105F4F482EA91E00E94190C0B9708F45C
:1024C000AFC080914301909144018038910584F41C
:1024D00082E08093AD0180E890E090934401809386
:1024E000430182EA91E068E070E00E94050C98C028
:1024F0001092AD0195C082EA91E00E94190C4097BC
:1025000008F48EC0112369F0809143019091440139
:102510008F3F9105B4F4809143019091440101965D
:102520000CC08091430190914401181619064CF497
:1025300080914301909144010197909344018093CD
:10254000430182EA91E00E94190C449708F046C0CA
:1025500067C082EA91E00E94190C409708F460C0BD
:10256000112369F080914301909144018F3F9105BF
:10257000B4F4809143019091440101960CC0809184
:10258000430190914401181619064CF480914301BF
:10259000909144010197909344018093430182EA12
:1025A00091E00E94190C0F97D8F18091AD0187300E
:1025B000A9F41123A9F1809143019091440120E0F5
:1025C000803891050CF421E02093A60188E08093E7
:1025D000AD0182EA91E00E94F80B22C08091AB012C
:1025E000880F8093AB018091430190914401803822
:1025F00091052CF08091AB0181608093AB018091BB
:10260000AD018F5F8093AD0182EA91E064E170E0FB
:102610000E94050C80E890E0909344018093430170
:10262000DF91CF911F9108958091B001833031F0F7
:102630008091B00120E030E0843011F421E030E0FE
:10264000822F089580919B01089580914A010895F9
:102650008091480108958093470108958091B001C9
:10266000882331F08091B00120E030E0853011F412
:1026700021E030E0822F089581EB91E00E94CB179A
:102680000895CF93DF93EC0187EE91E00E94CB1782
:10269000882311F080E006C087EE91E00E941B18AD
:1026A000888381E0DF91CF9108951F93182F81EBEC
:1026B00091E0612F0E94F417882361F01F3121F40B
:1026C00081E08093E50106C01B3119F483E080931B
:1026D000E50181E01F910895682F8091B00182305B
:1026E00049F480914B01882329F081EB91E00E940D
:1026F000F417089589E090E00E946405089581EB45
:1027000091E00E94D4170895DF93CF9300D0CDB706
:10271000DEB765EE71E0AE014F5F5F4F9E012E5F49
:102720003F4F0E940E10882379F081EB91E0698180
:102730000E94F417882349F06A816F3F29F081EBEA
:1027400091E00E94F417811181E00F900F90CF91DA
:10275000DF910895EF92FF920F931F93DF93CF9332
:102760000F92CDB7DEB78C017E010894E11CF11CFD
:10277000C7010E944113882351F0898165EE71E001
:102780000E94D80FF8018083882391F381E00F9095
:10279000CF91DF911F910F91FF90EF900895FF92DD
:1027A0000F931F93082F8091B001081709F4CEC032
:1027B000FFB6F89410924B01033009F45AC004306C
:1027C00028F40130A9F10230E0F517C0053009F412
:1027D000A7C0053008F467C0063009F4AAC0073066
:1027E00009F0B1C0809196018F7780939601809116
:1027F00096018F7E8093960118C080919601807417
:1028000080939601809196018068809396018091D3
:10281000AF01882329F08091960180618093960111
:1028200081E0809347018093480110929C018BC006
:10283000809196018F7780939601809196018F7E8B
:1028400080C0809196018F77809396018091960148
:102850008F7E809396011092490110924A0181E087
:1028600080934B0181EB91E00E94C7171092E50124
:102870006AC0809196018F7780939601809196012E
:102880008F7E80939601809196018061809396015E
:102890008091960188608093960181E08093A001E9
:1028A0008093480150C08091960187FF0FC08091AE
:1028B00096018F7780939601809196018F7E809309
:1028C0009601809196018061809396018091960196
:1028D0008062809396018091960182608093960138
:1028E0008091960184608093960180919601816029
:1028F0008093960111E01093000181EB91E00E941A
:10290000C71787EE91E00E94C7171092E5010E9459
:1029100092111093A001109347011093480113C026
:10292000809196018F7D8093960180919601877F9B
:1029300008C0809196018F7D8093960180919601C9
:102940008D7F809396010093B001FFBE1F910F9180
:10295000FF9008950E948E0E80914A016091490176
:102960000E94750F80939C0180919D0186950E9425
:10297000970E0E948E0E8CE491E00E94F80B8091DD
:102980009F01882369F482E080934B0183EA0E94CF
:10299000970E0E948E0E8CE491E00E94F80B089531
:1029A00080919F01833059F410929F0110929C01F5
:1029B00085E00E94CF1382E680934601089510922D
:1029C0009F0110929C0180914901823030F085E096
:1029D0000E94CF1388E78093460108951F93DF93E9
:1029E000CF9300D0CDB7DEB7CE0101960E94A20FE3
:1029F000882309F443C08091B001873021F481E03D
:102A000090E00E9464059981953AE9F0963A28F49D
:102A1000903850F0933A91F510C09A3A11F19C3ADF
:102A200031F1963A59F515C08091B001882331F5FE
:102A3000990F90939C0181E01FC08091B00181307B
:102A4000E9F483E019C08091B0018230B9F484E0E8
:102A500013C08091B001823089F483E080934B01F0
:102A60000DC08091B001882349F085E005C08091B8
:102A7000B001863019F480E00E94CF138091B0013C
:102A8000843009F444C0863009F4E8C0823009F08B
:102A9000EFC081EB91E00E94CB17882309F0E8C0DA
:102AA00080914B01823009F4E3C081EB91E00E94F8
:102AB0001B18182F809149018F5F809349018091E5
:102AC0004B018130B1F480914901813019F41093A8
:102AD0004A010DC080914901823059F480914A0128
:102AE0002AE0829FC0011124810F80934A010E9435
:102AF000AA1480914B01833009F0BAC0812F805510
:102B00000E94970E8CE491E00E94F80BB1C0809176
:102B10009901882359F08091A001882321F082E057
:102B20000E94840C03C082E00E94730C81EB91E050
:102B30000E94CB17882369F48091AE01882349F461
:102B400081EB91E00E941B188093AC0181E080939F
:102B5000AE018091E601882319F48091470119C0E4
:102B6000813019F48091A00114C0823089F48091E1
:102B7000A001882319F480E090E00BC08091470108
:102B800090E0882309F491E081E09827892F01C023
:102B900081E0BE016E5F7F4F0E949D118091AD016B
:102BA000883041F46091AB0187EE91E00E94F41708
:102BB0001092AD018091A0018093480110914701CE
:102BC0008091AE018823A9F08091AE01813089F017
:102BD00080911B02882321F48A818093480109C0D7
:102BE000813011F41A8105C0823019F41A811093D2
:102BF0004801112321F080E00E94840C03C080E092
:102C00000E94730C8091A101882391F1809182012F
:102C1000882371F5112381F080910001823021F029
:102C200080910001833011F48CE90FC08091000184
:102C30008823F1F48AE909C080910001882321F0FA
:102C400080910001813021F483E90E94970E10C029
:102C500080910001823061F486E9F7CF80E591E050
:102C60000E94190C815A9F4018F080E00E94CF13F7
:102C700080918201853011F58CE491E00E94F80B7F
:102C800080919F018823C1F480918501863961F08C
:102C9000873918F4833981F405C08A3951F08C39A9
:102CA00059F404C082E006C083E004C01092000121
:102CB00003C081E0809300011092820180919C0109
:102CC0008823D1F08091A1018823B1F08091820105
:102CD000882321F080918201853071F48CE491E0A9
:102CE0000E94190C8251934038F089EA0E94970E95
:102CF0008CE491E00E94F80B80919C01882341F0C4
:102D00008091B001863021F08091B001853009F4C6
:102D1000A8950F900F90CF91DF911F9108951F926A
:102D20000F920FB60F9211242F933F934F935F93FF
:102D30006F937F938F939F93AF93BF93EF93FF9383
:102D4000809145018823B1F481E080934501809111
:102D50006E008E7F80936E0078940E94EE1488E45B
:102D600086BD81E085BB80916E00816080936E009E
:102D700010924501FF91EF91BF91AF919F918F917B
:102D80007F916F915F914F913F912F910F900FBE67
:102D90000F901F9018951F93182F8091B0018823D2
:102DA00041F08091B001873021F08AE090E00E94EC
:102DB0006405112311F080E001C087E00E94CF1369
:102DC0001F9108951F93182F8091B001882361F1FE
:102DD00080919C01882319F40E94CF1325C081E0C3
:102DE000809345018091B001853049F48CEA0E94BE
:102DF000970E0E948E0E80E00E94CF130AC08AEACE
:102E00000E94970E86E00E94CF1380E591E00E9419
:102E1000F80B1092450102C00E94EE148091B0019F
:102E2000863011F41123C1F71F9108958091B001EC
:102E3000833091F481E08093450185EA0E94970EEA
:102E40000E948E0E89EA0E94970E84E00E94CF13A2
:102E50001092450182E0089580919D018F3F11F409
:102E600080E008958091B001882321F088E090E00F
:102E70000E94640581E0809345019FB7F89480919A
:102E800096018F7780939601809196018F7E809333
:102E90009601809196018F7E809396019FBF82E07C
:102EA0000E94CF131092450181E0089514BC82E086
:102EB00085BD80916E00816080936E0080E8809374
:102EC00096018091AF01882329F08091960180615D
:102ED000809396010E94921180E00E94CF1381EBB3
:102EE00091E00E94C71787EE91E00E94C7171092E9
:102EF000450181E080931B028093E60108958A30AA
:102F000010F4805D01C0895A0E94670708951F93DD
:102F1000282F362F6AE00E94A31C482F822F0E9480
:102F2000A31C192F442311F432302CF03150842F7C
:102F3000632F0E948717812F0E947F171F9108958A
:102F40001F93182F82958F700E947F17812F8F708B
:102F50000E947F171F910895CF93DF93EC0103C068
:102F60000E946707219688818823D1F7DF91CF914E
:102F70000895CF93DF93EC0103C00E946707219669
:102F8000FE0184918823C9F7DF91CF910895FC0158
:102F900012AA13AA0895FC0193A982A920E0981708
:102FA00009F421E0822F0895FC0182A9813310F0F9
:102FB00090E002C0982F9F5F83A9981789F082A99B
:102FC000813310F080E005C08F5F813311F490E011
:102FD00002C0982F9F5F83A920E030E0981711F47A
:102FE00021E030E0822F0895DC01D2968C91D297B7
:102FF000813310F090E002C0982F9F5FD3968C91A0
:10300000D397981711F480E008959FB7F894D2965B
:103010008C91D297FD01E80FF11D6083D2968C91BF
:10302000D297813310F080E001C08F5FD2968C93ED
:103030009FBF81E00895DC012FB7F894D3968C915F
:10304000D397FD01E80FF11D8081D3969C91D39712
:10305000913310F090E001C09F5FD3969C932FBFF7
:103060000895FC0192A983A9981718F022A983A9B1
:1030700003C022A983A92E5C281B822F0895FC017E
:1030800083A9E80FF11D8081089580919C01882318
:1030900029F484E591E00E94F80B089584E591E01D
:1030A0000E94190C835A924098F08091A1018823C4
:1030B00079F080918201882321F08091820185300E
:1030C00039F489EA0E94970E84E591E00E94F80B9A
:1030D0000895AF92BF92DF92EF92FF920F931F93EA
:1030E000DF93CF9300D000D00F92CDB7DEB77C0135
:1030F0008E010E5F1F4FC8010E94F80B5E010894FD
:10310000A11CB11CD02E012FC5010E94A20F882343
:1031100019F089818C3A49F08D2D902F0E94190C5D
:10312000E816F90610F0A895EFCF0F900F900F90CA
:103130000F900F90CF91DF911F910F91FF90EF9023
:10314000DF90BF90AF90089510921F02109220025E
:1031500010921D0210921C0210921E021092210267
:103160000895FC016830F8F080818336E1F48181B4
:103170008C36C9F482818B36B1F4838180931F022F
:10318000848180932002858180931D0286818093B3
:103190001C02878180931E02683019F0808580931D
:1031A000210281E0089580E00895FF920F931F931C
:1031B0008C01F62E862F6AE00E94A31C805D62E0DF
:1031C0000E94F40FF80180838F2D6AE00E94A31CF7
:1031D000892F805D62E00E94F40FF80181831F91C6
:1031E0000F91FF9008951F93CF93DF93EC0180918F
:1031F0001D02882389F18BE1888380912102805D03
:1032000062E00E94F40F898387E18A83CE010396EE
:1032100060911D020E94D51817E01D83CE0106960D
:10322000609120020E94D5181887CE0109966091FE
:103230001F020E94D51884E08B87CE010C96609106
:103240001C020E94D5188EE08E87CE010F966091E9
:103250001E020E94D51881E1DF91CF911F91089540
:10326000109224021092230210922602109225023C
:10327000109228021092270210922A02109229021C
:10328000109222021092580110925A011092590184
:1032900010925C0110925B010895982FFA01A081B1
:1032A000B18142815381A417B50711F480E00895DC
:1032B00070E0A417B507A8F48CE3989FC00111240F
:1032C000860F971F8A179B0718F480E090E00895F7
:1032D00020E08417950708F021E081E02827822F5D
:1032E00008958CE3989FC0011124860F971F8417BF
:1032F000950728F020E030E08A179B0710F021E0C6
:1033000030E0822F08950F931F9380915801109100
:103310001C0200911E028823E9F0109258018CE3F0
:10332000189F90011124200F311D30935A012093D2
:103330005901C9010A9690935C0180935B01815AFF
:10334000954008F43FC02659354030935C012093E6
:103350005B0138C0812F602F49E551E00E944D1973
:10336000882381F510925A011092590110925C0144
:1033700010925B0180912202882391F4812F602FAB
:1033800043E252E00E944D19882319F081E090E059
:103390001AC0812F602F47E252E00E944D1913C0DE
:1033A00080912102863038F0812F602F47E252E071
:1033B0000E944D1908C0812F602F43E252E00E9405
:1033C0004D1901C080E01F910F91089581E0809315
:1033D000580108950F931F93DF93CF9300D0CDB77B
:1033E000DEB78C01FC01808191816CE370E00E946A
:1033F000AF1C862F698324EC3FEF629F202D1124A0
:103400009081290F2A8362E00E9487178A8162E0F7
:103410000E94871781EB94E00E94B917CE010196B4
:1034200062E00E94E0108823E1F0CE01029662E0A3
:103430000E94E01087FF02C080E014C089812CE365
:10344000829FC00111242A81820F911DF80191836E
:103450008083815A954028F080EA95E0F8019183B5
:10346000808381E00F900F90CF91DF911F910F919A
:10347000089583E895E00E94B91785E795E00E94DA
:10348000B91781E60E9467078EE695E00E94B9179A
:1034900083E292E00E94EA19882309F453C08BEA80
:1034A00094E00E94B91781E695E00E94B91785E281
:1034B00092E00E94EA19882309F444C08BEA94E060
:1034C0000E94B91785E795E00E94B91782E60E942D
:1034D00067078EE695E00E94B91787E292E00E94A6
:1034E000EA19882379F18BEA94E00E94B91781E602
:1034F00095E00E94B91789E292E00E94EA198823B8
:1035000009F18BEA94E00E94B91785E395E00E94E7
:10351000B91780912202882311F48EE601C08AE651
:103520000E94670781EB94E00E94B91782E292E063
:103530000E94B410882331F08BEA94E00E94B917FE
:1035400081E0089580E008950F931F938C016091AE
:103550002302709124020E94A51B609125027091A4
:103560002602C80102960E94A51B60912702709155
:103570002802C80104960E94A51B6091290270913F
:103580002A02C80106960E94A51BC80108966091F0
:1035900022020E94A21B1F910F9108950F931F9367
:1035A0008C0160E070E040E050E020EA35E00E94ED
:1035B000321C9093240280932302C801029660E09B
:1035C00070E040E050E020EA35E00E94321C909329
:1035D000260280932502C801049660E070E040E076
:1035E00050E020EA35E00E94321C9093280280933C
:1035F0002702C801069660E070E040E050E020EA53
:1036000035E00E94321C90932A0280932902C8015F
:10361000089660E00E94991C809322021F910F91EE
:10362000089510922D028FEF90E090932C028093DA
:103630002B02089590912D02882311F010922D02F3
:10364000892F089580912B0290912C0208958091EA
:103650002D028823D9F18DE196E00E94B91780915F
:103660002D02823069F0833018F48130A1F405C056
:10367000833059F0843079F40BC08AE096E002C0C0
:1036800087EF95E00E94B9170FC083EE95E0FACF5F
:1036900085ED95E0F7CF89EC95E00E94B917809110
:1036A0002D0260E00E9487178FEB95E00E94B9170A
:1036B00080912C020E94A01780912B020E94A017DB
:1036C00087EB95E00E94B91710922D020895FF92A2
:1036D0000F931F93082FF92E162F0E94C31C181743
:1036E000B1F0802F9F2D612F0E94CB1C802F9F2D2A
:1036F0000E94C31C181759F080912D02843038F4B1
:1037000084E080932D0200932B02F0922C021F91F3
:103710000F91FF900895FF920F931F938C01F62E47
:103720000E94671BC80180569F4F6F2D0E94671B28
:10373000C801805C9E4F6F2D0E94671B1F910F91E7
:10374000FF9008950E948B1B08950F931F93CF93B2
:10375000DF93EC018B010196612F0E948B1B60E0CF
:10376000012B09F061E0CE010E948B1BDF91CF910C
:103770001F910F910895BF92CF92DF92EF92FF9227
:103780000F931F93CF93DF93EC01B62E0E94C31CBF
:10379000182F90EAC92ED12CCC0EDD1EC6010E9436
:1037A000C31C082F80E4E82E81E0F82EEC0EFD1EED
:1037B000C7010E94C31C101719F4181709F447C059
:1037C0000F3F11F48F3FD9F0101761F480912D0253
:1037D0008230A8F482E080932D02F0922C02E092D5
:1037E0002B020DC0181781F480912D02823038F41D
:1037F00082E080932D02D0922C02C0922B02CE0147
:10380000612F0E948B1B23C090912D02081789F411
:10381000923048F482E080932D0280EA90E0909309
:103820002C0280932B02CE01602F0E948B1B102F45
:103830000EC0933038F483E080932D02D0932C0295
:10384000C0932B02CE016B2D0E948B1B1B2D812F51
:10385000DF91CF911F910F91FF90EF90DF90CF906C
:10386000BF900895BF92CF92DF92EF92FF920F9395
:103870001F93CF93DF93EC01062FB72E7A016901D6
:103880000196672F0E94BB1B182FCE01602F0E944C
:10389000BB1B312F20E0482F50E0422B532B4E15FD
:1038A0005F0518F0C416D506A0F480912D02882378
:1038B00039F481E080932D02D0932C02C0932B0227
:1038C000CE01602F7B2D0E94A51B802F9B2D9C017C
:1038D000A901CA01DF91CF911F910F91FF90EF9045
:1038E000DF90CF90BF900895FF920F931F93CF93D7
:1038F000DF93EC01062F142FF22E0E94BB1B8117C1
:1039000010F0F81680F480912D02882339F481E0BC
:1039100080932D02D0932C02C0932B02CE01602FF6
:103920000E948B1B802FDF91CF911F910F91FF90F1
:10393000089540E021E00E94741C90E0813009F479
:1039400091E0892F0895991B79E004C0991F96177B
:1039500008F0961B881F7A95C9F780950895AA1BD1
:10396000BB1B51E107C0AA1FBB1FA617B70710F06A
:10397000A61BB70B881F991F5A95A9F7809590959C
:10398000BC01CD010895F999FECF92BD81BDF89A91
:10399000992780B50895262FF999FECF1FBA92BDB9
:1039A00081BD20BD0FB6F894FA9AF99A0FBE019620
:0639B0000895F894FFCF1A
:0239B60001000E
:00000001FF
