:100000000C9478010C9495010C9495010C94950135
:100010000C9495010C9495010C9495010C94A314E7
:100020000C9495010C9495010C9495010C949501F8
:100030000C9495010C9495010C9495010C949501E8
:100040000C94110C0C9495010C9495010C94950151
:100050000C9495010C9495010C9495010C949501C8
:100060000C945E0E0C9495015F5F5F69746C785F11
:1000700054573339706C75732D555334355F5F5F4A
:1000800046656220323520323031375F5F5F31396B
:100090003A30313A32365F5F5F3239395F5F5F0045
:1000A0000D0A7A65696C6520310D0A7A65696C659F
:1000B00020320D0A7A65696C652033000D0A202B09
:1000C0002B2B200D0A0A0A0A0029206E65753A209A
:1000D00020202020000D0A2066756E6B74696F6EFB
:1000E00020746173746520616D206D6F64756C3A66
:1000F0002028616B742E200029206E657520283021
:10010000203D20617573293A202020202000617550
:1001100073000D0A206B6F6D6D656E646520616EF6
:1001200072756665207370657272656E206D697494
:100130003A2028616B742E20002F313030207365F7
:100140006B293F202020202020000D0A206C6165B3
:100150006E6765207761686C617566662D696D7084
:100160002E2028616B742E20000D0A2077616568AF
:100170006C7363686569626520766F7268616E642E
:10018000656E3F202020202020000D0A206B6F6E1E
:1001900066696775726174696F6E20747733397040
:1001A0006C75732076657273696F6E2032393920F1
:1001B000646174756D2046656220323520323031BD
:1001C000370023740D6F20686E6D0A6C726769705A
:1001D0006376657A64627379667861776A0F7571A0
:1001E0006B0E0023350D3920232C2E0A2934263896
:1001F000303A3B3322243F2536212F2D32270F372B
:1002000031280E00206F6B2E2000207363686F6E04
:1002100020766572676562656E206F646572207511
:100220006E6775656C7469672C20616E64657265B4
:1002300020776165686C656E21000D0A207072750B
:100240006566652000206E65753A2020202020001C
:100250000D0A2064757263687761686C20616B7445
:1002600075656C6C3A20000D0A2073706572727AA5
:1002700065697420776F6368656E656E642D616271
:100280006861656E6769673F202020202020000D8F
:100290000A202E2E2E206269733A200020766F6E7F
:1002A0003A20000D0A2073706572727A65697420B5
:1002B000000D0A207A656974656E2076696572732F
:1002C00074656C6C6967206F686E652070756E6B05
:1002D0007420756E64206B6F6D6D612065696E674B
:1002E0006562656E00206E65753A20202020200032
:1002F00011241FBECFEFD4E0DEBFCDBF11E0A0E0E0
:10030000B1E0ECECFFE202C005900D92A230B10723
:10031000D9F711E0A2E0B1E001C01D92A43FB107FE
:10032000E1F70E949C040C94E4170C940000809167
:100330003D01882331F05F9A80914401882319F0B0
:1003400004C05F9803C05C9A01C05C98809144012E
:10035000882311F0289A01C02898809135014E9B7E
:100360000CC08823B1F088E391E00E94DB14815235
:10037000934098F01092350110C0882351F488E31F
:1003800091E00E94DB14069740F081E080933501F4
:1003900004C088E391E00E94BA148091440188234C
:1003A00021F080913501882321F481E0809342017E
:1003B0001BC0909142014E9B0BC09923A9F08EE384
:1003C00091E00E94DB14049798F01092420110C053
:1003D000992351F48EE391E00E94DB14049740F0DE
:1003E00081E08093420104C08EE391E00E94BA1440
:1003F0008091C9019091420184FF06C0992311F4B4
:100400005A9A08955A980895992311F45B9A089579
:100410005B980895CF92DF92EF92FF920F931F9314
:10042000DF93CF93CDB7DEB728970FB6F894DEBF32
:100430000FBECDBF8E010F5F1F4FC8010E94BA14BF
:1004400085E0E82EF12CEC0EFD1EC7010E94BA14C7
:10045000CC24C394D02E012F1E2DEF2CC0923D0131
:10046000C09244010E94970180913501882321F4B4
:100470008D2D902F0E94BA14812F9E2D0E94DB1487
:1004800089559B4148F010923D0181E080934401E1
:100490000E94970180E008C08D2D902F0E94DB14F0
:1004A0008C529140D8F281E028960FB6F894DEBFC6
:1004B0000FBECDBFCF91DF911F910F91FF90EF90B5
:1004C000DF90CF900895EF92FF920F931F93DF93E9
:1004D000CF9300D000D0CDB7DEB78091350188230F
:1004E00031F080913D01882311F40E940A028E01AF
:1004F0000F5F1F4FC8010E94BA14EE24E394F02E40
:10050000012F10923D01E09244010E9497018091D9
:100510003501882321F08F2D902F0E94BA148F2D42
:10052000902F0E94DB14845F914058F30F900F903E
:100530000F900F90CF91DF911F910F91FF90EF904F
:100540000895DF93CF9300D000D0CDB7DEB77C0104
:1005500080E88093BC008E010F5F1F4FC8010E948E
:10056000BA14DD24BB24C02E012F31E0432E512CC0
:100570004E205F2022E0622E712C6E207F2094E0BE
:10058000892E912C8E209F2028E0E222FF2402C099
:10059000BB24B394A8958C2D902F0E94DB14815915
:1005A0009140F0F08C2D902F0E94BA14489B13C0FC
:1005B000DD2081F3DA9471F7BB2061F3F8942EE02B
:1005C00088E190E00FB6F894A895809360000FBE84
:1005D00020936000FFCF84E08D15D0F2D394DACF62
:1005E000BB20F1F48C2D902F0E94DB14893C9105E7
:1005F000B8F04114510411F0599A01C0599861148E
:10060000710411F05A9A01C05A988114910411F0A2
:100610005B9A01C05B98E114F10429F05C9ABACFAF
:1006200059985A985B985C98B5CFAF92BF92CF9289
:10063000DF92FF920F931F93DF93CF9300D000D0F0
:10064000CDB7DEB7F82ECE0101960E94BA1480E035
:100650000E944D0CFF2051F083E0F81639F082E043
:10066000F81611F081E003C084E001C082E090E060
:1006700024EF31E0829F5001839FB00C929FB00C19
:1006800011242CE231E0829F6001839FD00C929F65
:10069000D00C11248E010F5F1F4F0E945A118091C0
:1006A000D501882329F01092D5010E942A162CC06A
:1006B0000E94970180913501882331F5C8010E947D
:1006C000DB14A816B90620F4C8010E94BA1409C0A8
:1006D000C8010E94DB14C816D90610F45C9A01C048
:1006E0005C988091B7018823C1F26091B70189EBD2
:1006F00091E00E94FE14882381F282E0F81669F6E8
:100700000E94C715882349F65C9881E00E944D0C31
:100710000F900F900F900F90CF91DF911F910F913D
:10072000FF90DF90CF90BF90AF9008951F93182F48
:10073000599A81E00E94640C80E00E944D0C1123C4
:1007400029F00E94630202C00E9497018091350146
:100750008823D1F7599881E00E944D0C1F9108958C
:100760001092B2018093E00181E08093E20108C021
:100770008091420164E471E00E94A9110E949701F6
:100780008091E2018823A1F7089510927C010E94D4
:1007900097018091420164E471E00E94A911809167
:1007A000E101883051F48091DF0163E471E00E943F
:1007B000920D1092E101882321F480913501882364
:1007C00031F70895DF92EF92FF920F931F93DF931B
:1007D000CF9300D000D0CDB7DEB7E82E8E010F5FEB
:1007E0001F4FC8010E94BA1481E00E94580881E09E
:1007F0008093B20180937C01DD24D394F02E012FED
:1008000001C0EE240E9497010E945A118091350187
:10081000882361F40E94640C0E94630202C00E945B
:1008200097010E945B088823D1F356C00E945B08A1
:10083000882331F00E94630280E00E94640C4CC067
:100840000E945508809344018091E201823060F457
:10085000809142010E94580807C08DE791E00E94F4
:100860004D0D8F3109F0EE248DE791E00E94FD0CD3
:10087000882399F3EE2011F18F2D902F0E94DB1425
:10088000DD2019F428E833E102C024EF31E08217BB
:100890009307A0F087E491E06BE10E94260D87E4C6
:1008A00091E06BE10E94260D87E491E062E10E94F5
:1008B000260D8F2D902F0E94BA14DD248F2D902F9E
:1008C0000E94DB14895E934008F49CCF8091420122
:1008D000882309F496CF96CF0F900F900F900F902A
:1008E000CF91DF911F910F91FF90EF90DF900895CE
:1008F000DF93CF9300D0CDB7DEB7982F81548A31E4
:1009000008F4905E892F63E471E0AE014F5F5F4FA2
:100910009E012E5F3F4F0E94AF0D882341F08981D9
:100920000E94B0038A818F3F11F00E94B0030F90A4
:100930000F90CF91DF910895AF92BF92CF92DF9247
:10094000EF92FF920F931F93DF93CF93CDB7DEB754
:1009500028970FB6F894DEBF0FBECDBF8FE028E119
:1009600030E00FB6F894A895209360000FBE8093F6
:100970006000519A529A539A549A209A579A5698CC
:100980005E9A5098589A599A0E9494140E9474152D
:1009900080E090E00E94B3178E7F8093D001825058
:1009A0008B3D18F08EE38093D00111E01093CD01C0
:1009B0001093B60181E090E00E94B31710924501B8
:1009C000882311F01093450182E090E00E94B31754
:1009D00080933C018150843618F08EE180933C0175
:1009E00083E090E00E94B31780933601843610F0C4
:1009F0001092360184E090E00E94DA1688E190E0DF
:100A00000E94B3178093370110923D0181E08093DB
:100A1000440110923501809342010E94D80C0E943B
:100A20009701CE0101960E94BA1478948E010F5F4F
:100A30001F4FC8010E94DB148A3F9105D0F34899EB
:100A40000FC088E10FB6F8948093600010926000A8
:100A50000FBE489BFECF5A9ACE0101960E94BA144F
:100A600059985A9A0E94BF108E010F5F1F4FC801FC
:100A70000E94DB14845F9140D0F35A985B9A8E01F8
:100A80000F5F1F4FC8010E94DB148E5E9240D0F3AF
:100A90005B985C9A80E98093BC008E010F5F1F4FCA
:100AA000C8010E94DB14885F9240D0F385EC8093EC
:100AB000BC008E010F5F1F4F54E1F52EC8010E944C
:100AC000DB144091D0014F9D9001112428513C4FDF
:100AD0008217930798F3842F0E948C1010923D0187
:100AE00081E0809344015E010894A11CB11C45E0A3
:100AF000C42ED12CCC0EDD1EC5010E94DB14815BFF
:100B0000944060F0C5010E94DB148957954040F481
:100B10008091D0018F3F11F4599A05C0599803C0B4
:100B2000C5010E94BA145A985B985C980E945A11A9
:100B30000E9497018091D501823009F0DDC01092AA
:100B4000D5010E949E111092430180E00E944D0C3D
:100B5000599A0E940A02882309F4C8C08AE891E0E1
:100B60000E9486140E94EB13882309F4BFC01091E1
:100B7000D00180E090E00E94B317181729F080E0C0
:100B800090E0612F0E94C11789E691E00E948614CF
:100B900085E491E00E948013882309F4A7C0109196
:100BA000450181E090E00E94B317412F50E020E022
:100BB00030E0882311F021E030E04217530729F09C
:100BC00081E090E0612F0E94C11784E092E00E94D2
:100BD000861480914501882361F18AE491E00E94A6
:100BE000861480913C0160E00E94541489E391E0F6
:100BF0000E9486148CE391E060E00E94B51387FDAB
:100C000075C080913C01882319F481E080933C01F8
:100C100010913C0182E090E00E94B317181729F070
:100C200082E090E0612F0E94C11784E092E00E9470
:100C3000861482E191E00E94861480913601882317
:100C400021F062E00E94541404C08EE091E00E9402
:100C5000861488EF90E00E94861486E391E060E0BD
:100C60000E94B51387FD42C01091360183E090E0E9
:100C70000E94B317181729F083E090E0612F0E94BB
:100C8000C11784E092E00E9486140E947D1688239A
:100C900069F184E090E00E942D1785ED90E00E94BC
:100CA00086148091370160E00E94541489EC90E032
:100CB0000E94861487E391E060E00E94B51387FDEF
:100CC00015C01091370188E190E00E94B317181702
:100CD00029F088E190E0612F0E94C11784E092E042
:100CE0000E9486148CEB90E00E9486140E9463029E
:100CF00081E00E944D0C59988091D501813009F016
:100D000045C01092D50180913701813051F50E9484
:100D10009E111092430180E00E944D0C0E940A0235
:100D20008823A1F15C9A00EA10E00EC00E947804CA
:100D30000E945A118091D501882351F48091350188
:100D4000882331F00F5F1F4FF8018491882371F7DA
:100D50001092D5010E94630281E00E944D0C5C98C4
:100D600015C05C9A80E00E944D0C02C00E945A118E
:100D70008091D5018823D1F31092D50181E00E94A2
:100D80004D0C5C98599880E00E94150380913501C4
:100D9000882309F431C18091D0018F3F19F40E945A
:100DA00063022AC10E942A165A9A0E94980C88232C
:100DB00021F0813009F014C102C05A981DC1809100
:100DC0004501882309F474C0C6010E94BA1402C008
:100DD0000E949701C6010E94DB148C5B9240C0F315
:100DE00010924401C6010E94BA141AE002C00E9487
:100DF0009701C6010E94DB1420913C01219F9001C4
:100E000011248217930798F381E080934401C6016F
:100E10000E94BA1410E000E00E9497018091420104
:100E2000882371F40E94970180914201882321F464
:100E3000809135018823B1F71F5FC6010E94BA1463
:100E400080913501882309F4B7C00E945B0888238C
:100E500009F0B2C0112379F0C6010E94DB14893C6D
:100E6000910548F01A3010F080E001C0812F0E94F7
:100E7000970810E001E00E944108882309F0F6C0BD
:100E8000C6010E94DB14002329F428E93AE340E07C
:100E900050E004C028EC3FEA40E050E0A0E0B0E0C1
:100EA000281739074A075B070CF0B6CF802F78C0A8
:100EB0000E940A02882309F47FC00E949E118BE1E0
:100EC0000E94B003C6010E94BA1481E380934301DB
:100ED00000E010E0EE24FF240E949701809142017F
:100EE00064E471E00E94A911EE2009F05CC08091D9
:100EF000E101883091F58091DF0163E471E00E94A7
:100F0000920D1092E101982F90539A3030F4892F6E
:100F10000E949708FF24F39417C08C3659F4FF20E1
:100F200089F48FE60E94780483E60E947804EE2418
:100F3000E3940AC0882341F0803231F08D3021F0F3
:100F40008A3011F00F5F1F4FC6010E94BA1405C00E
:100F50008FE30E947804015010400115110531F013
:100F6000C6010E94DB148436910590F70E94410867
:100F70008823D1F5C6010E94DB14FF2029F428E95B
:100F80003AE340E050E004C028EC3FEA40E050E0A3
:100F9000A0E0B0E0281739074A075B0724F48F2D3B
:100FA0000E94960309C080913501882329F00E9490
:100FB0005B08882309F490CF81E00E94640C0E94B2
:100FC0006302809136018823B9F00E945208909103
:100FD0003601891789F45A9883E00E9415030CC0E2
:100FE0008FE090E00E94A1028091450191E0892765
:100FF0000E94E2030E942A160E9441088823F9F009
:101000000E9497015B9A599A0E940A02882349F428
:101010005B9881E00E94640C81E00E94150359985E
:101020000EC059980E94980C823031F081E00E94E5
:10103000640C0E94630203C080E00E94E20380917E
:10104000B701882309F458CD6091B70189EB91E08D
:101050000E94FE14882339F00E94C715882319F0D6
:1010600082E00E9415031092B70146CD0E940A0249
:10107000BBCF8091460190E0882309F491E0892F4D
:10108000089580914601833031F08091460120E03F
:1010900030E0843011F421E030E0822F0895809117
:1010A000CE0108958091070108958091050108956A
:1010B00080930401089580914601882331F0809146
:1010C000460120E030E0853011F421E030E0822F4D
:1010D000089587E491E00E94FD0C0895CF93DF937B
:1010E000EC018DE791E00E94FD0C882311F080E077
:1010F00006C08DE791E00E944D0D888381E0DF916D
:10110000CF9108951F93182F87E491E0612F0E94DB
:10111000260D882351F01F3111F481E603C01B31E5
:1011200019F481E38093790181E01F910895682F7C
:1011300080914601823049F480910801882329F08A
:1011400087E491E00E94260D089589E090E00E94D6
:10115000A102089587E491E00E94060D0895DF93AF
:10116000CF9300D0CDB7DEB7982F8E3059F08F30A7
:1011700020F4873009F042C01BC08F3069F08731FE
:10118000E9F528C087E491E06FE10E94260D8823ED
:1011900009F457C081E609C087E491E06BE10E9441
:1011A000260D882309F44DC081E3809379014BC05B
:1011B00080917901813339F087E491E06BE10E94FD
:1011C000260D8823F1F181E38093790187E491E092
:1011D00064E111C080917901813339F087E491E0B5
:1011E0006BE10E94260D882361F181E380937901F0
:1011F00087E491E062E10E94260D26C0892F815488
:101200008A3108F4905E892F69E771E0AE014F5F83
:101210005F4F9E012E5F3F4F0E94AF0D882399F0D4
:1012200087E491E069810E94260D882351F06A814C
:101230006F3F49F087E491E00E94260D882321F05A
:1012400002C080E001C081E00F900F90CF91DF914C
:101250000895EF92FF920F931F93DF93CF930F9216
:10126000CDB7DEB78C017E010894E11CF11CC701EB
:101270000E946E088823C9F08091AF01813359F430
:101280008981843111F487E003C0823121F487E140
:10129000F801808309C089816FEA71E00E94920D94
:1012A000F8018083882319F381E00F90CF91DF91BB
:1012B0001F910F91FF90EF900895FF920F931F934E
:1012C000082F80914601081709F4C6C0FFB6F894AC
:1012D00010920801033009F454C0043028F401309E
:1012E00089F10230C0F517C0053009F49FC0053000
:1012F00008F461C0063009F4A2C0073009F0A9C0A3
:101300008091C9018F778093C9018091C9018F7E37
:101310008093C90114C08091C90180748093C90170
:101320008091C90180688093C9018091C9018F7D36
:101330008093C90181E0809304018093050110929C
:10134000CF0187C08091C9018F778093C9018091B7
:10135000C9018F7E7CC08091C9018F778093C901BC
:101360008091C9018F7E8093C9011092060110926D
:10137000070181E08093080187E491E00E94F80C66
:1013800068C08091C9018F778093C9018091C9019C
:101390008F7E8093C9018091C90180618093C901CA
:1013A0008091C90188608093C90181E08093D30155
:1013B000809305014EC08091C90187FF0FC08091C5
:1013C000C9018F778093C9018091C9018F7E809375
:1013D000C9018091C90180618093C9018091C901CF
:1013E00080628093C9018091C90182608093C901A4
:1013F0008091C90184608093C9018091C901816095
:101400008093C90111E01093000187E491E00E94EC
:10141000F80C8DE791E00E94F80C0E949E11109349
:10142000D301109304011093050113C08091C901E9
:101430008F7D8093C9018091C901877F08C0809109
:10144000C9018F7D8093C9018091C9018D7F8093EF
:10145000C90100934601FFBE1F910F91FF900895AF
:101460000E94101080910701609106010E94F71000
:101470008093CF018091D00186950E9419100E941F
:10148000101089E091E00E94BA148091D201882363
:1014900069F482E08093080183EA0E9419100E9497
:1014A000101089E091E00E94BA1408958091D20151
:1014B000833059F41092D2011092CF0185E00E943E
:1014C0005D0982E68093030108951092D201109283
:1014D000CF0180910601823030F085E00E945D09E5
:1014E00088E78093030108951F93DF93CF9300D083
:1014F000CDB7DEB7CE0101960E942411882309F4EE
:1015000043C080914601873021F481E090E00E9441
:10151000A1029981953AE9F0963A28F4903850F072
:10152000933A91F510C09A3A11F19C3A31F1963AFA
:1015300059F515C080914601882331F5990F909394
:10154000CF0181E01FC0809146018130E9F483E042
:1015500019C0809146018230B9F484E013C08091B3
:101560004601823089F483E0809308010DC08091A8
:101570004601882349F085E005C080914601863008
:1015800019F480E00E945D0980914601843009F4DD
:1015900044C0863009F4E4C0823009F0EBC087E42F
:1015A00091E00E94FD0C882309F0E4C080910801BD
:1015B000823009F4DFC087E491E00E944D0D182FBE
:1015C000809106018F5F8093060180910801813030
:1015D000B1F480910601813019F4109307010DC018
:1015E00080910601823059F4809107012AE0829FA0
:1015F000C0011124810F809307010E94300A80915D
:101600000801833009F0B6C0812F80550E9419105F
:1016100089E091E00E94BA14ADC08091CC0188238A
:1016200059F08091D301882321F082E00E94060EB8
:1016300003C082E00E94F50D87E491E00E94FD0C5A
:10164000882369F48091E201882349F487E491E0DA
:101650000E944D0D8093E00181E08093E201809132
:101660007C01882319F48091040119C0813019F498
:101670008091D30114C0823089F48091D3018823F2
:1016800019F480E090E00BC08091040190E0882381
:1016900009F491E081E09827892F01C081E0BE0123
:1016A0006E5F7F4F0E94A9118091E101883041F463
:1016B0006091DF018DE791E00E94260D1092E1011B
:1016C0008091D30180930501109104018091E20182
:1016D000882389F08091B201882321F48A81809344
:1016E000050109C0813011F41A8105C0823019F456
:1016F0001A8110930501112321F080E00E94060E4B
:1017000003C080E00E94F50D8091D401882391F1FF
:101710008091B501882371F5112381F0809100013A
:10172000823021F080910001833011F48CE90FC0E8
:10173000809100018823F1F48AE909C080910001B9
:10174000882321F080910001813021F483E90E94F7
:10175000191010C080910001823061F486E9F7CF42
:101760008DE091E00E94DB14815A9F4018F080E0E8
:101770000E945D098091B501853011F589E091E005
:101780000E94BA148091D2018823C1F48091B801DB
:10179000863961F0873918F4833981F405C08A39B4
:1017A00051F08C3959F404C082E006C083E004C0D3
:1017B0001092000103C081E0809300011092B501F6
:1017C0008091CF018823D1F08091D4018823B1F09A
:1017D0008091B501882321F08091B501853071F4A5
:1017E00089E091E00E94DB148251934038F089EA4D
:1017F0000E94191089E091E00E94BA148091CF01F3
:10180000882341F080914601863021F08091460185
:10181000853009F4A8950F900F90CF91DF911F911B
:1018200008951F920F920FB60F9211242F933F939A
:101830004F935F936F937F938F939F93AF93BF93D8
:10184000EF93FF93809102018823B1F481E08093AC
:10185000020180916E008E7F80936E0078940E94CA
:10186000740A84EB86BD81E085BB80916E00816047
:1018700080936E0010920201FF91EF91BF91AF91A2
:101880009F918F917F916F915F914F913F912F9198
:101890000F900FBE0F901F9018951F93182F8091D7
:1018A0004601882341F080914601873021F08AE08B
:1018B00090E00E94A102112311F080E001C087E0B6
:1018C0000E945D091F9108951F93182F8091460172
:1018D000882361F18091CF01882319F40E945D096A
:1018E00025C081E08093020180914601853049F452
:1018F0008CEA0E9419100E94101080E00E945D097D
:101900000AC08AEA0E94191086E00E945D098DE0F3
:1019100091E00E94BA141092020102C00E94740A5F
:1019200080914601863011F41123C1F71F9108956B
:1019300080914601833091F481E08093020185EA31
:101940000E9419100E94101089EA0E94191084E068
:101950000E945D091092020182E008958091D001F9
:101960008F3F11F480E0089580914601882321F093
:1019700088E090E00E94A10281E0809302019FB77D
:10198000F8948091C9018F778093C9018091C90132
:101990008F7E8093C9018091C9018F7E8093C90198
:1019A0009FBF82E00E945D091092020181E00895CC
:1019B00014BC82E085BDEEE6F0E08081816080832A
:1019C00080E88093C9010E949E1180E00E945D0919
:1019D00087E491E00E94F80C8DE791E00E94F80CFA
:1019E0001092020181E08093B20180937C010895FE
:1019F000FC0112AA13AA14AA0895FC0194A983A9B0
:101A000020E0981709F421E0822F0895FC0183A9B2
:101A1000813310F090E002C0982F9F5F84A998173F
:101A200089F083A9813310F080E005C08F5F813396
:101A300011F490E002C0982F9F5F84A920E030E06D
:101A4000981711F421E030E0822F0895DC01D3963D
:101A50008C91D397813310F090E002C0982F9F5F54
:101A6000D4968C91D497981711F480E008959FB77D
:101A7000F894D3968C91D397FD01E80FF11D608304
:101A8000D3968C91D397813310F080E001C08F5FA3
:101A9000D3968C939FBF81E00895DC012FB7F89413
:101AA000D4968C91D497FD01E80FF11D8081D496D6
:101AB0009C91D497913310F090E001C09F5FD49631
:101AC0009C932FBF0895FC0193A984A9981718F03F
:101AD00023A984A903C023A984A92E5C281B822FD3
:101AE0000895FC0184A9E80FF11D80810895282F35
:101AF000613619F4E2ECF1E004C0613381F4E3EE05
:101B0000F1E0822F81548A3108F4205E90E08491C4
:101B1000281731F09F5F903211F03196F8CF9FEF88
:101B2000892F0895DB018B3111F481E303C08F31DC
:101B300019F481E68C930BC06C91613331F4E82F7A
:101B4000F0E0ED51FE4F84910895613611F080E090
:101B50000895E82FF0E0EE53FE4F84910895DF9250
:101B6000EF92FF920F931F93CF93DF93D82E7B01B9
:101B7000EA01890187E1D81641F48BE1888382E18B
:101B8000F9018083FB01108227C08D2DFB0160814C
:101B90000E94770D88838FEFF801808388818F3FC3
:101BA000D9F48D2D61E60E94770DF80180838F3F77
:101BB00021F08FE1888381E60DC08D2D61E30E94C5
:101BC000770DF80180838F3F11F480E006C08BE130
:101BD000888381E3F701808381E0DF91CF911F91BA
:101BE0000F91FF90EF90DF9008954FB7F894909188
:101BF000C90121E030E002C0220F331F8A95E2F7CD
:101C0000209529232093C9014FBF08954FB7F89419
:101C10009091C90121E030E002C0220F331F8A9564
:101C2000E2F7922B9093C9014FBF0895982F8A39FC
:101C300091F08B3928F4833941F0863991F405C04D
:101C40008C3949F0893A69F4089581E08093CC0198
:101C50001092D301089581E08093CC018093D30149
:101C6000089580912501E82FF0E0EF5EFE4F90830C
:101C70008F5F8093250180912501843148F0809108
:101C80002601882311F483E10CC0109225010BC0BA
:101C90009091250180912601981729F480912501C2
:101CA0008150809325018091C90180648093C9018E
:101CB0008091C9018F778093C90108951F920F9277
:101CC0000FB60F9211242F933F934F935F936F930F
:101CD0007F938F939F93AF93BF93EF93FF938091E5
:101CE000B3019091B40101969093B4018093B30134
:101CF0008091B90090E0887F90708036910509F45A
:101D0000F5C081369105CCF58832910509F4A8C05B
:101D100089329105B4F48031910509F480C0813194
:101D200091053CF4009709F4B7C0089709F061C128
:101D300065C08831910509F476C0809709F059C1D2
:101D400086C08034910509F4E8C08134910544F4DB
:101D50008033910509F484C0C89709F04AC1A1C035
:101D60008035910509F4AAC08835910509F4A6C00B
:101D70008834910509F03DC19AC08839910509F46C
:101D800004C189399105ECF48837910509F4DBC069
:101D9000893791054CF48836910509F4A2C0803743
:101DA000910509F026C1D4C08838910509F4B7C05F
:101DB0008039910509F4D7C08038910509F019C11F
:101DC000A8C0803B910509F4F5C0813B91054CF416
:101DD000803A910509F4A8C0883A910509F009C133
:101DE000EEC0803C910509F4F1C0883C910509F4EE
:101DF000EDC0883B910509F0FCC0E1C08091B501C0
:101E0000843029F41092BB0010922801DCC080912C
:101E1000B501813021F08091CF018160D2C08091E5
:101E2000CF018E7FCEC08091B501843059F480916E
:101E30002801E82FF0E0E754FE4FE0818F5F8093A8
:101E4000280102C0E091B801E093BB00D2C085E058
:101E50008093B5018091B5018430E1F081E03EC00E
:101E60008091B501843099F4909128018091B70157
:101E7000981768F480912801E82FF0E0E754FE4FAE
:101E800090818F5F809328019093BB00B2C085E062
:101E90008093B5011092D20181E08093D40185E551
:101EA000ABC08091D1018F5F8093D101A4C085E048
:101EB0008093B50181E08093D201EFCF8091BB0088
:101EC000809327018091B501823009F78091270125
:101ED00087FD91C085E08093B50183E08093D201B6
:101EE000DBCF8091D1018F5F8093D101A8951092B3
:101EF000CB011092CA011092D40110922801909146
:101F0000BB008091CD018150969589238093CE01AD
:101F100004C08091BB000E94160E85E06DC08091C8
:101F2000BB000E94160E52C081E08093D4019091B4
:101F300028018091B701891708F04BC080912801D2
:101F40008093B70146C08091D1018F5F8093D1010A
:101F50001092CB011092CA011092D4011092280164
:101F60001092B70146C09091BB008091280180314A
:101F700008F03FC080912801E82FF0E0E754FE4FC1
:101F800090838F5F8093280134C09091BB00809133
:101F90002801803150F480912801E82FF0E0E754C7
:101FA000FE4F90838F5F809328018091280180935A
:101FB000B7010CC08091D1018F5F8093D1018091D6
:101FC000C9018093BB001092D40113C081E08093BB
:101FD000D4018091B501833071F08091B5018130D9
:101FE00051F08091B501823031F08091B50184309B
:101FF00011F085E401C085E680688093BC00FF9104
:10200000EF91BF91AF919F918F917F916F915F9170
:102010004F913F912F910F900FBE0F901F901895E9
:102020008091B501882321F08091B5018530C1F7F9
:102030000895982F8091B501882321F08091B501F2
:102040008530C1F72FB7F8949093B80197FF02C07D
:1020500081E001C082E08093B5018091D4018823A2
:1020600049F08091BC0084FDFCCF8091BC0080626F
:102070008093BC002FBF08958091B501882321F083
:102080008091B5018530C1F79FB7F89484E08093C3
:10209000B5018091D401882349F08091BC0084FD72
:1020A000FCCF8091BC0080628093BC009FBF0895EC
:1020B000982F8091B501882321F08091B50185305A
:1020C000C1F72091CF019093CF0183E08093B501B8
:1020D0008091D401882349F08091BC0084FDFCCF1D
:1020E0008091BC0080628093BC008091B501882300
:1020F00021F08091B5018530C1F72093CF01809107
:10210000D201882319F02FEF3FEF04C080912701FF
:10211000282F30E0C90108951F93182F82508B3D5E
:10212000F0F410FD1CC0812F0E94581097FF17C0BB
:102130009FB7F8941093BA008091B601882329F0D4
:102140008091BA0081608093BA008091BC00806465
:102150008093BC001093D0019FBF81E00EC08FB769
:10216000F8941092BA009091BC009F7B9093BC00B1
:102170009FEF9093D0018FBF80E01F91089581E081
:102180008093D4011092B5011092D2011092D10126
:1021900010922601109225011092B4011092B30101
:1021A0001092CB011092CA011092B8018093B9002D
:1021B00087E18093B8008091D0018E7F8093BA0030
:1021C0001092B701109228018091B601882329F05E
:1021D0008091BA0081608093BA0084E88093BC004B
:1021E0008091CD018150880F8093BD0008956130AA
:1021F00041F48A3080F4882311F48CED08958C59D1
:1022000008C0623041F4882311F488EC08958436C4
:1022100010F4880F08958FEF0895982FFB018250D6
:102220008B3D10F010820DC09695953630F081E010
:1022300080839E3630F4945605C082E080839436C5
:1022400009F490E0892F0895DC0190912601809196
:102250002501981711F480E0089590912601E92F47
:10226000F0E0EF5EFE4F80818C939F5F909326019C
:1022700080912601843110F0109226019091260160
:1022800080912501981711F081E008959FB7F89487
:102290008091C9018F7B8093C9019FBF81E0089520
:1022A000909126018091250120E0981709F421E002
:1022B000822F0895809129018130A9F0813018F092
:1022C000823039F522C0489909C08AE291E00E9423
:1022D000DB14C397F0F081E0809329018AE291E05A
:1022E0000E94BA14089548990BC08AE291E00E94B6
:1022F000DB148152934068F082E08093290102C090
:10230000109229018093D5010895489B02C0109234
:10231000290108951092D50103C0A8950E945A1171
:102320008091D5018823C9F38091D5011092D50100
:1023300090E0823009F491E0892F08951092E10134
:102340001092E20180E890E090932F0180932E019B
:1023500008951F93CF93DF93182FEB018091E20133
:10236000883030F4823090F5813009F05BC004C0D1
:10237000883009F057C048C08091E101882329F0D6
:102380008091E101883009F04DC086ED91E00E9416
:10239000DB148234910508F445C018828BED91E07E
:1023A0000E94BA1482E08093E2018091E0018F7173
:1023B0008093E0018091E001880F880F8093E00115
:1023C0008091E00183608093E0012CC08091E00166
:1023D000188287FF02C081E088838BED91E00E9424
:1023E000DB144697F8F08BED91E066E170E00E9417
:1023F000C7148091E001880F8093E0018091E20191
:102400008F5F8093E2010EC081E088838BED91E0C5
:102410000E94DB14819730F08BED91E00E94BA149A
:102420001092E2018091E101873048F4823008F097
:102430006FC0882389F0813009F0FFC022C0873047
:1024400009F494C0883009F0F8C086ED91E00E944C
:10245000DB14039708F4F1C0112309F0EEC086EDF8
:1024600091E00E94BA1481E08093E1011092DF01B3
:1024700080E890E090932F0180932E011092DA0172
:10248000DCC0112369F080912E0190912F018F3FC4
:102490009105B4F480912E0190912F0101960CC00A
:1024A00080912E0190912F01181619064CF48091FD
:1024B0002E0190912F01019790932F0180932E016F
:1024C00080912E0190912F0187399105F4F486EDCA
:1024D00091E00E94DB140C9708F4AFC080912E01AC
:1024E00090912F018038910584F482E08093E1017E
:1024F00080E890E090932F0180932E0186ED91E08B
:1025000069E070E00E94C71498C01092E10195C084
:1025100086ED91E00E94DB14429708F48EC01123EF
:1025200069F080912E0190912F018F3F9105B4F4B5
:1025300080912E0190912F0101960CC080912E0167
:1025400090912F01181619064CF480912E0190914C
:102550002F01019790932F0180932E0186ED91E03A
:102560000E94DB14469708F046C067C086ED91E0F4
:102570000E94DB14429708F460C0112369F0809137
:102580002E0190912F018F3F9105B4F480912E017F
:1025900090912F0101960CC080912E0190912F01F6
:1025A000181619064CF480912E0190912F01019775
:1025B00090932F0180932E0186ED91E00E94DB1411
:1025C0004097D8F18091E1018730A9F41123A9F156
:1025D00080912E0190912F0120E0803891050CF41C
:1025E00021E02093DA0188E08093E10186ED91E01B
:1025F0000E94BA1422C08091DF01880F8093DF010E
:1026000080912E0190912F01803891052CF08091BE
:10261000DF0181608093DF018091E1018F5F809312
:10262000E10186ED91E066E170E00E94C71480E868
:1026300090E090932F0180932E01DF91CF911F9115
:102640000895FF920F931F93CF93DF93EC01F62E23
:1026500010E000E001C000E20E94C5038A30A9F04A
:102660008B3028F4882351F0893051F5F5CF803232
:1026700021F1833289F38D3019F507C0112319F048
:10268000C10FD11D188280E035C0112389F40023C9
:1026900019F3802F8D52823060F10B3251F10D33DE
:1026A00041F10F3231F1003229F00883198203C061
:1026B000C10FD11D188282E01DC0112361F202C03A
:1026C000803250F21F1540F6112369F4002311F4F3
:1026D000082FC2CF003219F4888311E0BDCF0883E0
:1026E000898312E0B9CFFE01E10FF11D80831F5FE6
:1026F000B3CF81E0DF91CF911F910F91FF900895AB
:10270000CF93DF93EC010E94C5038A3431F18B34FF
:1027100090F4803329F1813348F48D3209F18E32FF
:10272000D0F48823B1F08B3271F717C08133A9F050
:102730008D3349F710C08A3681F08B3628F48E34F9
:1027400079F0893501F709C08E3651F08937D9F60D
:1027500004C080E007C081E005C081E0888301C03B
:10276000188282E0DF91CF910895FF920F931F931B
:10277000CF93DF93EC01062F10E08AE0F82E0E9441
:10278000C503282F80538A3068F4112331F08881E3
:102790008F9DC00111248053820F88831F5F101703
:1027A00071F712C0822F8D52823070F02B3261F09F
:1027B0002D3351F02F3241F0222311F48FEF05C059
:1027C0002930E9F21123D9F2812FDF91CF911F91A6
:1027D0000F91FF900895EF92FF920F931F93DF9355
:1027E000CF9300D0CDB7DEB78E010F5F1F4F92E0C1
:1027F000E92EF12CEC0EFD1E8091D001B8010E9453
:102800000D118A8380E592E00E9486148A81698195
:102810000E94541485E492E00E948614C70162E08D
:102820000E94B51387FD2EC0882339F48091D00112
:10283000B8010E940D118A8301C089839091CD0156
:1028400091958A8189238A838AE392E00E94861483
:102850008A8169810E94541480E20E9478048A81EE
:1028600069810E94F7100E948C10882331F084E067
:1028700092E00E94861481E006C08AE092E00E9405
:102880008614BACF80E00F900F90CF91DF911F9107
:102890000F91FF90EF9008958A3010F4805D01C091
:1028A000895A0E94780408951F93282F362F6AE0D2
:1028B0000E949317482F822F0E949317192F4423A9
:1028C00011F432302CF03150842F632F0E945414B5
:1028D000812F0E944C141F9108951F93182F8295E9
:1028E0008F700E944C14812F8F700E944C141F9186
:1028F0000895CF93DF93EC0103C00E9478042196E2
:1029000088818823D1F7DF91CF910895CF93DF930A
:10291000EC0103C00E9478042196FE018491882373
:10292000C9F7DF91CF91089582E08093B00084E0F1
:102930008093B1008FE58093B300E0E7F0E0808101
:102940008260808308951F920F920FB60F92112418
:102950008F939F938091E3019091E401019690936E
:10296000E4018093E3019F918F910F900FBE0F9030
:102970001F901895FC012FB7F8948091E301909176
:10298000E40191838083138212822FBF0895FC019A
:1029900080819181860F971F9183808382819381AB
:1029A0008617970718F4138212820895861B970BD7
:1029B000938382830895FC018FB7F8944091E301DB
:1029C0005091E40120813181421B530B8FBF8281E2
:1029D00093818417950710F45383428382819381F6
:1029E00008951092E8011092E9011092E601109208
:1029F000E5011092E7011092EA010895FC016830A8
:102A0000F8F080818336E1F481818C36C9F48281CB
:102A10008B36B1F483818093E80184818093E9014E
:102A200085818093E60186818093E501878180938B
:102A3000E701683019F080858093EA0181E008950C
:102A400080E00895FF920F931F938C01F62E862F3E
:102A50006AE00E949317805D61E30E94770DF801A0
:102A600080838F2D6AE00E949317892F805D61E338
:102A70000E94770DF80181831F910F91FF900895B7
:102A80001F93CF93DF93EC018091E601882341F1FE
:102A9000FE018BE18193CF016091E6010E94221536
:102AA00017E01B83CE0104966091E9010E94221574
:102AB0001E83CE0107966091E8010E94221584E0F2
:102AC0008987CE010A966091E5010E9422158EE069
:102AD0008C87CE010D966091E7010E9422158FE050
:102AE000DF91CF911F9108951092ED011092EC01AA
:102AF0001092EF011092EE011092F1011092F0018C
:102B00001092F3011092F2011092EB011092300139
:102B1000109232011092310110923401109233015F
:102B20000895982FFA01A081B18142815381A417A1
:102B3000B50711F480E0089570E0A417B507A8F474
:102B40008CE3989FC0011124860F971F8A179B075B
:102B500018F480E090E0089520E08417950708F0CD
:102B600021E081E02827822F08958CE3989FC001FF
:102B70001124860F971F8417950728F020E030E076
:102B80008A179B0710F021E030E0822F08950F9301
:102B90001F93809130011091E5010091E701882396
:102BA000E9F0109230018CE3189F90011124200F5E
:102BB000311D3093320120933101C9010A9690935F
:102BC000340180933301815A954008F43FC026595F
:102BD0003540309334012093330138C0812F602F6A
:102BE00041E351E00E949115882381F51092320152
:102BF0001092310110923401109233018091EB0157
:102C0000882391F4812F602F4CEE51E00E949115A2
:102C1000882319F081E090E01AC0812F602F40EFE7
:102C200051E00E94911513C08091EA01863038F07E
:102C3000812F602F40EF51E00E94911508C0812F35
:102C4000602F4CEE51E00E94911501C080E01F9171
:102C50000F91089581E08093300108950F931F93A1
:102C6000DF93CF9300D0CDB7DEB78C01FC0180811C
:102C700091816CE370E00E949F17862F698324EC9A
:102C80003FEF629F202D11249081290F2A8362E05B
:102C90000E9454148A8162E00E94541485EE92E0EE
:102CA0000E948614CE01019662E00E94B51388232B
:102CB000E1F0CE01029662E00E94B51387FF02C0E8
:102CC00080E014C089812CE3829FC00111242A81F5
:102CD000820F911DF80191838083815A954028F0DD
:102CE00080EA95E0F8019183808381E00F900F9056
:102CF000CF91DF911F910F91089581EB92E00E9497
:102D0000861483EA92E00E94861481E60E94780489
:102D10008CE992E00E9486148CEE91E00E942E16BF
:102D2000882309F445C084E092E00E9486148FE86D
:102D300092E00E9486148EEE91E00E942E16882367
:102D4000B9F184E092E00E94861483EA92E00E9446
:102D5000861482E60E9478048CE992E00E94861430
:102D600080EF91E00E942E16882311F184E092E01A
:102D70000E9486148FE892E00E94861482EF91E010
:102D80000E942E168823A1F084E092E00E9486140F
:102D900087E692E00E9486148BEE91E00E948013F9
:102DA000882331F084E092E00E94861481E0089547
:102DB00080E00895CF93DF93EC010E94BB179093BE
:102DC000ED018093EC01815A954030F080EA95E066
:102DD0009093ED018093EC01CE0102960E94BB1707
:102DE0009093EF018093EE01815A954030F080EA94
:102DF00095E09093EF018093EE01CE0104960E943E
:102E0000BB179093F1018093F001815A954030F007
:102E100080EA95E09093F1018093F001CE0106964F
:102E20000E94BB179093F3018093F201815A954061
:102E300030F080EA95E09093F3018093F201CE01A7
:102E400040960E94BB171092EB01019719F481E0A4
:102E50008093EB01DF91CF910895EF92FF920F9352
:102E60001F93CF93DF93EC010091EC011091ED01E2
:102E70000E94BB170817190721F0CE01B8010E9464
:102E8000CF17E090EE01F090EF018E010E5F1F4F23
:102E9000C8010E94BB17E816F90621F0C801B70166
:102EA0000E94CF17E090F001F090F1018E010C5FCD
:102EB0001F4FC8010E94BB17E816F90621F0C80190
:102EC000B7010E94CF17E090F201F090F3018E015C
:102ED0000A5F1F4FC8010E94BB17E816F90621F0D0
:102EE000C801B7010E94CF171091EB016096CE0187
:102EF0000E94BB17412F50E020E030E0019711F411
:102F000021E030E04217530739F081E01827CE0165
:102F1000612F70E00E94CF17DF91CF911F910F9129
:102F2000FF90EF900895991B79E004C0991F9617C0
:102F300008F0961B881F7A95C9F780950895AA1BFB
:102F4000BB1B51E107C0AA1FBB1FA617B70710F094
:102F5000A61BB70B881F991F5A95A9F780959095C6
:102F6000BC01CD010895F999FECF92BD81BDF89ABB
:102F7000992780B50895A8E1B0E042E050E00C94B4
:102F8000D617262FF999FECF1FBA92BD81BD20BD5D
:102F90000FB6F894FA9AF99A0FBE019608950E9416
:102FA000C117272F0C94C217DC01CB01FC01F99942
:102FB000FECF06C0F2BDE1BDF89A319600B40D9285
:0C2FC00041505040B8F70895F894FFCF3E
:022FCC00010002
:00000001FF
