:100000000C94C7010C94E4010C94E4010C94E401F9
:100010000C94E4010C94E4010C94E4010C948B1511
:100020000C94E4010C94E4010C94E4010C94E401BC
:100030000C94E4010C94E4010C94E4010C94E401AC
:100040000C94E10C0C94E4010C94E4010C94E40194
:100050000C94E4010C94E4010C94E4010C94E4018C
:100060000C94350F0C94E4015F5F5F69746C785FEA
:1000700054573339706C75732D504C31305F5F5F5E
:100080004A756C20203420323031395F5F5F313562
:100090003A33333A32385F5F5F3335365F5F5F0044
:1000A0000D0A7A65696C6520310D0A7A65696C659F
:1000B00020320D0A7A65696C652033000D0A202B09
:1000C0002B2B200D0A0A0A0A0029206E65753A209A
:1000D00020202020000D0A2066756E6B74696F6EFB
:1000E00020746173746520616D206D6F64756C3A66
:1000F0002028616B742E200029206E657520283021
:10010000203D20617573293A202020202000617550
:1001100073000D0A206C6F6B616C626574726965A7
:100120006220776165686C656E206D69743A20287D
:10013000616B742E200029206E6575202830203DCB
:1001400020617573293A20202020200061757300FA
:100150000D0A206B6F6D6D656E646520616E727542
:100160006665207370657272656E206D69743A20E1
:1001700028616B742E20000D0A202B2B2B200D0ADA
:100180000A0A0A000D0A206B65696E6520736F6E9E
:1001900064657266756E6B74696F6E656E20616200
:1001A00066726167656E3A20202020002F31303062
:1001B0002073656B293F202020202020000D0A207D
:1001C0006C61656E6765207761686C617566662D28
:1001D000696D702E2028616B742E20000D0A207727
:1001E0006165686C7363686569626520766F7268C3
:1001F000616E64656E3F20616B7475656C6C3A204E
:10020000000D0A206B6F6E66696775726174696FA5
:100210006E2074773339706C7573207665727369EC
:100220006F6E2033353620646174756D204A756CAD
:100230002020342032303139000D0A6C6F630D0AF2
:100240000023740D6F20686E6D0A6C7267697063AD
:1002500076657A64627379667861776A2375716B03
:100260002323350D3920232C2E0A29342338303A04
:100270003D332B173F2736232F2D320723373128C5
:1002800023206F6B2E2000206E65753A20202020E1
:1002900020000D0A207765697465726C6569747554
:1002A0006E67656E20616277656973656E3F206178
:1002B0006B7475656C6C3A2000207363686F6E20F8
:1002C000766572676562656E206F64657220756E13
:1002D0006775656C7469672C20616E646572652052
:1002E000776165686C656E21000D0A207072756516
:1002F000666520000D0A2064757263687761686C1A
:1003000020616B7475656C6C3A20000D0A20737067
:100310006572727A65697420776F6368656E656E61
:10032000642D61626861656E6769673F20616B7407
:1003300075656C6C3A20000D0A202E2E2E20626905
:10034000733A200020766F6E3A20000D0A207370F9
:100350006572727A65697420000D0A207A65697485
:10036000656E20766965727374656C6C6967206F61
:10037000686E652070756E6B7420756E64206B6F8F
:100380006D6D612065696E676562656E00001124A0
:100390001FBECFEFD4E0DEBFCDBF11E0A0E0B1E0E3
:1003A000E6ECF1E302C005900D92A230B107D9F757
:1003B00011E0A2E0B1E001C01D92A43FB107E1F756
:1003C0000E942B050C94E1180C94000080913E01D2
:1003D000882331F0599A80914401882319F004C090
:1003E000599803C02A9A01C02A9880914401882311
:1003F00011F0589A01C0589880913501339B0CC078
:100400008823B1F089E391E00E94C31581529340A3
:1004100098F01092350110C0882351F489E391E0DF
:100420000E94C315069740F081E08093350104C017
:1004300089E391E00E94A21580914401882321F074
:1004400080913501882321F481E0809343011BC012
:1004500090914301339B0BC09923A9F08FE391E066
:100460000E94C315049798F01092430110C099237D
:1004700051F48FE391E00E94C315049740F081E0AE
:100480008093430104C08FE391E00E94A215809104
:10049000C9019091430184FF06C0992311F4289A61
:1004A000089528980895992311F4299A0895299870
:1004B0000895CF92DF92EF92FF920F931F93DF93F5
:1004C000CF93CDB7DEB728970FB6F894DEBF0FBE37
:1004D000CDBF8E010F5F1F4FC8010E94A21585E09E
:1004E000E82EF12CEC0EFD1EC7010E94A215CC24B3
:1004F000C394D02E012F1E2DEF2CC0923E01C0922E
:1005000044010E94E60180913501882321F48D2D5C
:10051000902F0E94A215812F9E2D0E94C3158955F0
:100520009B4148F010923E0181E0809344010E947B
:10053000E60180E008C08D2D902F0E94C3158C52DB
:100540009140D8F281E028960FB6F894DEBF0FBE36
:10055000CDBFCF91DF911F910F91FF90EF90DF9072
:10056000CF900895EF92FF920F931F93DF93CF9355
:1005700000D000D0CDB7DEB780913501882331F0AF
:1005800080913E01882311F40E9459028E010F5F71
:100590001F4FC8010E94A215EE24E394F02E012FF4
:1005A00010923E01E09244010E94E60180913501E3
:1005B000882321F08F2D902F0E94A2158F2D902F30
:1005C0000E94C315845F914058F30F900F900F90D5
:1005D0000F90CF91DF911F910F91FF90EF900895B1
:1005E000DF93CF9300D000D0CDB7DEB77C0180E899
:1005F0008093BC008E010F5F1F4FC8010E94A2159F
:10060000DD24BB24C02E012F31E0432E512C4E207F
:100610005F2022E0622E712C6E207F2094E0892ED4
:10062000912C8E209F2028E0E222FF2402C0BB24D0
:10063000B394A8958C2D902F0E94C3158159914099
:10064000F0F08C2D902F0E94A2154E9905C084E0E9
:100650008D1568F3D394EDCFDD2059F3DA9449F783
:10066000BB2039F3F8942EE088E190E00FB6F894BF
:10067000A895809360000FBE20936000FFCFBB2041
:10068000F1F48C2D902F0E94C315893C9105B8F090
:100690004114510411F05F9A01C05F986114710414
:1006A00011F0289A01C028988114910411F0299A18
:1006B00001C02998E114F10429F02A9ABACF5F9871
:1006C000289829982A98B5CFFF920F931F93DF930C
:1006D000CF9300D000D0CDB7DEB75F9A80E00E9404
:1006E0001D0D81E08093440180913E018823A1F497
:1006F0000E9459028E010F5F1F4FC8010E94A21570
:10070000F02E012F02C00E94E6018F2D902F0E9433
:10071000C315845F9140B8F389E392E00E946E159F
:1007200002C00E94E601809135018823D1F70E9422
:10073000B20281E00E941D0D5F980F900F900F9004
:100740000F90CF91DF911F910F91FF900895AF927D
:10075000BF92CF92DF92FF920F931F93DF93CF93BD
:1007600000D000D0CDB7DEB7F82ECE0101960E94A2
:10077000A21580E00E941D0DFF2051F083E0F816C5
:1007800039F082E0F81611F081E003C084E001C086
:1007900082E090E024EF31E0829F5001839FB00C13
:1007A000929FB00C11242CE231E0829F6001839F64
:1007B000D00C929FD00C11248E010F5F1F4F0E940E
:1007C00031128091D501882329F01092D5010E9421
:1007D0001B172FC00E94E60180913501882349F53F
:1007E000C8010E94C315A816B90620F4C8010E94CA
:1007F000A21509C0C8010E94C315C816D90610F475
:100800002A9A01C02A988091B7018823C1F2609189
:10081000B70189EB91E00E94E615882339F082E068
:10082000F81621F40E94B816882319F01092B70127
:10083000C6CF2A9881E00E941D0D0F900F900F9057
:100840000F90CF91DF911F910F91FF90DF90CF908C
:10085000BF90AF9008951F93182F5F9A81E00E9478
:10086000340D80E00E941D0D112329F00E94B20278
:1008700002C00E94E601809135018823D1F75F987C
:1008800081E00E941D0D1F9108951092B201809386
:10089000E00181E08093E20108C08091430164E4BB
:1008A00071E00E9480120E94E6018091E20188239B
:1008B000A1F7089510927D010E94E6018091430105
:1008C00064E471E00E9480128091E101883051F46B
:1008D0008091DF016CE771E00E944F0E1092E10100
:1008E000882321F480913501882331F70895DF9220
:1008F000EF92FF920F931F93DF93CF9300D000D01E
:10090000CDB7DEB7E82E8E010F5F1F4FC8010E94E2
:10091000A21581E00E947D0981E08093B20180935D
:100920007D01DD24D394F02E012F01C0EE240E941E
:10093000E6010E94311280913501882361F40E9402
:10094000340D0E94B20202C00E94E6010E9480099A
:100950008823D1F356C00E948009882331F00E9479
:10096000B20280E00E94340D4CC00E947A0980934C
:1009700044018091E201823060F4809143010E9441
:100980007D0907C08EE791E00E94250E8F3109F0A6
:10099000EE248EE791E00E94D50D882399F3EE2096
:1009A00011F18F2D902F0E94C315DD2019F428E836
:1009B00033E102C024EF31E082179307A0F088E40E
:1009C00091E06BE10E94FE0D88E491E06BE10E94F2
:1009D000FE0D88E491E062E10E94FE0D8F2D902FC4
:1009E0000E94A215DD248F2D902F0E94C315895ED1
:1009F000934008F49CCF80914301882309F496CF5B
:100A000096CF0F900F900F900F90CF91DF911F9185
:100A10000F91FF90EF90DF900895DF93CF9300D078
:100A2000CDB7DEB76CE771E0AE014F5F5F4F9E015F
:100A30002E5F3F4F0E94850E882341F089810E94DE
:100A400045048A818F3F11F00E9445040F900F905A
:100A5000CF91DF9108958F929F92AF92BF92CF92E4
:100A6000DF92EF92FF920F931F93DF93CF93CDB757
:100A7000DEB729970FB6F894DEBF0FBECDBF8FE06B
:100A800028E130E00FB6F894A895209360000FBEDF
:100A900080936000579A209A219A229A509A519AEC
:100AA0003B98439A56985E9A5F9A0E947C150E94E2
:100AB000651680E090E00E94B0188E7F8093D00190
:100AC00082508B3D18F08EE38093D00181E08093BB
:100AD000CD018093B60189E190E00E94B018109298
:100AE0004601813011F48093460181E090E00E943C
:100AF000B01810924501882319F081E080934501D8
:100B000082E090E00E94B01880933D0181508436CD
:100B100018F08EE180933D0183E090E00E94B018D0
:100B200080933601843610F0109236018AE190E00D
:100B30000E94B01880933801843618F088E58093BD
:100B4000380184E090E00E94D91788E190E00E948B
:100B5000B0188093370110923E0181E080934401E8
:100B600010923501809343010E94A80D0E94E60176
:100B7000CE0102960E94A21578948E010E5F1F4F3F
:100B8000C8010E94C3158A3F9105D0F35F98289A47
:100B90000E9496118E010E5F1F4FC8010E94C3155F
:100BA000845F9140D0F32898299A8E010E5F1F4FE1
:100BB000C8010E94C3158E5E9240D0F329982A9AEC
:100BC00080E98093BC008E010E5F1F4FC8010E9418
:100BD000C315885F9240D0F385EC8093BC008E01F2
:100BE0000E5F1F4F74E1F72EC8010E94C31540919C
:100BF000D0014F9D9001112428513C4F821793073B
:100C000098F3842F0E94631110923E0181E080933B
:100C1000440162E0A62EB12CAC0EBD1E4E0108941C
:100C2000811C911CC5010E94C315815B944060F03A
:100C3000C5010E94C3158957954040F48091D001A9
:100C40008F3F11F45F9A05C05F9803C0C5010E94F1
:100C5000A215289829982A980E9431120E94E6012C
:100C60008091D501823009F049C11092D5010E94CE
:100C7000751280E00E941D0D5F9A0E945902882320
:100C800009F4CCC080917C018E7F80937C0181E04F
:100C900092E00E946E150E94B814882309F4BEC029
:100CA0008CED91E00E946E1580914501882311F42E
:100CB0008EE601C08AE60E940D0587E892E00E9458
:100CC0006E1585E491E00E945614882309F4A6C0AD
:100CD00081E892E00E946E15809145018823F9F029
:100CE0008DEB91E00E946E1580913D0160E00E94C5
:100CF0003C158CEA91E00E946E158DE391E060E076
:100D00000E94821487FD8AC080913D01882319F4D6
:100D100081E080933D0181E892E00E946E1584E8B5
:100D200091E00E946E15C4010E945614882309F4B4
:100D300075C081E892E00E946E158981882361F078
:100D40001092360188E5809338010E946516109252
:100D5000370187E791E060C080E591E00E946E1561
:100D600080913601882321F062E00E943C1504C086
:100D70008CE491E00E946E1586E391E00E946E156E
:100D800086E391E062E00E94821487FD47C081E81B
:100D900092E00E946E1582E191E00E946E158091B2
:100DA0003801882321F062E00E943C1504C08EE0E7
:100DB00091E00E946E1588EF90E00E946E1588E326
:100DC00091E062E00E94821487FD28C081E892E0F1
:100DD0000E946E150E946E17882301F184E090E056
:100DE0000E942C1885ED90E00E946E1580913701CD
:100DF00060E00E943C1589EC90E00E946E1587E34C
:100E000091E060E00E94821487FD08C081E892E0D2
:100E10000E946E158CEB90E00E946E150E94B2024B
:100E20001091D00180E090E00E94B018181729F0CE
:100E300080E090E0612F0E94BE181091460189E188
:100E400090E00E94B018212F30E090E02817390779
:100E500029F089E190E0612F0E94BE1810914501B0
:100E600081E090E00E94B018412F50E020E030E097
:100E7000882311F021E030E04217530729F081E088
:100E800090E0612F0E94BE1810913D0182E090E039
:100E90000E94B018181729F082E090E0612F0E949C
:100EA000BE181091360183E090E00E94B018181728
:100EB00029F083E090E0612F0E94BE181091380164
:100EC0008AE190E00E94B018181729F08AE190E0BA
:100ED000612F0E94BE181091370188E190E00E94B6
:100EE000B018181729F088E190E0612F0E94BE1811
:100EF00081E00E941D0D5F981092D5018091D5016F
:100F0000813009F043C01092D501809137018130C2
:100F100041F50E94751280E00E941D0D0E94590249
:100F20008823A1F12A9A00EA10E00EC00E940D0564
:100F30000E9431128091D501882351F480913501AE
:100F4000882331F00F5F1F4FF8018491882371F7D8
:100F50001092D5010E94B20281E00E941D0D2A98D4
:100F600015C02A9A80E00E941D0D02C00E94311215
:100F70008091D5018823D1F31092D50181E00E94A0
:100F80001D0D2A985F9880E00E94A703809135018B
:100F9000882309F456C18091D0018F3F09F442C1E2
:100FA0000E941B17289A0E94680D882321F0813027
:100FB00009F03BC102C0289844C1809145018823B3
:100FC00009F480C08E010A5F1F4FC8010E94A2155C
:100FD00002C00E94E601C8010E94C3158C5B9240CA
:100FE000C0F310924401C8010E94A2158E010A5F4D
:100FF0001F4F5AE0F52E02C00E94E601C8010E9470
:10100000C31520913D012F9D900111248217930754
:1010100098F381E080934401C8010E94A21500E08A
:1010200010E046E0E42EF12CEC0EFD1E0E94E601DD
:1010300080914301882371F40E94E601809143016D
:10104000882321F4809135018823B1F71F5FC70100
:101050000E94A21580913501882309F4BBC00E942B
:101060008009882309F0B6C0112379F0C7010E94D6
:10107000C315893C910548F01A3010F080E001C09A
:10108000812F0E94BE0901E010E00E9466098823BA
:1010900009F011C1C7010E94C315002329F428E9F2
:1010A0003AE340E050E004C028EC3FEA40E050E082
:1010B000A0E0B0E0281739074A075B070CF0B6CF6D
:1010C000802F7CC00E945902882309F483C00E94AB
:1010D00075128BE10E94450480917C0182608B7FB8
:1010E00080937C018E010A5F1F4FC8010E94A215E8
:1010F000EE24FF24DD24C02E012F0E94E601809102
:10110000430164E471E00E9480128091E101883023
:1011100079F58091DF016CE771E00E944F0E10922B
:10112000E101982F90539A3030F4892F0E94BE0924
:10113000DD24D39412C08C3629F4DD2059F40E94AA
:10114000640348C0882349F0803239F08D3029F09B
:101150008A3019F00894E11CF11C8C2D902F0E940C
:10116000A21506C08FE30E940D050894E108F1085E
:10117000E114F10439F08C2D902F0E94C315883CA6
:10118000910580F70E946609882309F052C08C2DD2
:10119000902F0E94C315DD2029F428E93AE340E0AE
:1011A00050E004C028EC3FEA40E050E0A0E0B0E0AE
:1011B000281739074A075B0724F48D2D0E942B045A
:1011C00009C080913501882329F00E948009882375
:1011D00009F493CF81E00E94340D80913601882379
:1011E00069F00E94770990913601891739F428989F
:1011F0000E94B20283E00E94A70323C080913801BD
:10120000882331F00E94770990913801891739F0CD
:101210000E9477099091D0019695891719F40E9440
:1012200064030FC00E94B2020CC08FE090E00E94E5
:10123000F0028091450191E089270E9477040E9485
:101240001B170E9466098823F9F00E94E601299A7B
:101250005F9A0E945902882349F4299881E00E94EC
:10126000340D81E00E94A7035F980EC05F980E9432
:10127000680D823031F081E00E94340D0E94B2028C
:1012800003C080E00E9477048091B701882309F4AD
:10129000C9CC6091B70189EB91E00E94E6158823E3
:1012A00039F00E94B816882319F082E00E94A70343
:1012B0001092B701B7CC0E945902BBCF8091470171
:1012C00090E0882309F491E0892F089580914701E7
:1012D000833031F08091470120E030E0843011F418
:1012E00021E030E0822F08958091CE010895809111
:1012F00007010895809105010895809304010895E0
:1013000080914701882331F08091470120E030E04F
:10131000853011F421E030E0822F089588E491E0D7
:101320000E94D50D0895CF93DF93EC018EE791E0F5
:101330000E94D50D882311F080E006C08EE791E071
:101340000E94250E888381E0DF91CF9108951F933D
:10135000182F88E491E0612F0E94FE0D882361F030
:101360001F3121F481E080937C0106C01B3119F408
:1013700083E080937C0181E01F910895682F809124
:101380004701823049F480910801882329F088E4DC
:1013900091E00E94FE0D089589E090E00E94F00225
:1013A000089588E491E00E94DE0D0895DF93CF93C5
:1013B00000D0CDB7DEB76CE771E0AE014F5F5F4F95
:1013C0009E012E5F3F4F0E94850E882379F088E4AE
:1013D00091E069810E94FE0D882349F06A816F3F88
:1013E00029F088E491E00E94FE0D811181E00F90C8
:1013F0000F90CF91DF910895EF92FF920F931F937B
:10140000DF93CF930F92CDB7DEB78C017E010894A6
:10141000E11CF11CC7010E949309882351F08981C6
:101420006CE771E00E944F0EF8018083882391F3EE
:1014300081E00F90CF91DF911F910F91FF90EF907E
:101440000895FF920F931F93082F8091470108176B
:1014500009F4CEC0FFB6F89410920801033009F4E5
:101460005AC0043028F40130A9F10230E0F517C069
:10147000053009F4A7C0053008F467C0063009F448
:10148000AAC0073009F0B1C08091C9018F7780935D
:10149000C9018091C9018F7E8093C90118C08091D4
:1014A000C90180748093C9018091C90180688093CB
:1014B000C90180914601882329F08091C90180618A
:1014C0008093C90181E0809304018093050110920B
:1014D000CF018BC08091C9018F778093C901809122
:1014E000C9018F7E80C08091C9018F778093C90127
:1014F0008091C9018F7E8093C901109206011092DC
:10150000070181E08093080188E491E00E94D10DF9
:1015100010927C016AC08091C9018F778093C901C4
:101520008091C9018F7E8093C9018091C90180613A
:101530008093C9018091C90188608093C90181E0CD
:101540008093D3018093050150C08091C90187FF2A
:101550000FC08091C9018F778093C9018091C90123
:101560008F7E8093C9018091C90180618093C901F8
:101570008091C90180628093C9018091C901826014
:101580008093C9018091C90184608093C9018091D1
:10159000C90181608093C90111E01093000188E4C2
:1015A00091E00E94D10D8EE791E00E94D10D109242
:1015B0007C010E9475121093D301109304011093C3
:1015C000050113C08091C9018F7D8093C90180916D
:1015D000C901877F08C08091C9018F7D8093C901AF
:1015E0008091C9018D7F8093C90100934701FFBE9F
:1015F0001F910F91FF9008950E94E71080910701BD
:10160000609106010E94CE118093CF018091D0019C
:1016100086950E94F0100E94E71089E091E00E94F8
:10162000A2158091D201882369F482E08093080199
:1016300083EA0E94F0100E94E71089E091E00E9486
:10164000A21508958091D201833059F41092D201ED
:101650001092CF0185E00E94210A82E68093030167
:1016600008951092D2011092CF018091060182302C
:1016700030F085E00E94210A88E7809303010895F5
:101680001F93DF93CF9300D0CDB7DEB7CE01019685
:101690000E94FB11882309F443C0809147018730E1
:1016A00021F481E090E00E94F0029981953AE9F0FE
:1016B000963A28F4903850F0933A91F510C09A3A3F
:1016C00011F19C3A31F1963A59F515C080914701D4
:1016D000882331F5990F9093CF0181E01FC080914D
:1016E00047018130E9F483E019C0809147018230DD
:1016F000B9F484E013C080914701823089F483E01B
:10170000809308010DC080914701882349F085E04E
:1017100005C080914701863019F480E00E94210ABB
:1017200080914701843009F444C0863009F4E8C050
:10173000823009F0EFC088E491E00E94D50D882343
:1017400009F0E8C080910801823009F4E3C088E420
:1017500091E00E94250E182F809106018F5F8093E3
:101760000601809108018130B1F480910601813039
:1017700019F4109307010DC080910601823059F4CD
:10178000809107012AE0829FC0011124810F80937C
:1017900007010E94FC0A80910801833009F0BAC059
:1017A000812F80550E94F01089E091E00E94A215DF
:1017B000B1C08091CC01882359F08091D301882356
:1017C00021F082E00E94DD0E03C082E00E94CC0E78
:1017D00088E491E00E94D50D882369F48091E201AC
:1017E000882349F488E491E00E94250E8093E0016B
:1017F00081E08093E20180917D01882319F480913A
:10180000040119C0813019F48091D30114C08230D1
:1018100089F48091D301882319F480E090E00BC013
:101820008091040190E0882309F491E081E09827F9
:10183000892F01C081E0BE016E5F7F4F0E94801240
:101840008091E101883041F46091DF018EE791E001
:101850000E94FE0D1092E1018091D3018093050159
:10186000109104018091E2018823A9F08091E201A6
:10187000813089F08091B201882321F48A8180939C
:10188000050109C0813011F41A8105C0823019F4B4
:101890001A8110930501112321F080E00E94DD0ED2
:1018A00003C080E00E94CC0E8091D401882391F186
:1018B0008091B501882371F5112381F08091000199
:1018C000823021F080910001833011F48CE90FC047
:1018D000809100018823F1F48AE909C08091000118
:1018E000882321F080910001813021F483E90E9456
:1018F000F01010C080910001823061F486E9F7CFCA
:101900008DE091E00E94C315815A9F4018F080E05D
:101910000E94210A8091B501853011F589E091E09E
:101920000E94A2158091D2018823C1F48091B80150
:10193000863961F0873918F4833981F405C08A3912
:1019400051F08C3959F404C082E006C083E004C031
:101950001092000103C081E0809300011092B50154
:101960008091CF018823D1F08091D4018823B1F0F8
:101970008091B501882321F08091B501853071F403
:1019800089E091E00E94C3158251934038F089EAC2
:101990000E94F01089E091E00E94A2158091CF0191
:1019A000882341F080914701863021F080914701E2
:1019B000853009F4A8950F900F90CF91DF911F917A
:1019C00008951F920F920FB60F9211242F933F93F9
:1019D0004F935F936F937F938F939F93AF93BF9337
:1019E000EF93FF93809102018823B1F481E080930B
:1019F000020180916E008E7F80936E0078940E9429
:101A0000400B84EB86BD81E085BB80916E008160D8
:101A100080936E0010920201FF91EF91BF91AF9100
:101A20009F918F917F916F915F914F913F912F91F6
:101A30000F900FBE0F901F9018951F93182F809135
:101A40004701882341F080914701873021F08AE0E7
:101A500090E00E94F002112311F080E001C087E0C5
:101A60000E94210A1F9108951F93182F809147010A
:101A7000882361F18091CF01882319F40E94210A03
:101A800025C081E08093020180914701853049F4AF
:101A90008CEA0E94F0100E94E71080E00E94210A68
:101AA0000AC08AEA0E94F01086E00E94210A8DE0B6
:101AB00091E00E94A2151092020102C00E94400B08
:101AC00080914701863011F41123C1F71F910895C9
:101AD00080914701833091F481E08093020185EA8F
:101AE0000E94F0100E94E71089EA0E94F01084E042
:101AF0000E94210A1092020182E008958091D00193
:101B00008F3F11F480E0089580914701882321F0F0
:101B100088E090E00E94F00281E0809302019FB78C
:101B2000F8948091C9018F778093C9018091C90190
:101B30008F7E8093C9018091C9018F7E8093C901F6
:101B40009FBF82E00E94210A1092020181E0089565
:101B500014BC82E085BD80916E00816080936E0030
:101B600080E88093C90180914601882329F0809103
:101B7000C90180618093C9010E94751280E00E94B2
:101B8000210A88E491E00E94D10D8EE791E00E9445
:101B9000D10D1092020181E08093B20180937D010A
:101BA0000895FC0112AA13AA0895FC0193A982A921
:101BB00020E0981709F421E0822F0895FC0182A902
:101BC000813310F090E002C0982F9F5F83A998178F
:101BD00089F082A9813310F080E005C08F5F8133E6
:101BE00011F490E002C0982F9F5F83A920E030E0BD
:101BF000981711F421E030E0822F0895DC01D2968D
:101C00008C91D297813310F090E002C0982F9F5FA3
:101C1000D3968C91D397981711F480E008959FB7CD
:101C2000F894D2968C91D297FD01E80FF11D608354
:101C3000D2968C91D297813310F080E001C08F5FF3
:101C4000D2968C939FBF81E00895DC012FB7F89462
:101C5000D3968C91D397FD01E80FF11D8081D39627
:101C60009C91D397913310F090E001C09F5FD39681
:101C70009C932FBF0895FC0192A983A9981718F08F
:101C800022A983A903C022A983A92E5C281B822F25
:101C90000895FC0183A9E80FF11D80810895982F14
:101CA000FB018B3119F482E0808303C08F3119F47A
:101CB000108280E0089580818E7F80838670E92F76
:101CC000F0E0823021F4EF59FD4F84910895EF5BED
:101CD000FD4F84910895282F6670623019F0E1E479
:101CE000F2E002C0E1E6F2E0822F81548A3108F48A
:101CF000205E90E08491281731F09F5F903211F0C0
:101D00003196F8CF9FEF892F0895CF92DF92FF92FF
:101D10000F931F93CF93DF93F82E6B01EA01890194
:101D20008FEFF9018083FFE0FF1641F1FEE0FF161F
:101D3000A9F0FB01608160FF09C0F7E1FF1631F0F7
:101D40008F2D0E946B0E88838F3FE9F48F2D60E00A
:101D50000E946B0EF80180838F3F31F08FE1888302
:101D600081E0F601808310C08F2D62E00E946B0E2F
:101D7000F80180838F3F11F480E006C08BE18883F7
:101D800083E0F601808381E0DF91CF911F910F9175
:101D9000FF90DF90CF9008954FB7F8949091C901CC
:101DA00021E030E002C0220F331F8A95E2F7209530
:101DB00029232093C9014FBF08954FB7F8949091FC
:101DC000C90121E030E002C0220F331F8A95E2F7FB
:101DD000922B9093C9014FBF0895982F8A3991F0A3
:101DE0008B3928F4833941F0863991F405C08C3958
:101DF00049F0893A69F4089581E08093CC0110920A
:101E0000D301089581E08093CC018093D30108959C
:101E100080912501E82FF0E0EF5EFE4F90838F5F09
:101E20008093250180912501843148F0809126011D
:101E3000882311F483E10CC0109225010BC090910E
:101E4000250180912601981729F480912501815060
:101E5000809325018091C90180648093C90180919C
:101E6000C9018F778093C90108951F920F920FB611
:101E70000F9211242F933F934F935F936F937F9310
:101E80008F939F93AF93BF93EF93FF938091B30191
:101E90009091B40101969093B4018093B301809125
:101EA000B90090E0887F90708036910509F4F5C004
:101EB00081369105CCF58832910509F4A8C08932A4
:101EC0009105B4F48031910509F480C08131910508
:101ED0003CF4009709F4B7C0089709F061C165C0E8
:101EE0008831910509F476C0809709F059C186C000
:101EF0008034910509F4E8C08134910544F48033BD
:101F0000910509F484C0C89709F04AC1A1C0803581
:101F1000910509F4AAC08835910509F4A6C0883452
:101F2000910509F03DC19AC08839910509F404C1B1
:101F300089399105ECF48837910509F4DBC08937BC
:101F400091054CF48836910509F4A2C080379105BB
:101F500009F026C1D4C08838910509F4B7C080398A
:101F6000910509F4D7C08038910509F019C1A8C0BE
:101F7000803B910509F4F5C0813B91054CF4803A12
:101F8000910509F4A8C0883A910509F009C1EEC08D
:101F9000803C910509F4F1C0883C910509F4EDC03D
:101FA000883B910509F0FCC0E1C08091B501843007
:101FB00029F41092BB0010922801DCC08091B50179
:101FC000813021F08091CF018160D2C08091CF011A
:101FD0008E7FCEC08091B501843059F48091280164
:101FE000E82FF0E0E754FE4FE0818F5F80932801F7
:101FF00002C0E091B801E093BB00D2C085E08093BD
:10200000B5018091B5018430E1F081E03EC080915E
:10201000B501843099F4909128018091B701981707
:1020200068F480912801E82FF0E0E754FE4F90819A
:102030008F5F809328019093BB00B2C085E08093AE
:10204000B5011092D20181E08093D40185E5ABC047
:102050008091D1018F5F8093D101A4C085E08093EE
:10206000B50181E08093D201EFCF8091BB008093D6
:1020700027018091B501823009F78091270187FD02
:1020800091C085E08093B50183E08093D201DBCFDE
:102090008091D1018F5F8093D101A8951092CB01DF
:1020A0001092CA011092D401109228019091BB00A5
:1020B0008091CD018150969589238093CE0104C0F3
:1020C0008091BB000E94ED0E85E06DC08091BB0049
:1020D0000E94ED0E52C081E08093D40190912801BE
:1020E0008091B701891708F04BC080912801809337
:1020F000B70146C08091D1018F5F8093D1011092CA
:10210000CB011092CA011092D401109228011092B2
:10211000B70146C09091BB0080912801803108F042
:102120003FC080912801E82FF0E0E754FE4F9083F4
:102130008F5F8093280134C09091BB00809128016B
:10214000803150F480912801E82FF0E0E754FE4FF1
:1021500090838F5F80932801809128018093B7013D
:102160000CC08091D1018F5F8093D1018091C90112
:102170008093BB001092D40113C081E08093D401FE
:102180008091B501833071F08091B501813051F0BB
:102190008091B501823031F08091B501843011F029
:1021A00085E401C085E680688093BC00FF91EF91D3
:1021B000BF91AF919F918F917F916F915F914F915F
:1021C0003F912F910F900FBE0F901F901895809107
:1021D000B501882321F08091B5018530C1F70895BC
:1021E000982F8091B501882321F08091B501853029
:1021F000C1F72FB7F8949093B80197FF02C081E020
:1022000001C082E08093B5018091D401882349F018
:102210008091BC0084FDFCCF8091BC0080628093E3
:10222000BC002FBF08958091B501882321F08091D3
:10223000B5018530C1F79FB7F89484E08093B5016C
:102240008091D401882349F08091BC0084FDFCCFAB
:102250008091BC0080628093BC009FBF0895982F3E
:102260008091B501882321F08091B5018530C1F7B7
:102270002091CF019093CF0183E08093B5018091AD
:10228000D401882349F08091BC0084FDFCCF80916B
:10229000BC0080628093BC008091B501882321F04E
:1022A0008091B5018530C1F72093CF018091D20193
:1022B000882319F02FEF3FEF04C080912701282FCA
:1022C00030E0C90108951F93182F82508B3DF0F420
:1022D00010FD1CC0812F0E942F1197FF17C09FB7C0
:1022E000F8941093BA008091B601882329F0809168
:1022F000BA0081608093BA008091BC0080648093B2
:10230000BC001093D0019FBF81E00EC08FB7F8943E
:102310001092BA009091BC009F7B9093BC009FEFFD
:102320009093D0018FBF80E01F91089581E080934A
:10233000D4011092B5011092D2011092D1011092E5
:102340002601109225011092B4011092B30110924F
:10235000CB011092CA011092B8018093B90087E1B5
:102360008093B8008091D0018E7F8093BA00109244
:10237000B701109228018091B601882329F080913D
:10238000BA0081608093BA0084E88093BC00809199
:10239000CD018150880F8093BD000895613041F4D4
:1023A0008A3080F4882311F48CED08958C5908C08C
:1023B000623041F4882311F488EC0895843610F4D7
:1023C000880F08958FEF0895982FFB0182508B3D61
:1023D00010F010820DC09695953630F081E0808324
:1023E0009E3630F4945605C082E08083943609F41A
:1023F00090E0892F0895DC019091260180912501BC
:10240000981711F480E0089590912601E92FF0E0EB
:10241000EF5EFE4F80818C939F5F909326018091A9
:102420002601843110F010922601909126018091AE
:102430002501981711F081E008959FB7F8948091D5
:10244000C9018F7B8093C9019FBF81E0089590915E
:1024500026018091250120E0981709F421E0822FC0
:102460000895809129018130A9F0813018F08230DF
:1024700039F522C04E9909C08AE291E00E94C31545
:10248000C397F0F081E0809329018AE291E00E94F5
:10249000A21508954E990BC08AE291E00E94C315DF
:1024A0008152934068F082E08093290102C010922B
:1024B00029018093D50108954E9B02C010922901F5
:1024C00008951092D50103C0A8950E943112809101
:1024D000D5018823C9F38091D5011092D50190E0F0
:1024E000823009F491E0892F08951092E101109251
:1024F000E20180E890E090932F0180932E010895EF
:102500001F93CF93DF93182FEB018091E201883066
:1025100030F4823088F5813009F05AC004C0883028
:1025200009F056C047C08091E101882329F08091CD
:10253000E101883009F04CC086ED91E00E94C3159E
:10254000CC9708F445C018828BED91E00E94A2154B
:1025500082E08093E2018091E0018F718093E0013D
:102560008091E001880F880F8093E0018091E00165
:1025700083608093E0012CC08091E001188287FF86
:1025800002C081E088838BED91E00E94C3154497DF
:10259000F8F08BED91E064E170E00E94AF1580915E
:1025A000E001880F8093E0018091E2018F5F8093CA
:1025B000E2010EC081E088838BED91E00E94C3159B
:1025C0004E9730F08BED91E00E94A2151092E2013F
:1025D0008091E101873048F4823008F06FC0882391
:1025E00089F0813009F0FFC022C0873009F494C01F
:1025F000883009F0F8C086ED91E00E94C31503977A
:1026000008F4F1C0112309F0EEC086ED91E00E94BC
:10261000A21581E08093E1011092DF0180E890E053
:1026200090932F0180932E011092DA01DCC01123C8
:1026300069F080912E0190912F018F3F9105B4F4A4
:1026400080912E0190912F0101960CC080912E0156
:1026500090912F01181619064CF480912E0190913B
:102660002F01019790932F0180932E0180912E01CD
:1026700090912F0187399105F4F486ED91E00E9445
:10268000C3150B9708F4AFC080912E0190912F01D4
:102690008038910584F482E08093E10180E890E045
:1026A00090932F0180932E0186ED91E068E070E019
:1026B0000E94AF1598C01092E10195C086ED91E09F
:1026C0000E94C315409708F48EC0112369F08091D1
:1026D0002E0190912F018F3F9105B4F480912E012E
:1026E00090912F0101960CC080912E0190912F01A5
:1026F000181619064CF480912E0190912F01019724
:1027000090932F0180932E0186ED91E00E94C315D6
:10271000449708F046C067C086ED91E00E94C3155B
:10272000409708F460C0112369F080912E019091C8
:102730002F018F3F9105B4F480912E0190912F01CC
:1027400001960CC080912E0190912F011816190648
:102750004CF480912E0190912F01019790932F01BD
:1027600080932E0186ED91E00E94C3150F97D8F15A
:102770008091E1018730A9F41123A9F180912E0104
:1027800090912F0120E0803891050CF421E02093F6
:10279000DA0188E08093E10186ED91E00E94A215C4
:1027A00022C08091DF01880F8093DF0180912E018C
:1027B00090912F01803891052CF08091DF0181608C
:1027C0008093DF018091E1018F5F8093E10186EDCD
:1027D00091E064E170E00E94AF1580E890E0909392
:1027E0002F0180932E01DF91CF911F910895FF92C9
:1027F0000F931F93CF93DF93EC01F62E10E000E0D0
:1028000001C000E20E945A048A30A9F08B3028F4FB
:10281000882351F0893051F5F5CF803221F1833290
:1028200089F38D3019F507C0112319F0C10FD11D9F
:10283000188280E035C0112389F4002319F3802F1A
:102840008D52823060F10B3251F10D3341F10F3274
:1028500031F1003229F00883198203C0C10FD11D64
:10286000188282E01DC0112361F202C0803250F252
:102870001F1540F6112369F4002311F4082FC2CF6D
:10288000003219F4888311E0BDCF0883898312E0F8
:10289000B9CFFE01E10FF11D80831F5FB3CF81E04F
:1028A000DF91CF911F910F91FF900895CF93DF9308
:1028B000EC010E945A048133E9F0823358F48033EA
:1028C000E0F48E32A8F48B32A9F08D32B1F0882377
:1028D00069F0EFCF8E3689F08F3628F48D3341F0D2
:1028E0008A3639F707C0893721F704C080E007C06E
:1028F00081E005C081E0888301C0188282E0DF9119
:10290000CF910895FF920F931F93CF93DF93EC0124
:10291000062F10E08AE0F82E0E945A04282F8053D8
:102920008A3068F4112331F088818F9DC001112411
:102930008053820F88831F5F101771F712C0822F98
:102940008D52823070F02B3261F02D3351F02F32E6
:1029500041F0222311F48FEF05C02930E9F2112351
:10296000D9F2812FDF91CF911F910F91FF900895A0
:10297000EF92FF920F931F93DF93CF9300D0CDB7C9
:10298000DEB78E010F5F1F4F92E0E92EF12CEC0EA7
:10299000FD1E8091D001B8010E94E4118A8384EF6A
:1029A00092E00E946E158A8169810E943C1587E839
:1029B00092E00E946E15C70162E00E94821487FDBA
:1029C00049C0882339F48091D001B8010E94E411F4
:1029D0008A8301C089839091CD0191958A81892351
:1029E0008A8389EE92E00E946E158A8169810E9435
:1029F0003C1580E20E940D058A8169810E94CE11FA
:102A00000E946311882371F081E892E00E946E15A4
:102A100082E992E00E946E1580914601882339F088
:102A20008AE606C089EB92E00E946E15B2CF8EE670
:102A30000E940D0587E892E00E946E1586E491E001
:102A40000E945614882331F081E892E00E946E15AE
:102A500081E001C080E00F900F90CF91DF911F9136
:102A60000F91FF90EF9008958A3010F4805D01C0BF
:102A7000895A0E940D0508951F93282F362F6AE06A
:102A80000E949018482F822F0E949018192F4423DB
:102A900011F432302CF03150842F632F0E943C15FA
:102AA000812F0E9434151F9108951F93182F82952E
:102AB0008F700E943415812F8F700E9434151F91E2
:102AC0000895CF93DF93EC0103C00E940D0521967A
:102AD00088818823D1F7DF91CF910895CF93DF9339
:102AE000EC0103C00E940D052196FE01849188230C
:102AF000C9F7DF91CF91089582E08093B00083E021
:102B00008093B1008FEB8093B300E0E7F0E0808129
:102B10008260808308951F920F920FB60F92112446
:102B20008F939F938091E3019091E401019690939C
:102B3000E4018093E3019F918F910F900FBE0F905E
:102B40001F901895FC012FB7F8948091E3019091A4
:102B5000E40191838083138212822FBF0895FC01C8
:102B600080819181860F971F9183808382819381D9
:102B70008617970718F4138212820895861B970B05
:102B8000938382830895FC018FB7F8944091E30109
:102B90005091E40120813181421B530B8FBF828110
:102BA00093818417950710F4538342838281938124
:102BB00008951092E8011092E9011092E601109236
:102BC000E5011092E7011092EA010895FC016830D6
:102BD000F8F080818336E1F481818C36C9F48281FA
:102BE0008B36B1F483818093E80184818093E9017D
:102BF00085818093E60186818093E50187818093BA
:102C0000E701683019F080858093EA0181E008953A
:102C100080E00895FF920F931F938C01F62E862F6C
:102C20006AE00E949018805D62E00E946B0EF801DD
:102C300080838F2D6AE00E949018892F805D62E06A
:102C40000E946B0EF80181831F910F91FF900895F0
:102C50001F93CF93DF93EC018091E601882389F1E4
:102C60008BE188838091EA01805D62E00E946B0EB7
:102C7000898387E18A83CE0103966091E6010E94F1
:102C80000A1617E01D83CE0106966091E9010E94A5
:102C90000A161887CE0109966091E8010E940A166B
:102CA00084E08B87CE010C966091E5010E940A16A4
:102CB0008EE08E87CE010F966091E7010E940A1682
:102CC00081E1DF91CF911F9108951092ED01109253
:102CD000EC011092EF011092EE011092F1011092AE
:102CE000F0011092F3011092F2011092EB01109298
:102CF0003001109232011092310110923401109281
:102D000033010895982FFA01A081B1814281538146
:102D1000A417B50711F480E0089570E0A417B50773
:102D2000A8F48CE3989FC0011124860F971F8A177F
:102D30009B0718F480E090E0089520E08417950741
:102D400008F021E081E02827822F08958CE3989FE6
:102D5000C0011124860F971F8417950728F020E0E3
:102D600030E08A179B0710F021E030E0822F0895B1
:102D70000F931F93809130011091E5010091E701BD
:102D80008823E9F0109230018CE3189F9001112400
:102D9000200F311D3093320120933101C9010A9671
:102DA0009093340180933301815A954008F43FC0D9
:102DB00026593540309334012093330138C0812F98
:102DC000602F41E351E00E948216882381F5109222
:102DD000320110923101109234011092330180912E
:102DE000EB01882391F4812F602F4CEE51E00E947B
:102DF0008216882319F081E090E01AC0812F602F9D
:102E000040EF51E00E94821613C08091EA018630A3
:102E100038F0812F602F40EF51E00E94821608C0E9
:102E2000812F602F4CEE51E00E94821601C080E09D
:102E30001F910F91089581E08093300108950F93C1
:102E40001F93DF93CF9300D0CDB7DEB78C01FC0189
:102E5000808191816CE370E00E949C18862F6983C9
:102E600024EC3FEF629F202D11249081290F2A83AB
:102E700062E00E943C158A8162E00E943C1587E86E
:102E800092E00E946E15CE01019662E00E948214CB
:102E90008823E1F0CE01029662E00E94821487FF4F
:102EA00002C080E014C089812CE3829FC0011124FC
:102EB0002A81820F911DF80191838083815A954068
:102EC00028F080EA95E0F8019183808381E00F90FB
:102ED0000F90CF91DF911F910F91089589E593E0B5
:102EE0000E946E158BE493E00E946E1581E60E94AD
:102EF0000D0584E493E00E946E158CEE91E00E9433
:102F00001F17882309F453C081E892E00E946E15D0
:102F100087E393E00E946E158EEE91E00E941F17EA
:102F2000882309F444C081E892E00E946E158BE486
:102F300093E00E946E1582E60E940D0584E493E002
:102F40000E946E1580EF91E00E941F17882379F18F
:102F500081E892E00E946E1587E393E00E946E156F
:102F600082EF91E00E941F17882309F181E892E027
:102F70000E946E158BE093E00E946E158091EB012C
:102F8000882311F48EE601C08AE60E940D0587E8C9
:102F900092E00E946E158BEE91E00E9456148823F9
:102FA00031F081E892E00E946E1581E0089580E0A2
:102FB0000895CF93DF93EC010E94B8189093ED0130
:102FC0008093EC01815A954030F080EA95E090932F
:102FD000ED018093EC01CE0102960E94B818909307
:102FE000EF018093EE01815A954030F080EA95E040
:102FF0009093EF018093EE01CE0104960E94B818E1
:103000009093F1018093F001815A954030F080EA6D
:1030100095E09093F1018093F001CE0106960E9415
:10302000B8189093F3018093F201815A954030F0E3
:1030300080EA95E09093F3018093F201CE014096EF
:103040000E94B8181092EB01019719F481E0809367
:10305000EB01DF91CF910895EF92FF920F931F93B1
:10306000CF93DF93EC010091EC011091ED010E94F0
:10307000B8180817190721F0CE01B8010E94CC1822
:10308000E090EE01F090EF018E010E5F1F4FC8013E
:103090000E94B818E816F90621F0C801B7010E948D
:1030A000CC18E090F001F090F1018E010C5F1F4F01
:1030B000C8010E94B818E816F90621F0C801B70146
:1030C0000E94CC18E090F201F090F3018E010A5FAB
:1030D0001F4FC8010E94B818E816F90621F0C80170
:1030E000B7010E94CC181091EB016096CE010E94AE
:1030F000B818412F50E020E030E0019711F421E0B2
:1031000030E04217530729F0CE01612F70E00E9492
:10311000CC18DF91CF911F910F91FF90EF90089500
:10312000991B79E004C0991F961708F0961B881F19
:103130007A95C9F780950895AA1BBB1B51E107C07A
:10314000AA1FBB1FA617B70710F0A61BB70B881F37
:10315000991F5A95A9F780959095BC01CD010895C6
:10316000F999FECF92BD81BDF89A992780B508954F
:10317000A8E1B0E042E050E00C94D318262FF99972
:10318000FECF1FBA92BD81BD20BD0FB6F894FA9A4A
:10319000F99A0FBE019608950E94BE18272F0C942D
:1031A000BF18DC01CB01FC01F999FECF06C0F2BDCE
:1031B000E1BDF89A319600B40D9241505040B8F7F5
:0631C0000895F894FFCF12
:0231C600010006
:00000001FF
