:100000000C94DE020C94FB020C94FB020C94FB0299
:100010000C94FB020C94FB020C94FB020C94D21C7B
:100020000C94FB020C94FB020C94FB020C94FD025A
:100030000C94FB020C94FB020C94FB020C94FB024C
:100040000C94A30E0C94FB020C94FB020C94FB0288
:100050000C94FB020C94FB020C94FB020C94FB022C
:100060000C94AD100C94FB0244175B175F176317D9
:1000700096189618961896189618961866177A175E
:100080009117951799179618961896189618961806
:10009000AA17B017B417DB17961896189618961863
:1000A00096189618ED17FB17FF171618961896183E
:1000B000961896189618961828184418551859180E
:1000C0005D18961896189618961896187D18811827
:1000D000851889188D1892185F5F5F69746C785F56
:1000E00053657269656C6C556E64537065696368BD
:1000F0006572322D4B4F4938525F5F5F4F637420FA
:10010000323720323032305F5F5F31393A31373A3F
:1001100034305F5F5F3435325F5F5F000D0AE4F6B5
:10012000FCC4D6DCDF3C3E5B5D7B7D000D0D616F6A
:1001300075414F5573282E283A282C000A0A656508
:1001400065656565732E293A292C29000D0A556EBF
:100150006775656C7469676573204B6F6D6D616E53
:10016000646F000D0A4C6F6B616C62657472696537
:10017000620D0A00204665686C65723A206E6963FC
:100180006874206B6F6E6669677572696572742E2C
:1001900000202D2D3E20002C204374726C2D543AEB
:1001A000205374617475736C69737465000D0A4330
:1001B00074726C2D4B3A204B6F6E66696775726175
:1001C00074696F6E002C204374726C2D513A20417B
:1001D000422D57696564657267616265002C204332
:1001E00074726C2D4C3A204C6F6B616C626574724A
:1001F000696562000D0A4374726C2D413A20416EAC
:100200007761686C000D0A000D0A53544152540D79
:100210000A56657273696F6E204F637420323720FF
:10022000323032302F31393A31373A3430006B6561
:100230006E6E776F7274000D0A7478702D616200B3
:100240000D0A4665686C65720D0A000D0A416E72F2
:1002500075660D0A000D0A4265656E6465740D0AC7
:10026000000D0A47657472656E6E740D0A000D0A02
:1002700056657262756E64656E0D0A000D0A416204
:100280006272756368000D0A576165686C656E3A45
:1002900020000D0A2D2D2D206B65696E6520776578
:1002A00069746572656E204D656C64756E67656E08
:1002B000202D2D2D0D0A000D0A002E2E2E416262DA
:1002C00072756368002E2E2E4E61656368737465C7
:1002D0002E2E2E002E2E2E4C6F65736368652E2EEB
:1002E0002E000D0A4C6F65736368656E2C204E619D
:1002F0006563687374652C20456E64653F2020201B
:10030000000D0A2D2D2D20456E6465204D656C6411
:10031000756E67202D2D2D000D0A6B65696E6520A9
:10032000756E67656C6573656E656E204D656C6492
:10033000756E67656E0D0A000D0A537461727465FF
:1003400020576965646572676162652E2E2E0D0AFD
:10035000000D0A003A20000D0A5374617475732071
:1003600064657220616E67657363686C6F73736533
:100370006E656E204D6F64756C653A0D0A000D0A4E
:10038000206665727469672B2B2B2020200D0A00D4
:100390000D0A2068617264776172652068616E641D
:1003A0007368616B6520617566207365722E2073BA
:1003B00073742E2076657277656E64656E3F20617A
:1003C0006B7475656C6C3A20000D0A20686175705D
:1003D000746D656E756520726567656C6D616573BA
:1003E00073696720617573676562656E3F20616B35
:1003F0007475656C6C3A20000D0A204B656E6E7743
:100400006F72743A20000D0A204B656E6E756E6730
:100410003A20000D0A206B6F6E6669677572617411
:10042000696F6E2073657269656C6C2B737065699A
:10043000636865722076657273696F6E2034353239
:1004400020646174756D204F637420323720323020
:1004500032300023350D3920FD2C2E0A2934FB388B
:10046000303A3D332B173F2736FC2F2D32E0233710
:1004700031282323F40DEF20E8EEED0AECF2E7E952
:10048000F0E3F6E5FAE4E2F3F9E6F8E1F7EA23F55A
:10049000F1EB23FE34000023740D6F20686E6D0AAB
:1004A0006C726769706376657A6462737966786185
:1004B000776A2375716B23206F6B2E2000206E6589
:1004C000753A2020202020000D0A20776569746588
:1004D000726C656974756E67656E206162776569B7
:1004E00073656E3F20616B7475656C6C3A200020FB
:1004F0007363686F6E20766572676562656E206FE4
:1005000064657220756E6775656C7469672C20610F
:100510006E6465726520776165686C656E21000D9B
:100520000A2070727565666520000D0A2064757278
:1005300063687761686C20616B7475656C6C3A20D8
:10054000006E65696E006A6100202020200D0D0A92
:1005500000206164726573736520006665686C6570
:1005600072636F64652000736368726569626665B3
:10057000686C6572007363687765726572206C657C
:1005800073656665686C6572007761726E756E671B
:10059000206C6573656665686C657200696E666F70
:1005A00020696E697469616C697369657274000DA4
:1005B0000D0A20656570726F6D20000011241FBE4A
:1005C000CFEFD4E0DEBFCDBF11E0A0E0B1E0EEEEB2
:1005D000FFE302C005900D92A230B107D9F712E0F7
:1005E000A2E0B1E001C01D92A03EB107E1F70E9478
:1005F00074070C94F51F0C9400001F920F920FB615
:100600000F9211248F939F9380913601909137011F
:10061000019690933701809336019F918F910F90AF
:100620000FBE0F901F9018958091590284FF08C04B
:100630008091590280FD02C0419A09C0419807C0CB
:100640008091590280FD02C0429A01C04298809177
:10065000590282FD02C0439A089543980895DF939A
:10066000CF9300D000D0CDB7DEB77C0180E8809377
:10067000BC008E010F5F1F4FC8010E94E91CDD24E2
:10068000BB24C02E012F21E0422E512C4E205F2092
:1006900092E0692E712C6E207F2084E0882E912CB0
:1006A0008E209F2028E0E222FF2402C0BB24B394C6
:1006B000A8958C2D902F0E940A1D81599140F0F031
:1006C0008C2D902F0E94E91C309B13C0DD2081F3FC
:1006D000DA9471F7BB2061F3F8942EE088E190E0A2
:1006E0000FB6F894A895809360000FBE2093600029
:1006F000FFCF84E08D15D0F2D394DACFBB20F1F494
:100700008C2D902F0E940A1D893C9105B8F0411450
:10071000510411F02A9A01C02A986114710411F051
:10072000419A01C041988114910411F0429A01C08C
:100730004298E114F10429F0439ABACF2A984198DB
:1007400042984398B5CF8EE092E00E94AD1391E0BD
:100750008927089582E691E00E94AD1391E08927F0
:1007600008951F93882329F082E691E00E94FD13EB
:1007700004C082E691E00E942114182F82E691E0E5
:100780000E941314893108F45A98812F1F910895FB
:100790002A9A41984298439880E00E94DF0E809107
:1007A000960180934C011092960180910C028E7FED
:1007B00080930C0283E194E00E949A150E94E81451
:1007C000882309F45DC086E094E00E949A158DE0CC
:1007D000809338018AE0809339018AE391E00E9496
:1007E0008D158DEB94E00E949A158AE391E061E10A
:1007F0000E942714882309F443C088EF93E00E94E5
:100800009A158EE491E00E948D158DEB94E00E9484
:100810009A158EE491E063E10E942714882381F108
:1008200089EC93E00E949A1580914D010E94A815D1
:100830008DEB94E00E949A158DE491E00E9486145D
:100840008823F1F087EB94E00E949A1580E993E009
:100850000E949A1580914C010E94A8158DEB94E09E
:100860000E949A158CE491E00E948614882341F03E
:1008700087EB94E00E949A158EE793E00E949A1508
:10088000089580914C018093960180E090E0609102
:1008900060020E942C1E8EE490E06091D6010E94BE
:1008A0006F1E8FE490E060914D010E946F1E80E505
:1008B00090E0609196010E946F1E81E090E068E3F5
:1008C00071E044E10E94431E85E190E06EE471E036
:1008D00044E10E94431E81E00E94DF0E2A980895A1
:1008E0001F93182F23C00E94B6040E9497180E94DD
:1008F000E00A4B9B04C080919601882321F480ED8F
:1009000091E00E94E91C80ED91E00E940A1D895B44
:100910009B4040F48091D501882321F40E94240B50
:10092000882321F087E991E00E94FD1387E991E097
:100930000E94B6138823B9F687E991E0612F0E94DF
:10094000D6131F9108951F93182F803220F48D30F5
:1009500011F08A3011F4812F05C08EE50E947004D9
:10096000812F805C0E9470041F910895FF920F9365
:100970001F938091C00087FF4EC082E691E00E94E5
:1009800013148F3208F040C00091C6000B3121F4DF
:1009900081E08093020138C080910201882319F41C
:1009A000ECE1F1E023C0602F6F7182E691E00E94DC
:1009B000D61310920201802F0E94A30425C0801735
:1009C000A1F48F010C511140F801E45DFE4FF49049
:1009D00082E691E06F2D0E94D6138F2D0E94A30412
:1009E000045C1E4FF801049104C031968491882361
:1009F00031F7802F0E94A304053209F407E082E654
:100A000091E0602F0E94D61382E691E00E941314B9
:100A10008A3108F05A9A87E991E00E94AD13882341
:100A2000A1F48091C00085FF10C04B9B04C0809151
:100A30009601882351F480ED91E00E94E91C87E93A
:100A400091E00E94FD138093C6001F910F91FF90CB
:100A500008950F931F93DF93CF930F92CDB7DEB717
:100A60008E010F5F1F4F0CC00E9497180E94B604A2
:100A70000E9414030E943E0B882311F085E606C0F5
:100A8000C8010E94BA0B882379F389810F90CF9116
:100A9000DF911F910F9108951F93182F0AC00E9494
:100AA00097180E94B6040E943E0B882359F40E94B6
:100AB00014030E944C0B882391F3812F0E94940B06
:100AC0008823D9F31F9108954F925F926F927F927E
:100AD0008F929F92AF92BF92DF92EF92FF920F930D
:100AE0001F93DF93CF9300D000D0CDB7DEB72C019A
:100AF0007B015A0149018E010F5F1F4FC8010E94FF
:100B0000E91CD02E012F0EC0F5010995882331F084
:100B1000F40109958D2D902F0E94E91C0E949718D1
:100B20000E94B6048D2D902F0E940A1D845F914073
:100B300058F30E94C81B88E393E0F70109950E94CF
:100B4000DE1B882319F488E193E088C03E010894F5
:100B5000611C711C10E0DD240E9497180E94B604ED
:100B60000E94131C082F882349F481E093E0F701C9
:100B7000099582EE92E0F701099523C0F2010995EB
:100B80001A3F08F41F5F0A30C1F4113A20F4D394DD
:100B900083E08D1590F4C3010E94E91C06C0F501A5
:100BA0000995882341F40E949718C3010E940A1DE9
:100BB0008C5D9540A0F310E0DD24F50109958823B4
:100BC00059F20E9497180E94B604F4010995082F63
:100BD000C3010E94E91C0BC0F5010995882329F087
:100BE000F4010995C3010E94E91C0E949718C301F2
:100BF0000E940A1D8C52914078F3053609F10636A1
:100C000060F40333E9F0043328F4093269F00C325C
:100C1000C1F611C00433A9F69DCF0E3661F002373C
:100C200009F498CF0C3669F684ED92E0F701099546
:100C30000E944E1C08C085EC92E0F701099503C0A4
:100C40008AEB92E00BC00E94DE1B882329F087EB21
:100C500092E0F70109957ECF82E992E0F7010995CC
:100C60000E943C1C0F900F900F900F90CF91DF913E
:100C70001F910F91FF90EF90DF90BF90AF909F90EA
:100C80008F907F906F905F904F9008950EC00E945C
:100C9000B6040E94E00A0E9497188091D50188232B
:100CA00021F01092D50199E012C082E691E00E94F5
:100CB000AD13882361F781E00E94B103982F83313F
:100CC00011F490E004C081548A3108F4905E892FB9
:100CD0000895CF93DF93EC018FE10E94650B882389
:100CE000D9F307C00E944C0589910E94A3040E9479
:100CF000B60488818823B1F7DF91CF9108951F93BF
:100D0000CF93DF93EC018FE10E94650B8823D9F329
:100D100009C0812F0E944C05812F0E94A3042196B7
:100D20000E94B604FE011491112399F7DF91CF912F
:100D30001F910895AF92BF92CF92DF92FF920F93CF
:100D40001F93DF93CF9300D0CDB7DEB7F82E5E01AF
:100D50000894A11CB11C32E0C32ED12CCC0EDD1E98
:100D60000E94B604C5010E94BA0B882309F45FC033
:100D70008981873109F054C088E391E00E946906B7
:100D80008FE10E94650B8823D9F30EE411E00E94E5
:100D900097180E94B6040E941403C6010E94BA0B61
:100DA000882329F18A810E947004FF2019F08A812A
:100DB0000E940E1B9A819D3011F09A3049F4F8017F
:100DC00080818823F9F0F1E00E341F0781F02FC0F5
:100DD000973139F488E391E00E9469060EE411E04E
:100DE00006C0F8018081981711F50F5F1F4F0E9410
:100DF0003E0B8823E1F482E691E00E94AD13882344
:100E000031F615C00E94BF1B8CE495E06FE776E0D9
:100E100043EA53E029E235E00E946405FF2407C05D
:100E20000E947004FF2019F089810E940E1B0E940D
:100E30003E0B882361F0FF2011F00E94931B81E696
:100E400092E00E949A1581E00E94F60E41C082E66F
:100E500091E00E94AD138823B1F50E944C0B8823CA
:100E600091F181E00E94B103182F893011F0863092
:100E700051F488E391E00E946906FF2021F1812F5F
:100E80000E940E1B20C08331B9F4FF2011F00E9494
:100E9000931B80E00E94F60E06C00E9497180E94E5
:100EA00014030E94B6040E943E0B8823B1F385E52B
:100EB00092E00E949A150CC0873111F0853009F438
:100EC00087E10E944C050E9497180E94140348CFA6
:100ED0000F900F90CF91DF911F910F91FF90DF90B6
:100EE000CF90BF90AF900895AF92BF92DF92EF92F4
:100EF000FF920F931F93DF93CF93CDB7DEB7289761
:100F00000FB6F894DEBF0FBECDBF2FE088E190E0B2
:100F10000FB6F894A895809360000FBE20936000F0
:100F20008FEF83B986B989B915B818B81BB814B84A
:100F300017B81AB83898409A229A399A3A9A3B9A2E
:100F4000259A24982C9A2A9A529A53985B980E9430
:100F5000C31C109280008DE0809381008FE99CE893
:100F6000909389008093880080916F0082608093C5
:100F70006F0080ED91E00E94E91C0E94B01D80E0AE
:100F800090E06EE342E02CED0E94A41F8E7F8093E0
:100F9000600281E080935D02809346028EE490E0DF
:100FA00060E00E94C91F8093D6011092CF0180E5B6
:100FB00090E060E00E94C91F809396018FE490E06A
:100FC00061E00E94C91F80934D0181E090E068E3D9
:100FD00071E044E127E332E00E94F91E85E190E0F0
:100FE0006EE471E044E12EE232E00E94F91E8CE4EE
:100FF00090E060E070E040E050E02FEF3FEF0E94B3
:101000005D1F90939D0280939C021092C50087E221
:101010008093C4001092C00088E18093C10086E0F4
:101020008093C2000E94710F789488E092E00E9441
:101030009A158E010F5F1F4FC8010E94E91CF02E08
:10104000012F02C00E94B6048F2D902F0E940A1D0E
:101050008A3F9105B8F32A98419A0E940E138E0197
:101060000F5F1F4F02C00E94B604C8010E940A1DF4
:10107000845F9140C0F34198429A8E010F5F1F4FE9
:1010800002C00E94B604C8010E940A1D8E5E9240F2
:10109000C0F34298439A0E94BB1A80E98093BC0037
:1010A0008E010F5F1F4F02C00E94B604C8010E944C
:1010B0000A1D885F9240C0F385EC8093BC008E01CE
:1010C0000F5F1F4F02C00E94B604C8010E940A1D94
:1010D00040916002242F30E028513C4F8217930743
:1010E00090F3842F0E94DB12DD24D3945E010894D8
:1010F000A11CB11C809160028F3F91F4C5010E9438
:101100000A1D8152934040F4C5010E940A1D815975
:10111000914028F52A9A24C0C5010E94E91C20C0EC
:1011200020919802309199028091CF029091D00243
:1011300028173907A1F02A984198C5010E940A1D75
:101140008154964040F4C5010E940A1D815293408B
:1011500040F4429A07C0C5010E94E91C03C02A98C6
:101160004198429843980E949718DD2009F443C0A3
:1011700085E092E00E949A158091D702882319F1A8
:1011800062E00E9468158EE20E9470048091DA028B
:1011900062E00E9468158EE20E9470048091D9027C
:1011A00062E00E94681580E20E9470048091D6027D
:1011B00062E00E9468158AE30E9470048091D80260
:1011C00062E00E94681584EF91E00E949A158DED0F
:1011D00091E00E949A1585EC91E00E949A158DEAA3
:1011E00091E00E949A1587E991E00E949A1581E9A1
:1011F00091E00E949A150E94E00A0E94B6040E94A3
:10120000240B882311F4DD2436C0429A2D9A8BECEE
:1012100091E00E94E91C8BE492E00E949A15809173
:10122000D9026091DA024091D7022091D602009152
:10123000D8020E94501B182F0E942A0F882351F4B5
:1012400080E492E00E949A150E94BF1B81E00E94F8
:10125000F60E03C0812F0E949A068BEC91E00E944B
:10126000E91C60919C0270919D028CE490E00E94C8
:10127000721ED0904D0182E691E00E94AD1388234A
:1012800009F0FFC081E00E94B103082F2D9A8BEC7A
:1012900091E00E94E91C0C3009F482C00D3050F43A
:1012A0000A3009F461C00B3008F05AC0013009F06F
:1012B000D8C010C0013109F45AC0023120F40D30F9
:1012C00009F0CFC051C0043109F483C0003209F0E5
:1012D000C8C04AC0809160028F3FE9F1419A0E94E4
:1012E000470F882311F4419852C086E892E00E948B
:1012F0009A1525C00E94B6040E94971882E691E0D4
:101300000E94AD13882379F481E00E94B103982FE5
:1013100080538A3018F40E947C0B05C0933119F475
:1013200080E00E94F60E0E943E0B882341F08CE77D
:1013300092E00E949A1580E00E94F60E28C00E945A
:10134000240B8823B9F28EE692E00E949A1580E081
:101350000E949A061CC084E791E00E949A1504C07E
:101360000E94C8030E944104D0904D0186C080E0D5
:101370000E94DF0E83EA94E06AE975E14AEA53E0ED
:1013800026E436E00E94640581E00E94DF0E609151
:101390009C0270919D028CE490E00E94721EE4CF4A
:1013A00080E00E94DF0E83E691E00E949A150E9481
:1013B000B60482E691E00E94AD138823C1F782E66D
:1013C00091E00E94FD13833191F781E00E94DF0ECE
:1013D000CBCF80E00E94DF0E87E593E00E949A1554
:1013E000FF24F39435C08E2D6F2D0E944613982F45
:1013F00080916002981721F480915902082F06C04D
:10140000892F0E94A7128C0197FD10C08E2D6F2D81
:101410000E94681584E593E00E949A15802F60E091
:101420000E94681581E593E00E949A15E39481E09B
:10143000F81619F023E630E002C029E030E08E2DE6
:1014400090E0281739077CF6F39423E0F21611F0A8
:10145000EE24EDCF81E00E94DF0E0FC081E00E94FC
:10146000B10382E691E00E94AD138823B9F38CE4C6
:1014700091E00E949A15DD24D3948BEC91E00E94B8
:10148000E91C8091D501823049F41092D5010E9467
:10149000C8030E944104D0904D016CC08091D501D9
:1014A000813009F067C01092D5012A98419842987E
:1014B000439A80E00E94DF0E06C00E94E00A0E946C
:1014C00097180E94B6048091D5018823B1F3109239
:1014D000D50181E00E94DF0E43988E010B5F1F4F04
:1014E000C8010E94E91C80E00E94DF0EF02E012F4F
:1014F00011E00E94E00A8091D501882319F0109232
:10150000D50131C00E9497180E94B60482E691E08E
:101510000E94AD13882339F18F2D902F0E940A1D50
:10152000895E934028F08F2D902F0E94E91C0AC0FD
:101530008F2D902F0E940A1D8955924010F0439ADA
:1015400001C0439880914702882399F26091470235
:1015500089E492E00E948C1D882311F01093CF0142
:1015600010924702C6CF439881E00E94DF0E02C06E
:101570000E9497180E94E5198823D1F380914702B1
:10158000882369F06091470289E492E00E948C1DF3
:10159000882319F081E08093CF01109247021C99B3
:1015A00005C02D9A8BEC91E00E94E91C8BEC91E038
:1015B0000E940A1D81569A4E08F49CCD2D989ACD12
:1015C000809103018130A9F0813018F0823039F523
:1015D00022C0309909C084E091E00E940A1DC3979F
:1015E000F0F081E08093030184E091E00E94E91C27
:1015F000089530990BC084E091E00E940A1D815249
:10160000934068F082E08093030102C010920301CE
:101610008093D5010895309B02C010920301089574
:101620001092D50103C0A8950E94E00A8091D501CF
:101630008823C9F38091D5011092D50190E08230C2
:1016400009F491E0892F08958091D701833031F01A
:101650008091D70120E030E0843011F421E030E0C7
:10166000822F089580915E02089580910D01089562
:1016700080910B01089580930A0108958091D7010C
:10168000882331F08091D70120E030E0853011F4DB
:1016900021E030E0822F089588ED91E00E94AD13A3
:1016A0000895CF93DF93EC018EE092E00E94AD139A
:1016B000882311F080E006C08EE092E00E94FD13C6
:1016C000888381E0DF91CF9108951F93182F88EDD3
:1016D00091E0612F0E94D613882361F01F3121F41D
:1016E00081E080930C0206C01B3119F483E08093E3
:1016F0000C0281E01F910895682F8091D7018230FC
:1017000049F480910E01882329F088ED91E00E9430
:10171000D613089589E090E00E942F03089588ED84
:1017200091E00E94B6130895DF93CF9300D0CDB718
:10173000DEB76CE072E0AE014F5F5F4F9E012E5F3F
:101740003F4F0E94E60F882379F088ED91E0698190
:101750000E94D613882349F06A816F3F29F088EDF3
:1017600091E00E94D613811181E00F900F90CF91EC
:10177000DF910895EF92FF920F931F93DF93CF9322
:101780000F92CDB7DEB78C017E010894E11CF11CED
:10179000C7010E94510B882351F089816CE072E0EF
:1017A0000E949A0FF8018083882391F381E00F90C3
:1017B000CF91DF911F910F91FF90EF900895FF92CD
:1017C0000F931F93082F8091D701081709F4CEC0FB
:1017D000FFB6F89410920E01033009F45AC0043099
:1017E00028F40130A9F10230E0F517C0053009F402
:1017F000A7C0053008F467C0063009F4AAC0073056
:1018000009F0B1C0809159028F778093590280917D
:1018100059028F7E8093590218C0809159028074BA
:101820008093590280915902806880935902809177
:10183000D601882329F08091590280618093590252
:1018400081E080930A0180930B0110925F028BC0AC
:10185000809159028F7780935902809159028F7E2F
:1018600080C0809159028F778093590280915902EC
:101870008F7E8093590210920C0110920D0181E02D
:1018800080930E0188ED91E00E94A91310920C0242
:101890006AC0809159028F778093590280915902D2
:1018A0008F7E809359028091590280618093590202
:1018B0008091590288608093590281E0809363028D
:1018C00080930B0150C08091590287FF0FC0809117
:1018D00059028F7780935902809159028F7E8093AD
:1018E0005902809159028061809359028091590276
:1018F00080628093590280915902826080935902DC
:1019000080915902846080935902809159028160CC
:101910008093590211E01093000188ED91E00E943C
:10192000A9138EE092E00E94A91310920C020E946B
:10193000B2151093630210930A0110930B0113C0A8
:10194000809159028F7D8093590280915902877F3F
:1019500008C0809159028F7D80935902809159026D
:101960008D7F809359020093D701FFBE1F910F9185
:10197000FF9008950E945F1280910D0160910C010B
:101980000E94461380935F028091600286950E94B8
:1019900068120E945F128FE091E00E94E91C809122
:1019A0006202882369F482E080930E0183EA0E9438
:1019B00068120E945F128FE091E00E94E91C089576
:1019C00080916202833059F41092620210925F0299
:1019D00085E00E94DF0B82E6809309010895109252
:1019E000620210925F0280910C01823030F085E03B
:1019F0000E94DF0B88E78093090108951F93DF930E
:101A0000CF9300D0CDB7DEB7CE0101960E947313FD
:101A1000882309F447C08091D701873021F481E001
:101A200090E00E942F039981953A09F1963A28F4A3
:101A3000903850F0933AB1F510C09A3A31F19C3A8F
:101A400051F1963A79F519C08091D701882351F563
:101A5000990F90935F0281E023C08091D70181307C
:101A600021F08091D7018230E9F483E019C08091A0
:101A7000D7018230B9F484E013C08091D70182305D
:101A800089F483E080930E010DC08091D7018823F3
:101A900049F085E005C08091D701863019F480E0D7
:101AA0000E94DF0B8091D701843009F444C0863056
:101AB00009F4E8C0823009F0EFC088ED91E00E949F
:101AC000AD13882309F0E8C080910E01823009F43B
:101AD000E3C088ED91E00E94FD13182F80910C0166
:101AE0008F5F80930C0180910E018130B1F4809161
:101AF0000C01813019F410930D010DC080910C017F
:101B0000823059F480910D012AE0829FC001112496
:101B1000810F80930D010E94BA0C80910E018330D9
:101B200009F0BAC0812F80550E9468128FE091E0C1
:101B30000E94E91CB1C080915C02882359F0809119
:101B40006302882321F082E00E94551003C082E0E6
:101B50000E94441088ED91E00E94AD13882369F43F
:101B600080917102882349F488ED91E00E94FD1371
:101B700080936F0281E08093710280910D0288232F
:101B800019F480910A0119C0813019F4809163021F
:101B900014C0823089F480916302882319F480E0B4
:101BA00090E00BC080910A0190E0882309F491E055
:101BB00081E09827892F01C081E0BE016E5F7F4FD1
:101BC0000E94BD1580917002883041F460916E02D0
:101BD0008EE092E00E94D613109270028091630210
:101BE00080930B0110910A01809171028823A9F062
:101BF00080917102813089F080914202882321F422
:101C00008A8180930B0109C0813011F41A8105C0CB
:101C1000823019F41A8110930B01112321F080E016
:101C20000E94551003C080E00E944410809164021D
:101C3000882391F180914502882371F5112381F069
:101C400080910001823021F080910001833011F4F5
:101C50008CE90FC0809100018823F1F48AE909C062
:101C600080910001882321F080910001813021F4CE
:101C700083E90E94681210C080910001823061F4F3
:101C800086E9F7CF83E191E00E940A1D815A9F40C7
:101C900018F080E00E94DF0B80914502853011F53D
:101CA0008FE091E00E94E91C809162028823C1F4D8
:101CB00080914802863961F0873918F4833981F4BC
:101CC00005C08A3951F08C3959F404C082E006C04D
:101CD00083E004C01092000103C081E08093000102
:101CE0001092450280915F028823D1F080916402B6
:101CF0008823B1F080914502882321F0809145022C
:101D0000853071F48FE091E00E940A1D825193406A
:101D100038F089EA0E9468128FE091E00E94E91C85
:101D200080915F02882341F08091D701863021F0B5
:101D30008091D701853009F4A8950F900F90CF912D
:101D4000DF911F9108951F920F920FB60F921124E9
:101D50002F933F934F935F936F937F938F939F93B3
:101D6000AF93BF93EF93FF93809108018823B1F461
:101D700081E08093080180916E008E7F80936E00D9
:101D800078940E94FE0C84EB86BD81E085BB809137
:101D90006E00816080936E0010920801FF91EF91B8
:101DA000BF91AF919F918F917F916F915F914F9173
:101DB0003F912F910F900FBE0F901F9018951F937A
:101DC000182F8091D701882341F08091D701873067
:101DD00021F08AE090E00E942F03112311F080E0AF
:101DE00001C087E00E94DF0B1F9108951F93182FF9
:101DF0008091D701882361F180915F02882319F4D3
:101E00000E94DF0B25C081E0809308018091D701FB
:101E1000853049F48CEA0E9468120E945F1280E0CB
:101E20000E94DF0B0AC08AEA0E94681286E00E94C4
:101E3000DF0B83E191E00E94E91C1092080102C0CF
:101E40000E94FE0C8091D701863011F41123C1F756
:101E50001F9108958091D701833089F481E08093A8
:101E6000080185EA0E9468120E945F1289EA0E94B6
:101E7000681284E00E94DF0B1092080105C0809177
:101E8000D70190E0843009F491E0892F0895809182
:101E900060028F3F11F480E008958091D70188237C
:101EA00021F088E090E00E942F0381E080930801F8
:101EB0009FB7F894809159028F778093590280914F
:101EC00059028F7E80935902809159028F7E8093B0
:101ED00059029FBF82E00E94DF0B1092080181E04F
:101EE000089514BC82E085BD80916E00816080936E
:101EF0006E0080E8809359028091D601882329F0F2
:101F0000809159028061809359020E94B21580E04D
:101F10000E94DF0B88ED91E00E94A9138EE092E011
:101F20000E94A9131092080181E0809342028093DD
:101F30000D020895E82FDB018B3111F482E007C018
:101F40008F3111F41C9204C0882321F484E08C9317
:101F500080E008958C918E7F8C9390E086709070D5
:101F60008230910529F4F0E0ED5AFB4F84910895F9
:101F7000F0E0049721F4ED58FB4F84910895E95661
:101F8000FB4F84910895282F70E066707070623066
:101F9000710519F4E3E5F4E008C06430710519F047
:101FA000E7E9F4E002C0E3E7F4E0822F81548A31EC
:101FB00008F4205E90E08491281731F09F5F903202
:101FC00011F03196F8CF9FEF892F0895CF92DF92CD
:101FD000EF92FF921F93CF93DF93182F7B01EA01BB
:101FE00069018FEFF90180831F3099F11E3019F1DB
:101FF000103109F43CC0E3E9F4E006C0811719F49C
:102000003196149104C0329684918823B9F7F70170
:10201000608160FF08C0173131F0812F0E94C30F2B
:1020200088838F3F41F5812F60E00E94C30FF60146
:1020300080838F3F31F08FE1888381E0F7018083D7
:102040001BC0812F62E00E94C30FF60180838F3F87
:1020500021F08BE1888383E00CC0812F64E00E9433
:10206000C30FF60180838F3F11F480E005C0188212
:1020700085E0F701808381E0DF91CF911F91FF9090
:10208000EF90DF90CF9008954FB7F8949091590258
:1020900021E030E002C0220F331F8A95E2F720953D
:1020A0002923209359024FBF08954FB7F894909178
:1020B000590221E030E002C0220F331F8A95E2F777
:1020C000922B909359024FBF0895982F8A3991F01F
:1020D0008B3928F4833941F0863991F405C08C3965
:1020E00049F0893A69F4089581E080935C02109286
:1020F0006302089581E080935C02809363020895F7
:1021000080912B01E82FF0E0E95EFE4F90838F5F16
:1021100080932B0180912B01843148F080912C0118
:10212000882311F483E10CC010922B010BC0909115
:102130002B0180912C01981729F480912B0181505B
:1021400080932B0180915902806480935902809181
:1021500059028F778093590208951F920F920FB6FC
:102160000F9211242F933F934F935F936F937F931D
:102170008F939F93AF93BF93EF93FF93809143020D
:10218000909144020196909344028093430280917F
:10219000B90090E0887F90708036910509F4F5C011
:1021A00081369105CCF58832910509F4A8C08932B1
:1021B0009105B4F48031910509F480C08131910515
:1021C0003CF4009709F4B7C0089709F061C165C0F5
:1021D0008831910509F476C0809709F059C186C00D
:1021E0008034910509F4E8C08134910544F48033CA
:1021F000910509F484C0C89709F04AC1A1C080358F
:10220000910509F4AAC08835910509F4A6C088345F
:10221000910509F03DC19AC08839910509F404C1BE
:1022200089399105ECF48837910509F4DBC08937C9
:1022300091054CF48836910509F4A2C080379105C8
:1022400009F026C1D4C08838910509F4B7C0803997
:10225000910509F4D7C08038910509F019C1A8C0CB
:10226000803B910509F4F5C0813B91054CF4803A1F
:10227000910509F4A8C0883A910509F009C1EEC09A
:10228000803C910509F4F1C0883C910509F4EDC04A
:10229000883B910509F0FCC0E1C080914502843083
:1022A00029F41092BB0010922E01DCC080914502EF
:1022B000813021F080915F028160D2C080915F0205
:1022C0008E7FCEC080914502843059F480912E01DA
:1022D000E82FF0E0E75BFD4FE0818F5F80932E01F8
:1022E00002C0E0914802E093BB00D2C085E0809339
:1022F0004502809145028430E1F081E03EC080914A
:102300004502843099F490912E01809147029817EC
:1023100068F480912E01E82FF0E0E75BFD4F90819B
:102320008F5F80932E019093BB00B2C085E08093B5
:1023300045021092620281E08093640285E5ABC0A1
:10234000809161028F5F80936102A4C085E08093D9
:10235000450281E080936202EFCF8091BB008093C1
:102360002D0180914502823009F780912D0187FD72
:1023700091C085E08093450283E080936202DBCFC9
:10238000809161028F5F80936102A89510925B0239
:1023900010925A021092640210922E019091BB008A
:1023A00080915D0281509695892380935E0204C0DE
:1023B0008091BB000E94651085E06DC08091BB00DC
:1023C0000E94651052C081E08093640290912E01BA
:1023D00080914702891708F04BC080912E018093AD
:1023E000470246C0809161028F5F80936102109224
:1023F0005B0210925A021092640210922E01109207
:10240000470246C09091BB0080912E01803108F0B8
:102410003FC080912E01E82FF0E0E75BFD4F9083F5
:102420008F5F80932E0134C09091BB0080912E016C
:10243000803150F480912E01E82FF0E0E75BFD4FF2
:1024400090838F5F80932E0180912E0180934702AD
:102450000CC0809161028F5F80936102809159026C
:102460008093BB001092640213C081E080936402E9
:1024700080914502833071F080914502813051F0A6
:1024800080914502823031F080914502843011F014
:1024900085E401C085E680688093BC00FF91EF91E0
:1024A000BF91AF919F918F917F916F915F914F916C
:1024B0003F912F910F900FBE0F901F901895809114
:1024C0004502882321F0809145028530C1F70895A7
:1024D000982F80914502882321F080914502853014
:1024E000C1F72FB7F8949093480297FF02C081E09C
:1024F00001C082E08093450280916402882349F004
:102500008091BC0084FDFCCF8091BC0080628093F0
:10251000BC002FBF089580914502882321F080914F
:1025200045028530C1F79FB7F89484E08093450257
:1025300080916402882349F08091BC0084FDFCCF27
:102540008091BC0080628093BC009FBF0895982F4B
:1025500080914502882321F0809145028530C1F7A2
:1025600020915F0290935F0283E080934502809107
:102570006402882349F08091BC0084FDFCCF8091E7
:10258000BC0080628093BC0080914502882321F0CA
:10259000809145028530C1F720935F0280916202ED
:1025A000882319F02FEF3FEF04C080912D01282FD1
:1025B00030E0C90108951F93182F82508B3DF0F42D
:1025C00010FD1CC0812F0E94A71297FF17C09FB754
:1025D000F8941093BA0080914602882329F08091E4
:1025E000BA0081608093BA008091BC0080648093BF
:1025F000BC00109360029FBF81E00EC08FB7F894BB
:102600001092BA009091BC009F7B9093BC009FEF0A
:10261000909360028FBF80E01F91089581E08093C6
:1026200064021092450210926202109261021092AE
:102630002C0110922B01109244021092430210922E
:102640005B0210925A02109248028093B90087E10F
:102650008093B800809160028E7F8093BA001092C0
:10266000470210922E0180914602882329F0809122
:10267000BA0081608093BA0084E88093BC008091A6
:102680005D028150880F8093BD000895613041F450
:102690008A3080F4882311F48CED08958C5908C099
:1026A000623041F4882311F488EC0895843610F4E4
:1026B000880F08958FEF0895982FFB0182508B3D6E
:1026C00010F010820DC09695953630F081E0808331
:1026D0009E3630F4945605C082E08083943609F427
:1026E00090E0892F0895DC0190912C0180912B01BD
:1026F000981711F480E0089590912C01E92FF0E0F3
:10270000E95EFE4F80818C939F5F90932C018091B6
:102710002C01843110F010922C0190912C018091A9
:102720002B01981711F081E008959FB7F8948091DC
:1027300059028F7B809359029FBF81E00895909149
:102740002C0180912B0120E0981709F421E0822FC1
:102750000895FC0112AA13AA0895FC0193A982A965
:1027600020E0981709F421E0822F0895FC0182A946
:10277000813310F090E002C0982F9F5F83A99817D3
:1027800089F082A9813310F080E005C08F5F81332A
:1027900011F490E002C0982F9F5F83A920E030E001
:1027A000981711F421E030E0822F0895DC01D296D1
:1027B0008C91D297813310F090E002C0982F9F5FE8
:1027C000D3968C91D397981711F480E008959FB712
:1027D000F894D2968C91D297FD01E80FF11D608399
:1027E000D2968C91D297813310F080E001C08F5F38
:1027F000D2968C939FBF81E00895DC012FB7F894A7
:10280000D3968C91D397FD01E80FF11D8081D3966B
:102810009C91D397913310F090E001C09F5FD396C5
:102820009C932FBF0895FC0192A983A9981718F0D3
:1028300022A983A903C022A983A92E5C281B822F69
:102840000895FC0183A9E80FF11D80810895FF928E
:102850000F931F93CF93DF93EC01F62E10E000E06F
:1028600001C000E20E9446068A30A9F08B3028F4AD
:10287000882351F0893051F5F5CF803221F1833230
:1028800089F38D3019F507C0112319F0C10FD11D3F
:10289000188280E035C0112389F4002319F3802FBA
:1028A0008D52823060F10B3251F10D3341F10F3214
:1028B00031F1003229F00883198203C0C10FD11D04
:1028C000188282E01DC0112361F202C0803250F2F2
:1028D0001F1540F6112369F4002311F4082FC2CF0D
:1028E000003219F4888311E0BDCF0883898312E098
:1028F000B9CFFE01E10FF11D80831F5FB3CF81E0EF
:10290000DF91CF911F910F91FF900895CF93DF93A7
:10291000EC010E9446068133E9F0823358F480339B
:10292000E0F48E32A8F48B32A9F08D32B1F0882316
:1029300069F0EFCF8E3689F08F3628F48D3341F071
:102940008A3639F707C0893721F704C080E007C00D
:1029500081E005C081E0888301C0188282E0DF91B8
:10296000CF910895FF920F931F93CF93DF93EC01C4
:10297000062F10E08AE0F82E0E944606282F80538A
:102980008A3068F4112331F088818F9DC0011124B1
:102990008053820F88831F5F101771F712C0822F38
:1029A0008D52823070F02B3261F02D3351F02F3286
:1029B00041F0222311F48FEF05C02930E9F21123F1
:1029C000D9F2812FDF91CF911F910F91FF90089540
:1029D000EF92FF920F931F93DF93CF9300D0CDB769
:1029E000DEB78E010F5F1F4F92E0E92EF12CEC0E47
:1029F000FD1E80916002B8010E945C138A838AE206
:102A000095E00E949A158A8169810E9468158DEB74
:102A100094E00E949A15C70162E00E94B21487FDFB
:102A200045C0882339F480916002B8010E945C138C
:102A30008A8301C0898390915D0291958A8189235F
:102A40008A838FE195E00E949A158A8169810E94AC
:102A5000681580E20E9470048A8169810E94461391
:102A60000E94DB128823B9F087EB94E00E949A154C
:102A700088EC94E00E949A158091D6010E94A815D6
:102A80008DEB94E00E949A1586ED91E00E948614E9
:102A9000882361F005C08FEE94E00E949A15A9CFBB
:102AA00087EB94E00E949A1581E001C080E00F90CE
:102AB0000F90CF91DF911F910F91FF90EF900895AC
:102AC0008A3010F4805D01C0895A0E947004089514
:102AD0001F93282F362F6AE00E94D31F482F822F82
:102AE0000E94D31F192F442311F432302CF031509F
:102AF000842F632F0E946815812F0E9460151F91FB
:102B000008951F93182F82958F700E946015812F52
:102B10008F700E9460151F910895CF93DF93EC0191
:102B200003C00E947004219688818823D1F7DF9129
:102B3000CF910895CF93DF93EC0103C00E947004FE
:102B40002196FE0184918823C9F7DF91CF910895E2
:102B5000882319F481E495E002C086E495E00E94A0
:102B60009A150895109270021092710280E890E018
:102B70009093300180932F0108951F93CF93DF939B
:102B8000182FEB0180917102883030F4823088F583
:102B9000813009F05AC004C0883009F056C047C0DF
:102BA00080917002882329F080917002883009F0AA
:102BB0004CC085E692E00E940A1DCC9708F445C0FF
:102BC00018828AE692E00E94E91C82E080937102FA
:102BD00080916F028F7180936F0280916F02880FD6
:102BE000880F80936F0280916F02836080936F02E1
:102BF0002CC080916F02188287FF02C081E0888319
:102C00008AE692E00E940A1D4497F8F08AE692E074
:102C100064E170E00E94F61C80916F02880F80933F
:102C20006F02809171028F5F809371020EC081E00C
:102C300088838AE692E00E940A1D4E9730F08AE669
:102C400092E00E94E91C109271028091700287301C
:102C500048F4823008F06FC0882389F0813009F091
:102C6000FFC022C0873009F494C0883009F0F8C052
:102C700085E692E00E940A1D039708F4F1C0112333
:102C800009F0EEC085E692E00E94E91C81E08093A5
:102C9000700210926E0280E890E090933001809371
:102CA0002F0110926902DCC0112369F080912F017D
:102CB000909130018F3F9105B4F480912F01909154
:102CC000300101960CC080912F01909130011816AF
:102CD00019064CF480912F01909130010197909347
:102CE000300180932F0180912F019091300187391D
:102CF0009105F4F485E692E00E940A1D0B9708F412
:102D0000AFC080912F01909130018038910584F4FB
:102D100082E08093700280E890E09093300180938D
:102D20002F0185E692E068E070E00E94F61C98C0F2
:102D30001092700295C085E692E00E940A1D4097AD
:102D400008F48EC0112369F080912F019091300119
:102D50008F3F9105B4F480912F019091300101963D
:102D60000CC080912F0190913001181619064CF477
:102D700080912F01909130010197909330018093C1
:102D80002F0185E692E00E940A1D449708F046C094
:102D900067C085E692E00E940A1D409708F460C073
:102DA000112369F080912F01909130018F3F91059F
:102DB000B4F480912F019091300101960CC0809164
:102DC0002F0190913001181619064CF480912F01B3
:102DD0009091300101979093300180932F0185E607
:102DE00092E00E940A1D0F97D8F1809170028730FF
:102DF000A9F41123A9F180912F019091300120E0D5
:102E0000803891050CF421E02093690288E08093DA
:102E1000700285E692E00E94E91C22C080916E0259
:102E2000880F80936E0280912F019091300180383D
:102E300091052CF080916E02816080936E028091EA
:102E400070028F5F8093700285E692E064E170E02B
:102E50000E94F61C80E890E09093300180932F014F
:102E6000DF91CF911F910895DC018C91E82FF0E064
:102E7000E833F10508F05AC1EC5CFF4FEE0FFF1F7D
:102E80000590F491E02D099414968C911497882361
:102E900009F44CC118961C92189787E017968C93EA
:102EA000179711968C91119716968C931697209AD6
:102EB000289881E035C1189939C182E031C1579A0B
:102EC0005F9883E02DC14F9B86C030C116968C91D0
:102ED000169717962C91179790E002C095958795B5
:102EE0002A95E2F780FF02C0209801C0209A289816
:102EF0008BE016C116968C91169717962C91179702
:102F000090E002C0959587952A95E2F780FF03C06F
:102F1000189B0CC102C0189909C157985F988CE0A2
:102F2000FFC04F9B03C18DE0FBC0579A5F988EE0B6
:102F3000F7C04F99FBC017968C911797882311F40F
:102F400084E1EEC017968C911797815017968C9359
:102F5000179741C02098289857985F9885E1E0C05E
:102F60004F9BE4C086E1DCC0189B02C082E31FC017
:102F70001296ED91FC91139718968C911897E80F83
:102F8000F11D808116968C93169718968C91189740
:102F90008F5F18968C93189718968C9118971596A2
:102FA0008C93159787E017968C93179787E18C93EE
:102FB000579A5F9808954F99B9C018969C911897A1
:102FC00014968C911497891708F495C011968C91DA
:102FD000119780FD3BC08AE0A3C017968C9117978C
:102FE000873019F416961C921697209828985798AF
:102FF0005F988FE195C04F9B99C080E291C0189B6C
:1030000011C016968C91169717969C91179721E0F0
:1030100030E002C0220F331F9A95E2F7822B1696FA
:103020008C931697579A5F9881E27AC04F997EC029
:1030300017968C911797882311F488E271C0179620
:103040008C911797815017968C9317978EE168C0D3
:103050001296ED91FC91139718968C9118971696ED
:103060009C911697E80FF11D3197908318969C91CB
:10307000189714968C911497981710F4209A01C001
:103080002098289889E24CC018969C91189714961D
:103090008C911497981718F4189948C002C0189B7F
:1030A00045C057985F988AE23BC04F9B3FC08BE278
:1030B00037C0579A5F988CE233C04F9937C0209839
:1030C000289818968C9118978F5F18968C9318975C
:1030D00087E017968C93179718968C9118971596EA
:1030E0008C93159718969C91189714968C91149719
:1030F000891708F0ABCF82E313C0209A289883E3A6
:103100000FC0189913C084E30BC057985F9885E3EC
:1031100007C04F9B0BC086E303C02098289887E325
:103120008C930895189B02C08FEF8C93089580EACA
:1031300092E00E94341708952098289857985F9835
:103140001092D1021092CD021092CE0210929602ED
:1031500010929702EBEAF2E0A4E7B2E095E587E788
:1031600091938D9322E0ED3CF207D1F708950E94F0
:103170009C1808958091A0028F3F09F05BC02091B8
:10318000A5028091A40230E090E00196281739074B
:1031900019F01092A00208951092A4028091D10219
:1031A0008130A1F48091A10280FD40C02FB7F89436
:1031B00081EA8093A1028DEA92E09093A30280932A
:1031C000A20280E28093A4022FBF32C0823081F538
:1031D0001092CD0240919602442331F15FB7F894EA
:1031E00080917202909173029093AA028093A90237
:1031F00092E0242F30E02F5F3F4F09C0FD01EE58D1
:10320000FD4F8281A755BD4F12968C939F5FA92FCA
:10321000B0E02A173B0794F74093CD021092960234
:103220001092CE025FBF04C01092D1021092CE0263
:103230001092A00208952091D1022223A9F1809139
:10324000A002882389F58091CE02882369F5223077
:1032500021F48091CD02882339F13FB7F89481E0C1
:103260008093CE029091A9028091AA024BEA52E08B
:103270008093AB029093AC02213049F480EA8093B2
:10328000A1025093A3024093A20282E00AC080EA06
:103290008093A1025093A3024093A2028091CD0299
:1032A0008E5F8093A4023FBF08951F93DC01142F0B
:1032B00094969C919497992351F411967C936E93D4
:1032C00014964C93149781E094968C932CC0959609
:1032D0008C919597882331F52D913C911197621728
:1032E000730700F1A901490F511D46175707D0F088
:1032F000C901807E809668177907A0F482E090E08B
:10330000821B930BFD01E60FF71FE80FF91F1283D5
:103310006417750728F0862F821B8F5F94968C9315
:1033200081E001C080E01F9108950F931F93CF9318
:10333000DF93EC01162F042F8091D102813011F41C
:103340001092D1020E94BA188091D102882339F4D8
:1033500082E08093D1021092CD021092CE02688159
:10336000798189EA92E0412F0E945519882381F0E2
:10337000002329F18091A9029091AA02807E4F96A4
:103380002881398128173907A1F40E941B1911C01F
:103390008091A002882311F40E941B196881798111
:1033A00082E792E0412F0E945519882349F00023BB
:1033B00031F08881998101969F779983888381E094
:1033C000DF91CF911F910F9108958091D1028130AB
:1033D00011F41092D1028091D102823071F4809167
:1033E000CE02882319F00E94BA1802C00E941B194D
:1033F00090E08091D102823009F091E0892F089508
:10340000FF920F931F93CF93DF93EC018B01F42E68
:103410008091D102823029F40E94E519882309F4B1
:1034200047C00E94BA188091D102882359F481E0E4
:103430008093D10288819981807E9093AA028093A3
:10344000A90234C08091CE02882391F5E881F981E8
:103450009F01207E8091A9029091AA022817390726
:1034600009F5E21BF30BE555FD4F8281F8018083DE
:10347000FF2001F18881998101969C013F77398372
:1034800028839C01207E3F778091A9029091AA0217
:103490002817390779F03093AA022093A9020E94D5
:1034A0001B1908C03093AA022093A9020E941B197D
:1034B00080E001C081E0DF91CF911F910F91FF90DB
:1034C0000895EF92FF920F931F93DF93CF9300D055
:1034D0000F92CDB7DEB79B838A8382E0E82EF12C72
:1034E000EC0EFD1E8E010F5F1F4F02C00E94971849
:1034F000C701B80140E00E94001A8823B9F389810E
:103500000F900F900F90CF91DF911F910F91FF902F
:10351000EF90089510929D0210929C0210929902D1
:10352000109298021092D0021092CF021092D30201
:103530001092D20202C00E94971882ED92E06EEEC5
:1035400040E00E9495198823B1F302C00E949718A9
:103550000E94E5198823D1F38EEF9FEF9093D30259
:103560008093D20290939B0280939A0290939F0241
:1035700080939E0208951F93CF93DF93309B08C0E2
:10358000C0919C02D0919D028EEECE3ED80719F4D8
:103590000E948A1A3FC010E00E949718CE010E9434
:1035A000611A8A3A41F4112399F4D0939902C09395
:1035B000980211E00DC08E3E59F4D093D002C09312
:1035C000CF02112389F4D0939902C09398020CC0C2
:1035D0002196DF7780919C0290919D02C817D907B0
:1035E000D9F602C00E9497180E94E5198823D1F3EA
:1035F000112311F40E948A1A8EEF9FEF90939B0281
:1036000080939A029093D3028093D20290939F0268
:1036100080939E02DF91CF911F910895682F809132
:10362000D2029091D3028E5F9F4F31F06F7782ED7F
:1036300092E041E00E9495190895FF920F931F9325
:10364000082F6AE00E94D31FF82E8091D202909139
:10365000D3028E5F9F4F21F41FC00E94971802C0B3
:103660001F2D105D82ED92E0612F41E00E949519BF
:10367000882399F3005D86EF9FEFF89E102D1124AB
:10368000100F02C00E94971882ED92E0612F41E076
:103690000E9495198823B1F31F910F91FF9008950F
:1036A000DF92EF92FF920F931F93E82EF62E142FC6
:1036B000D22E8091CF029091D00201969F77909365
:1036C000D3028093D20282ED92E06AEA41E00E9446
:1036D0009519882311F1812F0E941D1B8EE20E94F3
:1036E0000E1B8F2D0E941D1B8EE20E940E1B8E2D25
:1036F0000E941D1B80E20E940E1B8D2D0E941D1B2F
:103700008AE30E940E1B802F0E941D1B8DE00E94E9
:103710000E1B8AE00E940E1B81E01F910F91FF900B
:10372000EF90DF90089502C00E94971882ED92E01A
:103730006EEE40E00E9495198823B1F302C00E940A
:1037400097180E94E5198823D1F302C00E949718A8
:103750008FEC92E06DED40E00E9495198823B1F363
:103760008091D2029091D3029093D0028093CF02A5
:103770008EEF9FEF9093D3028093D20208950E9420
:103780009C188EEF9FEF9093D3028093D2020895FE
:1037900002C00E9497180E94E5198823D1F38091F6
:1037A00098029091990290939B0280939A028EEFD7
:1037B0009FEF90939F0280939E02089580919A02BA
:1037C00090919B028E5F9F4F61F180919A02909140
:1037D0009B020E94611A8A3A51F480919A02909158
:1037E0009B0290939F0280939E0281E00895209116
:1037F0009A0230919B028E3E61F43093D002209366
:10380000CF028EEF9FEF90939B0280939A0280E00D
:1038100008952F5F3F4F3F7730939B0220939A028A
:10382000D4CF80E0089580919A0290919B028E5FA0
:103830009F4F01F180919A0290919B020E94611A20
:103840008D3DC1F020919A0230919B028E3E31F461
:103850003093D0022093CF0280E008952F5F3F4F36
:103860003F7730939B0220939A028A3A19F38C3C5B
:1038700009F3089580E0089502C00E9497180E94FD
:10388000E5198823D1F38EEF9FEF90939B028093ED
:103890009A0290939F0280939E020895CF92DF92A6
:1038A000EF92FF920F931F93DF93CF9300D0CDB78A
:1038B000DEB720919E0230919F028FEF2E3F380796
:1038C00009F456C0809198029091990228173907FF
:1038D00039F0EE24FF2401969F772817390719F451
:1038E00091E0E92EF12C3A8329830E94DE1B882384
:1038F00029F000919E0210919F0207C00091CF0213
:103900001091D00202C00E9497180E94E5198823E6
:10391000D1F389819A810E94611A8A3A39F08BE049
:103920000E942F0303C00E94971804C06E010894E0
:10393000C11CD11CC6016CEC40E00E949519882383
:1039400091F3EF28A9F01093990200939802209127
:103950009C0230919D02C9018C509E4F80179107A7
:1039600018F00217130720F410939D0200939C0295
:103970000F900F90CF91DF911F910F91FF90EF90DB
:10398000DF90CF90089582E08093B00083E0809331
:10399000B1008FEB8093B300E0E7F0E080818260BC
:1039A000808308951F920F920FB60F9211248F9368
:1039B0009F938091D4029091D50201969093D50265
:1039C0008093D4029F918F910F900FBE0F901F9004
:1039D0001895FC012FB7F8948091D4029091D502EC
:1039E00091838083138212822FBF0895FC0180810E
:1039F0009181860F971F918380838281938186179F
:103A0000970718F4138212820895861B970B9383ED
:103A100082830895FC018FB7F8944091D4025091AD
:103A2000D50220813181421B530B8FBF828193814C
:103A30008417950710F453834283828193810895FC
:103A400080915F02882329F482E391E00E94E91CBF
:103A5000089582E391E00E940A1D835A924098F0F3
:103A600080916402882379F080914502882321F0B7
:103A700080914502853039F489EA0E94681282E318
:103A800091E00E94E91C0895AF92BF92DF92EF92FD
:103A9000FF920F931F93DF93CF9300D000D00F922C
:103AA000CDB7DEB77C018E010E5F1F4FC8010E94AB
:103AB000E91C5E010894A11CB11CD02E012FC50188
:103AC0000E947313882319F089818C3A49F08D2D57
:103AD000902F0E940A1DE816F90610F0A895EFCF66
:103AE0000F900F900F900F900F90CF91DF911F913B
:103AF0000F91FF90EF90DF90BF90AF9008951092DC
:103B0000D9021092DA021092D7021092D6021092C5
:103B1000D8021092DB020895FC016830F8F0808131
:103B20008336E1F481818C36C9F482818B36B1F41D
:103B300083818093D90284818093DA028581809386
:103B4000D70286818093D60287818093D80268301D
:103B500019F080858093DB0281E0089580E008956C
:103B60001092DE028FEF90E09093DD028093DC02F2
:103B70001092DF0208959091DE02882311F01092D6
:103B8000DE02892F08958091DC029091DD02089574
:103B90008091DE028823D9F18FEA95E00E949A1580
:103BA0008091DE02823069F0833018F48130A1F414
:103BB00005C0833059F0843079F40BC08CE995E06E
:103BC00002C089E895E00E949A150FC085E795E04C
:103BD000FACF87E695E0F7CF8BE595E00E949A153E
:103BE0008091DE0260E00E94681581E595E00E9408
:103BF0009A158091DD020E9481158091DC020E945D
:103C0000811589E495E00E949A151092DE020895CC
:103C1000FF920F931F93082FF92E162F0E94DF1F7C
:103C20001817B1F0802F9F2D612F0E94E71F802F62
:103C30009F2D0E94DF1F181759F08091DE028430FB
:103C400038F484E08093DE020093DC02F092DD021F
:103C50001F910F91FF900895FF920F931F938C0176
:103C6000F62E0E94081EC80180569F4F6F2D0E949D
:103C7000081EC801805C9E4F6F2D0E94081E1F9178
:103C80000F91FF900895CF92DF92EF92FF921F93D2
:103C9000CF93DF937C016B0110E0C42FD0E021971C
:103CA00005C08E0D9F1D0E942C1E1F5F812F90E06E
:103CB0008C179D0734F4F601E80FF91F6081662325
:103CC00081F7C701810F911D60E00E942C1EDF91DA
:103CD000CF911F91FF90EF90DF90CF9008950E94B9
:103CE0002C1E0895FF920F931F938C01F62E672FC1
:103CF00001960E942C1EC8016F2D0E942C1E1F9140
:103D00000F91FF900895BF92CF92DF92EF92FF92B2
:103D10000F931F93CF93DF93EC01B62E0E94DF1F0A
:103D2000182F90EAC92ED12CCC0EDD1EC6010E94A0
:103D3000DF1F082F80E4E82E81E0F82EEC0EFD1E38
:103D4000C7010E94DF1F101719F4181709F446C0A5
:103D50000F3F11F48F3FD9F0101761F48091DE020C
:103D60008230A8F482E08093DE02F092DD02E092DD
:103D7000DC020DC0181781F48091DE02823038F425
:103D800082E08093DE02D092DD02C092DC02CE019E
:103D9000612F0E942C1E22C09091DE02081789F428
:103DA000923048F482E08093DE0280EA90E09093C3
:103DB000DD028093DC02CE01602F0E942C1E102FAA
:103DC0000DC0933038F483E08093DE02D093DD029F
:103DD000C093DC0281E08093DF021B2D812FDF91F5
:103DE000CF911F910F91FF90EF90DF90CF90BF90F8
:103DF00008955F926F927F928F929F92AF92BF923F
:103E0000CF92DF92EF92FF920F931F93CF93DF93A6
:103E10003C01EB01D42E49011092DF025B017B01D2
:103E200000E010E0552453941DC0F401E00FF11F91
:103E3000E491C801860D971D6E2F0E94831ED70145
:103E40008C938F3710F05092DF02F7018081882326
:103E500061F00F5F1F4F0894E11CF11C8091DF029D
:103E6000882319F4C02E0D1500F38091DF028823FA
:103E700071F080E090E008C0F401E80FF91FE491D0
:103E8000D501ED935D0101968D15B0F302C0CD14FF
:103E900020F0CD0DD11D21971882DF91CF911F9178
:103EA0000F91FF90EF90DF90CF90BF90AF909F90D9
:103EB0008F907F906F905F900895AF92BF92CF9256
:103EC000DF92FF920F931F93CF93DF93EC01162F96
:103ED000072F6A0159011092DF020196672F0E9495
:103EE000831EF82ECE01612F0E94831E282F809101
:103EF000DF028823D9F49F2D80E030E0282B392B76
:103F00002C153D0518F0A216B30698F48091DE0238
:103F1000882339F481E08093DE02D093DD02C093E0
:103F2000DC02CE01612F702F0E94721E812F902F14
:103F30009C01C901DF91CF911F910F91FF90DF90FC
:103F4000CF90BF90AF900895FF920F931F93CF93A0
:103F5000DF93EC01062F142FF22E0E94831E81178F
:103F600010F0F81680F48091DE02882339F481E0A5
:103F70008093DE02D093DD02C093DC02CE01602F7D
:103F80000E942C1E802FDF91CF911F910F91FF90E7
:103F9000089540E021E00E94A41F90E0813009F4E0
:103FA00091E0892F0895991B79E004C0991F961715
:103FB00008F0961B881F7A95C9F780950895F9999E
:103FC000FECF92BD81BDF89A992780B50895262F1E
:103FD000F999FECF1FBA92BD81BD20BD0FB6F894EE
:0E3FE000FA9AF99A0FBE01960895F894FFCF51
:023FEE000100D0
:00000001FF
