:100000000C945D030C947A030C947A030C947A0399
:100010000C947A030C947A030C947A030C94D11800
:100020000C947A030C947A030C947A030C947A035C
:100030000C947A030C947A030C947A030C947A034C
:100040000C9485180C947A030C947A030C947A031C
:100050000C947A030C947A030C947A030C947A032C
:100060000C948A190C947A03190927092D0931096E
:10007000520A520A520A520A520A520A34094509CD
:100080005D0961096509520A520A520A520A520A66
:10009000700976097A099209520A520A520A520ADA
:1000A000520A520A9D09A709AB09BE09520A520A0F
:1000B000520A520A520A520AC909DC09ED09F10929
:1000C000F509520A520A520A520A520A040A080A46
:1000D0000E0A120A160A1A0A520A520A520A520A38
:1000E000200A260A2C0A300A340A370A3B0A3F0A39
:1000F000430AB114CA14D114E714FF143A15411578
:10010000A814D016D016E515D0162216D016C6168D
:10011000D016207363686F6E2076657267656265BE
:100120006E206F64657220756E6775656C746967A3
:100130002C20616E6465726520776165686C656E00
:1001400021000D0A207765697465726C65697475A4
:100150006E67656E20616277656973656E3F2061C9
:100160006B7475656C6C3A20000D0A2070727565B1
:10017000666520000D0A2064757263687761686C9B
:1001800020616B7475656C6C3A2000206E65753A61
:10019000202020202000206F6B2E200020202020F7
:1001A0000D0D0A0020616472657373652000666539
:1001B000686C6572636F646520007363687265695B
:1001C000626665686C6572007363687765726572F4
:1001D000206C6573656665686C6572007761726E28
:1001E000756E67206C6573656665686C657200691D
:1001F0006E666F20696E697469616C697369657296
:1002000074000D0D0A20656570726F6D20006E65BB
:10021000696E006A61000D0A2073706572727A65FA
:10022000697420776F6368656E656E642D616268BE
:1002300061656E6769673F20616B7475656C6C3AC8
:1002400020000D0A202E2E2E206269733A200020F5
:10025000766F6E3A20000D0A2073706572727A65AF
:10026000697420000D0A207A656974656E207669CC
:1002700065727374656C6C6967206F686E65207059
:10028000756E6B7420756E64206B6F6D6D6120658B
:10029000696E676562656E000D0A207A6569747320
:1002A000706572726520616B746976696572656EDE
:1002B0003F20616B7475656C6C3A20006C6F632035
:1002C0002000202B2B2B200029206E65753A202042
:1002D0000020152066756E6B74696F6E20746173F3
:1002E000746520616D206D6F64756C2028616B747E
:1002F0002E200029206E65753A2020002015206DE3
:100300006178696D616C6520686F63686C617566A2
:100310002D7A65697420696E2073656B756E6465EE
:100320006E202831302D33302C20616B742E20004C
:100330002B29002015207761686C7A6966666572E2
:100340006E2065696E676562656E2C20656E6465FA
:10035000206D6974202B2028616B742E3A200020B8
:1003600015206175746F6D617469736368652076BB
:100370006F727761686C20616B746976696572650C
:100380006E3F20616B7475656C6C3A200029206E9D
:100390006575202830203D20617573293A20006161
:1003A0007573002015206C6F6B616C6265747269E7
:1003B000656220776165686C656E206D69743A20AE
:1003C00028616B742E200029206E6575202830204E
:1003D0003D20617573293A20006175730020152056
:1003E0006B6F6D6D656E646520616E7275666520FC
:1003F0007370657272656E206D69743A2028616B46
:10040000742E2000202B2B2B20002015206B656ED6
:100410006E756E673A200020152065696E6661630F
:100420006865206B6F6E66696775726174696F6E5F
:100430003F2020202000206B6F6E66696775726117
:1004400074696F6E2068656C6C736368726569624D
:1004500065722076657273696F6E20353130206465
:100460006174756D204D6179202035203230323134
:10047000000D0A766F67656C2071756178207A7758
:1004800069636B74206A6F686E7973207066657239
:10049000642062696D0D0A73796C766961207761F9
:1004A000677420717569636B2064656E206A757866
:1004B000206265692070666F727A6865696D0D0AE1
:1004C0007072616C6C20766F6D20776869736B79E0
:1004D00020666C6F6720717561782064656E206A94
:1004E0006574207A752062727563680D0A6A6564A6
:1004F0006572207761636B657265206261796572F0
:100500002076657274696C67742062657175656DBB
:10051000207A776F207066756E64206B616C6273F1
:10052000686178656E0D0A6672616E7A206A61672D
:100530007420696D206B6F6D706C657474207665C6
:1005400072776168726C6F7374656E20746178691C
:1005500020717565722064757263682062617965C7
:10056000726E0D0A626569206A6564656D206B6C48
:100570007567656E20776F727420766F6E20736F6B
:100580006B726174657320726965662078616E7440
:100590006869707065207A796E697363683A207152
:1005A0007561747363680D0A313233343536373808
:1005B00039302C2E3A2D2B3D2F28290D0A727972B5
:1005C00079727972797279727972797279727972D3
:1005D00079727972797279727972797279727972C3
:1005E00079727972797279727972797279727972B3
:1005F0007972797279727972797279720D0A7234BC
:100600007936723479367234793672347936723496
:100610007936723479367234793672347936723486
:100620007936723479367234793672347936723476
:1006300079367234793672347936723479360D0AF5
:10064000005F5F5F69746C785F48656C6C736368AA
:10065000724B6F6D6D325F5F5F4D61792020352089
:10066000323032315F5F5F30383A32393A35325F9B
:100670005F5F3531305F5F5F0023350D3920232CFC
:100680002E0A29342338303A3D332B173F2736239F
:100690002F2D3207233731282323740D6F20686EE6
:1006A0006D0A6C726769706376657A6462737966E5
:1006B0007861776A2375716B230011241FBECFEF19
:1006C000D4E0DEBFCDBF11E0A0E0B1E0E4E4FAE3A6
:1006D00002C005900D92A231B107D9F723E0A2E143
:1006E000B1E001C01D92A636B207E1F70E948A0E62
:1006F0000C94201D0C9400000F931F93CF93DF9355
:100700008C01D62FC0E00E949B0C90ED980F9A3080
:1007100090F4F801CC2351F09081990F292F220FEA
:10072000220F920F9053890F808301C09083CF5F77
:10073000CD13E9CF0EC093ED980F933050F08B326C
:1007400041F08D3331F0882331F08930E1F2CC2350
:10075000D1F28C2F01C08FEFDF91CF911F910F91BC
:100760000895CF93DF93EC010E949B0C8033D9F066
:1007700040F48D32C1F0D0F4882381F08B32A1F7A0
:100780000FC08A3669F028F4813351F08D3371F04F
:10079000EBCF8E3641F0893719F0E6CF80E007C005
:1007A00081E0888301C0188282E001C081E0DF918E
:1007B000CF910895FF920F931F93CF93DF938C01F6
:1007C000F62ED0E0C0E00E949B0C811108C0CC2323
:1007D00009F444C0F801EC0FF11D108242C08930C9
:1007E00091F38032C0F4C11111C0DD2361F383EDB8
:1007F0008D0F8330A8F1DB3299F1DD3389F1F801F7
:10080000D03239F0D083118282E02BC0F801EC0F96
:10081000F11D1082F9CF8332B1F2803221F4C1117F
:1008200014C0D0E2D0CFCF1570F6C11111C0D111D4
:1008300002C0D82FC8CFF801D03219F48083C1E0AC
:10084000C2CFD0838183C2E0BECFCF1508F0BBCF2B
:10085000F801EC0FF11D8083CF5FB5CF80E001C0C0
:1008600081E0DF91CF911F910F91FF9008951F9329
:10087000CF93DF9300D0CDB7DEB7BE016E5F7F4F61
:10088000809161030E94D91B898384E791E00E94D3
:1008900090066A8189810E94BE068BE891E00E94E1
:1008A000900662E0CE0101960E947C0387FD46C05F
:1008B000811109C0BE016E5F7F4F809161030E946C
:1008C000D91B898301C08A8380915E0381959981B8
:1008D0008923898389E691E00E9490066A81898153
:1008E0000E94BE0680E20E94BE0C6A8189810E943D
:1008F000C31B0E94581B182F8823D9F086E991E06A
:100900000E94900682E491E00E949006809172021B
:100910000E94D1068BE891E00E94900682E792E067
:100920000E94B103882351F086E991E00E9490066D
:1009300006C082E191E00E9490069FCF10E0812FD7
:100940000F900F90DF91CF911F91089590914C01DE
:10095000981730F480934C0170934B0160934A01D7
:10096000089510924C018FEF90E090934B0180938B
:100970004A0110924D0108951F93CF93DF93EC012C
:10098000162F0E940A1D811781F0612FCE010E944F
:10099000121DCE010E940A1D181739F0BE0184E015
:1009A000DF91CF911F910C94A604DF91CF911F91FD
:1009B00008951F93CF93DF93EC01162F0E94BC0480
:1009C000612FCE0180569F4F0E94BC04612FCE0143
:1009D000805C9E4FDF91CF911F910C94BC04BF921D
:1009E000CF92DF92EF92FF920F931F93CF93DF93FB
:1009F0008C01B62E0E940A1DC82F680180EAC80E1D
:100A0000D11CC6010E940A1DD82F780180ECE81A7B
:100A10008EEFF80AC7010E940A1DCD1303C0C81348
:100A20000BC008C0DF3F79F48F3F69F46C2FC80119
:100A30000E94D9048C2F24C0CF3FF9F0B70182E087
:100A40000E94A604F3CFC81302C0B601F8CFD81392
:100A50000BC060EA70E082E00E94A6046D2FC8011E
:100A60000E94D9048D2F0CC0B80183E00E94A60417
:100A700081E080934D018B2D03C08F3FB9F2DECF13
:100A8000DF91CF911F910F91FF90EF90DF90CF906A
:100A9000BF9008954F925F926F927F928F929F9234
:100AA000AF92BF92CF92DF92EF92FF920F931F937C
:100AB000CF93DF934C018B01742E790110924D017D
:100AC000662EC42FD0E05B01C12CD12C442443946A
:100AD0005C2CCC16DD06A9F0F701EC0DFD1D649130
:100AE000C601880D991D0E94EF04F50180838F37A0
:100AF00010F040924D018FEFA81AB80A8081811141
:100B000007C080914D01882399F0F701D80108C0F2
:100B1000AFEFCA1ADA0A80914D018823C9F2F1CFEA
:100B20008A2F8619871530F484918D933196F8CFEA
:100B3000571420F0C00FD11F21971882DF91CF9159
:100B40001F910F91FF90EF90DF90CF90BF90AF90EB
:100B50009F908F907F906F905F904F900895FF923D
:100B60000F931F93CF93DF938C01C62FF42ED22FB8
:100B70000E94EF048F1510F0D81748F4B80181E0F7
:100B80000E94A6046C2FC8010E94D9048C2FDF910B
:100B9000CF911F910F91FF90089521E040E00E94B6
:100BA000AF0591E0813009F090E0892F08951F93FF
:100BB000CF93DF93EC01162F672F01960E94D90483
:100BC000612FCE01DF91CF911F910C94D904BF9278
:100BD000CF92DF92EF92FF920F931F93CF93DF9309
:100BE000EC016B017A01890110924D016D2D019686
:100BF0000E94EF04B82E6C2DCE010E94EF0490915C
:100C00004D01911112C090E09B298E159F0518F09F
:100C10000817190748F4BE0181E00E94A604B60136
:100C2000CE010E94D70501C06C01C601DF91CF91B2
:100C30001F910F91FF90EF90DF90CF90BF9008959C
:100C40000C94D904CF92DF92EF92FF921F93CF932F
:100C5000DF936C017B0110E0C42FD0E02197812F3E
:100C600090E08C179D0764F060E08C0D9D1DDF9176
:100C7000CF911F91FF90EF90DF90CF900C94D9040B
:100C8000F701E80FF91F6081662371F38C0D9D1D3C
:100C90000E94D9041F5FE3CF90914C018111109203
:100CA0004C01892F089580914C018823C1F182E085
:100CB00092E00E94900680914C01823069F028F405
:100CC000813091F48FEE91E009C0833051F084308F
:100CD00059F48AEB91E002C08CED91E00E949006FD
:100CE0000CC088EC91E0FACF8EEA91E00E94900669
:100CF00060E080914C010E94BE0684EA91E00E946F
:100D0000900680914B010E94B30680914A010E9497
:100D1000B3068CE991E00E94900610924C01089570
:100D2000CF93DF93EC01FE018491882331F0FE0123
:100D300084910E94BE0C2196F6CFDF91CF91089549
:100D4000CF93DF93EC018991882319F00E94BE0CA8
:100D5000FACFDF91CF9108958A3010F4805D01C001
:100D6000895A0C94BE0CCF93C82F82958F700E9425
:100D7000AC068C2F8F70CF910C94AC06CF93C82FFC
:100D800080E0CA3018F08F5FCA50FBCF811102C0DB
:100D900062301CF061500E94BE068C2FCF910C94E3
:100DA000AC06811103C08EE092E002C083E192E0C4
:100DB0000C949006FC016830F0F080818336D9F401
:100DC00081818C36C1F482818B36A9F48381809332
:100DD0005101848180935201858180934F018681E6
:100DE00080934E01878180935001683031F0808577
:100DF0008093530102C080E0089581E00895FA01D4
:100E0000208131814281538124173507E1F09CE331
:100E1000899FF001112470E06E0F7F1F24173507A2
:100E200040F46217730760F081E06417750748F0BB
:100E300007C081E06417750720F06217730708F494
:100E400080E08170089580E008950F931F93CF9301
:100E5000DF9300D0CDB7DEB78C01FC0120819181FA
:100E6000822F6CE370E00E94F01C862F6A83FCE303
:100E70006F9F20191124298362E00E94BE0662E060
:100E800089810E94BE068BE891E00E94900662E094
:100E9000CE0102960E947C038823C1F062E0CE015D
:100EA00001960E947C0387FD13C02A81898190E00E
:100EB0003CE3239F800D911D1124813AE5E09E07BC
:100EC00014F080EA95E0F8019183808381E001C00D
:100ED00080E00F900F90DF91CF911F910F910895B7
:100EE000E5E5F1E0118210821382128215821482EC
:100EF000178216821092540110921601E2E1F1E07D
:100F000011821082138212820895CF93DF93809111
:100F10001601D0914E01C0915001882301F1109229
:100F200016016C2F70E02CE3D29F600D711D11240F
:100F30007093130160931201CB010A96813A25E068
:100F4000920728F4909315018093140106C0665906
:100F50007540709315016093140180E036C042E142
:100F600051E06C2F8D2F0E94FF068111F6CF109259
:100F70001301109212011092150110921401809128
:100F80005401811113C045E551E06C2F8D2F0E9453
:100F9000FF06811107C049E551E06C2F8D2F0E949B
:100FA000FF0602C081E090E081700FC08091530184
:100FB000863018F049E551E002C045E551E06C2F5C
:100FC0008D2FDF91CF910C94FF06DF91CF91089583
:100FD00081E08093160108950F931F93CF93DF93C1
:100FE000EC012FE935E040E050E060E070E00E9465
:100FF000E70505E511E0F801918380832FE935E0ED
:1010000040E050E060E070E0CE0102960E94E7050B
:10101000F801938382832FE935E040E050E060E0FF
:1010200070E0CE0104960E94E705F8019583848361
:101030002FE935E040E050E060E070E0CE01069638
:101040000E94E705F8019783868360E0CE01089649
:101050000E94CD0580935401DF91CF911F910F9194
:1010600008950F931F93CF93DF93EC0105E511E0F3
:10107000F801608171810E94D705F8016281738156
:10108000CE0102960E94D705F80164817581CE01D8
:1010900004960E94D705F80166817781CE010696F5
:1010A0000E94D70560915401CE010896DF91CF913F
:1010B0001F910F910C942006EF92FF920F931F93B4
:1010C000CF93DF931F92CDB7DEB788E992E00E94FD
:1010D00090062091550130915601809157019091D1
:1010E00058012817390771F481E040915901509156
:1010F0005A0120915B0130915C014217530719F4AA
:1011000080E001C081E0817089830E94D1068BE874
:1011100091E00E949006CE0101960E94B1038111D8
:1011200002C010E05EC08981811112C0809155011A
:1011300090915601909358018093570180915901E5
:1011400090915A0190935C0180935B0111E049C03A
:1011500084E692E00E94900685E5E82E81E0F82E74
:1011600001E686E592E00E949006802F0E94BE0C68
:101170008FE492E00E949006C7010E942507882311
:1011800081F286E991E00E94900682E492E00E945A
:101190009006C70102960E942507182F882309F29E
:1011A00086E991E00E9490060F5F84E0E80EF11C52
:1011B0000336B9F686E192E00E94900680915401D0
:1011C0000E94D1068BE891E00E94900684E591E0B0
:1011D0000E94B103882309F4A4CF86E991E00E941C
:1011E0009006812F0F90DF91CF911F910F91FF906B
:1011F000EF900895209A28980895209828980895A7
:1012000083B181700895579A5F98089557985F98B1
:101210000895CF93DF93DC01EC914E2F50E04534DD
:10122000510508F03FC1EC01FA01EC5CFF4F0C9452
:10123000041D8C81882309F435C1188687E08F83CB
:1012400089818E831D820E94FA0881E02AC10E9452
:101250000009811127C182E024C10E94030983E0B3
:1012600020C14F9B3BC01EC18E8190E00F8002C009
:10127000959587950A94E2F780FF03C00E94FD08C8
:1012800002C00E94FA088BE00CC18E8190E00F80B2
:1012900002C0959587950A94E2F780FF09C00E94E5
:1012A0000009882309F4FEC00E9406098CE0F9C0F9
:1012B0000E9400098111F6C0F7CF4F9BF3C08DE06B
:1012C000F0C00E9403098EE0ECC04F99EBC08F8103
:1012D000811102C084E1E5C081508F838AE0E1C0C2
:1012E0000E94FD080E94060985E1DBC04F9BDAC021
:1012F00086E1D7C00E940009882311F082E30DC067
:101300008885EA81FB81E80FF11D90819E838F5FC4
:1013100088878D8387E08F8387E18883DF91CF91F2
:101320000C9403094F99BEC098858C81891708F4E5
:10133000B7C0898180FFD2CF2AC08F81873009F45E
:101340001E820E94FD080E9406098FE1AAC04F9BE1
:10135000A9C080E2A6C00E940009882359F081E05C
:1013600090E00F8002C0880F991F0A94E2F79E81D7
:10137000892B8E830E94030981E293C04F9992C00A
:101380008F81811102C088E28CC081508F838EE1F1
:1013900088C08E819885EA81FB81E90FF11D319724
:1013A000808398858C81981718F40E94FA0802C0EF
:1013B0000E94FD0889E275C098858C81981740F4D9
:1013C0000E94000981116EC00E9406098AE269C06C
:1013D0000E9400098111F8CF65C04F9B63C08BE26A
:1013E00060C00E9403098CE25CC04F995BC00E9400
:1013F000FD0888858F5F888797E09F838D839C8118
:10140000981708F44DC0C3CF0E94FA0883E349C07F
:101410000E940009811146C084E343C00E9406096E
:1014200085E33FC04F9B3EC086E33BC00E94FD0862
:1014300087E337C00E9400098823A1F18FEF31C0F4
:1014400084E18F830E94FA088DE32BC00E9400097B
:10145000811128C08EE325C00E9403098FE321C0BB
:101460004F9920C080E41DC00E94FD0813C00E9457
:10147000060982E416C04F9B15C083E412C00E9487
:10148000030984E40EC04F990DC08F81882321F099
:1014900081508F8381E405C018861C8281E08D8392
:1014A00082E38883DF91CF9108952A9A08952A983C
:1014B0000895419A089541980895429A089542984E
:1014C00008953B9A439A08953B9843980895CF9383
:1014D000DF930E9428188823E1F38FE10E94CD1743
:1014E000C8ECD1E08991882319F00E940218FACF44
:1014F000DF91CF91089581E691E00E94191C882325
:10150000C1F087E191E00E9409198032934088F090
:1015100080916202823021F0843059F464E001C08D
:1015200062E081E691E00E943E1C87E191E00E942A
:10153000E81889E592E00E94090980915902811119
:1015400025C081E691E00E94191C81110CC0809198
:10155000500285FD08C081E691E00E946C1C8093DA
:10156000C7018EED07C087EE91E00E94201C81111B
:10157000DCC08FED80935A0287EC91E090935C027F
:1015800080935B0281E080935D0208958F3F09F0B4
:10159000CCC020915E0230E080915D0290E0019627
:1015A0002817390759F180915D01823320F48F5F4C
:1015B00080935D0109C010925002809162028823DD
:1015C00019F085E08093620280914E0290914F0263
:1015D000019690934F0280934E0285E592E00E941F
:1015E000E8180E94550A10925D0210925A028CE38C
:1015F000809359025E9A2B985D985CC02B985D98F9
:101600005E9880915D01882319F0815080935D017F
:1016100080915A028F3D81F56091C70167FD05C039
:1016200087EE91E00E943E1C25C0862F8F77809325
:1016300050028091620263FF0CC0823031F085302D
:1016400021F0811111C083E001C081E0809362022A
:101650000BC0813039F040F08350823028F4109272
:10166000620202C085E0F2CF62FF04C085E592E02D
:101670000E94E8182B9A1AC05D9A8E3D21F481E6EB
:1016800091E00E945B1C87EE91E00E94201C81117A
:101690000DC08FED80935A0287EC91E090935C022D
:1016A00080935B0281E080935D0202C010925D0234
:1016B000109259028091500281FF03C00E94610A7A
:1016C00002C03B9A439890915A038091500294FF34
:1016D00008C080FF03C00E94590A0AC00E945B0A2A
:1016E00007C080FF03C00E945D0A02C00E945F0A1B
:1016F0008091500282FF05C085E592E00E94E818C3
:1017000010C080914D0281110AC085E592E00E94CF
:10171000091921E08639910518F020E001C021E087
:1017200020FD0C94550A0C94570A0895CF9380918C
:101730006202853021F410926202C4E00FC0815031
:101740008330D8F784E080936202F7CF0E947B0A4F
:1017500080916202833011F4C09362028091620230
:101760008111F4CFCF9108950F931F93CF93DF93FF
:1017700000D000D0CDB7DEB780916202882319F087
:101780008450823018F482E08093620287EE91E008
:101790000E94151C81E691E00E94151CCE01019665
:1017A0000E94E81808EE13E0809162028130C9F0CF
:1017B0000E947B0A80916202853091F0882381F03B
:1017C000CE0101960E94091940915E01409F90014F
:1017D000419F300D11242817390730F7109262020B
:1017E00080E00F900F900F900F90DF91CF911F919D
:1017F0000F91089580E00E946F188CEB92E00E9498
:10180000900680916202813019F40E947B0AF9CF20
:101810000E94960B81E00C946F18CF92DF92EF92AA
:10182000FF921F93CF93DF9300D000D0CDB7DEB7E8
:10183000182FCE0101960E94E81880E00E946F18D0
:10184000812F8B7F31F0133031F081E080934D0296
:1018500003C082E001C084E090E024EF31E0829F89
:101860007001839FF00C929FF00C11242CE231E068
:10187000829F6001839FD00C929FD00C11240E9404
:10188000121380916402882329F0109264020E944E
:10189000E8073EC00E947B0A80916202811138C035
:1018A000123021F480915D01882391F180914803E9
:1018B0008823A9F0609148038AE493E00E94DA0645
:1018C000882349F0133049F40E948507811105C02F
:1018D000109248031DC01092480310924803CE0195
:1018E00001960E940919E816F90628F4CE0101961E
:1018F0000E94E818C4CFCE0101960E940919C816AB
:10190000D90618F40E94610ABACF0E94640AB7CFC0
:101910000E94640A10924D0281E00E946F180F909D
:101920000F900F900F90DF91CF911F91FF90EF904C
:10193000DF90CF90089587EE91E00E94191C8823D4
:1019400091F00E947B0A0E94121380916402882306
:1019500021F01092640289E0089580916202813042
:1019600051F380E00AC087EE91E00E945B1C9FEB80
:10197000980F9A3110F4805E08950895CF93C82F80
:1019800081E691E00E94201C882349F08091620248
:10199000813029F40E947B0A0E941213F1CF6C2F30
:1019A00081E691E0CF910C943E1CAF92BF92CF9212
:1019B000DF92EF92FF920F931F93CF93DF9300D0AC
:1019C00000D01F92CDB7DEB7182FCE0101960E942E
:1019D000E81881E00E94B617B12C01E0A12CDD24AB
:1019E000D3948BE0C82E98ECE92E91E0F92E0E945A
:1019F0007B0A0E941213112311F1CE0101960E945D
:101A00000919D11003C028E833E102C024EF31E006
:101A100082179307A0F06BE184E792E00E943E1CDE
:101A20006BE184E792E00E943E1C62E184E792E071
:101A30000E943E1CCE0101960E94E818D12CCE01D6
:101A400005960E94E117882341F18D81873191F439
:101A50000E94670A8CE00E94BE0C8AEC91E00E9412
:101A6000A006F70101900020E9F73197E85CF1400A
:101A7000BE2E13C0873009F4CD8281E691E00E942A
:101A8000201C811103C08D810E94BE0C8D818D3080
:101A900011F0B39401C0B12C10E00E9461188823AA
:101AA00081F080E20E94BE0C87E10E94BE0C80E2C1
:101AB0000E94BE0C81E00E942C1884E08093620298
:101AC000A3C087EE91E00E94191C811183C00E947F
:101AD0002818882309F47EC087EE91E00E945B1CE1
:101AE000182FAA2009F455C08B3409F446C0F8F425
:101AF000823409F44CC028F41A51173008F469C034
:101B000064C01854123008F060C00E94670A85E172
:101B10000E94BE0C8AEC91E00E94A006F7010190A1
:101B20000020E9F73197E85CF140BE2E4EC08335C6
:101B300061F138F48E3479F0823509F046C082E0E4
:101B40000EC0873599F08A3509F03FC088E00E94C1
:101B5000CD1780E20FC082E00E94CD1788E00E947E
:101B6000CD1780E20E94BE0CB12C2FC087E10E94ED
:101B700002188CE00E94BE0C28C087E00E94021868
:101B80008BE00E94BE0CB39420C000E01EC001E0B8
:101B90001CC086EE810F8630D0F0002379F0103221
:101BA00021F486E38B1538F10BC01D3221F486E356
:101BB0008B1510F105C083E48B15F0F0112349F06B
:101BC000812F0E940218B39404C0A12C02C0AA2441
:101BD000A39410E080916202853009F008CF109242
:101BE000620280E00E942C180E94611881110CC0D2
:101BF0000E947B0AF9CF10E082E00E94CD1788E0B6
:101C00000E94CD17B12CDACF0F900F900F900F904C
:101C10000F90DF91CF911F910F91FF90EF90DF9088
:101C2000CF90BF90AF900895CF93DF9300D000D0B6
:101C3000CDB7DEB77C0180E88093BC002D98CE0143
:101C400001960E94E81800E010E0670121E0C2223E
:101C5000DD24570182E0A822BB24470124E0822230
:101C6000992488E0E822FF24A895CE0101960E94DD
:101C7000091981399140F0F0CE0101960E94E818CF
:101C8000309B12C0112381F3115071F7002361F3CF
:101C9000F8949EE088E10FB6F894A89580936000D0
:101CA0000FBE90936000FFCF153010F001E0DCCF45
:101CB0001F5FDACF011125C0CE0101960E940919DC
:101CC000893C9105F0F0C114D10419F00E94550A25
:101CD00002C00E94570AA114B10419F00E94590AC7
:101CE00002C00E945B0A8114910419F00E945D0AEF
:101CF00002C00E945F0AE114F10449F00E94610AE7
:101D0000B3CF0E94570A0E945B0A0E945F0A0E949A
:101D1000640AAACFCF93DF93CDB7DEB729970FB66A
:101D2000F894DEBF0FBECDBF9FE088E10FB6F894F8
:101D3000A895809360000FBE909360008FEF83B9E9
:101D400086B989B915B818B81BB814B817B81AB835
:101D5000229A399A3A9A0E94640A3898409A259AA7
:101D600024982C9A239A559A569A0E94550A0E94B2
:101D7000B1040E94C2180E947007E1E4F6E0E49109
:101D80002CED42E066E180E090E00E94AF058E7F9E
:101D90008093610381E080935E038093470360E05A
:101DA00089E190E00E94CD058093720223E640E035
:101DB00060E083E090E00E94AF0580935F0121E046
:101DC00040E060E088E190E00E94AF058093600110
:101DD00084E090E00E94EC0723E640E068E58AE1B9
:101DE00090E00E94AF058093E6016CEDE62E61E085
:101DF000F62E0BE110E06FEFC8010E94EF04F7012F
:101E000081937F010F5F1F4F05321105A1F72EE16E
:101E10004AE064E185E290E00E94AF0580935E01B4
:101E200021E031E044E168EC71E087E290E00E945B
:101E30004A0510924D020E94241787EE91E00E94FD
:101E4000151C81E691E00E94151CCE0105960E94AA
:101E5000E8187894CE0105960E9409198A3F9105E9
:101E6000C8F386B10E94570A0E94590A0E948B1B30
:101E7000449A459ACE0105960E940919843F9140E3
:101E8000C8F30E945B0A0E945D0ACE0105960E947B
:101E900009198E3E9240C8F30E945F0A0E94610AAF
:101EA00080E98093BC00CE0105960E940919883F05
:101EB0009240C8F385EC8093BC00CE0105960E9449
:101EC000091940916103E4E14E9F900111242851CA
:101ED0003C4F8217930788F3842F0E94581B10925F
:101EE000630281E592E00E94E8180E94640A46EECF
:101EF000C42E41E0D42E54E0952E9DE0892E2AE098
:101F0000E22E3EE1732EFF24FA940E9412130E94E7
:101F10007B0A80916402823009F092C110926402BF
:101F20000E94590A80E00E946F180E94B40B882317
:101F300009F43DC186E394E00E94900687E194E0B5
:101F40000E949006CE0109960E94B103882309F4ED
:101F50002EC186E991E00E9490060E9437048823F2
:101F600009F425C18AE094E00E9490068092C8019D
:101F7000E092C9018AEC91E00E94A0068BE891E012
:101F80000E94900661E18AEC91E00E94DA038823C6
:101F900009F40DC18985882389F010925F0188E5D5
:101FA0008093E60184E180935E010E9470071092A5
:101FB0006001F092DC0184E094E0F1C08DED93E0EB
:101FC0000E94900680915F01882321F062E00E94C8
:101FD000BE0604C089ED93E00E94900687EC93E072
:101FE0000E94900662E08FE591E00E947C0387FDED
:101FF000DEC086E991E00E94900683EA93E00E94A9
:1020000090068091E601882321F062E00E94BE06DE
:1020100004C08FE993E00E9490068DE893E00E944F
:10202000900662E086EE91E00E947C0387FDBFC0CF
:1020300086E991E00E9490060E945C08882309F4DA
:10204000B6C08FE593E00E94900681E09091DC019C
:102050009A3008F080E089830E94D1068BE891E0F5
:102060000E949006CE0101960E94B103882309F4D4
:102070009EC086E991E00E9490068981882309F438
:102080004FC083E393E00E9490060CED11E0F8014D
:1020900081918F018A3050F080E393E00E94900696
:1020A0008BE891E00E94900610E013C060E00E946F
:1020B000BE06C016D10659F7EFCF8B3239F18D33FA
:1020C000A9F092ED980F923088F08823B1F0193082
:1020D000E8F40E949B0C90ED980F9A3070F7E12F76
:1020E000F0E0E452FE4F90831F5FF1CF11110EC05C
:1020F00086E991E00E9490065AC0112309F457C066
:10210000E12FF0E0E452FE4FF08251C0E12FF0E009
:10211000E452FE4FF08286E991E00E94900602C0F0
:10212000F092DC018CEF92E00E94900660E08091DA
:102130005E010E94BE0683EF92E00E94900660E07E
:102140008EE591E00E947C0387FD31C080915E01A5
:102150008A3018F4E0925E0104C08F3110F0709262
:102160005E0186E991E00E94900681ED92E00E9476
:10217000900660E0809160010E94BE0688EC92E0CB
:102180000E94900660E080E691E00E947C0387FD5B
:102190000EC086E991E00E94900682EC92E00E94D7
:1021A000900687E10E94BE0C80E20E94BE0C0E9455
:1021B000960B6091610380E090E00E94D9046091E9
:1021C000720289E190E00E94200660915F0183E045
:1021D00090E00E94D9046091E6018AE190E00E94BB
:1021E000D9046091600188E190E00E94D904609177
:1021F0005E0185E290E00E94D9048CEDA82E81E07A
:10220000B82E0BE110E0F50161915F01C8010E9459
:10221000D9040F5F1F4F05321105A9F784E090E044
:102220000E94310844E168EC71E087E290E00E948E
:10223000220681E00E946F180E945B0A10926402DD
:1022400080916402813009F05EC010926402809136
:102250006001813041F0823079F52D9A81E592E07C
:102260000E94E81850C00E945F1380E00E946F181F
:102270000E94B40B882309F446C001E714E0F8017A
:102280008491882361F0F80184910E94BE0C0F5F55
:102290001F4F0E94121380916402882341F0109214
:1022A00064020E94960B81E00E946F182CC08091FE
:1022B0006202813021F3F3CF0E94570A0E945B0A29
:1022C0000E945F0A0E94610A80E00E946F1880915C
:1022D000640281110CC00E9412130E947B0A80913B
:1022E00062028250823098F790926202F0CF109290
:1022F000640281E00E946F180E94640A0E94570ADB
:1023000080E00E940D0C80916202833009F00CC1C4
:10231000809161038F3F19F40E94960B05C10E94C2
:10232000E8070E94590A0E945B17811103C00E94AE
:102330005B0AFAC081E08093620280E20E94BE0CD8
:1023400080E20E94BE0C86E10E94BE0C86E10E94E3
:10235000BE0C80E20E94BE0C80E20E94BE0C80E2B5
:102360000E94BE0C0CED11E0F80181918F018A30C2
:1023700040F0CE0101960E94E81800E010E0B12C78
:1023800006C00E94A217C016D10671F7F2CF0E94B4
:102390007B0A87EE91E00E94191C811143C087EEF1
:1023A00091E00E945B1C893469F030F4823461F062
:1023B000873469F486E30BC08F3441F0833539F4F8
:1023C00085E305C081E303C088E301C080E390EDAD
:1023D000980F9A3030F4892F0E94A217BB24B3942F
:1023E00010C08C3429F4B1100AC00E94FA0B63C0EB
:1023F000982F9F7D31F08D3021F08A3011F00F5FE2
:102400001F4FCE0101960E94E8180CC0CE01019624
:102410000E940919883C910540F08FE30E94BE0C90
:10242000015011090115110589F70E944D178111FD
:102430006CC0CE0101960E940919A0E0B0E0B11075
:1024400005C048E95AE360E070E004C048EC5FEA88
:1024500060E070E0481759076A077B07BCF481E029
:1024600080934D020E942C1880E00E946F18BB20C0
:1024700019F00E94960B04C081E592E00E94E818D2
:1024800010924D0281E00E946F1815C08091620287
:10249000853019F4109262020EC00E9461188823E0
:1024A00009F475CF80E20E94BE0C87E10E94BE0C49
:1024B00080E20E94BE0C81E00E942C1880915F0196
:1024C000882371F00E94B31790915F01891308C0AF
:1024D0000E945B0A0E94960B84E00E940D0C24C0AF
:1024E0008091E601811108C00E94B31790916103A9
:1024F0009695891315C006C00E94B3179091E60106
:102500008913F2CF0E94FA0B0BC00E948517882313
:1025100021F081E00E94D50C03C081E00E942C18BC
:102520000E94960B0E94E8070E944D17882339F1FC
:102530000E947B0A0E945D0A81E080934D020E9406
:10254000B40B81110BC00E945F0A81E00E942C181D
:1025500081E00E940D0C10924D0211C010924D02AC
:102560000E948517811104C081E00E942C1803C0CD
:1025700080E00E94D50C0E94960B0E945F0A809119
:10258000620281110AC087EE91E00E94191C81113C
:1025900004C087EE91E00E945B1C80E00E944C0624
:1025A000882399F080E00E946F1881E080934D02AB
:1025B0000E94B40B882339F00E9453060E94960BA8
:1025C00081E00E946F1810924D0280914803882389
:1025D00089F0609148038AE493E00E94DA06882338
:1025E00039F00E948507882319F083E00E940D0CC2
:1025F000109248031C9905C02D9A81E592E00E9433
:10260000E81881E592E00E94091981369A4E08F097
:102610002D9880915D01823308F477CC82E00E948E
:102620000D0C6BCC80911F01813099F018F0823035
:1026300011F108958BE191E0309909C00E940919C8
:10264000C397E0F081E080931F018BE191E00C944F
:10265000E81830990BC08BE191E00E940919813292
:10266000934060F082E080931F0102C010921F012E
:10267000809364020895309910921F010895882371
:1026800069F080912001909121018F3F9105B4F470
:10269000809120019091210101960CC08091200130
:1026A00090912101181619064CF480912001909107
:1026B00021010197909321018093200108951092A8
:1026C00070021092710280E890E090932101809353
:1026D000200108950F931F93CF93C82F8B018091F2
:1026E0007102883028F4823088F5813029F05BC08F
:1026F000883009F449C057C080917002882329F0BE
:1027000080917002883009F04EC085E692E00E9408
:102710000919CC9708F447C0F80110828AE692E0C4
:102720000E94E81882E08093710280916F028F719D
:1027300080936F0280916F02880F880F80936F02E1
:1027400080916F02836080936F022DC080916F0231
:10275000881F8827881FFB0180838AE692E00E94F9
:102760000919449700F164E170E08AE692E00E9462
:10277000F51880916F02880F80936F02809171022B
:102780008F5F809371020FC081E0FB0180838AE636
:1027900092E00E9409194E9730F08AE692E00E947A
:1027A000E8181092710280917002873040F48230F4
:1027B00008F053C0882381F0813011F1ACC087301C
:1027C00009F45CC0883009F0A6C085E692E00E945A
:1027D0000919039708F49FC0C1119DC085E692E0D6
:1027E0000E94E81881E08093700210926E0280E8E7
:1027F00090E09093210180932001109269028BC098
:102800008C2F0E943F1380912001909121018739E4
:10281000910504F585E692E00E9409190B9708F4EA
:102820007AC080912001909121018038910594F423
:1028300082E08093700280E890E090932101809381
:10284000200168E070E085E692E0CF911F910F9142
:102850000C94F518109270025EC085E692E00E941A
:102860000919409708F457C08C2F0E943F1385E642
:1028700092E00E940919449760F54DC085E692E008
:102880000E940919409708F446C08C2F0E943F13FC
:1028900085E692E00E9409190F97E8F18091700295
:1028A0008730B9F4CC23B9F1209120013091210176
:1028B00081E0203831050CF080E08093690288E0E7
:1028C0008093700285E692E0CF911F910F910C9456
:1028D000E81880916E02880F80936E02809120012B
:1028E00090912101803891052CF080916E028160D9
:1028F00080936E02809170028F5F8093700264E11A
:1029000070E085E692E00E94F51880E890E09093F0
:10291000210180932001CF911F910F9108951F9362
:10292000CF93DF9390917302981709F4B5C0C82F25
:102930001FB7F89410922A0190E08830910508F0B2
:10294000A8C0FC01E758FF4F80915A030C94041D66
:102950008F7780935A0380915A038F7E80935A0316
:1029600016C0807480935A0380915A0380688093C4
:102970005A0380917202882329F080915A03806162
:1029800080935A0381E080932F0180932E0110924F
:1029900060037FC08F7780935A0380915A038F7EA4
:1029A00076C08F7780935A0380915A038F7E8093ED
:1029B0005A0310922C0110922B0181E080932A017E
:1029C00084E792E00E94151C1092490162C08F7743
:1029D00080935A0380915A038F7E80935A0380918B
:1029E0005A03806180935A0380915A0388608093D0
:1029F0005A0381E08093640380932E014AC087FFCD
:102A00000FC080915A038F7780935A0380915A03A5
:102A10008F7E80935A0380915A03806180935A037A
:102A200080915A03806280935A0380915A03826096
:102A300080935A0380915A03846080935A03809153
:102A40005A03816080935A03D1E0D093000184E758
:102A500092E00E94151C8BED92E00E94151C1092D2
:102A600049010E945F13D0936403D0932F01D09348
:102A70002E010FC08F7D80935A0380915A03877F68
:102A800006C08F7D80935A0380915A038D7F809377
:102A90005A03C09373021FBFDF91CF911F91089516
:102AA0000E94061B60912C0180912B010E94C31B88
:102AB000809360038091610386950E940F1B0E94A2
:102AC000061B86E291E00E94E81880916303811161
:102AD0000CC082E080932A0183EA0E940F1B0E94AF
:102AE000061B86E291E00C94E81880916303109233
:102AF000630310926003833021F080912C018230B7
:102B000018F085E00C948F1408951F93CF93DF93F2
:102B100000D0CDB7DEB7CE0102960E94EF1B88230E
:102B200009F446C080917302873021F481E090E07F
:102B30000E94140E8A81853A01F128F4803850F001
:102B4000833A89F035C08A3A31F18C3A51F1863AAC
:102B500079F519C09091730291112AC0880F809362
:102B6000600381E023C080917302813021F0809165
:102B700073028230E9F483E019C0809173028230DD
:102B8000B9F484E013C080917302823089F483E049
:102B900080932A010DC080917302882349F085E05B
:102BA00005C080917302863019F480E00E948F1472
:102BB000E09173028E2F90E08830910508F0F0C00C
:102BC000FC01EF57FF4F0C94041D84E792E00E9434
:102BD000191C8111E5C080912A01823009F4E0C0FE
:102BE00084E792E00E945B1C182F80912C018F5F7C
:102BF00080932C0180912A018130B1F480912C01C5
:102C0000813019F410932B010DC080912C0182307A
:102C100059F480912B01912F2AE0829F900D11246D
:102C200090932B010E94501580912A01833009F066
:102C3000B7C080EB810F0E940F1B86E291E00E94DB
:102C4000E818AEC080915D03882359F08091640339
:102C5000882321F082E00E94781903C082E00E945C
:102C6000651984E792E00E94191C81110DC08091C2
:102C70007102811109C084E792E00E945B1C80937D
:102C80006F0281E0809371028091DA02811103C0AA
:102C900080912F0104C0813031F480916403BE0122
:102CA0006F5F7F4F14C0823071F48091640388237A
:102CB00019F080912F0102C080E090E0BE016F5FAB
:102CC0007F4F817004C0BE016F5F7F4F81E00E9423
:102CD0006A1380917002883041F460916E028BED2E
:102CE00092E00E943E1C10927002809164038093D7
:102CF0002E0110912F01809171028823A9F08091FB
:102D00007102813089F080914103811104C0898171
:102D100080932E0109C0813011F4198105C08230E1
:102D200019F4198110932E0180E0112319F00E94EB
:102D3000781902C00E94651980916503882381F18A
:102D40008091460381112CC080910001112381F0F4
:102D5000823021F080910001833011F48CE905C0AC
:102D60008091000181111CC08AE90E940F1B18C0CC
:102D7000882321F080910001813011F483E9F5CF9F
:102D800080910001823061F486E9EFCF82E291E028
:102D90000E940919813A9F4018F080E00E948F1428
:102DA000809146038530F9F486E291E00E94E818AC
:102DB00080916303811115C080914903863961F0C8
:102DC00020F4833971F482E00AC08A3939F08C39F1
:102DD00041F41092000105C083E001C081E08093BE
:102DE000000110924603809160038823D1F0809106
:102DF00065038823B1F080914603882321F08091F8
:102E00004603853071F486E291E00E94091982310F
:102E1000934038F089EA0E940F1B86E291E00E94FD
:102E2000E81880916003882341F080917302863016
:102E300021F080917302853009F4A8950F900F90CE
:102E4000DF91CF911F91089514BC82E085BD8091E0
:102E50006E00816080936E0080E880935A038091B9
:102E60007202882329F080915A03806180935A036B
:102E70000E945F1380E00E948F1484E792E00E941A
:102E8000151C8BED92E00E94151C10922D0181E023
:102E9000809341038093DA02089580917302833016
:102EA00039F09091730281E0943019F080E001C014
:102EB00081E081700895809161038F3F21F18091BD
:102EC0007302882321F088E090E00E94140E81E0D4
:102ED00080932D019FB7F89480915A038F77809348
:102EE0005A0380915A038F7E80935A0380915A032C
:102EF0008F7E80935A039FBF82E00E948F141092AE
:102F00002D0181E0089580E008958091730283305F
:102F100091F481E080932D0185EA0E940F1B0E94AD
:102F2000061B89EA0E940F1B84E00E948F141092F6
:102F30002D0181E008959091730281E0943009F0B1
:102F400080E0089590917302923049F490912A01A3
:102F5000992329F0682F84E792E00C943E1C89E0C5
:102F600090E00C94140E80912B01089580932F0112
:102F70000895CF93DF93EC018BED92E00E94191C32
:102F8000811107C08BED92E00E945B1C888381E079
:102F900001C080E0DF91CF910895CF93C82F682FB3
:102FA00084E792E00E943E1C882349F0CF3111F45F
:102FB00091E003C0CB3119F493E090934901CF9194
:102FC0000895EF92FF921F93CF93DF931F92CDB797
:102FD000DEB77C01CE0101960E94B917182F882315
:102FE00049F069E471E089810E94721CF7018083D5
:102FF000882381F3812F0F90DF91CF911F91FF9054
:10300000EF900895CF93DF9300D0CDB7DEB79E0148
:103010002F5F3F4FAE014E5F5F4F69E471E00E944A
:10302000A61C811102C081E00EC06A8184E792E093
:103030000E943E1C882339F069816F3FA1F384E729
:1030400092E00E943E1C0F900F90DF91CF91089567
:1030500084E792E00C94191CCF939091730299230A
:1030600071F190916003911104C080E0CF910C94B4
:103070008F14C82F81E080932D01809173028530D9
:1030800049F48CEA0E940F1B0E94061B80E00E94FC
:103090008F140AC08AEA0E940F1B86E00E948F14D8
:1030A00082E291E00E94E81810922D018091730253
:1030B000863029F4CC2319F00E948515F7CFCF91E3
:1030C000089580917302882339F09091730281E012
:1030D000953019F080E001C081E081700895CF93B0
:1030E000C82F80917302882341F08091730287304A
:1030F00021F08AE090E00E94140ECC2311F080E0D1
:1031000001C087E0CF910C948F141F920F920FB6DD
:103110000F9211242F933F934F935F936F937F935D
:103120008F939F93AF93BF93CF93EF93FF93809130
:103130002D01811115C0C1E0C0932D0180916E0059
:103140008E7F80936E0078940E94851588E486BDFA
:10315000C5BB80916E00816080936E0010922D013E
:10316000FF91EF91CF91BF91AF919F918F917F91FF
:103170006F915F914F913F912F910F900FBE0F90E4
:103180001F90189582E08093B00084E08093B10096
:1031900085EE8093B300E0E7F0E080818260808379
:1031A00008951F920F920FB60F9211248F939F9341
:1031B000809142039091430301969093430380933F
:1031C00042039F918F910F900FBE0F901F90189503
:1031D0002FB7F8944091420350914303FC0151836F
:1031E0004083138212822FBF0895FC018081918158
:1031F000860F971F9183808382819381861797071B
:1032000018F4138212820895861B970B938382838E
:103210000895FC012FB7F8948091420390914303E5
:1032200040815181841B950B2FBF22813381281748
:10323000390710F4938382838281938108958A39B8
:1032400089F028F4833941F0863931F011C08C3986
:1032500049F0893AC9F10CC081E080935D03109276
:103260006403089581E080935D038093640308956F
:10327000E091330191E09E0F90933301F0E0EC5C1C
:10328000FE4F808380913301843148F08091320178
:10329000811102C083E10CC0109233010BC09091E8
:1032A000330180913201981305C080913301815020
:1032B0008093330180915A03806480935A038091F4
:1032C0005A038F7780935A0308955FB7F89440911B
:1032D0005A0321E030E0B90102C0660F771F8A95DA
:1032E000E2F7CB018095842380935A035FBF089552
:1032F0004FB7F89450915A0321E030E0B90102C071
:10330000660F771F8A95E2F7CB01852B80935A03CE
:103310004FBF08951F920F920FB60F9211242F9353
:103320003F934F935F936F937F938F939F93AF934D
:10333000BF93EF93FF9380914403909145030196CF
:1033400090934503809344038091B900887F803631
:1033500009F4CBC0B0F5883209F48EC090F4803106
:1033600009F476C038F4882309F4AAC0883009F437
:103370005AC037C1883109F46FC0803209F473C074
:1033800030C1803409F42BC160F4803309F474C077
:10339000883309F026C1809162038F5F80936203B6
:1033A000DAC0803509F47FC0883509F47CC08834E0
:1033B00009F017C185E08093460381E080936303A1
:1033C00080C0883909F4EAC0C8F4883709F4C5C058
:1033D00038F4883609F484C0803709F4C3C001C1C9
:1033E000883809F495C0803909F4C7C0803809F0DD
:1033F000F8C08091BB000E941F19F1C0803B09F406
:10340000E2C038F4803A09F488C0883A09F4E0C090
:10341000E8C0803C09F4DFC0883C09F4DCC0883B8C
:1034200009F0DFC0D5C080914603843029F41092A2
:10343000BB001092300109C080914603813041F0F9
:103440008091600381608093BB0010926503C9C0C6
:10345000809160038E7FF7CF809146038430B1F076
:10346000809149031DC085E0809346038091460307
:10347000843021F181E031C0809146038430D9F459
:1034800090913001809148039817A8F4E0913001A1
:1034900081E08E0F80933001F0E0E65BFC4F80818D
:1034A0008093BB009EC08091BB00809331018091CE
:1034B0004603823051F085E0809346031092630307
:1034C00081E08093650385E58DC08091310187FDA2
:1034D00042C085E08093460383E080936303F0CF8E
:1034E000809162038F5F80936203A89510925C03C2
:1034F00010925B0310926503109230018091BB0023
:1035000090915E0391508695892380935F0367C0F5
:103510008091BB000E941F195EC081E0809365030B
:103520009091300180914803891720F480913001F7
:103530008093480380914603833069F0809146036D
:10354000813049F080914603823029F08091460312
:10355000843009F046C085E645C0809162038F5FE4
:103560008093620310925C0310925B0310926503D8
:10357000109230011092480334C08091BB009091AA
:103580003001903170F5E091300191E09E0F909301
:103590003001F0E0E65BFC4F808323C08091BB00EC
:1035A00090913001903150F4E091300191E09E0F04
:1035B00090933001F0E0E65BFC4F80838091300116
:1035C0008093480308C0809162038F5F80936203F9
:1035D00080915A0338CF81E080936503ABCF85E0BB
:1035E00001C085E480688093BC00FF91EF91BF919A
:1035F000AF919F918F917F916F915F914F913F918B
:103600002F910F900FBE0F901F9018958091460339
:10361000882321F0809146038530C1F70895CF9328
:10362000C82F0E94061B9FB7F894C0934903C7FF99
:1036300002C081E001C082E080934603809165036F
:10364000882349F08091BC0084FDFCCF8091BC00B0
:1036500080628093BC009FBFCF910895CF93DF938A
:10366000D82F0E94061BC0916003D093600383E0B3
:103670008093460380916503882349F08091BC00C4
:1036800084FDFCCF8091BC0080628093BC000E94CE
:10369000061BC093600380916303811104C0809175
:1036A000310190E002C08FEF9FEFDF91CF9108953D
:1036B000CF939EEF980F9B3DF0F480FD1CC0C82F68
:1036C0000E942E1B97FF17C09FB7F894C093BA00B3
:1036D00080914703882329F08091BA00816080930C
:1036E000BA008091BC0080648093BC00C0936103E9
:1036F0009FBF81E00EC09FB7F8941092BA008091EE
:10370000BC008F7B8093BC008FEF809361039FBFD1
:1037100080E0CF91089581E0809365031092460385
:1037200010926303109262031092320110923301DF
:10373000109245031092440310925C0310925B03B5
:10374000109249038093B9008BE38093B800809175
:1037500061038E7F8093BA0010924803109230016B
:1037600080914703882329F08091BA00816080937B
:10377000BA0084E88093BC0080915E038150880F7A
:103780008093BD000895613031F48A3080F488233D
:1037900051F08C5906C0623051F4882331F08436E0
:1037A00030F4880F08958CED089588EC08958FEF1C
:1037B0000895FB019EEF980F9B3D10F010820DC005
:1037C0008695853630F091E090838E3631F08456C0
:1037D000089592E09083843609F480E00895309152
:1037E0003201209133013217E1F0E091320121E002
:1037F0002E0F20933201F0E0EC5CFE4F2081FC01A3
:10380000208380913201843110F010923201909126
:10381000320180913301981306C086E00E94651939
:1038200002C080E0089581E00895FC0112AA13AA65
:103830000895FC0123A992A981E0291380E008954D
:10384000FC0192A9913310F49F5F01C090E083A91D
:10385000891789F092A9913320F49F5F913321F069
:1038600001C090E09F5F01C090E023A981E029178B
:1038700019F080E001C081E081700895FC0182A907
:10388000813310F48F5F01C080E093A9891789F01C
:103890009FB7F89482A9DF01A80FB11D6C9382A98C
:1038A000813310F48F5F01C080E082AB9FBF81E065
:1038B000089580E00895FC012FB7F89483A9DF01F3
:1038C000A80FB11D8C9193A9913310F49F5F01C093
:1038D00090E093AB2FBF0895FC0123A9E20FF11DE7
:1038E00080810895FB018B3119F482E0808303C04D
:1038F0008F3119F4108280E008959081292F2E7F56
:1039000020839670E82FF0E0923019F4E758F94FD1
:1039100002C0E756F94F849108956670623019F03D
:10392000E9E9F6E002C0E9E7F6E09FEB980F9A318B
:1039300008F4805E90E02491821731F031969F5F09
:103940009032C9F78FEF0895892F0895CF92DF92B3
:10395000EF92FF920F931F93CF93C82F7B016A01C1
:1039600089018FEFF9018083CF3039F48BE1F601C3
:10397000808383E0F70180832AC0CE3039F48FE161
:10398000F601808381E0F701808322C0FB01608122
:1039900060FD09C060E08C2F0E948D1CF8018083BF
:1039A0008F3F69F70AC0C731A9F38C2F0E948D1C85
:1039B000F60180838F3F59F4EDCF62E08C2F0E9497
:1039C0008D1CF80180838F3F89F680E001C081E083
:1039D000CF911F910F91FF90EF90DF90CF900895BE
:1039E000AA1BBB1B51E107C0AA1FBB1FA617B70725
:1039F00010F0A61BB70B881F991F5A95A9F7809541
:103A00009095BC01CD010895EE0FFF1F0590F49134
:103A1000E02D0994F999FECF92BD81BDF89A9927BE
:103A200080B50895262FF999FECF1FBA92BD81BDAA
:103A300020BD0FB6F894FA9AF99A0FBE0196089530
:043A4000F894FFCF28
:103A4400010D0A3535353535352068656C6C2064D3
:023A5400000070
:00000001FF
