:10000000E4C30000FEC30000FCC30000FAC300000C
:10001000F8C30000F6C30000F4C300000C94361FC0
:10002000F0C30000EEC30000ECC30000FFC40000FA
:10003000E8C30000E6C30000E4C30000E2C3000020
:100040000C94BA12DEC30000DCC30000DAC3000067
:10005000D8C30000D6C30000D4C30000D2C3000040
:100060000C94C614CEC30000220F3B0F420F570F53
:100070006F0FA80FAF0F190F271127114910271164
:10008000821027111E112711341B411B461B491BCF
:10009000241C241C241C241C241C241C4C1B5B1B03
:1000A000701B741B771B241C241C241C241C241C64
:1000B000821B861B8A1BA21B241C241C241C241CA0
:1000C000241C241CAE1BB61BBA1BCA1B241C241CDC
:1000D000241C241C241C241CD51BE61BF41BF81B0D
:1000E000FB1B241C241C241C241C241C0D1C101C65
:1000F000151C181C1C1C1F1C0D0A206665727469D7
:10010000672B2B2B2020200D0A000D0A206861721E
:1001100064776172652068616E647368616B6520E5
:10012000617566207365722E207373742E20766558
:100130007277656E64656E3F20616B7475656C6C7B
:100140003A20000D0A2068617570746D656E7565E2
:1001500020726567656C6D61657373696720617591
:1001600073676562656E3F20616B7475656C6C3A90
:1001700020000D0A204B656E6E776F72743A200076
:100180000D0A204B656E6E756E673A20000D0A20D1
:10019000446174756D2F5568727A6569743A2000F0
:1001A0000D0A206B6F6E66696775726174696F6E98
:1001B0002073657269656C6C2B7370656963686523
:1001C000722076657273696F6E20353034206461F9
:1001D00074756D204170722032332032303231001C
:1001E0000D0A003A20000D0A53746174757320647F
:1001F000657220616E67657363686C6F7373656E9B
:10020000656E204D6F64756C653A0D0A000D0A2D00
:100210002D2D206B65696E65207765697465726543
:100220006E204D656C64756E67656E202D2D2D0DED
:100230000A000D0A002E2E2E41626272756368005C
:100240002E2E2E4E616563687374652E2E2E002E41
:100250002E2E4C6F65736368652E2E2E000D0A4C92
:100260006F65736368656E2C204E61656368737497
:10027000652C20456E64653F202020000D0A2D2D41
:100280002D20456E6465204D656C64756E67202D6C
:100290002D2D000D0A6B65696E6520756E67656CA6
:1002A0006573656E656E204D656C64756E67656E11
:1002B0000D0A000D0A5374617274652057696564F4
:1002C0006572676162652E2E2E0D0A000D0A566555
:1002D0007262756E64656E0D0A000D0A416262728B
:1002E000756368000D0A576165686C656E3A200099
:1002F0000D0A4265656E6465740D0A000D0A476556
:100300007472656E6E740D0A000D0A4665686C6540
:10031000720D0A000D0A416E7275660D0A000D0A13
:10032000556E6775656C7469676573204B6F6D6D8D
:10033000616E646F000D0A756E6775656C74696730
:10034000652045696E67616265000D0A4C6F6B61DF
:100350006C626574726965620D0A00204665686C9E
:1003600065723A206E69636874206B6F6E666967A8
:100370007572696572742E00202D2D3E20002C2090
:100380004374726C2D453A205A65696368656E73D3
:1003900061747A002C204374726C2D543A2053748B
:1003A000617475736C69737465000D0A4374726CC3
:1003B0002D4B3A204B6F6E66696775726174696F79
:1003C0006E002C204374726C2D513A2041422D57FF
:1003D000696564657267616265002C204374726CA4
:1003E0002D4C3A204C6F6B616C626574726965626A
:1003F000000D0A4374726C2D413A20416E7761689A
:100400006C000D0A000D0A53544152540D0A5665F2
:100410007273696F6E204170722032332032303235
:10042000312F30383A33313A3131006B656E6E77A7
:100430006F7274000D0A7478702D6162000D0A20CD
:1004400073706572727A65697420776F6368656E20
:10045000656E642D61626861656E6769673F2061E2
:100460006B7475656C6C3A20000D0A202E2E2E20C0
:100470006269733A200020766F6E3A20000D0A20E0
:1004800073706572727A65697420000D0A207A654E
:100490006974656E20766965727374656C6C6967E2
:1004A000206F686E652070756E6B7420756E6420A9
:1004B0006B6F6D6D612065696E676562656E000DBD
:1004C0000A207A65697473706572726520616B7455
:1004D0006976696572656E3F20616B7475656C6CD9
:1004E0003A20000D0A5A65696368656E7361747A13
:1004F00020776165686C656E3A20303D69746132C1
:1005000020313D757374747920323D4B4F49374E1D
:100510003220333D4B4F49382D5220343D477269CC
:100520006563686973636820353D53636877656404
:1005300069736820363D4461656E6973683A2000CE
:100540000A0A656565656565732E293A292C2900B7
:100550000D0D616F75414F5573282E283A282C00D8
:100560000D0AE4F6FCC4D6DCDF3C3E5B5D7B7D001F
:100570005F5F5F69746C785F53657269656C6C5519
:100580006E645370656963686572322D46756C6C74
:100590005F5F5F41707220323320323032315F5FF3
:1005A0005F30383A33313A31315F5F5F3530345F35
:1005B0005F5F0023350D3920232C2E0A2934233880
:1005C000303A3D332B173F2736232F2D3207233761
:1005D00031282323740D6F20686E6D0A6C72676971
:1005E000706376657A64627379667861776A237579
:1005F000716B2323540D4F20484E4D0A4C524749EE
:10060000504356455A44425359465841574A235538
:10061000514B2323740D6F20686E6D0A6C726769ED
:10062000706376657A64627379667861776A237538
:10063000716B2323350D39207D2C2E0A29347B380C
:10064000303A3D332B173F27367C2F2D326023372E
:1006500031282323920D8E20868C8B0A8A908288E3
:100660008F9697848583819193949580FE8D2387BF
:10067000FE892323350D3920FE2C2E0A29342538F6
:10068000303A3D332B173F2736F82F2D32072337CB
:1006900031282323350D3920F82C2E0A2934E63849
:1006A000303A3D332B173F2736E52F2D32072337BE
:1006B00031282323350D3920232C2E0A29342338C1
:1006C000303A3D332B173F2736232F2D3207233760
:1006D00031282323350D3920232C2E0A293426389E
:1006E000303A3B3322243F0736212F2D3227233740
:1006F000312823FE34000023F40DEF20E8EEED0A4C
:10070000ECF2E7E9F0E3F6E5FAE4E2F3F9E6F8E122
:10071000F7EA23F5F1EB2323350D3920FD2C2E0AC2
:100720002934FB38303A3D332B173F2736FC2F2D29
:1007300032E02337312823207363686F6E2076659B
:1007400072676562656E206F64657220756E67758D
:10075000656C7469672C20616E64657265207761D1
:1007600065686C656E21000D0A2077656974657295
:100770006C656974756E67656E2061627765697313
:10078000656E3F20616B7475656C6C3A20000D0AD4
:100790002070727565666520000D0A2064757263AD
:1007A000687761686C20616B7475656C6C3A2000C9
:1007B000206E65753A202020202000206F6B2E20AF
:1007C000006E65696E006A61000011241FBECFEFE4
:1007D000D8E0DEBFCDBF11E0A0E0B1E0E0EEF2E492
:1007E00002C005900D92AE30B107D9F722E0AEE01D
:1007F000B1E001C01D92AF3FB207E1F77BD70C9487
:100800006E21FECB2A9A08952A980895419A089558
:1008100041980895429A089542980895439A0895F8
:100820004398089580914101909142010A9790F078
:100830002FB7F8948091F7028F5F8093F702809131
:100840004101909142010A979093420180934101A6
:100850002FBFE8CF8091F7028C3390F12091F50201
:1008600091E0920F9093F5028C538093F7029831A8
:1008700038F18091F902E82FF0E0E050FF4F30812D
:10088000823029F49091F802937009F43DE190913F
:10089000F6029F5F9093F60227512093F5023917D5
:1008A00078F48F5F8093F90291E09093F6028D3097
:1008B00038F08091F8028F5F8093F8029093F902EC
:1008C0000895FA012081318142815381241735072F
:1008D000E1F09CE3899FF001112470E06E0F7F1F0F
:1008E0002417350740F46217730760F081E064173E
:1008F000750748F007C081E06417750720F062179C
:10090000730708F480E08170089580E008958FE611
:1009100091E00E944E1791E08927089583E292E0CA
:100920000E944E1791E0892708954B9B04C0809147
:10093000A301811106C085EE91E00E944D1F81E068
:10094000089580E008950F931F93CF93DF9300D015
:10095000CDB7DEB78C01FC0120819181822F6CE341
:1009600070E00E943E21862F6A83FCE36F9F20196E
:100970001124298362E00E94EC1862E089810E94C0
:10098000EC1880EB97E00E94C91862E0CE01029655
:100990000E94B0178823C1F062E0CE0101960E9448
:1009A000B01787FD13C02A81898190E03CE3239F23
:1009B000800D911D1124813AE5E09E0714F080EA34
:1009C00095E0F8019183808381E001C080E00F9081
:1009D0000F90DF91CF911F910F910895CF938FE6E4
:1009E00091E00E949017C82F8FE691E00E94A11716
:1009F000893108F45A988C2FCF910895809178020C
:100A000084FF08C08091780280FD02C0FFDE09C02B
:100A1000FFDE07C08091780280FD02C0FBDE01C0CE
:100A2000FBDE8091780282FFF9CEFACE1F920F9200
:100A30000FB60F9211248F939F9380914101909153
:100A40004201019690934201809341019F918F91C1
:100A50000F900FBE0F901F901895CF93C82F84EA68
:100A600091E00E9455178823E1F02FD0DBDE0E9431
:100A7000271C0E94D30E59DF85EE91E00E946E1F65
:100A8000893B9B4028F084EA91E00E949017E7CFD1
:100A90008091EA018111F7CF0E949F118111F3CF5C
:100AA000DECF6C2F84EA91E0CF910C947317CF9333
:100AB000803248F48D3039F08A3029F0C82F8EE525
:100AC000CCDF80E48C0FCF91C8CF1F93CF93DF93FF
:100AD0008091C00087FF4BC08FE691E00E94A11774
:100AE0008F3208F03DC0C091C600CB3121F481E0C7
:100AF0008093130135C080911301811103C0E0E69A
:100B0000F5E00CC06C2F6F718FE691E00E947317B7
:100B1000109213018C2FCBDF23C031968491882350
:100B2000A9F08491C813F9CFEF01C056D540FE015A
:100B3000E05BFA4F1491612F8FE691E00E947317EA
:100B4000812FB5DFFE01E05CFA4FC4918C2FAFDF3F
:100B5000C53209F4C7E06C2F8FE691E00E9473174D
:100B60008FE691E00E94A1178A3108F05A9A84EA30
:100B700091E00E944E1781110DC08091C00085FF49
:100B800009C0D3DE882331F084EA91E00E949017F7
:100B90008093C600DF91CF911F9108958FE691E079
:100BA0000E944E17882371F090DF3CDE0E94D30E26
:100BB0000E94271C8091EA01882381F31092EA01A8
:100BC00089E008950BDF833131F09FEB980F9A3164
:100BD00018F4805E089580E00895CF93DF931F920C
:100BE000CDB7DEB7CE0101960E94241281110AC052
:100BF0000E94271C6ADF02DF0E949712882391F36C
:100C000085E601C089810F90DF91CF910895CF9340
:100C1000C82F0E946612811109C00E94271C55DF4F
:100C20000E949712811107C0E9DEF3CF8C2F0E943A
:100C300043128823D9F3CF9108957F928F929F9288
:100C4000AF92BF92CF92DF92EF92FF920F931F93DA
:100C5000CF93DF9300D000D0CDB7DEB74C017B013E
:100C60006A015901CE0101960E944D1FCE010196E5
:100C70000E946E1F843F914070F4F601099588230D
:100C800031F0F5010995CE0101960E944D1F0E9499
:100C9000271C1BDFEBCF0E94491E83EB92E0F7017C
:100CA00009950E945D1E811132C083E992E080C0E7
:100CB000F40109951A3F08F091C01F5F0A3051F105
:100CC000F6010995811110C00E94271CFEDE0E94CA
:100CD0008B1E082F8111ECCF8CE792E0F70109956C
:100CE0008DE592E0F70109950E94271CEEDEF501E3
:100CF0000995182FCE0101960E944D1FCE01019635
:100D00000E946E1F8C32914000F1143359F5712C02
:100D100010E0DACF7394113A18F4F3E0F71580F687
:100D2000CE0101960E944D1FCE0101960E946E1FBA
:100D30008C3D954020F4F6010995882319F0712C1B
:100D400010E0BECF0E94271CEFCFF6010995882343
:100D500031F0F5010995CE0101960E944D1F0E94C8
:100D6000271CCCCF153340F41C32C1F01333D9F01B
:100D7000193209F0B9CF0BC01C3649F018F41536FA
:100D800091F0B2CF1E3651F0123709F2ADCF8FE499
:100D900092E0F70109950E94B01E24C080E492E021
:100DA000F70109951FC085E392E002C08DE092E053
:100DB000F70109950E94171F0F900F900F900F9049
:100DC000DF91CF911F910F91FF90EF90DF90CF9027
:100DD000BF90AF909F908F907F9008950A3009F058
:100DE0006FCF9ECF0E945D1E882301F382E392E0C5
:100DF000F70109958CCFCF93DF93EC018FE10E942F
:100E000011128823D9F3FE018491882349F0FE0151
:100E10008491FDDEFE0184914ADE219656DEF3CFF9
:100E2000DF91CF910895CF93DF938FE10E9411124C
:100E30008823D9F3C3E4D1E08881882329F0E7DE51
:100E4000899135DE42DEF8CFDF91CF91089562E0DF
:100E50008091F6020E94EC188EE2FFDD62E0809144
:100E6000F9020E94EC188EE2F8DD62E08091F8024F
:100E70000E94EC1880E2F1DD62E08091F5020E94B0
:100E8000EC188AE3EADD62E08091F7020C94EC183A
:100E9000EF92FF920F931F93CF93DF9300D0CDB7C4
:100EA000DEB7082F12DECE0102960E94241288239C
:100EB00009F45EC08A81873109F054C0B4DF8FE144
:100EC0000E9411128823D9F39BE5E92E91E0F92EB7
:100ED0000E94271CFADD92DDCE0101960E942412A9
:100EE000182F882329F18981B8DD002319F0898121
:100EF0000E94A71D89818D3011F08A3051F4F701CD
:100F00008081882301F1FBE5EF16F1E0FF0681F017
:100F10002FC0873131F487DF8BE5E82E81E0F82E92
:100F200007C0F7019081891323C0FFEFEF1AFF0A72
:100F30000E94971281111CC08FE691E00E944E170B
:100F40008111C6CF15C0112399F00E94411E2DEECC
:100F500035E04EE854E06BEF76E087E096E06DDE3A
:100F600000E006C07ADD002319F08A810E94A71DE7
:100F70000E949712882359F001110E941B1E8CEFCA
:100F800092E00E94C91881E00E94691237C08FE682
:100F900091E00E944E1781112DC00E946612882395
:100FA00049F11CDD182F893011F0863039F43BDF10
:100FB000002301F1812F0E94A71D1CC08331A1F4E1
:100FC00001110E941B1E80E00E9469120E9497126C
:100FD000811105C00E94271C11DD77DDF7CF80EF5E
:100FE00092E00E94C9180AC0873111F0853009F4D7
:100FF00087E10DDE0E94271C01DD54CF0F900F907A
:10100000DF91CF911F910F91FF90EF900895CF93B3
:10101000DF9300D000D0CDB7DEB77C0180E88093AD
:10102000BC00CE0101960E944D1F00E010E0670158
:1010300021E0C222DD24570182E0A822BB2447011F
:1010400024E08222992488E0E822FF24A895CE019A
:1010500001960E946E1F81399140F0F0CE010196F9
:101060000E944D1F309B12C0112381F3115071F764
:10107000002361F3F8949EE088E10FB6F894A895F8
:10108000809360000FBE90936000FFCF153010F08A
:1010900001E0DCCF1F5FDACF01111EC0CE01019647
:1010A0000E946E1F893C9105B8F0C114D10411F063
:1010B000A9DB01C0A9DBA114B10411F0A7DB01C0B9
:1010C000A7DB8114910411F0A5DB01C0A5DBE114BD
:1010D000F10429F0A3DBBACF97DB9ADB9DDBA0DB21
:1010E000B5CFECEDF1E011821082138212821582ED
:1010F00014821782168210925A0110921201EEE0A9
:10110000F1E011821082138212820895CF93DF934F
:1011100080911201D091F502C091F702882301F16C
:10112000109212016C2F70E02CE3D29F600D711DA4
:10113000112470930F0160930E01CB010A96813A3E
:1011400025E0920728F4909311018093100106C0C6
:1011500066597540709311016093100180E032C0B0
:101160004EE051E06C2F8D2FACDB8111F7CF109248
:101170000F0110920E011092110110921001809136
:101180005A01811111C04CED51E06C2F8D2F99DB6C
:10119000811106C040EE51E06C2F8D2F92DB02C012
:1011A00081E090E081700EC08091FA02863018F0E4
:1011B00040EE51E002C04CED51E06C2F8D2FDF91DD
:1011C000CF917FCBDF91CF910895CF92DF92EF92B5
:1011D000FF920F931F93CF93DF9300D000D0CDB732
:1011E000DEB7182FCE0101960E944D1F80E00E94AD
:1011F000A512112331F0133021F0123021F081E0DB
:1012000003C082E001C084E090E024EF31E0829FDF
:101210007001839FF00C929FF00C11242CE231E0BE
:10122000829F6001839FD00C929FD00C112401E01B
:10123000BAD58091EA01882331F01092EA0181E069
:101240008093120138C00E94271C3FDC8FE691E09A
:101250000E944E17882379F1CE0101960E946E1FDD
:10126000E816F90628F4CE0101960E944D1F0AC027
:10127000CE0101960E946E1FC816D90610F4CEDA70
:1012800001C0CEDA80916602882391F260916602F5
:1012900088E692E00E94841F882351F0123031F4D6
:1012A00035DF811103C01092660205C00093E4018E
:1012B00010926602BDCFB4DA81E00E94A5120F90B1
:1012C0000F900F900F90DF91CF911F910F91FF9092
:1012D000EF90DF90CF9008950F931F93CF93DF93FC
:1012E000EC012FE935E040E050E060E070E00E9462
:1012F000D4200CED11E0F801918380832FE935E0D3
:1013000040E050E060E070E0CE0102960E94D42000
:10131000F801938382832FE935E040E050E060E0FC
:1013200070E0CE0104960E94D420F8019583848356
:101330002FE935E040E050E060E070E0CE01069635
:101340000E94D420F8019783868360E0CE0108963E
:101350000E94BD2080935A01DF91CF911F910F9180
:1013600008950F931F93CF93DF93EC010CED11E0E1
:10137000F801608171810E94C620F8016281738149
:10138000CE0102960E94C620F80164817581CE01CB
:1013900004960E94C620F80166817781CE010696E8
:1013A0000E94C62060915A01CE010896DF91CF912C
:1013B0001F910F910C940921809158018093A301F2
:1013C00060917F0280E090E00E94D81F6091EB0165
:1013D0008EE490E00E940921609159018FE490E031
:1013E0000E9409216091A30180E590E00E940921FB
:1013F00081E590E0B6DF44E163E471E081E090E0F4
:101400000E940A2144E16BE571E085E190E00E94D1
:101410000A218091E401811106C06091F7028BE4FA
:1014200090E00E94D81F6091570185E690E00E94ED
:10143000D81F81E00E94A512E7C9EF92FF920F9397
:101440001F93CF93DF931F92CDB7DEB78FEB94E05E
:101450000E94C9182091DC013091DD018091DE01EC
:101460009091DF012817390771F481E04091E00184
:101470005091E1012091E2013091E30142175307BD
:1014800019F480E001C081E0817089830E94FD1819
:1014900080EB97E00E94C918CE0101960E94E517E3
:1014A000811102C010E05BC08981811112C080915E
:1014B000DC019091DD019093DF018093DE0180914A
:1014C000E0019091E1019093E3018093E20111E04A
:1014D00046C08BE894E00E94C9188CEDE82E81E0AC
:1014E000F82E01E68DE794E00E94C918802FB5DA46
:1014F00086E794E00E94C918C70125DA882391F293
:101500008BEB97E00E94C91889E694E00E94C91805
:10151000C701029618DA182F882321F28BEB97E087
:101520000E94C9180F5F84E0E80EF11C0336D1F663
:101530008DE394E00E94C91880915A010E94FD1821
:1015400080EB97E00E94C9188AE591E00E94E517B8
:10155000882309F4A7CF8BEB97E00E94C918812F4D
:101560000F90DF91CF911F910F91FF90EF90089511
:1015700049D94ED951D954D980E0E7D78091A301F8
:10158000809358011092A301809121028E7F809355
:10159000210280EA91E00E94C9180E946B188823FA
:1015A00009F4A7C083EE94E00E94C91861E087E5C2
:1015B00091E00E94B01787FD9CC0809157010E9466
:1015C00055138091E401811134C08DE891E00E94AF
:1015D000C9183DDC80EB97E00E94C91862E086EFF5
:1015E00092E00E94B01787FD84C062E089EF92E02C
:1015F0000E94B01787FD7DC062E088EF92E00E94F4
:10160000B01787FD76C062E085EF92E00E94B017C8
:1016100087FD6FC062E087EF92E00E94B01787FD00
:1016200068C0109242011092410110928500109200
:10163000840080E891E00E94C9188DE08093430106
:101640008AE08093440185E491E00E94D91880EB00
:1016500097E00E94C91861E185E491E00E940E18AC
:10166000882309F446C082E791E00E94C9188BE5FF
:1016700091E00E94D91880EB97E00E94C91863E1BD
:101680008BE591E00E940E18882399F183E491E0A4
:101690000E94C918809159010E94FD1880EB97E0C3
:1016A0000E94C91889E591E00E94E517882309F195
:1016B0008BEB97E00E94C918C0DE8823D1F08AE046
:1016C00091E00E94C918809158010E94FD1880EB9A
:1016D00097E00E94C91888E591E00E94E5178823E9
:1016E00041F08BEB97E00E94C91888EF90E00C94D2
:1016F000C9180895CF93DF9300D000D0CDB7DEB7DF
:1017000018E18FE00FB6F894A895109360000FBE13
:10171000809360008FEF83B986B989B915B818B87E
:101720001BB814B817B81AB83898409A229A399A40
:101730003A9A3B9A259A24982C9A64D8529A5398AC
:101740005B980E94271F109280008DE0809381009B
:101750008FE99CE8909389008093880080916F00C6
:10176000826080936F0085EE91E00E944D1FB9DC8E
:10177000E0E7F5E0E4910E94B41F2CED42E06EE357
:1017800080E090E00E94A2208E7F80937F0281E023
:1017900080937C028093650260E08EE490E00E947A
:1017A000BD208093EB0123E640E064E189E290E014
:1017B0000E94A2208093F8022CE041E061E08AE2DE
:1017C00090E00E94A2208093F9022FE141E061E0C5
:1017D0008BE290E00E94A2208093F60290E027E145
:1017E00040E060E08B960E94A2208093F5022BE3FC
:1017F00040E060E08BE490E00E94A2208093F7023A
:101800001092E40160E080E590E00E94BD208093AA
:10181000A30161E08FE490E00E94BD208093590114
:1018200001D824E334E044E163E471E081E090E036
:101830000E943E202BE234E044E16BE571E085E15B
:1018400090E00E943E2081E590E046DD26E040E009
:1018500060E085E690E00E94A220809357012FEF80
:101860003FEF40E050E060E070E08CE490E00E94E8
:10187000D4209093BC028093BB021092C50087E2F3
:101880008093C4001092C0001093C10086E0809342
:10189000C20030D5789485E094E00E94C918CE014A
:1018A00001960E944D1FCE0101960E946E1F8A3F35
:1018B000910510F40AD9F7CF0E9404040E9406048F
:1018C0000E94C116CE0101960E946E1F843F914076
:1018D00010F4FBD8F7CF0E9408040E940A04CE013E
:1018E00001960E946E1F8E3E924010F4EED8F7CF04
:1018F0000E940C040E940E040E94581D80E98093EF
:10190000BC00CE0101960E946E1F883F924010F4E9
:10191000DCD8F7CF85EC8093BC00CE0101960E9405
:101920006E1F40917F0254E1459F90011124285180
:101930003C4F8217930710F4C8D8EFCF842F0E9432
:101940008F1680915701B1D601E080917F028F3FC1
:10195000B1F4CE0101960E946E1F8132934050F483
:10196000CE0101960E946E1F8139914068F50E9458
:1019700002042CC0CE0101960E944D1F27C0209169
:10198000B7023091B8028091EE029091EF022817D1
:101990003907D1F00E9404040E940804CE01019688
:1019A0000E946E1F8134964050F4CE0101960E9431
:1019B0006E1F8132934060F40E940A040BC0CE0176
:1019C00001960E944D1F06C00E9404040E94080454
:1019D0000E940C040E9410040E94271C002321F185
:1019E00082E094E00E94C9188091F60281112FDAFA
:1019F00081EF93E00E94C9188AED93E00E94C91814
:101A000082EC93E00E94C9188AEA93E00E94C91808
:101A100084E993E00E94C9188EE793E00E94C918F8
:101A200088E793E00E94C918BED14FD80E941204E3
:101A300086D48823A9F10E940A042D9A88ED91E0AA
:101A40000E944D1F84E193E00E94C9180091F702A3
:101A50002091F5024091F6026091F9028091F8021E
:101A60000E94E11D182FA2D4811109C089E093E0E2
:101A70000E94C9180E94411E81E02BD502C0812F0F
:101A800007DA88ED91E00E944D1F6091BB027091D2
:101A9000BC028CE490E00E94C6200091590101C074
:101AA00000E08FE691E00E944E17811117C10E945D
:101AB000EE04182F2D9A88ED91E00E944D1F1C30E6
:101AC00009F481C080F4153009F4E0C018F4113035
:101AD00049F1F2C01A3009F473C01B3009F0ECC0B0
:101AE00047DD6ADC6DC0123109F484C0A0F41D30FA
:101AF00009F466C0113109F0DFC080E026D52EEC74
:101B000035E047E854E069EC78E187E595E095D861
:101B100081E01BD54DC0143109F47AC0103209F4AC
:101B20004FC0CAC080917F028F3F09F43CC0109320
:101B300012010E94060411D4811103C00E940804FE
:101B400037C084EE92E00E94C918F9D3811121C0F8
:101B50000E9465050E94271C8FE691E00E944E17A7
:101B600081110DC00E94EE0490ED980F9A3018F488
:101B7000892F35D404C0833111F480E0AAD4D7D49E
:101B8000882319F38AED92E00E94C91880E0A1D45D
:101B90000FC08CEC92E00E94C91880E079D981E0F6
:101BA0008093120105C08BE593E00E94C91808C01C
:101BB0006091BB027091BC028CE490E00E94C62050
:101BC0000091590187C080E0C0D48AE493E00E946C
:101BD000C9180E9465058FE691E00E944E17811199
:101BE000F8CF8FE691E00E949017833191F781E062
:101BF000ACD4E6CF9EE088E10FB6F894A895809328
:101C000060000FBE90936000F8940E940E04FDCF18
:101C100080E09BD486EE91E00E94C91811E011305B
:101C200021F499E0A92EB12C03C083E6A82EB12C93
:101C3000F12C8F2D90E0A816B90614F1612F8F2D8D
:101C40000E94F91690917F02891303C0C090780218
:101C500005C00E9467166C0197FD10C0612F8F2D83
:101C60000E94EC1883EE91E00E94C91860E08C2D70
:101C70000E94EC1880EE91E00E94C918F394D9CF2D
:101C80001F5F133061F681E060D424C083EE94E0DE
:101C90000E94C91861E087E591E00E94B01787FDB6
:101CA00019C080915701873028F085E393E00E94A6
:101CB000C91810C0FAD40EC08FE691E00E944E17EA
:101CC000811103C00E94EE04F7CF8EE193E00E94E1
:101CD000C91801E088ED91E00E944D1F8091EA0152
:101CE000823039F41092EA0143DC66DB009159013D
:101CF0002CC08091EA01813041F51092EA01809177
:101D0000E401811106C06091F7028BE490E00E942B
:101D1000D81F0E9404040E9408040E940C040E9420
:101D20000E0480E012D48091EA01811106C03BD0FC
:101D30000E94271C0E946505F6CF1092EA0181E0FF
:101D400004D40E94100480E040DA0E94931C8111A8
:101D500003C00E94271CF9CF80916602882391F06E
:101D60006091660288E692E00E94841F882341F019
:101D7000CDD9882311F082E028DA81E08093E40154
:101D8000109266021C9905C02D9A88ED91E00E9480
:101D90004D1F88ED91E00E946E1F81369A4E08F427
:101DA000D4CD2D98D2CD80911801813099F018F0C2
:101DB000823011F1089584E191E0309909C00E94C8
:101DC0006E1FC397E0F081E08093180184E191E0F9
:101DD0000C944D1F30990BC084E191E00E946E1F5E
:101DE0008132934060F082E08093180102C010922B
:101DF00018018093EA01089530991092180108950E
:101E00001F93CF93DF939091EC01981709F4B2C020
:101E1000C82F1FB7F8941092210190E088309105E7
:101E200008F0A5C0FC01EC5CFF4F809178020C9497
:101E300052218F7780937802809178028F7E8093F1
:101E4000780216C08074809378028091780280684E
:101E5000809378028091EB01882329F080917802A9
:101E600080618093780281E0809326018093250130
:101E700010927E027CC08F778093780280917802E6
:101E80008F7E73C08F7780937802809178028F7EE7
:101E900080937802109223011092220181E08093B6
:101EA00021018DEE91E0F6D71092210260C08F776C
:101EB00080937802809178028F7E8093780280915F
:101EC00078028061809378028091780288608093A4
:101ED000780281E0809382028093250148C087FFC9
:101EE0000FC0809178028F7780937802809178027A
:101EF0008F7E80937802809178028061809378024F
:101F0000809178028062809378028091780282606A
:101F10008093780280917802846080937802809127
:101F20007802816080937802D1E0D09300018DEE39
:101F300091E0B0D783E292E0ADD7109221020E94E7
:101F40002519D0938202D0932601D09325010FC08A
:101F50008F7D8093780280917802877F06C08F7D85
:101F600080937802809178028D7F80937802C0936D
:101F7000EC011FBFDF91CF911F91089581D6609131
:101F800023018091220135D780937E0280917F02C8
:101F900086957FD675D68DE191E00E944D1F809188
:101FA000810281110AC082E08093210183EA71D607
:101FB00067D68DE191E00C944D1F809181021092C3
:101FC000810210927E02833021F0809123018230C1
:101FD00010F085E015CF08951F93CF93DF9300D0C5
:101FE000CDB7DEB7CE01029630D7882309F444C0BE
:101FF0008091EC01873019F481E090E008D88A8163
:10200000853A01F128F4803850F0833A89F034C0E1
:102010008A3A31F18C3A51F1863A71F519C09091B2
:10202000EC01911129C0880F80937E0281E023C0CA
:102030008091EC01813021F08091EC018230E1F45B
:1020400083E019C08091EC018230B1F484E013C0C8
:102050008091EC01823081F483E0809321010CC0F7
:102060008091EC01882341F085E005C08091EC016E
:10207000863011F480E0C4DEE091EC018E2F90E018
:102080008830910508F0E3C0FC01E45CFF4F0C943C
:1020900052218DEE91E002D78111D9C080912101AA
:1020A000823009F4D4C08DEE91E03AD7182F809198
:1020B00023018F5F80932301809121018130A9F456
:1020C00080912301813019F4109322010DC0809179
:1020D0002301823051F480912201912F2AE0829FC6
:1020E000900D11249093220149DF809121018330CA
:1020F00009F0ADC080EB810FCCD58DE191E00E945D
:102100004D1FA5C080917B02882349F080918202F7
:10211000882319F082E028D402C082E012D48DEE28
:1021200091E0BCD681110CC080919002811108C051
:102130008DEE91E0F5D680938E0281E0809390023F
:1021400080912202811103C08091260104C0813058
:1021500031F480918202BE016F5F7F4F14C08230E4
:1021600071F480918202882319F08091260102C0C7
:1021700080E090E0BE016F5F7F4F817004C0BE01C0
:102180006F5F7F4F81E00E94301980918F0288300D
:1021900039F460918D0283E292E0A5D610928F020D
:1021A00080918202809325011091260180919002F6
:1021B0008823A9F080919002813089F080915702A4
:1021C000811104C089818093250109C0813011F4F7
:1021D000198105C0823019F419811093250180E01E
:1021E000112311F0C1D301C0ACD3809183028823A5
:1021F00071F18091640281112AC080910001112344
:1022000079F0823021F080910001833011F48CE963
:1022100005C08091000181111AC08AE93AD517C022
:10222000882321F080910001813011F483E9F6CFF9
:1022300080910001823059F486E9F0CF89E191E084
:102240000E946E1F813A9F4010F080E0D9DD80919E
:1022500064028530F9F48DE191E00E944D1F809178
:102260008102811115C080916702863961F020F4E6
:10227000833971F482E00AC08A3939F08C3941F42B
:102280001092000105C083E001C081E0809300014D
:102290001092640280917E028823C9F080918302AB
:1022A0008823A9F080916402882321F08091640240
:1022B000853069F48DE191E00E946E1F8231934078
:1022C00030F089EAE6D48DE191E00E944D1F8091C3
:1022D0007E02882341F08091EC01863021F08091CC
:1022E000EC01853009F4A8950F900F90DF91CF9104
:1022F0001F91089514BC82E085BD80916E008160BD
:1023000080936E0080E8809378028091EB018823AF
:1023100029F08091780280618093780296D780E0DE
:102320006FDD8DEE91E0B6D583E292E0B3D51092E9
:10233000240181E0809357028093220208958091C6
:10234000EC01833039F09091EC0181E0943019F088
:1023500080E001C081E08170089580917F028F3F0D
:1023600019F18091EC01882321F088E090E00E942F
:10237000070881E0809324019FB7F8948091780248
:102380008F7780937802809178028F7E8093780295
:10239000809178028F7E809378029FBF82E030DD4B
:1023A0001092240181E0089580E008958091EC016D
:1023B000833071F481E08093240185EA6AD460D48B
:1023C00089EA67D484E01CDD1092240181E008953D
:1023D0009091EC0181E0943009F080E008959091B3
:1023E000EC01923041F490912101992321F0682F62
:1023F0008DEE91E078C589E090E00C940708CF93CA
:10240000DF93EC0183E292E049D5811106C083E2BB
:1024100092E086D5888381E001C080E0DF91CF9192
:102420000895CF93C82F682F8DEE91E05CD5882357
:1024300049F0CF3111F491E003C0CB3119F493E0AE
:1024400090932102CF910895EF92FF921F93CF9323
:10245000DF931F92CDB7DEB77C01CE010196CFDFAF
:10246000182F882341F061E272E08981BFD0F70123
:102470008083882391F3812F0F90DF91CF911F915B
:10248000FF90EF900895CF93DF9300D0CDB7DEB7E4
:102490009E012F5F3F4FAE014E5F5F4F61E272E0E2
:1024A0009AD1811102C081E00CC06A818DEE91E069
:1024B0001AD5882331F069816F3FA9F38DEE91E041
:1024C00012D50F900F90DF91CF9108958DEE91E08E
:1024D000E5C4CF939091EC01992339F190917E025C
:1024E000911103C080E0CF918BCCC82F81E0809305
:1024F00024018091EC01853031F48CEACAD3C0D339
:1025000080E07EDC08C08AEAC4D386E079DC89E119
:1025100091E00E944D1F109224018091EC018630C1
:1025200021F4CC2311F058DDF8CFCF91089580919C
:10253000EC01882339F09091EC0181E0953019F09D
:1025400080E001C081E081700895CF93C82F809111
:10255000EC01882341F08091EC01873021F08AE082
:1025600090E00E940708CC2311F080E001C087E0D2
:10257000CF9146CC1F920F920FB60F9211242F933A
:102580003F934F935F936F937F938F939F93AF93FB
:10259000BF93CF93EF93FF9380912401811114C0D7
:1025A000C1E0C093240180916E008E7F80936E0005
:1025B000789412DD84EB86BDC5BB80916E0081608E
:1025C00080936E0010922401FF91EF91CF91BF9103
:1025D000AF919F918F917F916F915F914F913F91BB
:1025E0002F910F900FBE0F901F901895FB018B310C
:1025F00011F482E00BC08F3111F4108208C0909169
:102600005A02992331F0811104C084E0808380E074
:1026100008959081292F2E7F20839670282F30E0F7
:10262000923029F4E0915C02F0915D020FC080913C
:102630005A02882339F0943029F4E0915802F0913D
:10264000590204C0E0915E02F0915F02E20FF31FB5
:10265000849108956670623029F4E0915C02F091F3
:102660005D020FC090915A02992339F0643029F429
:10267000E0915802F091590204C0E0915E02F0919D
:102680005F029FEB980F9A3120F490915B029111B9
:10269000805E90E02491821731F031969F5F9032F6
:1026A000C9F78FEF0895892F0895833009F441C049
:1026B000E8F4813059F1823009F077C083EF95E07A
:1026C00090935F0280935E0283E396E090935D02B5
:1026D00080935C0283E196E09093590280935802C4
:1026E00081E080935A0210925B020895853009F4CC
:1026F00053C0C0F1863009F058C083ED95E0909347
:102700005F0280935E0283E996E057C023ED35E0D7
:1027100030935F0220935E0223ED36E030935D023A
:1027200020935C02109261021092600210925A0291
:102730004FC083ED95E090935F0280935E0287E146
:1027400097E090935D0280935C0287EF96E0909310
:1027500059028093580283EF96E090936102809330
:10276000600216C083ED95E090935F0280935E0255
:1027700083E796E090935D0280935C0283E596E0A8
:102780009093590280935802109261021092600255
:1027900081E080935A021CC083ED95E090935F0224
:1027A00080935E0283EB96E008C083ED95E0909302
:1027B0005F0280935E0283EB95E090935D028093CD
:1027C0005C02109261021092600210925A0281E043
:1027D00080935B020895CF92DF92EF92FF920F9366
:1027E0001F93CF93C82F7B016A0189018FEFF901F5
:1027F0008083CF3029F48BE1F601808383E012C01F
:10280000CE3039F48FE1F601808381E0F7018083D7
:102810004AC080915A02882341F0C03131F4F60158
:10282000108285E0F70180833DC0E0916002F09165
:102830006102309759F08491882341F08491C81344
:1028400003C03196C49102C03296F5CFF701608182
:1028500060FD08C060E08C2FFDDEF80180838F3FB3
:1028600089F609C0C731B1F38C2FF4DEF6018083FD
:102870008F3FC1F4EFCF62E08C2FECDEF801808354
:102880008F3F09F0B8CF80915A02811102C080E0D9
:102890000AC064E08C2FDEDEF80180838F3F09F0F0
:1028A000BECFF5CF81E0CF911F910F91FF90EF90B8
:1028B000DF90CF9008958A3989F028F4833941F068
:1028C000863931F011C08C3949F0893AC9F10CC010
:1028D00081E080937B0210928202089581E08093D0
:1028E0007B02809382020895E0912A0191E09E0F7D
:1028F00090932A01F0E0E55DFE4F808380912A01EC
:10290000843148F080912901811102C083E10CC01B
:1029100010922A010BC090912A01809129019813ED
:1029200005C080912A01815080932A01809178020C
:10293000806480937802809178028F778093780208
:1029400008955FB7F8944091780221E030E0B90132
:1029500002C0660F771F8A95E2F7CB01809584232A
:10296000809378025FBF08954FB7F8945091780232
:1029700021E030E0B90102C0660F771F8A95E2F7C7
:10298000CB01852B809378024FBF08951F920F9241
:102990000FB60F9211242F933F934F935F936F9332
:1029A0007F938F939F93AF93BF93EF93FF93809108
:1029B0006202909163020196909363028093620297
:1029C0008091B900887F803609F4CAC0B0F588329A
:1029D00009F48DC090F4803109F475C038F488236F
:1029E00009F4A9C0883009F459C035C1883109F407
:1029F0006EC0803209F472C02EC1803409F429C13E
:102A000060F4803309F473C0883309F024C18091E5
:102A100080028F5F80938002D8C0803509F47EC029
:102A2000883509F47BC0883409F015C185E08093AE
:102A3000640281E0809381027FC0883909F4E8C094
:102A4000C0F4883709F4C3C038F4883609F483C069
:102A5000803709F4C1C0FFC0883809F494C08039B8
:102A600009F4C5C0803809F0F6C08091BB0023DFAF
:102A7000F0C0803B09F4E1C038F4803A09F487C023
:102A8000883A09F4DFC0E7C0803C09F4DEC0883C26
:102A900009F4DBC0883B09F0DEC0D4C08091640239
:102AA000843029F41092BB001092270109C0809154
:102AB0006402813041F080917E0281608093BB008E
:102AC00010928302C8C080917E028E7FF7CF8091E2
:102AD00064028430B1F0809167021DC085E080936C
:102AE000640280916402843021F181E031C08091E0
:102AF00064028430D9F4909127018091660298177E
:102B0000A8F4E091270181E08E0F80932701F0E087
:102B1000E859FD4F80818093BB009DC08091BB0030
:102B20008093280180916402823051F085E0809387
:102B300064021092810281E08093830285E58CC05B
:102B40008091280187FD41C085E08093640283E085
:102B500080938102F0CF809180028F5F809380020A
:102B6000A89510927A021092790210928302109224
:102B700027018091BB0090917C029150869589231A
:102B800080937D0266C08091BB0095DE5EC081E0CF
:102B9000809383029091270180916602891720F427
:102BA000809127018093660280916402833069F0EE
:102BB00080916402813049F080916402823029F072
:102BC00080916402843009F046C085E645C080915A
:102BD00080028F5F8093800210927A0210927902B5
:102BE00010928302109227011092660234C08091E5
:102BF000BB0090912701903170F5E091270191E0A1
:102C00009E0F90932701F0E0E859FD4F808323C089
:102C10008091BB0090912701903150F4E091270101
:102C200091E09E0F90932701F0E0E859FD4F8083DB
:102C3000809127018093660208C0809180028F5F97
:102C4000809380028091780239CF81E08093830263
:102C5000ABCF85E001C085E480688093BC00FF9124
:102C6000EF91BF91AF919F918F917F916F915F9104
:102C70004F913F912F910F900FBE0F901F9018957D
:102C800080916402882321F0809164028530C1F72D
:102C90000895CF93C82FF4DF9FB7F894C0936702CD
:102CA000C7FF02C081E001C082E08093640280918E
:102CB0008302882349F08091BC0084FDFCCF809181
:102CC000BC0080628093BC009FBFCF910895CF93DA
:102CD000DF93D82FD5DFC0917E02D0937E0283E0B0
:102CE0008093640280918302882349F08091BC0024
:102CF00084FDFCCF8091BC0080628093BC00C0DF6B
:102D0000C0937E0280918102811104C080912801CC
:102D100090E002C08FEF9FEFDF91CF910895CF93A6
:102D20009EEF980F9B3DE8F480FD1BC0C82FCFDFBE
:102D300097FF17C09FB7F894C093BA0080916502BF
:102D4000882329F08091BA0081608093BA00809135
:102D5000BC0080648093BC00C0937F029FBF81E071
:102D60000EC09FB7F8941092BA008091BC008F7B80
:102D70008093BC008FEF80937F029FBF80E0CF9154
:102D8000089581E080938302109264021092810280
:102D9000109280021092290110922A01109263026F
:102DA0001092620210927A021092790210926702D7
:102DB0008093B90087E18093B80080917F028E7F75
:102DC0008093BA00109266021092270180916502EA
:102DD000882329F08091BA0081608093BA0084E84A
:102DE0008093BC0080917C028150880F8093BD004D
:102DF0000895613031F48A3080F4882351F08C5981
:102E000006C0623051F4882331F0843630F4880FE4
:102E100008958CED089588EC08958FEF0895FB01D7
:102E20009EEF980F9B3D10F010820DC08695853661
:102E300030F091E090838E3631F08456089592E020
:102E40009083843609F480E008953091290120911F
:102E50002A013217D9F0E091290121E02E0F2093A9
:102E60002901F0E0E55DFE4F2081FC012083809187
:102E70002901843110F0109229019091290180914B
:102E80002A01981305C086E05CDD02C080E0089549
:102E900081E00895FC0112AA13AA0895FC0123A958
:102EA00092A981E0291380E00895FC0192A9913351
:102EB00010F49F5F01C090E083A9891789F092A95F
:102EC000913320F49F5F913321F001C090E09F5F28
:102ED00001C090E023A981E0291719F080E001C02A
:102EE00081E081700895FC0182A9813310F48F5F25
:102EF00001C080E093A9891789F09FB7F89482A94F
:102F0000DF01A80FB11D6C9382A9813310F48F5F8C
:102F100001C080E082AB9FBF81E0089580E008950A
:102F2000FC012FB7F89483A9DF01A80FB11D8C9184
:102F300093A9913310F49F5F01C090E093AB2FBF32
:102F40000895FC0192A983A9981728F092A983A952
:102F5000981B892F089582A993A98E5C891B0895D7
:102F60000F931F93CF93DF938C01D62FC0E00E9465
:102F7000CE0590ED980F9A3090F4F801CC2351F0E3
:102F80009081990F292F220F220F920F9053890FB2
:102F9000808301C09083CF5FCD13E9CF0EC093ED46
:102FA000980F933050F08B3241F08D3331F08823FD
:102FB00031F08930E1F2CC23D1F28C2F01C08FEFB8
:102FC000DF91CF911F910F910895CF93DF93EC0183
:102FD0000E94CE058033D9F040F48D32C1F0D0F498
:102FE000882381F08B32A1F70FC08A3669F028F46C
:102FF000813351F08D3371F0EBCF8E3641F089374C
:1030000019F0E6CF80E007C081E0888301C0188214
:1030100082E001C081E0DF91CF910895FF920F938C
:103020001F93CF93DF938C01F62ED0E0C0E00E9477
:10303000CE05811108C0CC2309F444C0F801EC0F7F
:10304000F11D108242C0893091F38032C0F4C11169
:1030500011C0DD2361F383ED8D0F8330A8F1DB32E6
:1030600099F1DD3389F1F801D03239F0D083118242
:1030700082E02BC0F801EC0FF11D1082F9CF8332F2
:10308000B1F2803221F4C11114C0D0E2D0CFCF15FB
:1030900070F6C11111C0D11102C0D82FC8CFF801EC
:1030A000D03219F48083C1E0C2CFD0838183C2E0E3
:1030B000BECFCF1508F0BBCFF801EC0FF11D808318
:1030C000CF5FB5CF80E001C081E0DF91CF911F914C
:1030D0000F91FF9008951F93CF93DF9300D0CDB74A
:1030E000DEB7BE016E5F7F4F80917F0298DE8983DD
:1030F00089E997E04ED06A8189816ED080EB97E0B4
:1031000048D062E0CE0101962BDF87FD3AC08111E5
:1031100008C0BE016E5F7F4F80917F0280DE898391
:1031200001C08A8380917C0281959981892389835A
:103130008EE897E02ED06A8189814ED080E20E948D
:103140002D056A81898155DEEADD182F8823A9F0D3
:103150008BEB97E01ED087E697E01BD08091EB01C8
:103160004CD080EB97E015D08BEE91E02EDF8823DA
:1031700041F08BEB97E00DD005C087E397E009D0D5
:10318000B0CF10E0812F0F900F90DF91CF911F9162
:103190000895CF93DF93EC01FE018491882331F0F1
:1031A000FE0184910E942D052196F6CFDF91CF91EB
:1031B0000895CF93DF93EC018991882319F00E9441
:1031C0002D05FACFDF91CF9108958A3010F4805DFC
:1031D00001C0895A0C942D05CF93C82F80E0CA30C6
:1031E00018F08F5FCA50FBCF811102C0623014F01B
:1031F0006150F2DF8C2FCF91E8CF811103C081ECB9
:1032000097E002C086EC97E0C4CF882369F08091F4
:103210003F01909140018F3F9105B4F480913F01AF
:103220009091400101960CC080913F019091400126
:10323000181619064CF480913F01909140010197B6
:103240009093400180933F01089510928F02109255
:10325000900280E890E09093400180933F010895B0
:103260000F931F93CF93C82F8B01809190028830CA
:1032700028F4823078F5813029F055C0883009F47F
:1032800045C051C080918F02882329F080918F0220
:10329000883009F048C084E892E020D6CC9708F442
:1032A00042C0F801108289E892E0F7D582E080936D
:1032B000900280918E028F7180938E0280918E0297
:1032C000880F880F80938E0280918E028360809396
:1032D0008E0229C080918E02881F8827881FFB01DB
:1032E000808389E892E0FAD54497E8F064E170E0E1
:1032F00089E892E0DFD580918E02880F80938E025C
:10330000809190028F5F809390020DC081E0FB015D
:10331000808389E892E0E2D54E9728F089E892E030
:10332000BCD51092900280918F02873040F4823099
:1033300008F04EC0882379F0813001F19FC08730BA
:1033400009F454C0883009F099C084E892E0C6D5E9
:10335000039708F493C0C11191C084E892E09DD511
:1033600081E080938F0210928D0280E890E090932C
:10337000400180933F011092880280C08C2F45DF6E
:1033800080913F019091400187399105F4F484E8E0
:1033900092E0A4D50B9708F471C080913F01909101
:1033A0004001803891058CF482E080938F0280E8A0
:1033B00090E09093400180933F0168E070E084E8E2
:1033C00092E0CF911F910F9175C510928F0256C058
:1033D00084E892E083D5409708F450C08C2F15DF25
:1033E00084E892E07BD5449740F548C084E892E0B9
:1033F00075D5409708F442C08C2F07DF84E892E02F
:103400006DD50F97D8F180918F028730B1F4CC231E
:10341000A9F120913F013091400181E02038310530
:103420000CF080E08093880288E080938F0284E82B
:1034300092E0CF911F910F9130C580918D02880F3E
:1034400080938D0280913F019091400180389105D9
:103450002CF080918D02816080938D0280918F028B
:103460008F5F80938F0264E170E084E892E022D560
:1034700080E890E09093400180933F01CF911F91AD
:103480000F910895209A28980895209828980895D3
:1034900083B181700895579A5F98089557985F98FF
:1034A0000895CF93DF93FC0194A1911106C071831D
:1034B0006083448381E084A325C085A181111FC05E
:1034C0002081318162177307E8F0E901C90FD11D2E
:1034D000C617D707B8F0D901A07E90966A177B0768
:1034E00088F4DF01A60FB71FA21BB30B14964C93F1
:1034F0006C177D0730F0621B6F5F64A302C080E031
:1035000001C081E0DF91CF9108958091BF028F3F8C
:1035100009F05CC02091C4028091C30230E090E0C9
:1035200001962817390709F04FC01092C302809105
:10353000F0028130A1F48091C00280FD43C08FB7BA
:10354000F89491EA9093C0022CEC32E03093C202DE
:103550002093C10290E29093C3028FBF35C08230A6
:1035600099F51092EC028091B502882349F16FB76A
:10357000F89480919102909192029093C902809365
:10358000C8025091B502252F30E02F5F3F4F42E037
:10359000842F90E0281739075CF0FC01E853FD4FB9
:1035A000DC01AF56BD4F12968C9182834F5FF0CFF6
:1035B0005093EC021092B5021092ED026FBF04C05E
:1035C0001092F0021092ED021092BF0208958091C5
:1035D000F0028823C9F19091BF02911135C09091FA
:1035E000ED02911131C0823021F48091EC028823E8
:1035F00059F19FB7F89481E08093ED028091C80261
:103600002091C9022093CA028093CB028091F002DC
:10361000813059F480EA8093C0022AEC32E0309382
:10362000C2022093C10282E00CC080EA8093C002F3
:103630002AEC32E03093C2022093C1028091EC0266
:103640008E5F8093C3029FBF0895CF93DF93DC0109
:10365000EC914E2F50E04833510508F0F5C0EC01D5
:10366000FA01EC5BFF4F1EC68C81882309F4ECC085
:10367000188687E08F8389818E831D8203DF81E036
:10368000E2C006DF8111E0C082E0DDC004DF83E03C
:10369000DAC04F9B61C0D8C08E812F8190E002C0FC
:1036A000959587952A95E2F780FF02C0EEDE01C06E
:1036B000E9DE8BE0C8C08E812F8190E002C0959535
:1036C00087952A95E2F780FF07C0E2DE882309F498
:1036D000BBC0E4DE8CE0B7C0DBDE8111B5C0F9CF42
:1036E0004F9BB2C08DE0AFC0D6DE8EE0ACC04F992C
:1036F000ABC08F81811102C084E1A5C08F81815050
:103700008F832AC0C2DECADE85E19DC04F9B9CC06C
:1037100086E199C0BDDE882311F082E30FC0EA8103
:10372000FB818885E80FF11D80818E8388858F5FFE
:10373000888788858D8387E08F8387E18883DF9101
:10374000CF91A9CE4F9980C098858C81891708F4B4
:1037500060C0898180FD5FC08AE075C08F8187303D
:1037600009F41E8292DE9ADE8FE16DC04F9B6CC021
:1037700080E269C08DDE882351F03F812E8181E097
:1037800090E001C0880F3A95EAF7822B8E8383DEA2
:1037900081E259C04F9958C08F81811102C088E2DF
:1037A00052C08F8181508F8336C0EA81FB8198851A
:1037B0008E81E90FF11D3197808398858C81981750
:1037C00010F460DE01C061DE89E23DC098858C8125
:1037D000981730F45DDE811137C060DE8AE233C0B5
:1037E00057DE8111FACF30C04F9B2EC08BE22BC029
:1037F00052DE8CE228C04F9927C047DE88858F5F54
:10380000888787E08F8388858D8398858C81891749
:1038100010F482E318C08EE116C034DE83E313C0D7
:1038200037DE811111C084E30EC038DE85E30BC0A2
:103830004F9B0AC086E307C028DE87E304C028DE6A
:10384000882311F08FEF8883DF91CF9108958FEB5C
:1038500092E0FBCE1ADE22DE1092F0021092EC0211
:103860001092ED021092B5021092B602EAECF2E06C
:10387000A3E9B2E095E587E791938D9322E0EC3ED2
:10388000F207D1F70895FF920F931F93CF93DF9321
:10389000EC01F62E042F8091F002813011F4109289
:1038A000F00233DE8091F002811107C082E0809344
:1038B000F0021092EC021092ED02688179814F2D96
:1038C00088EC92E0EEDD182F882381F0011102C010
:1038D00011E022C08091C8029091C9028F612881B5
:1038E00039812817390791F472DE10C08091BF0228
:1038F000811101C06CDE688179814F2D81E992E0F0
:10390000D0DD182F882341F0002311F3888199819D
:1039100001969F7799838883812FDF91CF911F91A3
:103920000F91FF9008958091F002813011F4109270
:10393000F0028091F002823071F48091ED028823D0
:1039400011F0E3DD01C043DE81E09091F00292309E
:1039500019F480E0089581E00895EF92FF920F93AB
:103960001F93CF93DF938C017B01D42F8091F002C2
:10397000823091F0CADD8091F002811111C081E0A6
:103980008093F002F80180819181807E9093C9023A
:103990008093C8021CDE08C0C6DF8111EBCF04C0D3
:1039A000C091ED02CC2311F0C0E033C0F80180815A
:1039B00091819C01207E4091C8025091C90242171A
:1039C000530711F5841B950BFC01E653FD4F8281D3
:1039D000F7018083DD23B1F0F801808191810196A8
:1039E0009C013F7731832083807E9F772091C8029E
:1039F0003091C9028217930729F09093C9028093EE
:103A0000C802E5DDC1E005C03093C9022093C802B9
:103A1000DEDD8C2FDF91CF911F910F91FF90EF9002
:103A20000895CF93DF9300D01F92CDB7DEB79B836D
:103A30008A8340E0BE016F5F7F4FCE0102968DDF2B
:103A4000811102C004DFF5CF89810F900F900F9094
:103A5000DF91CF9108951092BC021092BB02109298
:103A6000B8021092B7021092EF021092EE0210927A
:103A7000F2021092F10240E06EEE81EF92E003DF7D
:103A8000811102C0E4DEF7CF4EDF811102C0DFDE1C
:103A9000FBCF8EEF9FEF9093F2028093F102909311
:103AA000BA028093B9029093BE028093BD0208953A
:103AB0001F93CF93DF93309B08C0C091BB02D0917E
:103AC000BC02CE3E8EEED80721F4DF91CF911F913C
:103AD000C2CF10E0BCDECE01A4DF8A3A39F4111166
:103AE00012C0D093B802C093B7020DC08E3E61F4ED
:103AF000D093EF02C093EE0211110FC0D093B80221
:103B0000C093B7020AC011E02196DF778091BB0213
:103B10009091BC02C817D907E9F605DF811102C0F0
:103B200096DEFBCF111101C096DF8EEF9FEF9093D1
:103B3000BA028093B9029093F2028093F1029093BB
:103B4000BE028093BD02DF91CF911F910895209115
:103B5000F1023091F2022E3F3F4F31F0682F6F7724
:103B600041E081EF92E08FCE08951F93CF93DF93D2
:103B7000282F6AE077D34091F1025091F2024E3F34
:103B80005F4FD9F0D82FC22F10E3180F41E0612FFB
:103B900081EF92E078DE811102C059DEF7CFC05D7F
:103BA0008AE0D89FC019112441E06C2F81EF92E088
:103BB0006ADE811102C04BDEF7CFDF91CF911F91FA
:103BC0000895EF92FF920F931F93CF93DF93182FD7
:103BD000F62EE42ED22F8091EE029091EF02019604
:103BE0009F779093F2028093F10241E06AEA81EFBD
:103BF00092E049DEC82F8823B1F08E2DB6DF8EE229
:103C0000A6DF8F2DB2DF8EE2A2DF812FAEDF80E252
:103C10009EDF8D2FAADF8AE39ADF802FA6DF8DE05B
:103C200096DF8AE094DF8C2FDF91CF911F910F9167
:103C3000FF90EF90089540E06EEE81EF92E023DE7A
:103C4000811102C004DEF7CF6EDE811102C0FFDDFC
:103C5000FBCF40E06DED8EEE92E015DE811102C0EB
:103C6000F6DDF7CF8091F1029091F2029093EF028E
:103C70008093EE028EEF9FEF9093F2028093F10219
:103C80000895E8DD8EEF9FEF9093F2028093F102AA
:103C9000089549DE811102C0DADDFBCF8091B702C1
:103CA0009091B8029093BA028093B9028EEF9FEF81
:103CB0009093BE028093BD0208958091B9029091C5
:103CC000BA02029631F18091B9029091BA02A9DE4E
:103CD0002091B9023091BA028A3A31F43093BE028F
:103CE0002093BD0281E008958E3E59F43093EF0297
:103CF0002093EE028EEF9FEF9093BA028093B90269
:103D000008C02F5F3F4F3F773093BA022093B9022C
:103D1000DACF80E008958091B9029091BA020296BC
:103D200089F08091B9029091BA027BDE8D3D51F00D
:103D30002091B9023091BA028E3E31F43093EF02F5
:103D40002093EE0280E008952F5F3F4F3F7730933E
:103D5000BA022093B9028A3A21F38C3C11F30895F8
:103D6000EF92FF921F93CF93DF9300D0CDB7DEB7D2
:103D70004091BD025091BE024E3F8FEF580709F4AB
:103D80004EC05A8349838091B7029091B802481778
:103D9000590749F001969C013F7781E024173507C8
:103DA00019F080E001C081E0182F117086DF8823B0
:103DB00029F0E090BD02F090BE0204C0E090EE0257
:103DC000F090EF02B0DD811102C041DDFBCF8981AF
:103DD0009A8127DE8A3A19F08BE00E94070840E0BA
:103DE0006CECCE0101964FDD811102C030DDF7CFC2
:103DF0001123A9F0F092B802E092B7028091BB02C1
:103E00009091BC029C012C503E4F2E153F0518F09E
:103E1000E816F90620F4F092BC02E092BB020F9083
:103E20000F90DF91CF911F91FF90EF9008957BDD70
:103E3000811102C00CDDFBCF8EEF9FEF9093BA0291
:103E40008093B9029093BE028093BD02089582E0F0
:103E50008093B00083E08093B1008FEB8093B30038
:103E6000E0E7F0E080818260808308951F920F92E6
:103E70000FB60F9211248F939F938091F30290912C
:103E8000F40201969093F4028093F3029F918F9134
:103E90000F900FBE0F901F9018952FB7F894409178
:103EA000F3025091F402FC01518340831382128289
:103EB0002FBF0895FC0180819181860F971F918308
:103EC0008083828193818617970718F41382128268
:103ED0000895861B970B938382830895FC012FB767
:103EE000F8948091F3029091F40240815181841BF7
:103EF000950B2FBF228133812817390710F4938344
:103F00008283828193810895FC016830F0F0808182
:103F10008336D9F481818C36C1F482818B36A9F441
:103F200083818093F80284818093F9028581809354
:103F3000F60286818093F50287818093F7026830CC
:103F400031F080858093FA0202C080E0089581E01C
:103F500008959091FD02981730F48093FD027093BC
:103F6000FC026093FB0208951092FD028FEF90E037
:103F70009093FC028093FB021092FE0208951F931F
:103F8000CF93DF93EC01162F93D1811769F0612F46
:103F9000CE0196D1CE018CD1181731F0BE0184E04C
:103FA000DF91CF911F91D5CFDF91CF911F910895D0
:103FB0001F93CF93DF93EC01162FE1DF612FCE012A
:103FC00080569F4FDCDF612FCE01805C9E4FDF91DA
:103FD000CF911F91D4CFBF92CF92DF92EF92FF92F9
:103FE0000F931F93CF93DF938C01B62E61D1C82F0F
:103FF000680180EAC80ED11CC6015AD1D82F7801B9
:1040000080ECE81A8EEFF80AC70152D1CD1303C035
:10401000C8130AC007C0DF3F69F48F3F59F46C2F03
:10402000C801C6DF8C2F20C0CF3FD9F0B70182E096
:1040300090DFF5CFC81302C0B601F9CFD81309C07D
:1040400060EA70E082E085DF6D2FC801B1DF8D2F5F
:104050000BC0B80183E07DDF81E08093FE028B2DF1
:1040600003C08F3FE1F2E2CFDF91CF911F910F911B
:10407000FF90EF90DF90CF90BF9008954F925F92A6
:104080006F927F928F929F92AF92BF92CF92DF9268
:10409000EF92FF920F931F93CF93DF934C018B010D
:1040A000742E79011092FE02662EC42FD0E05B01BF
:1040B000C12CD12C442443945C2CCC16DD06A1F0F9
:1040C000F701EC0DFD1D6491C601880D991D83DF7C
:1040D000F50180838F3710F04092FE028FEFA81A0F
:1040E000B80A8081811107C08091FE02882399F06F
:1040F000F701D80108C0AFEFCA1ADA0A8091FE02B0
:104100008823D1F2F1CF8A2F8619871530F4849154
:104110008D933196F8CF571420F0C00FD11F2197FF
:104120001882DF91CF911F910F91FF90EF90DF9058
:10413000CF90BF90AF909F908F907F906F905F9047
:104140004F900895FF920F931F93CF93DF938C01AD
:10415000C62FF42ED22F3FDF8F1510F0D81738F46A
:10416000B80181E0F6DE6C2FC80122DF8C2FDF91D1
:10417000CF911F910F91FF90089521E040E0E2DF81
:1041800091E0813009F090E0892F08951F93CF933B
:10419000DF93EC01162F672F01960ADF612FCE0106
:1041A000DF91CF911F9104CFBF92CF92DF92EF9218
:1041B000FF920F931F93CF93DF93EC016B017A0172
:1041C00089011092FE026D2D019605DFB82E6C2D2F
:1041D000CE0101DF9091FE02911110C090E09B2969
:1041E0008E159F0518F00817190738F4BE0181E0F5
:1041F000B0DEB601CE01CADF01C06C01C601DF919D
:10420000CF911F910F91FF90EF90DF90CF90BF90D3
:104210000895CECECF92DF92EF92FF921F93CF936D
:10422000DF936C017B0110E0C42FD0E02197812F38
:1042300090E08C179D075CF060E08C0D9D1DDF9178
:10424000CF911F91FF90EF90DF90CF90B1CEF7010B
:10425000E80FF91F6081662379F38C0D9D1DA8DEA0
:104260001F5FE5CF991B79E004C0991F961708F0EE
:10427000961B881F7A95C9F780950895AA1BBB1BCA
:1042800051E107C0AA1FBB1FA617B70710F0A61B56
:10429000B70B881F991F5A95A9F780959095BC0177
:1042A000CD010895EE0FFF1F0590F491E02D0994C4
:1042B000F999FECF92BD81BDF89A992780B50895EE
:1042C000262FF999FECF1FBA92BD81BD20BD0FB632
:1042D000F894FA9AF99A0FBE01960895F894FFCFD0
:0E42E000011F1C1F1E1F1E1F1F1E1F1E1F0062
:00000001FF
