:100000000C941A010C9437010C9437010C943701AD
:100010000C9437010C9437010C9437010C94300A7E
:100020000C9437010C9437010C9437010C94370170
:100030000C9437010C9437010C9437010C94370160
:100040000C9437010C9437010C9437010C94370150
:100050000C9437010C9437010C9437010C94370140
:100060000C9425050C943701A2054C054C054C0554
:100070004C054C054C054C0555064C054C054C05EE
:100080004C054C054C054C052D064C054C054C0506
:100090004C054C054C054C0522064C054C054C0501
:1000A0004C054C054C054C0536064C054C054C05DD
:1000B0004C054C054C054C0568054C054C054C059C
:1000C0004C054C054C054C0568054C054C054C058C
:1000D0004C054C054C054C05EE054C054C054C05F6
:1000E0004C054C054C054C058E054C054C054C0546
:1000F0004C054C054C054C05F5054C054C054C05CF
:100100004C054C054C054C0590054C054C054C0523
:100110004C054C054C054C0590054C054C054C0513
:100120004C054C054C054C057C054C054C054C0517
:100130004C054C054C054C0577054C054C054C050C
:100140004C054C054C054C05E2054C054C054C0591
:100150004C054C054C054C05DD054C054C054C0586
:100160004C054C054C054C051C064C054C054C0536
:100170004C054C054C054C050E064C054C054C0534
:100180004C054C054C054C0542064C054C054C05F0
:100190004C054C054C054C05A7054C054C054C057C
:1001A0004C054C054C054C05FF054C054C054C0514
:1001B0004C054C054C054C05D6054C054C054C052D
:1001C0004C054C054C054C05D1054C054C054C0522
:1001D0004C054C054C054C05D6054C054C054C050D
:1001E0004C054C054C054C05BB054C054C054C0518
:1001F0004C054C054C054C05BB055F5F5F547850C2
:10020000325F556E6949462D52533233322D48655F
:10021000785F5F5F44656320203220323031365F83
:100220005F5F31333A34343A34335F5F5F323433B3
:100230005F5F5F0011241FBECFEFD4E0DEBFCDBFF4
:1002400011E0A0E0B1E0E0E1F5E102C005900D921F
:10025000A230B107D9F711E0A2E0B1E001C01D92D0
:10026000A03CB107E1F70E946C010C94860A0C9443
:100270000000853A59F08C3A09F008951092AB01CC
:100280008091210180688093A501089585E00E94F6
:10029000CB0483E00E94CB0481E00E94CB0408954C
:1002A00090912201982B909322018091200181113D
:1002B000089583E291E00E94F207882321F082E012
:1002C00080932001089583E291E06FEF0E9414086B
:1002D00081E08093200108959F92AF92BF92CF92C8
:1002E000DF92EF92FF920F931F93DF93CF9300D093
:1002F00000D00F92CDB7DEB780E090E00E947E0A7A
:100300008E7F8093AC0182508B3D18F086EC8093F9
:10031000AC0111E01093A90181E090E00E947E0AF7
:1003200080738068809321018093A50188E591E026
:100330000E94E20783E291E00E94E207109220010E
:10034000109222011093AF01109300010E948508C2
:100350000E9441070E94210A0E94350478948E0170
:100360000E5F1F4FC8010E94470AC8010E94680A19
:1003700084369105D0F380E98093BC00C8010E94C7
:10038000680A883C9105D0F385EC8093BC006E012F
:100390000894C11CD11CEE24E39423E0B22E92E019
:1003A000A92E80E1982E3DC08091AF01882309F4E9
:1003B00098C082E00E94CB04E9828091AF01B6012F
:1003C0000E9490088091B0018823B9F0809191013A
:1003D000882399F48981882309F4D1C08091000190
:1003E000823009F49DC180910001833009F498C1E5
:1003F00080910001882309F4F1C180919101853039
:1004000009F4A3C08091B001882329F08091910163
:10041000882309F48AC083E291E00E94F2078823CE
:10042000A1F00E94480488E591E00E94E707882334
:10043000E1F18091AB01882309F0B6CFA89583E262
:1004400091E00E94F207882361F7809120018230B9
:1004500009F46EC18091BC01883009F49AC1C601CB
:100460000E94AA07882309F4AEC06981613008F4AC
:1004700053C16F3608F497C1862F805A8F3508F024
:100480004BC18091AB01882309F446C183E291E01E
:100490000E94140889810E9439010E94480488E55D
:1004A00091E00E94E707882321F688E591E00E9409
:1004B0006C08182F8F3709F4A5C08038B0F48F3638
:1004C00008F077C0813040F08091AB01882309F4B7
:1004D00037C184E00E94500188E591E00E94430802
:1004E000A8CF82E00E94BA0467CF8F3FA8F7803A76
:1004F00008F478C08091AB01882309F415C180917C
:10050000BD01882309F095CF8091B001882309F4BB
:1005100090CF80919101882309F08BCF812F0E9489
:100520009806812F0E943901D7CF82E091E00E9486
:10053000680A8C57934008F46ECF89EA0E949806A7
:1005400082E091E00E94470A66CF82E091E00E943B
:10055000470A8091AE01882379F48091940186390D
:1005600009F44AC1873908F02EC1833929F4A092D1
:10057000000180E00E94BA041092910143CF809163
:100580000001882309F4C4C080910001813009F47E
:10059000BFC080910001823009F02FCF82E091E04E
:1005A0000E94680A892B09F428CF86E90E949806E0
:1005B00024CF8D3709F480C08E3709F458C080E805
:1005C0000E94500189CF80912001813009F029CF0C
:1005D00083E291E00E94E707882309F422CF10927A
:1005E00020011FCF8091AB01882309F49DC0809129
:1005F000BD01882309F01DCF1F711093BB01E0924C
:10060000BD016ACF88E591E00E945C08823008F461
:1006100010CF83E291E00E945C088E3208F409CF8B
:1006200088E591E00E94430888E591E00E94430834
:10063000182F83E291E06FE70E94140883E291E0B3
:10064000612F0E941408103409F409C1113408F014
:10065000EAC0112309F406C1113031F060E083E2F1
:1006600091E00E941408E5CE60912101F8CF88E561
:1006700091E00E945C08833008F4DBCE88E591E0CD
:100680000E94430888E591E00E944308182F88E5FE
:1006900091E00E944308103409F4D5C0113408F0E9
:1006A000B4C0112309F4CBC0113009F0C2CE80735D
:1006B000806880932101BDCE88E591E00E945C08AE
:1006C000823008F4B6CE83E291E00E945C088E325C
:1006D00008F4AFCE88E591E00E94430888E591E0F8
:1006E0000E944308F82E0E94D9068C0197FDAEC0E7
:1006F00083E291E06DE70E94140883E291E06F2DA0
:100700000E94140883E291E0602F0E94140891CEA9
:1007100083E90E94980671CE80E20E94500181CE4A
:100720008CE90E94980669CE88E00E945001D4CEE0
:1007300083E291E06FEF0E941408E092200171CEF5
:100740001092A501110F1093AB018091AC01869519
:100750000E9498060E948F0682E091E00E94470A5C
:100760008091AE01882309F44AC08091AE018330A4
:1007700009F453C083E291E069E70E9414081092E3
:10078000AE011092AB018091210180688093A50198
:10079000A3CE6091BA01606883E291E00E941408E0
:1007A0001092BC013ECE8091AB01882309F0B4CFFA
:1007B000862F880F8093AB019092A50183E291E090
:1007C0000E9414082ECE8A39A1F08C3909F0D4CEBB
:1007D0001092000180E00E94CB04CECE82E091E036
:1007E0000E94680A892B09F408CE8AE90E949806BB
:1007F00004CEE0920001C0CEB0920001BDCE83E2F3
:1008000091E067E70E94140867CE1234A1F0133418
:1008100009F00FCE8093A5010CCE83E291E068E74A
:100820000E941408ACCF1234B9F0133409F016CF7B
:100830006091A50114CF8E7F8093AB01FACD8E7F9E
:100840008093AC01F6CD80932201F3CD83E291E059
:1008500069E70E941408EDCD6091AB0100CF609173
:100860002201FDCE6091AC01FACE1092C50087E264
:100870008093C4001092C00088E18093C10086E09C
:100880008093C2008FEF80938E0180938D01089535
:100890001F938091C00085FF0CC080918E0187FD61
:1008A00010C08A3060F0895C8093C6008FEF80931F
:1008B0008E018091C00087FD1BC01F910895805D4F
:1008C000F3CF83E291E00E94E707882391F783E268
:1008D00091E00E944308982F92959F709A3008F4F7
:1008E00047C0995C9093C6008F7080938E01E1CFD2
:1008F00088E591E00E945C08813370F51091C60094
:10090000812F80538A30C8F0812F8156863058F568
:10091000865F87FF12C060918D0167FD07C088E583
:1009200091E00E9414088FEF80938D018091C000A8
:1009300085FFC3CF1093C600C0CF60918D0167FDC6
:100940000FC06295607F682B88E591E00E941408D3
:100950008FEF80938D01B1CF81E00E945001ADCF28
:1009600080938D01AACF812F81548630A0F6D0CFFD
:10097000905DB8CF4FB7F8949091A50121E030E099
:1009800002C0220F331F8A95E2F720952923209376
:10099000A5014FBF08954FB7F8949091A50121E0AC
:1009A00030E002C0220F331F8A95E2F7922B90931A
:1009B000A5014FBF0895982F8A3931F18B39D0F0B6
:1009C0008C3911F1893AB9F180911A01E82FF0E0E0
:1009D000EA5FFE4F90838F5F80931A0180911A0126
:1009E0008431C0F080911B01882331F583E180932D
:1009F0001A0116C0833911F0863931F781E08093EE
:100A0000A8011092AF01089581E08093A80180931E
:100A1000AF01089590911A0180911B01981779F008
:100A20008091A50180648093A5018091A5018F77B5
:100A30008093A5010895089510921A01F1CF809135
:100A40001A01815080931A01EBCF1F920F920FB6BB
:100A50000F9211242F933F934F935F936F937F9344
:100A60008F939F93AF93BF93EF93FF9380918F01E9
:100A70009091900101969093900180938F018091C5
:100A8000B90090E0A0E0B0E0887F9070A070B070F6
:100A9000FC01893C9105A0F085EC8093BC00FF919E
:100AA000EF91BF91AF919F918F917F916F915F91E6
:100AB0004F913F912F910F900FBE0F901F9018955F
:100AC000EC5CFF4FEE0FFF1F0590F491E02D0994B1
:100AD00080919101843009F4F6C085E08093910102
:100AE0001092AE0181E08093B00185EDD6CF809168
:100AF000AD018F5F8093AD01A8951092A701109270
:100B0000A6011092B00110921D019091BB0080913E
:100B1000A9018150969589238093AA0185E8BDCFCC
:100B20008091BB0080931C01809191018230A9F6D5
:100B300080911C0187FD33C085E08093910183E0A3
:100B40008093AE0181E08093B00185EDA6CF9091B6
:100B5000BB0080911D01803150F480911D01E82F70
:100B6000F0E0EB56FE4F90838F5F80931D018091E4
:100B70001D018093930181E08093B00180919101E8
:100B8000833069F080919101813049F08091910129
:100B9000823029F080919101843009F07DCF85EE7B
:100BA0007CCF8091AD018F5F8093AD018091A501D5
:100BB0008093BB001092B0016FCF8091AD018F5F29
:100BC0008093AD011092A7011092A6011092B0017E
:100BD00010921D011092930185EC5FCF8091AD01C1
:100BE0008F5F8093AD0185EE58CF85E080939101B2
:100BF00081E08093AE018093B00185ED4ECF81E01E
:100C00008093B00190911D0180919301891708F0A4
:100C1000B5CF80911D0180939301B0CF8091BB002F
:100C20000E94DB0481E08093B001809191018330C8
:100C300009F0A8CF85EE31CF8091BB000E94DB0484
:100C400085E82BCF80919101843009F44FC0E09169
:100C50009401E093BB0085EC20CF8091AB018E7FA7
:100C60008093BB001092B00185EC17CF85E0809394
:100C7000910180919101843009F443C081E0809317
:100C8000AE0160CF9091BB0080911D01803108F0D2
:100C900003CF80911D01E82FF0E0EB56FE4F9083CB
:100CA0008F5F80931D0185ECF8CE80919101843097
:100CB00059F180919101813061F18091AB018160A6
:100CC0008093BB0077CF80911D01803108F005CF64
:100CD00080911D01E82FF0E0EB56FE4F90818F5F71
:100CE00080931D019093BB0085ECD7CE80911D01B0
:100CF000E82FF0E0EB56FE4FE0818F5F80931D01FF
:100D0000A8CF1092AE011ECF1092BB0010921D0111
:100D100051CF8091AB018E7F8093BB004BCF8091F0
:100D20009101882321F0809191018530C1F70895C8
:100D3000982F80919101882321F080919101853035
:100D4000C1F72FB7F8949093940197FD12C082E0F9
:100D5000809391018091B001882349F08091BC007B
:100D600084FDFCCF8091BC0080628093BC002FBFCB
:100D7000089581E080939101EDCF809191018823C6
:100D800021F0809191018530C1F79FB7F89484E0FC
:100D9000809391018091B001882349F08091BC003B
:100DA00084FDFCCF8091BC0080628093BC009FBF1B
:100DB0000895982F80919101882321F080919101CD
:100DC0008530C1F72091AB019093AB0183E0809314
:100DD00091018091B001882349F08091BC0084FD8D
:100DE000FCCF8091BC0080628093BC008091910117
:100DF000882321F0809191018530C1F72093AB01C8
:100E00008091AE01882331F480911C01282F30E0BD
:100E1000C90108952FEF3FEFC90108951F93182FBF
:100E200082508B3D10F410FF10C08FB7F8941092D1
:100E3000BA009091BC009F7B9093BC009FEF909371
:100E4000AC018FBF80E01F910895812F0E94D906C9
:100E500097FFEBCF9FB7F8941093BA00809192015F
:100E6000882329F08091BA0081608093BA00809134
:100E7000BC0080648093BC001093AC019FBF81E0F4
:100E8000E2CF81E08093B001109291011092AE0107
:100E90001092AD0110921B0110921A011092900154
:100EA00010928F011092A7011092A6011092940146
:100EB0008093B90087E18093B8008091AC018E7F68
:100EC0008093BA001092930110921D0180919201BB
:100ED000882329F08091BA0081608093BA0084E869
:100EE0008093BC008091A9018150880F8093BD0040
:100EF0000895613051F0623031F4882369F084360E
:100F000010F4880F08958FEF08958A30E0F7882352
:100F100029F08C59880F089588EC08958CED089578
:100F2000982FFB0182508B3D88F49695953638F0CA
:100F300081E080839E3638F49456892F089582E0AC
:100F400080839436D1F790E0892F0895108290E045
:100F5000892F0895DC0190911B0180911A01981747
:100F600019F190911B01E92FF0E0EA5FFE4F8081BB
:100F70008C939F5F90931B0180911B01843110F033
:100F800010921B0190911B0180911A01981711F08A
:100F900081E008959FB7F8948091A5018F7B80939D
:100FA000A5019FBF81E0089580E0089590911B0105
:100FB00080911A0120E0981711F0822F089521E006
:100FC000822F0895FC0112AA13AA14AA0895FC0105
:100FD00094A983A920E0981711F0822F089521E0A9
:100FE000822F0895FC0183A9813388F090E084A9C1
:100FF000891791F083A9813390F48F5F813389F44D
:1010000090E084A920E0891739F0822F0895982F65
:101010009F5F84A9891771F721E0822F089591E0DD
:10102000F0CF982F9F5FEDCFDC01D3968C91D397B3
:101030008133D0F090E0D4968C91D4978917D9F071
:101040009FB7F894D3968C91D397FD01E80FF11DCB
:101050006083D3968C91D397813378F48F5FD39646
:101060008C939FBF81E00895982F9F5FD4968C91B9
:10107000D497891729F780E0089580E0D3968C9360
:101080009FBF81E00895DC012FB7F894D4968C912E
:10109000D497FD01E80FF11D8081D4969C91D497DF
:1010A000913328F49F5FD4969C932FBF089590E0CE
:1010B000D4969C932FBF0895FC0193A984A99817F7
:1010C00030F423A984A92E5C281B822F089523A91C
:1010D00084A9281B822F0895DC012FB7F894D49699
:1010E0008C91D497FD01E80FF11D8081D4969C91DD
:1010F000D497913328F49F5FD4969C932FBF089583
:1011000090E0D4969C932FBF08951092BC0110924A
:10111000BD0180E890E090931F0180931E01089527
:101120001F93CF93DF93182FEB018091BD0188307F
:10113000B8F5823008F466C08091BB01188287FD43
:1011400001C186EB91E00E94680A449708F0E9C06B
:101150008091BC018730A8F5823008F43CC081EB57
:1011600091E00E94680A409790F1112309F037C17D
:1011700080911E0190911F01181619064CF4809160
:101180001E0190911F01019790931F0180931E01F2
:1011900081EB91E00E94680A449708F085C017C06F
:1011A0008830B1F681E0888386EB91E00E94680A7E
:1011B0004E9770F286EB91E00E94470A1092BD01B3
:1011C000C7CF873009F44AC0883009F4BEC0DF9128
:1011D000CF911F910895882309F089C01123B9F791
:1011E00081EB91E00E94470A81E08093BC0110925C
:1011F000BA0180E890E090931F0180931E01109245
:10120000B501E5CF813009F0A3CF8091BC018823DF
:1012100029F08091BC01883009F09ACF81EB91E0F0
:101220000E94680ACC9708F493CF188286EB91E06D
:101230000E94470A82E08093BD018091BB018F71BB
:101240008093BB018091BB01880F880F8093BB0105
:101250008091BB0183608093BB017ACF81EB91E0E9
:101260000E94680A409708F4B2CF112309F0A5C084
:1012700080911E0190911F01181619064CF480915F
:101280001E0190911F01019790931F0180931E01F1
:1012900081EB91E00E94680A0F9708F498CF809143
:1012A000BC01873009F4B7C08091BA01880F8093E0
:1012B000BA0180911E0190911F01803891052CF098
:1012C0008091BA0181608093BA018091BC018F5FE7
:1012D0008093BC0181EB91E064E170E00E94540ACC
:1012E00080E890E090931F0180931E0170CF8130C1
:1012F00009F06DCF112389F180911E0190911F019A
:101300008F3F91050CF47DC080911E0190911F01CB
:10131000873991059CF11092BC01DF91CF911F910B
:10132000089586EB91E064E170E00E94540A809198
:10133000BB01880F8093BB018091BD018F5F8093BB
:10134000BD0106CF81E08883FCCE81EB91E00E9455
:10135000680A039708F042CF3ACF80911E0190911E
:101360001F011816190684F680911E0190911F0125
:10137000019790931F0180931E01C6CF81EB91E0EE
:101380000E94680A0B9708F422CF80911E01909169
:101390001F01803891050CF0BECF82E08093BC0124
:1013A00080E890E090931F0180931E0181EB91E013
:1013B00068E070E00E94540A0ACF80911E0190916B
:1013C0001F018F3F91050CF063CF80911E0190911A
:1013D0001F01019690931F0180931E0159CF8091A8
:1013E0001E0190911F018F3F91050CF0D1CE80918D
:1013F0001E0190911F01019690931F0180931E0181
:10140000C7CE80911E0190911F01019690931F01FC
:1014100080931E0179CF112309F4D9CE80911E014A
:1014200090911F0120E0803891050CF421E0209379
:10143000B50188E08093BC0181EB91E00E94470AEE
:10144000C6CE82E08093B00084E08093B1008FE547
:101450008093B300E0E7F0E08081826080830895AC
:101460001F920F920FB60F9211248F939F9380912A
:10147000BE019091BF0101969093BF018093BE0180
:101480009F918F910F900FBE0F901F901895FC01A8
:101490002FB7F8948091BE019091BF019183808312
:1014A000138212822FBF0895FC0180819181860FE3
:1014B000971F91838083828193818617970728F0F5
:1014C000861B970B9383828308951382128208955B
:1014D000FC012FB7F8944091BE015091BF0180816B
:1014E0009181481B590B2FBF228133812417350767
:1014F00018F4538342839A01C9010895F999FECFE4
:1015000092BD81BDF89A992780B50895F894FFCFD0
:021510000100D8
:00000001FF
