:100000000C9479010C9496010C9496010C94960131
:100010000C9496010C9496010C9496010C949708FC
:100020000C9496010C9496010C9496010C94C601C4
:100030000C9496010C9496010C9496010C949601E4
:100040000C9448130C9496010C9496010C94960110
:100050000C9496010C9496010C9496010C949601C4
:100060000C9492090C949601202223252628292AF3
:100070002C2D2F3031323435363738393A3B3B3C32
:100080003D3D3E3E3E3F3F3F3F3F3F3F3E3E3E3D8C
:100090003D3C3B3B3A3938373635343231302F2D01
:1000A0002C2A292826252322201E1D1B1A18171644
:1000B000141311100F0E0C0B0A090807060505048E
:1000C0000303020202010101010101010202020314
:1000D00003040505060708090A0B0C0E0F1011137F
:1000E000141617181A1B1D1E5F5F5F69746C785F0A
:1000F0004544313030305F5F5F4E6F7620323620BE
:10010000323031375F5F5F31343A33343A30315F08
:100110005F5F3334305F5F5F000D0A202B2B2B2095
:100120000D0A0029206E6575202830203D2061755C
:1001300073293A202020202000617573000D0A20C9
:100140006B6F6D6D656E646520616E72756665209E
:100150007370657272656E206D69743A2028616BE8
:10016000742E20000D0A206B6F6E666967757261D0
:1001700074696F6E2065643130303020766572733B
:10018000696F6E2033343020646174756D204E6F5A
:100190007620323620323031370023740D6F2068DC
:1001A0006E6D0A6C726769706376657A64627379E2
:1001B000667861776A0F75716B0E23350D392023D0
:1001C0002C2E0A29342338303A3D332B173F27365B
:1001D000232F2D32070F3731280E206F6B2E200072
:1001E000206E65753A2020202020000D0A207765BA
:1001F000697465726C656974756E67656E2061629D
:1002000077656973656E3F20616B7475656C6C3AD8
:100210002000207363686F6E207665726765626583
:100220006E206F64657220756E6775656C746967A2
:100230002C20616E6465726520776165686C656EFF
:1002400021000D0A2070727565666520000D0A2078
:1002500064757263687761686C20616B7475656C36
:100260006C3A20000D0A2073706572727A656974A9
:1002700020776F6368656E656E642D616268616585
:100280006E6769673F20616B7475656C6C3A20001E
:100290000D0A202E2E2E206269733A200020766FE0
:1002A0006E3A20000D0A2073706572727A65697467
:1002B00020000D0A207A656974656E207669657282
:1002C0007374656C6C6967206F686E652070756EFD
:1002D0006B7420756E64206B6F6D6D612065696E47
:1002E000676562656E00206E65753A2020202020CB
:1002F000000011241FBECFEFD4E0DEBFCDBF11E060
:10030000A0E0B1E0EEECF0E302C005900D92A23067
:10031000B107D9F712E0A2E0B1E001C01D92AF3100
:10032000B107E1F70E94A6050C9465180C94000033
:1003300010920201109203011092250110922401E3
:10034000109280008AE080938100109282008FE8F2
:1003500090E09093890080938800EFE6F0E0808140
:1003600082608083089580E680937C0086EC809391
:100370007A0080917A0086FDFCCF80917A008061BE
:1003800080937A0081E080937E0008951F920F92FF
:100390000FB60F9211248F939F93EF93FF93909139
:1003A0002401809179008058E4E0F1E0E90FF11D2B
:1003B00080839F5F90932401809124018F718093AB
:1003C00024019091020180910301890F8093020121
:1003D000809102018F778093020180910201E8E60B
:1003E000F0E0E80FF11DE491E5B9EAE7F0E0808183
:1003F00080648083FF91EF919F918F910F900FBE4A
:100400000F901F901895BF92CF92DF92EF92FF92BC
:100410000F931F93CF93DF93B0906C01BB2029F112
:1004200080917001882309F187E080930301E091B6
:10043000650110916D010091680120916B01F090B0
:100440006101B0915D0190916401D0906A01309199
:100450005E014091690170916201E09063016091D9
:100460002501CC24C8E2D0E078C085E08093030168
:1004700081E080936E01DBCFE62FF0E0EC5FFE4F72
:10048000E0816F5F6F714E2F552747FD5095892F83
:10049000992787FD9095481B590B8DE928029001FB
:1004A0001124F7E50F02C0011124280F391FCA01DA
:1004B000A5E0880F991FAA95E1F7840F951F280FD3
:1004C000391F220F232F221F330BA22F2AE9B2023A
:1004D000C0011124BF2DFDEEBF0290011124820F37
:1004E000931F4C9F90014D9F300D5C9F300D112448
:1004F000820F931F880F892F881F990B982F8A2F9F
:10050000865A853B40F49B3534F4963A24F0112307
:1005100021F0115002C018E202C0112311F0589AC4
:1005200001C05898492F47FD41953A2F37FD319525
:1005300034173CF4723318F0EE24E39407C07F5F65
:1005400005C0772311F4EE2401C07150C394202F0D
:100550000A2FBF2DF92E9D2DDE2E809124016817C4
:1005600009F08ACFE093650110936D010093680153
:1005700020936B01F0926101B0935D01909364014F
:10058000D0926A0130935E014093690170936201D9
:10059000E092630160932501EE2051F021E0209369
:1005A0006F0110926E0180915F01882349F50BC0A5
:1005B00080916E01882321F081E080936F0110C04B
:1005C00010926F010DC080916601909167018C0DB2
:1005D000911D35E080309307C0F020935F0110C07B
:1005E00080915F01882361F080916601909167019D
:1005F0008C0D911DB9E180309B0738F010925F019E
:10060000109267011092660104C090936701809375
:100610006601BB2039F080917001882311F45B9A48
:1006200001C05B9880915F01882389F080918A01E5
:1006300090916F0184FF06C0992311F4599A07C065
:10064000599805C0992311F45A9A01C05A98DF911C
:10065000CF911F910F91FF90EF90DF90CF90BF90BF
:100660000895CF92DF92EF92FF920F931F93DF9343
:10067000CF93CDB7DEB728970FB6F894DEBF0FBE85
:10068000CDBF8E010F5F1F4FC8010E94AE08B5E0BD
:10069000EB2EF12CEC0EFD1EC7010E94AE08CC24FF
:1006A000C394D02E012F1E2DEF2CC0926C01C0924E
:1006B00070010E94030280915F01882321F48D2D37
:1006C000902F0E94AE08812F9E2D0E94CF08895541
:1006D0009B4148F010926C0181E0809370010E9470
:1006E000030280E008C08D2D902F0E94CF088C520D
:1006F0009140D8F281E028960FB6F894DEBF0FBE85
:10070000CDBFCF91DF911F910F91FF90EF90DF90C0
:10071000CF900895EF92FF920F931F93DF93CF93A3
:1007200000D000D0CDB7DEB780915F01882331F0D3
:1007300080916C01882311F40E9431038E010F5FB8
:100740001F4FC8010E94AE08EE24E394F02E012F43
:1007500010926C01E09270010E94030280915F018F
:10076000882321F08F2D902F0E94AE088F2D902F7F
:100770000E94CF08845F914058F30F900F900F9024
:100780000F90CF91DF911F910F91FF90EF900895FF
:10079000DF93CF9300D000D0CDB7DEB77C0180E8E7
:1007A0008093BC008E010F5F1F4FC8010E94AE08EE
:1007B000BB24DD24C02E012F91E0492E512C4E2068
:1007C0005F2082E0682E712C6E207F2014E0812E45
:1007D000912C8E209F2028E0E222FF2402C0BB241F
:1007E000B394A8958C2D902F0E94CF0881599140E9
:1007F000F0F08C2D902F0E94AE08319905C084E056
:100800008D1568F3D394EDCFDD2059F3DA9449F7D1
:10081000BB2039F3F8942EE088E190E00FB6F8940D
:10082000A895809360000FBE20936000FFCFBB208F
:10083000F1F48C2D902F0E94CF08893C9105B8F0DF
:100840004114510411F0589A01C058986114710470
:1008500011F0599A01C059988114910411F05A9AD3
:1008600001C05A98E114F10429F05B9ABACF589864
:1008700059985A985B98B5CFAF92BF92CF92DF92BA
:10088000FF920F931F93DF93CF9300D000D0CDB78B
:10089000DEB7F82ECE0101960E94AE0880E00E94DD
:1008A0008413FF2051F083E0F81639F082E0F81647
:1008B00011F081E003C084E001C082E090E024EF09
:1008C00031E0829F5001839FB00C929FB00C1124A5
:1008D0002CE231E0829F6001839FD00C929FD00C6C
:1008E00011248E010F5F1F4F0E94E5088091730154
:1008F000882329F0109273010E949F162FC00E9436
:10090000030280915F01882349F5C8010E94CF0846
:10091000A816B90620F4C8010E94AE0809C0C80193
:100920000E94CF08C816D90610F45B9A01C05B98E4
:10093000809178018823C1F2609178018AE791E083
:100940000E946A15882339F082E0F81621F40E948B
:100950003C16882319F010927801C6CF5B9881E08D
:100960000E9484130F900F900F900F90CF91DF9102
:100970001F910F91FF90DF90CF90BF90AF9008959F
:1009800010920F028093A00181E08093A20108C021
:1009900080916F0160E771E00E945F0E0E94030288
:1009A0008091A2018823A1F708951092DA010E9494
:1009B000030280916F0160E771E00E945F0E8091F9
:1009C000A101883051F480919F0169ED71E00E948E
:1009D0008E0C1092A101882321F480915F0188235D
:1009E00031F70895DF92EF92FF920F931F93DF93F9
:1009F000CF9300D000D0CDB7DEB7E82E8E010F5FC9
:100A00001F4FC8010E94AE0881E00E94F50F81E0EF
:100A100080930F028093DA01DD24D394F02E012F0E
:100A200001C0EE240E9403020E94E50880915F014C
:100A3000882361F40E949B130E948A0302C00E94D3
:100A400003020E94F80F8823D1F356C00E94F80FCA
:100A5000882331F00E948A0380E00E949B134CC0DF
:100A60000E94F20F809370018091A201823060F4A5
:100A700080916F010E94F50F07C08BED91E00E94FD
:100A8000D4148F3109F0EE248BED91E00E94841490
:100A9000882399F3EE2011F18F2D902F0E94CF081B
:100AA000DD2019F428E833E102C024EF31E0821799
:100AB0009307A0F085EA91E06BE10E94AD1485EA0E
:100AC00091E06BE10E94AD1485EA91E062E10E9441
:100AD000AD148F2D902F0E94AE08DD248F2D902F06
:100AE0000E94CF08895E934008F49CCF80916F01EB
:100AF000882309F496CF96CF0F900F900F900F9008
:100B0000CF91DF911F910F91FF90EF90DF900895AB
:100B1000DF93CF9300D0CDB7DEB769ED71E0AE01C2
:100B20004F5F5F4F9E012E5F3F4F0E94C30C882393
:100B300041F089810E94C0048A818F3F11F00E9498
:100B4000C0040F900F90CF91DF910895AF92BF92A4
:100B5000CF92DF92EF92FF920F931F93DF93CF9389
:100B6000CDB7DEB728970FB6F894DEBF0FBECDBF66
:100B70002FE088E190E00FB6F894A895809360008C
:100B80000FBE20936000509A519A529A539A209A1D
:100B9000219A229A239A249A259A3898409839982B
:100BA000419A589A0E94B3010E94880810926B01E2
:100BB0001092680110925E0110925D011092610125
:100BC000109269011092640110926A0110926501FD
:100BD0001092630110926C0110925F0181E080938A
:100BE000700180936F010E9498010E94E91580E0D6
:100BF00090E00E9434188E7F8093910182508B3D4B
:100C000018F086E68093910181E080938E018093B5
:100C1000770186E190E00E9434181092A3018130A0
:100C200011F48093A30181E090E00E943418809336
:100C30006001843610F01092600182E090E00E9422
:100C40005D1710926C0181E08093700110925F013A
:100C500080936F010E940F14CE0101960E94AE088E
:100C600078948E010F5F1F4FC8010E94CF088A3F02
:100C70009105D0F3E6B05898599A0E94F30B8E0173
:100C80000F5F1F4FC8010E94CF08845F9140D0F3CF
:100C900059985A9A8E010F5F1F4FC8010E94CF08C2
:100CA0008E5E9240D0F35A985B9A80E98093BC00A4
:100CB0008E010F5F1F4FC8010E94CF08885F9240CE
:100CC000D0F385EC8093BC008E010F5F1F4F34E1A1
:100CD000F32EC8010E94CF08409191014F9D9001D1
:100CE000112428513C4F8217930798F3E1FC48C028
:100CF00010926C0110925F011092700110926F01BE
:100D0000C8010E94AE08FF24F3948E010F5F1F4FAD
:100D1000319903C01092700105C0F0927001C801B2
:100D20000E94AE080E94030280916C01882311F09A
:100D3000589A01C0589890915F01992311F0599ADF
:100D400001C0599880917001882311F05A9A01C00E
:100D50005A9880916F01882311F05B9A01C05B98CB
:100D6000992349F4C8010E94CF08895E934018F482
:100D700080E090E002C081E090E080936C01C8CFF9
:100D8000842F0E94C00B10926C0181E0809370014F
:100D90005E010894A11CB11C25E0C22ED12CCC0E02
:100DA000DD1EC5010E94CF08815B944060F0C50143
:100DB0000E94CF088957954040F4809191018F3F60
:100DC00011F4589A05C0589803C0C5010E94AE0896
:100DD00059985A985B980E94E5080E9403028091F6
:100DE0007301823009F074C0109273010E94540E96
:100DF00080E00E948413589A0E943103882309F4EA
:100E00005FC084E691E00E9472140E94D80D082F02
:100E10001091910180E090E00E943418181729F099
:100E200080E090E0612F0E9442181091A30186E1BA
:100E300090E00E943418212F30E090E02817390705
:100E400029F086E190E0612F0E9442180023C1F151
:100E50008DE391E00E94721480916001882321F05B
:100E600062E00E94401404C089E391E00E94721481
:100E700083E291E00E94721480E691E062E00E94B9
:100E8000A20D87FD1DC01091600181E090E00E94DD
:100E90003418181729F081E090E0612F0E94421861
:100EA0008AED91E00E9472140E94F216882341F0AC
:100EB00082E090E00E94B01789E191E00E947214F4
:100EC0000E948A0381E00E94841358981092730153
:100ED000809173018130B9F4109273015B9A80E0C4
:100EE0000E94841302C00E94E50880917301882348
:100EF000D1F31092730181E00E9484135B9858989B
:100F000080E00E943C0480915F01882309F4C1C005
:100F1000809191018F3F19F40E948A03BAC00E9408
:100F20009F16599A0E94CF13882321F0813009F02F
:100F3000ACC002C05998ADC00E943103882309F4A7
:100F400090C00E94540E8BE10E94C004C6010E9412
:100F5000AE0800E010E0EE24FF240E94030280911E
:100F60006F0160E771E00E945F0EEE2009F070C033
:100F70008091A101883091F580919F0169ED71E028
:100F80000E948E0C1092A101982F90539A3030F449
:100F9000892F0E942510FF24F39417C08C3659F432
:100FA000FF2089F48FE60E94880583E60E94880569
:100FB000EE24E3940AC0882341F0803231F08D3072
:100FC00021F08A3011F00F5F1F4FC6010E94AE085A
:100FD00005C08FE30E9488050150104001151105DE
:100FE00031F0C6010E94CF08883C910590F70E941D
:100FF000DE0F882309F086C0C6010E94CF08FF20BB
:1010000029F428E93AE340E050E004C028EC3FEA44
:1010100040E050E0A0E0B0E0281739074A075B073E
:10102000BCF4589A81E00E949B1380E00E948413D4
:10103000FF2029F00E948A0302C00E9403028091CF
:101040005F018823D1F7589881E00E94841309C07A
:1010500080915F01882329F00E94F80F882309F40A
:101060007CCF81E00E949B130E948A0380916001E3
:10107000882379F00E94EF0F90916001891749F45D
:10108000599883E00E943C0404C08FE090E00E94E5
:10109000C8030E94DE0F8823F1F00E9403025A9ACF
:1010A000589A0E943103882331F45A9881E00E94B3
:1010B0003C04589810C058980E94CF13823041F0D9
:1010C00081E00E949B1381E090E00E948A0303C0AC
:1010D00080E00E94F20480917801882309F461CEB7
:1010E000609178018AE791E00E946A15882339F0BF
:1010F0000E943C16882319F082E00E943C04109262
:1011000078014FCE81E00E94F2040E949F16C1CF69
:1011100082E08093B00084E08093B10085EE8093FC
:10112000B300E0E7F0E080818260808308951F9241
:101130000F920FB60F9211248F939F93809171019C
:1011400090917201019690937201809371019F9129
:101150008F910F900FBE0F901F901895FC012FB725
:10116000F894809171019091720191838083138230
:1011700012822FBF0895FC0180819181860F971FF5
:1011800091838083828193818617970718F4138255
:1011900012820895861B970B938382830895FC0126
:1011A0008FB7F89440917101509172012081318183
:1011B000421B530B8FBF828193818417950710F4D4
:1011C00053834283828193810895809126018130E7
:1011D000A9F0813018F0823039F522C0319909C068
:1011E00087E291E00E94CF08C397F0F081E08093FE
:1011F000260187E291E00E94AE08089531990BC064
:1012000087E291E00E94CF088152934068F082E02B
:101210008093260102C010922601809373010895E5
:10122000319B02C01092260108951092730103C0F1
:10123000A8950E94E508809173018823C9F38091E5
:1012400073011092730190E0823009F491E0892FCC
:1012500008954FB7F89490918A0121E030E002C0E0
:10126000220F331F8A95E2F72095292320938A01C4
:101270004FBF08954FB7F89490918A0121E030E074
:1012800002C0220F331F8A95E2F7922B90938A01B6
:101290004FBF0895982F8A3991F08B3928F48339FC
:1012A00041F0863991F405C08C3949F0893A69F4E6
:1012B000089581E080938D0110929401089581E05A
:1012C00080938D0180939401089580913F01E82FD0
:1012D000F0E0E55DFE4F90838F5F80933F0180914A
:1012E0003F01843148F080914001882311F483E16B
:1012F0000CC010923F010BC090913F0180914001C2
:10130000981729F480913F01815080933F0180918B
:101310008A01806480938A0180918A018F7780930B
:101320008A0108951F920F920FB60F9211242F93E6
:101330003F934F935F936F937F938F939F93AF935D
:10134000BF93EF93FF938091740190917501019683
:1013500090937501809374018091B90090E0887F2B
:1013600090708036910509F4F5C081369105CCF571
:101370008832910509F4A8C089329105B4F480310E
:10138000910509F480C0813191053CF4009709F47E
:10139000B7C0089709F061C165C08831910509F4AB
:1013A00076C0809709F059C186C08034910509F450
:1013B000E8C08134910544F48033910509F484C078
:1013C000C89709F04AC1A1C08035910509F4AAC0A7
:1013D0008835910509F4A6C08834910509F03DC10E
:1013E0009AC08839910509F404C189399105ECF452
:1013F0008837910509F4DBC0893791054CF48836AC
:10140000910509F4A2C08037910509F026C1D4C026
:101410008838910509F4B7C08039910509F4D7C01F
:101420008038910509F019C1A8C0803B910509F4E5
:10143000F5C0813B91054CF4803A910509F4A8C0B0
:10144000883A910509F009C1EEC0803C910509F484
:10145000F1C0883C910509F4EDC0883B910509F085
:10146000FCC0E1C080917601843029F41092BB0069
:1014700010924201DCC080917601813021F0809190
:1014800090018160D2C0809190018E7FCEC080910A
:101490007601843059F480914201E82FF0E0E6585B
:1014A000FE4FE0818F5F8093420102C0E09179019D
:1014B000E093BB00D2C085E08093760180917601F5
:1014C0008430E1F081E03EC080917601843099F46F
:1014D0009091420180917801981768F480914201BF
:1014E000E82FF0E0E658FE4F90818F5F8093420135
:1014F0009093BB00B2C085E0809376011092930177
:1015000081E08093950185E5ABC0809192018F5F6A
:1015100080939201A4C085E08093760181E080935E
:101520009301EFCF8091BB008093410180917601C0
:10153000823009F78091410187FD91C085E0809359
:10154000760183E080939301DBCF809192018F5FDE
:1015500080939201A89510928C0110928B011092A9
:101560009501109242019091BB0080918E018150B3
:101570009695892380938F0104C08091BB000E94BF
:101580004A0985E06DC08091BB000E944A0952C0A3
:1015900081E08093950190914201809178018917B3
:1015A00008F04BC0809142018093780146C0809141
:1015B00092018F5F8093920110928C0110928B01A7
:1015C00010929501109242011092780146C09091BC
:1015D000BB0080914201803108F03FC08091420100
:1015E000E82FF0E0E658FE4F90838F5F8093420132
:1015F00034C09091BB0080914201803150F48091C1
:101600004201E82FF0E0E658FE4F90838F5F809311
:10161000420180914201809378010CC08091920137
:101620008F5F8093920180918A018093BB0010921A
:10163000950113C081E080939501809176018330FC
:1016400071F080917601813051F080917601823085
:1016500031F080917601843011F085E401C085E697
:1016600080688093BC00FF91EF91BF91AF919F91F3
:101670008F917F916F915F914F913F912F910F903B
:101680000FBE0F901F90189580917601882321F04E
:10169000809176018530C1F70895982F8091760169
:1016A000882321F0809176018530C1F72FB7F89417
:1016B0009093790197FF02C081E001C082E080939E
:1016C000760180919501882349F08091BC0084FDCA
:1016D000FCCF8091BC0080628093BC002FBF089536
:1016E00080917601882321F0809176018530C1F7C1
:1016F0009FB7F89484E080937601809195018823C8
:1017000049F08091BC0084FDFCCF8091BC008062D8
:101710008093BC009FBF0895982F80917601882305
:1017200021F0809176018530C1F72091900190934E
:10173000900183E08093760180919501882349F0A0
:101740008091BC0084FDFCCF8091BC0080628093BE
:10175000BC0080917601882321F08091760185304C
:10176000C1F72093900180919301882319F02FEF06
:101770003FEF04C080914101282F30E0C901089556
:101780001F93182F82508B3DF0F410FD1CC0812F49
:101790000E948C0B97FF17C09FB7F8941093BA0064
:1017A00080917701882329F08091BA00816080932D
:1017B000BA008091BC0080648093BC0010939101BA
:1017C0009FBF81E00EC08FB7F8941092BA0090913D
:1017D000BC009F7B9093BC009FEF909391018FBFC3
:1017E00080E01F91089581E0809395011092760129
:1017F00010929301109292011092400110923F01B9
:10180000109275011092740110928C0110928B014C
:10181000109279018093B9008BE38093B800809196
:1018200091018E7F8093BA0010927801109242014C
:1018300080917701882329F08091BA00816080939C
:10184000BA0084E88093BC0080918E018150880F9B
:101850008093BD000895613041F48A3080F488237C
:1018600011F48CED08958C5908C0623041F488233E
:1018700011F488EC0895843610F4880F08958FEFE2
:101880000895982FFB0182508B3D10F010820DC0FF
:101890009695953630F081E080839E3630F49456EC
:1018A00005C082E08083943609F490E0892F089582
:1018B000DC019091400180913F01981711F480E084
:1018C000089590914001E92FF0E0E55DFE4F8081A1
:1018D0008C939F5F9093400180914001843110F080
:1018E000109240019091400180913F01981711F0B2
:1018F00081E008959FB7F89480918A018F7B80934F
:101900008A019FBF81E008959091400180913F013D
:1019100020E0981709F421E0822F0895FB0120812F
:10192000922F9D7F90838B3119F49160908304C036
:101930008F3121F42C7F208380E00895E82FF0E0A0
:1019400090FF04C0E654FE4F84910895E656FE4F82
:1019500084910895282F60FF03C0EAEBF1E002C0F4
:10196000EAE9F1E0822F81548A3108F4205E90E0A8
:101970008491281731F09F5F903211F03196F8CFA3
:101980009FEF892F0895CF92DF92EF92FF921F93DE
:10199000CF93DF93182FEB017A0169018FEFF901E3
:1019A0008083812F81548A3108F4105E688161FF41
:1019B00009C0173159F0812F0E94AA0CF7018083CA
:1019C0008F3F19F51F30D9F01E3041F0812F60E0B4
:1019D0000E94AA0CF60180838F3F39F08FE1F70156
:1019E000808388818E7F82600FC0812F61E00E949A
:1019F000AA0CF60180838F3F11F480E007C08BE1D1
:101A0000F701808388818360888381E0DF91CF91B3
:101A10001F91FF90EF90DF90CF900895FF920F936A
:101A20001F93CF93DF93EC01F62E10E000E001C08E
:101A300000E20E94D5048A30A9F08B3028F4882374
:101A400051F0893051F5F5CF803221F1833289F39D
:101A50008D3019F507C0112319F0C10FD11D18825F
:101A600080E035C0112389F4002319F3802F8D52B3
:101A7000823060F10B3251F10D3341F10F3231F10F
:101A8000003229F00883198203C0C10FD11D1882CA
:101A900082E01DC0112361F202C0803250F21F1596
:101AA00040F6112369F4002311F4082FC2CF00324D
:101AB00019F4888311E0BDCF0883898312E0B9CF80
:101AC000FE01E10FF11D80831F5FB3CF81E0DF9145
:101AD000CF911F910F91FF900895CF93DF93EC0169
:101AE0000E94D5048A3431F18B3490F4803329F18B
:101AF000813348F48D3209F18E32D0F48823B1F06D
:101B00008B3271F717C08133A9F08D3349F710C0BC
:101B10008A3681F08B3628F48E3479F0893501F7D6
:101B200009C08E3651F08937D9F604C080E007C06D
:101B300081E005C081E0888301C0188282E0DF91E6
:101B4000CF910895FF920F931F93CF93DF93EC01F2
:101B5000062F10E08AE0F82E0E94D504282F80532B
:101B60008A3068F4112331F088818F9DC0011124DF
:101B70008053820F88831F5F101771F712C0822F66
:101B80008D52823070F02B3261F02D3351F02F32B4
:101B900041F0222311F48FEF05C02930E9F211231F
:101BA000D9F2812FDF91CF911F910F91FF9008956E
:101BB000EF92FF920F931F93DF93CF9300D0CDB797
:101BC000DEB78E010F5F1F4F92E0E92EF12CEC0E75
:101BD000FD1E80919101B8010E94410C8A838DE421
:101BE00092E00E9472148A8169810E94401480EE02
:101BF00091E00E947214C70162E00E94A20D87FD6D
:101C000049C0882339F480919101B8010E94410CA8
:101C10008A8301C0898390918E0191958A8189235D
:101C20008A8382E492E00E9472148A8169810E9410
:101C3000401480E20E9488058A8169810E942B0CF1
:101C40000E94C00B882371F08AED91E00E9472140B
:101C50008BEE91E00E9472148091A301882339F0E9
:101C60008AE606C082E192E00E947214B2CF8EE64C
:101C70000E94880580EE91E00E94721483EA91E050
:101C80000E946D0D882331F08AED91E00E9472145C
:101C900081E001C080E00F900F90CF91DF911F9104
:101CA0000F91FF90EF9008951092A1011092A20160
:101CB00080E890E0909344018093430108951F933E
:101CC000CF93DF93182FEB018091A201883030F47D
:101CD000823088F5813009F05AC004C0883009F09C
:101CE00056C047C08091A101882329F08091A101AD
:101CF000883009F04CC086E991E00E94CF08CC976B
:101D000008F445C018828BE991E00E94AE0882E099
:101D10008093A2018091A0018F718093A001809196
:101D2000A001880F880F8093A0018091A00183609B
:101D30008093A0012CC08091A001188287FF02C06F
:101D400081E088838BE991E00E94CF084497F8F006
:101D50008BE991E064E170E00E94BB088091A001F2
:101D6000880F8093A0018091A2018F5F8093A201D0
:101D70000EC081E088838BE991E00E94CF084E97E6
:101D800030F08BE991E00E94AE081092A2018091A0
:101D9000A101873048F4823008F06FC0882389F0B1
:101DA000813009F0FFC022C0873009F494C0883028
:101DB00009F0F8C086E991E00E94CF08039708F483
:101DC000F1C0112309F0EEC086E991E00E94AE084F
:101DD00081E08093A10110929F0180E890E09093B0
:101DE00044018093430110929A01DCC0112369F0F1
:101DF00080914301909144018F3F9105B4F480910B
:101E000043019091440101960CC08091430190914F
:101E10004401181619064CF4809143019091440135
:101E200001979093440180934301809143019091E5
:101E3000440187399105F4F486E991E00E94CF08C6
:101E40000B9708F4AFC08091430190914401803812
:101E5000910584F482E08093A10180E890E0909362
:101E600044018093430186E991E068E070E00E94BC
:101E7000BB0898C01092A10195C086E991E00E942C
:101E8000CF08409708F48EC0112369F08091430178
:101E9000909144018F3F9105B4F48091430190915A
:101EA000440101960CC080914301909144011816A1
:101EB00019064CF48091430190914401019790934D
:101EC00044018093430186E991E00E94CF08449742
:101ED00008F046C067C086E991E00E94CF084097AD
:101EE00008F460C0112369F080914301909144018E
:101EF0008F3F9105B4F48091430190914401019684
:101F00000CC08091430190914401181619064CF4BD
:101F100080914301909144010197909344018093F3
:101F2000430186E991E00E94CF080F97D8F1809194
:101F3000A1018730A9F41123A9F180914301909167
:101F4000440120E0803891050CF421E020939A01AF
:101F500088E08093A10186E991E00E94AE0822C04A
:101F600080919F01880F80939F0180914301909100
:101F70004401803891052CF080919F01816080930D
:101F80009F018091A1018F5F8093A10186E991E07B
:101F900064E170E00E94BB0880E890E09093440107
:101FA00080934301DF91CF911F9108958091A40107
:101FB00090E0882309F491E0892F08958091A4018D
:101FC000833031F08091A40120E030E0843011F4BE
:101FD00021E030E0822F089580918F010895809153
:101FE0004A0108958091480108958093470108951A
:101FF0008091A401882331F08091A40120E030E099
:10200000853011F421E030E0822F089585EA91E0D7
:102010000E9484140895CF93DF93EC018BED91E03F
:102020000E948414882311F080E006C08BED91E0BB
:102030000E94D414888381E0DF91CF910895682FA6
:1020400085EA91E00E94AD140895682F8091A40163
:10205000823049F480914B01882329F085EA91E090
:102060000E94AD14089589E090E00E94C80308958D
:1020700085EA91E00E948D140895DF93CF9300D0FC
:10208000CDB7DEB769ED71E0AE014F5F5F4F9E01E6
:102090002E5F3F4F0E94C30C882379F085EA91E0C0
:1020A00069810E94AD14882349F06A816F3F29F04D
:1020B00085EA91E00E94AD14811181E00F900F90AC
:1020C000CF91DF910895EF92FF920F931F93DF93CB
:1020D000CF930F92CDB7DEB78C017E010894E11C3F
:1020E000F11CC7010E940B10882351F0898169ED12
:1020F00071E00E948E0CF8018083882391F381E0C7
:102100000F90CF91DF911F910F91FF90EF90089565
:10211000FF920F931F93082F8091A401081709F4D1
:10212000CEC0FFB6F89410924B01033009F45AC0A8
:10213000043028F40130A9F10230E0F517C0053071
:1021400009F4A7C0053008F467C0063009F4AAC036
:10215000073009F0B1C080918A018F7780938A019E
:1021600080918A018F7E80938A0118C080918A01B4
:10217000807480938A0180918A01806880938A01AB
:102180008091A301882329F080918A018061809346
:102190008A0181E080934701809348011092900169
:1021A0008BC080918A018F7780938A0180918A0108
:1021B0008F7E80C080918A018F7780938A01809181
:1021C0008A018F7E80938A011092490110924A0100
:1021D00081E080934B0185EA91E00E948014109287
:1021E000D9016AC080918A018F7780938A0180919A
:1021F0008A018F7E80938A0180918A018061809319
:102200008A0180918A01886080938A0181E08093AD
:1022100094018093480150C080918A0187FF0FC0CC
:1022200080918A018F7780938A0180918A018F7EC5
:1022300080938A0180918A01806180938A018091D4
:102240008A01806280938A0180918A0182608093F2
:102250008A0180918A01846080938A0180918A0139
:10226000816080938A0111E01093000185EA91E07A
:102270000E9480148BED91E00E9480141092D9018D
:102280000E94540E1093940110934701109348013B
:1022900013C080918A018F7D80938A0180918A0189
:1022A000877F08C080918A018F7D80938A01809109
:1022B0008A018D7F80938A010093A401FFBE1F9144
:1022C0000F91FF9008950E94440B80914A01609104
:1022D00049010E942B0C8093900180919101869579
:1022E0000E944D0B0E94440B8CE491E00E94AE08CA
:1022F00080919301882369F482E080934B0183EA03
:102300000E944D0B0E94440B8CE491E00E94AE08A9
:10231000089580919301833059F4109293011092A3
:10232000900185E00E94881082E68093460108951E
:10233000109293011092900180914901823030F007
:1023400085E00E94881088E78093460108951F93D6
:10235000DF93CF9300D0CDB7DEB7CE0101960E94B8
:10236000580C882309F443C08091A401873021F4DC
:1023700081E090E00E94C8039981953AE9F0963A8D
:1023800028F4903850F0933A91F510C09A3A11F130
:102390009C3A31F1963A59F515C08091A4018823F1
:1023A00031F5990F9093900181E01FC08091A401B5
:1023B0008130E9F483E019C08091A4018230B9F43E
:1023C00084E013C08091A401823089F483E080937B
:1023D0004B010DC08091A401882349F085E005C020
:1023E0008091A401863019F480E00E9488108091C9
:1023F000A401843009F444C0863009F4E8C0823076
:1024000009F0EFC085EA91E00E948414882309F066
:10241000E8C080914B01823009F4E3C085EA91E085
:102420000E94D414182F809149018F5F8093490135
:1024300080914B018130B1F480914901813019F4D0
:1024400010934A010DC080914901823059F4809166
:102450004A012AE0829FC0011124810F80934A0122
:102460000E94631180914B01833009F0BAC0812F23
:1024700080550E944D0B8CE491E00E94AE08B1C0E3
:1024800080918D01882359F080919401882321F057
:1024900082E00E943A0903C082E00E94290985EA8D
:1024A00091E00E948414882369F48091A20188231A
:1024B00049F485EA91E00E94D4148093A00181E060
:1024C0008093A2018091DA01882319F48091470159
:1024D00019C0813019F48091940114C0823089F4BC
:1024E00080919401882319F480E090E00BC08091E2
:1024F000470190E0882309F491E081E09827892F33
:1025000001C081E0BE016E5F7F4F0E945F0E80912F
:10251000A101883041F460919F018BED91E00E9410
:10252000AD141092A1018091940180934801109103
:1025300047018091A2018823A9F08091A2018130F6
:1025400089F080910F02882321F48A8180934801C9
:1025500009C0813011F41A8105C0823019F41A8142
:1025600010934801112321F080E00E943A0903C032
:1025700080E00E94290980919501882391F1809142
:102580007601882371F5112381F08091000182305A
:1025900021F080910001833011F48CE90FC080910B
:1025A00000018823F1F48AE909C0809100018823A1
:1025B00021F080910001813021F483E90E944D0BCC
:1025C00010C080910001823061F486E9F7CF80E588
:1025D00091E00E94CF08815A9F4018F080E00E944D
:1025E000881080917601853011F58CE491E00E948D
:1025F000AE08809193018823C1F4809179018639D6
:1026000061F0873918F4833981F405C08A3951F0B3
:102610008C3959F404C082E006C083E004C01092F3
:10262000000103C081E08093000110927601809147
:1026300090018823D1F0809195018823B1F0809199
:102640007601882321F080917601853071F48CE445
:1026500091E00E94CF088251934038F089EA0E94AD
:102660004D0B8CE491E00E94AE088091900188238C
:1026700041F08091A401863021F08091A401853041
:1026800009F4A8950F900F90CF91DF911F910895B5
:102690001F920F920FB60F9211242F933F934F93D7
:1026A0005F936F937F938F939F93AF93BF93EF93BA
:1026B000FF93809145018823B1F481E08093450127
:1026C00080916E008E7F80936E0078940E94A71197
:1026D00088E486BD81E085BB80916E008160809337
:1026E0006E0010924501FF91EF91BF91AF919F91C4
:1026F0008F917F916F915F914F913F912F910F90AB
:102700000FBE0F901F9018951F93182F8091A40152
:10271000882341F08091A401873021F08AE090E085
:102720000E94C803112311F080E001C087E00E94DD
:1027300088101F9108951F93182F8091A40188235A
:1027400061F180919001882319F40E94881025C0BE
:1027500081E0809345018091A401853049F48CEAA1
:102760000E944D0B0E94440B80E00E9488100AC01A
:102770008AEA0E944D0B86E00E94881080E591E075
:102780000E94AE081092450102C00E94A7118091DC
:10279000A401863011F41123C1F71F91089580918F
:1027A000A401833091F481E08093450185EA0E9481
:1027B0004D0B0E94440B89EA0E944D0B84E00E945D
:1027C00088101092450182E00895809191018F3F19
:1027D00011F480E008958091A401882321F088E01D
:1027E00090E00E94C80381E0809345019FB7F89470
:1027F00080918A018F7780938A0180918A018F7EF0
:1028000080938A0180918A018F7E80938A019FBF85
:1028100082E00E9488101092450181E0089514BC66
:1028200082E085BD80916E00816080936E0080E8BB
:1028300080938A018091A301882329F080918A01E5
:10284000806180938A010E94540E80E00E9488106B
:1028500085EA91E00E9480148BED91E00E94801443
:102860001092450181E080930F028093DA01089570
:102870008A3010F4805D01C0895A0E94880508954D
:102880001F93282F362F6AE00E941418482F822F9A
:102890000E941418192F442311F432302CF03150B7
:1028A000842F632F0E944014812F0E9438141F919F
:1028B00008951F93182F82958F700E943814812FCE
:1028C0008F700E9438141F910895CF93DF93EC010D
:1028D00003C00E948805219688818823D1F7DF9163
:1028E000CF910895CF93DF93EC0103C00E94880538
:1028F0002196FE0184918823C9F7DF91CF91089535
:10290000FC0112AA13AA0895FC0193A982A920E050
:10291000981709F421E0822F0895FC0182A98133E0
:1029200010F090E002C0982F9F5F83A9981789F05C
:1029300082A9813310F080E005C08F5F813311F4EC
:1029400090E002C0982F9F5F83A920E030E09817A5
:1029500011F421E030E0822F0895DC01D2968C91B1
:10296000D297813310F090E002C0982F9F5FD396EA
:102970008C91D397981711F480E008959FB7F8943D
:10298000D2968C91D297FD01E80FF11D6083D2960B
:102990008C91D297813310F080E001C08F5FD29686
:1029A0008C939FBF81E00895DC012FB7F894D396F4
:1029B0008C91D397FD01E80FF11D8081D3969C91F6
:1029C000D397913310F090E001C09F5FD3969C9312
:1029D0002FBF0895FC0192A983A9981718F022A986
:1029E00083A903C022A983A92E5C281B822F0895E6
:1029F000FC0183A9E80FF11D808108958091900169
:102A0000882329F484E591E00E94AE08089584E5C6
:102A100091E00E94CF08835A924098F080919501EE
:102A2000882379F080917601882321F080917601C6
:102A3000853039F489EA0E944D0B84E591E00E94CB
:102A4000AE080895AF92BF92DF92EF92FF920F937C
:102A50001F93DF93CF9300D000D00F92CDB7DEB796
:102A60007C018E010E5F1F4FC8010E94AE085E01FF
:102A70000894A11CB11CD02E012FC5010E94580C36
:102A8000882319F089818C3A49F08D2D902F0E946E
:102A9000CF08E816F90610F0A895EFCF0F900F9029
:102AA0000F900F900F90CF91DF911F910F91FF909A
:102AB000EF90DF90BF90AF900895109213021092A4
:102AC000140210921102109210021092120210922F
:102AD00015020895FC016830F8F080818336E1F436
:102AE00081818C36C9F482818B36B1F483818093E5
:102AF0001302848180931402858180931102868160
:102B000080931002878180931202683019F08085CB
:102B10008093150281E0089580E00895FF920F935D
:102B20001F938C01F62E862F6AE00E941418805D98
:102B300061E00E94AA0CF80180838F2D6AE00E9458
:102B40001418892F805D61E00E94AA0CF80181832E
:102B50001F910F91FF9008951F93CF93DF93EC0186
:102B600080911102882389F18BE18883809115027D
:102B7000805D61E00E94AA0C898387E18A83CE018F
:102B80000396609111020E948E1517E01D83CE01FD
:102B90000696609114020E948E151887CE01099640
:102BA000609113020E948E1584E08B87CE010C96F3
:102BB000609110020E948E158EE08E87CE010F96D6
:102BC000609112020E948E1581E1DF91CF911F91D9
:102BD0000895109218021092170210921A02109281
:102BE000190210921C0210921B0210921E021092E7
:102BF0001D02109216021092580110925A01109262
:102C0000590110925C0110925B010895982FFA010E
:102C1000A081B18142815381A417B50711F480E0EE
:102C2000089570E0A417B507A8F48CE3989FC0013D
:102C30001124860F971F8A179B0718F480E090E0F5
:102C4000089520E08417950708F021E081E0282707
:102C5000822F08958CE3989FC0011124860F971F3F
:102C60008417950728F020E030E08A179B0710F0C2
:102C700021E030E0822F08950F931F938091580137
:102C800010911002009112028823E9F0109258016D
:102C90008CE3189F90011124200F311D30935A01AD
:102CA00020935901C9010A9690935C0180935B01BE
:102CB000815A954008F43FC02659354030935C0155
:102CC00020935B0138C0812F602F49E551E00E94BD
:102CD0000616882381F510925A011092590110921C
:102CE0005C0110925B0180911602882391F4812F80
:102CF000602F47E152E00E940616882319F081E018
:102D000090E01AC0812F602F4BE152E00E9406161E
:102D100013C080911502863038F0812F602F4BE16F
:102D200052E00E94061608C0812F602F47E152E052
:102D30000E94061601C080E01F910F91089581E066
:102D40008093580108950F931F93DF93CF9300D082
:102D5000CDB7DEB78C01FC01808191816CE370E01E
:102D60000E942018862F698324EC3FEF629F202D5C
:102D700011249081290F2A8362E00E9440148A81E5
:102D800062E00E94401486EE92E00E947214CE012E
:102D9000019662E00E94A20D8823E1F0CE01029626
:102DA00062E00E94A20D87FF02C080E014C089810A
:102DB0002CE3829FC00111242A81820F911DF8010A
:102DC00091838083815A954028F080EA95E0F8014C
:102DD0009183808381E00F900F90CF91DF911F91BD
:102DE0000F91089582EB92E00E94721484EA92E0BF
:102DF0000E94721481E60E9488058DE992E00E948B
:102E0000721487E192E00E94A316882309F453C04C
:102E10008AED91E00E94721480E992E00E9472149F
:102E200089E192E00E94A316882309F444C08AED48
:102E300091E00E94721484EA92E00E94721482E689
:102E40000E9488058DE992E00E9472148BE192E065
:102E50000E94A316882379F18AED91E00E947214F2
:102E600080E992E00E9472148DE192E00E94A31624
:102E7000882309F18AED91E00E94721484E692E0C1
:102E80000E94721480911602882311F48EE601C00C
:102E90008AE60E94880580EE91E00E94721486E125
:102EA00092E00E946D0D882331F08AED91E00E943E
:102EB000721481E0089580E00895CF93DF93EC01D0
:102EC0000E943C189093180280931702815A9540F3
:102ED00030F080EA95E09093180280931702CE01BB
:102EE00002960E943C1890931A0280931902815A0C
:102EF000954030F080EA95E090931A028093190291
:102F0000CE0104960E943C1890931C0280931B02F1
:102F1000815A954030F080EA95E090931C028093AE
:102F20001B02CE0106960E943C1890931E028093CD
:102F30001D02815A954030F080EA95E090931E0280
:102F400080931D02CE0140960E943C1810921602FA
:102F5000019719F481E080931602DF91CF910895D3
:102F6000EF92FF920F931F93CF93DF93EC010091A9
:102F70001702109118020E943C180817190721F037
:102F8000CE01B8010E945018E0901902F0901A0288
:102F90008E010E5F1F4FC8010E943C18E816F9060B
:102FA00021F0C801B7010E945018E0901B02F09078
:102FB0001C028E010C5F1F4FC8010E943C18E816CE
:102FC000F90621F0C801B7010E945018E0901D02D7
:102FD000F0901E028E010A5F1F4FC8010E943C182C
:102FE000E816F90621F0C801B7010E9450181091A7
:102FF00016026096CE010E943C18412F50E020E05E
:1030000030E0019711F421E030E04217530729F036
:10301000CE01612F70E00E945018DF91CF911F9177
:103020000F91FF90EF900895991B79E004C0991FCC
:10303000961708F0961B881F7A95C9F78095089512
:10304000AA1BBB1B51E107C0AA1FBB1FA617B707CE
:1030500010F0A61BB70B881F991F5A95A9F78095EA
:103060009095BC01CD010895F999FECF92BD81BD27
:10307000F89A992780B50895A8E1B0E042E050E0C1
:103080000C945718262FF999FECF1FBA92BD81BD17
:1030900020BD0FB6F894FA9AF99A0FBE01960895DA
:1030A0000E944218272F0C944318DC01CB01FC012D
:1030B000F999FECF06C0F2BDE1BDF89A319600B491
:0E30C0000D9241505040B8F70895F894FFCF9C
:0230CE000100FF
:00000001FF
