:100000000C940B010C9428010C9428010C942801E9
:100010000C9428010C9428010C9428010C94AC0A2F
:100020000C9428010C9428010C9428010C9458017C
:100030000C9428010C9428010C9428010C9428019C
:100040000C943F100C9428010C9428010C94280166
:100050000C9428010C9428010C9428010C9428017C
:100060000C9425080C942801202223252628292ACF
:100070002C2D2F3031323435363738393A3B3B3C32
:100080003D3D3E3E3E3F3F3F3F3F3F3F3E3E3E3D8C
:100090003D3C3B3B3A3938373635343231302F2D01
:1000A0002C2A292826252322201E1D1B1A18171644
:1000B000141311100F0E0C0B0A090807060505048E
:1000C0000303020202010101010101010202020314
:1000D00003040505060708090A0B0C0E0F1011137F
:1000E000141617181A1B1D1E5F547850325F4544B2
:1000F000313030305F4E6F76203135203230313143
:100100005F30373A35383A31335F000D0A202B2BF8
:100110002B200D0A00206F6B2E0029206E657520A4
:100120002830203D206E65696E293A20202020204D
:10013000006E65696E000D0A206B6F6D6D656E64F3
:100140002D737065727265206D6974207761686CBB
:100150003A2028616B742E200023740D6F20686E86
:100160006D0A6C726769706376657A64627379662A
:100170007861776A2375716B230023350D3920234D
:100180002C2E0A29342338303A3D332B233F27368F
:10019000232F2D3223233731282300207363686FE8
:1001A0006E20766572676562656E206F6465722089
:1001B000756E6775656C7469672C20616E64657215
:1001C0006520776165686C656E21006F6B2E20007D
:1001D0000D0A207072756566652000206E65753A9F
:1001E0002020202020000D0A20647572636877614A
:1001F000686C20616B7475656C6C3A20000D0A2088
:1002000076657273696F6E3A204E6F7620313520B5
:1002100032303131000011241FBECFEFD4E0DEBFF9
:10022000CDBF11E0A0E0B1E0EEEEF4E202C0059037
:100230000D92A230B107D9F711E0A2E0B1E001C000
:100240001D92AF3EB107E1F70E94C3040C947512F2
:100250000C940000109202011092030110922501EB
:1002600010922401109280008AE080938100109205
:1002700082008FE890E09093890080938800EFE6F9
:10028000F0E0808182608083089580E680937C0026
:1002900086EC80937A0080917A0086FDFCCF809175
:1002A0007A00806180937A0081E080937E000895D7
:1002B0001F920F920FB60F9211248F939F93EF937B
:1002C000FF9390912401809179008058E4E0F1E05F
:1002D000E90FF11D80839F5F909324018091240199
:1002E0008F71809324019091020180910301890F05
:1002F00080930201809102018F77809302018091A7
:100300000201E8E6F0E0E80FF11DE491E5B9EAE763
:10031000F0E0808180648083FF91EF919F918F91C5
:100320000F900FBE0F901F9018952F923F925F92E3
:100330006F927F928F929F92AF92BF92CF92DF92F5
:10034000EF92FF920F931F93CF93DF93509047014B
:10035000552089F180914A01882369F187E08093D3
:100360000301F0904501A0913701B0913C0120912B
:1003700046011091430190913F01E091400130917D
:1003800038014091440170913D0100913E0160911E
:100390002501EE245AE3652E5FEF752E8EEA882E36
:1003A000912CF6E8AF2EB12C54E3C52E5FEFD52E7D
:1003B000C0EAD0E077C085E08093030181E08093BC
:1003C0004801CFCFE62FF0E0EC5FFE4FE0816F5F9A
:1003D0006F714E2F552747FD5095892F992787FD1F
:1003E0009095481B590B822F992787FD90951C01EA
:1003F000269CC001279C900D369C900D1124212F26
:10040000332727FD30951901289C9001299C300D38
:10041000389C300D1124820F931F4A9D90014B9DF3
:10042000300D5A9D300D1124820F931F892F990F83
:10043000990BF82F8A2F992787FD90959C012C9D69
:10044000C0012D9D900D3C9D900D1124AAEDBA0286
:1004500090011124820F931F4C9F90014D9F300DEE
:100460005C9F300D1124820F931F892F990F990BD8
:10047000482F47FD41953F2F37FD3195341734F410
:10048000723310F001E007C07F5F05C0772311F4DD
:1004900000E001C07150E394AB2FB82F212F1F2F24
:1004A0009F2DFE2E80912401681709F08BCFF092CA
:1004B0004501A0933701B0933C012093460110936E
:1004C000430190933F01E093400130933801409302
:1004D000440170933D0100933E0160932501002388
:1004E00051F021E020934901109248018091390197
:1004F000882329F50BC080914801882321F081E0F1
:100500008093490144C01092490141C0809141014A
:10051000909142018E0D911D35E080309307A0F03F
:10052000209339010CC080914101909142018E0DC0
:10053000911DA9E180309A0738F01092390110928C
:1005400042011092410104C0909342018093410105
:10055000552039F080914A01882311F45B9A01C03B
:100560005B98809139018823B9F08091690190915D
:10057000490184FF06C0992311F4599A0DC0599876
:100580000BC0992311F45A9A07C05A9805C080915C
:1005900039018823A1F2C7CFDF91CF911F910F912D
:1005A000FF90EF90DF90CF90BF90AF909F908F9093
:1005B0007F906F905F903F902F900895CF92DF9241
:1005C000EF92FF920F931F93DF93CF93CDB7DEB7D8
:1005D00028970FB6F894DEBF0FBECDBF8E010F5F18
:1005E0001F4FC8010E94C30A65E0E62EF12CEC0EF5
:1005F000FD1EC7010E94C30ACC24C394D02E012F34
:100600001E2DEF2CC0924701C0924A010E94950115
:1006100080913901882321F48D2D902F0E94C30AE7
:10062000812F9E2D0E94E30A89559B4148F010922C
:10063000470181E080934A010E94950180E008C053
:100640008D2D902F0E94E30A8C529140D8F281E0C8
:1006500028960FB6F894DEBF0FBECDBFCF91DF91C5
:100660001F910F91FF90EF90DF90CF900895EF9240
:10067000FF920F931F93DF93CF9300D000D0CDB79D
:10068000DEB780913901882331F0809147018823BA
:1006900011F40E94DE028E010F5F1F4FC8010E94FD
:1006A000C30AEE24E394F02E012F10924701E0924A
:1006B0004A010E94950180913901882321F08F2DF4
:1006C000902F0E94C30A8F2D902F0E94E30A845F0F
:1006D000914058F30F900F900F900F90CF91DF91B2
:1006E0001F910F91FF90EF9008959F92AF92BF924C
:1006F000CF92DF92EF92FF920F931F93DF93CF93EE
:1007000000D000D0CDB7DEB7F82E84E98093BC00CE
:100710008E010F5F1F4FC8010E94C30ACC24EE2434
:10072000D02E012F992493949F20E2E0AE2EAF208B
:1007300074E0B72EBF201F2D187002C0CC24C394C4
:10074000A8958D2D902F0E94E30A81599140F0F0D9
:100750008D2D902F0E94C30A319913C0EE2081F392
:10076000EA9471F7CC2061F3F8942EE088E190E0F0
:100770000FB6F894A895809360000FBE2093600098
:10078000FFCF84E08E15D0F2E394DACFCC20D1F401
:100790008D2D902F0E94E30A893C910598F09920B5
:1007A00011F0589A01C05898AA2011F0599A01C026
:1007B0005998BB2011F05A9A01C05A98112329F078
:1007C0005B9ABECF589859985A985B98B9CFFF92C8
:1007D0000F931F93DF93CF9300D000D0CDB7DEB738
:1007E0008E010F5F1F4FC8010E94C30A80E00E9464
:1007F000C411F02E012F0E941C0780914F01882305
:1008000019F010924F011DC00E949501809139018D
:100810008823B9F48F2D902F0E94E30A895E9340BC
:1008200028F08F2D902F0E94C30AE5CF8F2D902F97
:100830000E94E30A855F914010F05B9ADCCF5B98E1
:10084000DACF5B9881E00E94C4110F900F900F9057
:100850000F90CF91DF911F910F91FF9008951F93FB
:10086000182F5B9A80E00E94C41102C00E941C07EE
:1008700080914F018823D1F310924F0181E00E94B3
:10088000C4115B985898112311F40E94E7031F913B
:1008900008958093820181E08093840108C0809153
:1008A00049016AE471E00E94EC0C0E94950180917C
:1008B00084018823A1F708950E9495018091490140
:1008C0006AE471E00E94EC0C80918301883051F45D
:1008D000809181016AE371E00E94650710928301B3
:1008E000882321F480913901882331F708950E94EB
:1008F000950180913901882321F00E941D0E8823E3
:1009000029F00E9437030E94DB1108950E94170E00
:1009100080934A0180918401823048F78091490197
:100920000E941A0EE4CF0F931F93182F81548A311F
:1009300008F4105E812F60913A010E944C07082F45
:100940008F3FD9F460E080913A01882309F461E097
:10095000812F0E944C07082F8F3F91F090E08091EB
:100960003A01882309F491E090933A01992311F414
:100970008FE101C08BE10E944904802F0E9449044D
:100980001F910F9108958F929F92AF92BF92CF9235
:10099000DF92EF92FF920F931F93DF93CF93CDB728
:1009A000DEB72C970FB6F894DEBF0FBECDBF2FE099
:1009B00088E190E00FB6F894A895809360000FBE90
:1009C00020936000509A519A529A539A209A219AF1
:1009D000229A239A249A259A389840983998419ACD
:1009E000589A0E942A010E9445010E949D0A109275
:1009F0004601109243011092380110923701109273
:100A00003C011092440110923F0110924501109256
:100A1000400110923E01109247011092390111E0FD
:100A200010934A011093490180E090E00E945F1208
:100A30008E7F80936E0110936B0181E090E00E94A5
:100A40005F1280933B010E9438120E949501CE01F3
:100A500001960E94C30A78948E010F5F1F4FC80150
:100A60000E94E30A8A3F9105D0F35898599AF6B04C
:100A70000E94C5098E010F5F1F4FC8010E94E30A43
:100A8000845F9140D0F359985A9A8E010F5F1F4F9F
:100A9000C8010E94E30A8E5E9240D0F35A985B9A96
:100AA00080E98093BC008E010F5F1F4FC8010E9438
:100AB000E30A885F9240D0F385EC8093BC008E01FE
:100AC0000F5F1F4FC8010E94E30A40916E01242F5F
:100AD00030E028513C4F82179307A0F3842F0E94E7
:100AE0009D09109247011092390110924A0110920B
:100AF0004901F1FC28C086B190E0969587958170F8
:100B000080934A010E94950180914701882311F04A
:100B1000589A01C0589890913901992311F0599A27
:100B200001C0599880914A01882311F05A9A01C056
:100B30005A9880914901882311F05B9A01C05B9813
:100B400090934701D8CF1092470181E080934A01EA
:100B50005E010894A11CB11CEE24E394A5E0CA2E0A
:100B6000D12CCC0EDD1EF9E08F2E912C8C0E9D1E0B
:100B7000C5010E94E30A8152934060F0C5010E94C2
:100B8000E30A895E934040F480916E018F3F11F437
:100B9000589A05C0589803C0C5010E94C30A5998C5
:100BA0005A985B980E941C070E94950180914F0102
:100BB000823009F048C010924F010E94E10CE0928F
:100BC0003A0180E00E94C411589A0E94DE028823F4
:100BD000A1F10E94C60B882381F186E391E00E9477
:100BE000D30C80913B01882321F062E00E949D0C90
:100BF00004C081E391E00E94D30C8AE191E00E945D
:100C0000D30C8BE391E060E00E948C0B8823A9F069
:100C100010913B0181E090E00E945F12181729F0CB
:100C200081E090E0612F0E94671285E191E00E94CF
:100C3000D30C8BE091E00E94D30C0E94370381E03B
:100C40000E94C411589880914F01813029F410926C
:100C50004F0180E00E942F0480913901882309F41C
:100C6000CAC0599A80916E018F3F19F40E943703D0
:100C7000C2C00E94F911182F882309F4BCC081302A
:100C800009F0B5C00E94DE02882309F49EC00E94CC
:100C9000E10C8BE10E944904C6010E94C30A109333
:100CA0003A0100E010E0FF240E9495018091490183
:100CB0006AE471E00E94EC0C80918301883029F590
:100CC000809181016AE371E00E94650710928301BF
:100CD000982F90539A3030F4892F0E943B0EFF24B6
:100CE000F3940AC0882341F0803231F08D3021F036
:100CF0008A3011F00F5F1F4FC6010E94C30A05C062
:100D00008FE30E949304015010400115110531F04A
:100D1000C6010E94E30A8436910590F7809139015B
:100D2000882309F452C00E941D0E882309F04DC08B
:100D30000E94030E8823F1F081E00E941A0EC40184
:100D40000E94C30A02C00E949501C4010E94E30AE6
:100D50008C529140C0F38BE10E942B0E8BE10E94DC
:100D60002B0E8BE10E942B0E82E10E942B0E0E9423
:100D7000770441C0C6010E94E30AFF2029F428E954
:100D80003AE340E050E004C028EC3FEA40E050E0A5
:100D9000A0E0B0E0281739074A075B070CF084CFC2
:100DA000589A0E94DB1180E00E94C411FF2029F0B4
:100DB0000E94370302C00E94950180913901882367
:100DC000D1F7589881E00E94C4110E94DB110E9463
:100DD000370380913B01882371F00E94140E90919B
:100DE0003B01891741F459980E94E70304C08FE042
:100DF00090E00E9475030E94030E882309F4B8CE88
:100E00000E9495015A9A589A0E94DE02882339F46A
:100E10005A980E94DB1181E00E942F04A9CE5898B5
:100E20000E94F911823029F00E94DB110E943703E1
:100E30009FCE0E9477049CCE809150018130A9F012
:100E4000813018F0823039F522C0319909C08BE425
:100E500091E00E94E30AC397F0F081E08093500193
:100E60008BE491E00E94C30A089531990BC08BE492
:100E700091E00E94E30A8152934068F082E08093FF
:100E8000500102C01092500180934F010895319B90
:100E900002C0109250010895282F662319F4E9E545
:100EA000F1E002C0EAE7F1E0822F81548A3108F4D0
:100EB000205E90E08491281731F09F5F903211F00E
:100EC0003196F8CF9FEF892F0895982FFB018B3132
:100ED00019F481E0808303C08F3119F4108280E01F
:100EE00008958081E92FF0E0882321F0E658FE4F35
:100EF00084910895E75AFE4F84910895DF92EF920E
:100F0000FF920F931F93CF93DF93D82E8B01EA01AB
:100F1000790187E1D81631F48BE1888382E1F90108
:100F2000808326C08D2DFB0160810E944C07888341
:100F30008FEFF701808388818F3FB1F460E0F80183
:100F40008081882309F461E08D2D0E944C07F70110
:100F500080838F3F11F480E00EC0F80180818823E8
:100F600029F08FE18883108281E005C08BE18883BE
:100F700081E0F8018083DF91CF911F910F91FF9065
:100F8000EF90DF900895F8949091690121E030E0AE
:100F900002C0220F331F8A95E2F720952923209360
:100FA000690178940895F8949091690121E030E006
:100FB00002C0220F331F8A95E2F7922B90936901AA
:100FC00078940895982F8A3991F08B3928F48339D1
:100FD00041F0863991F405C08C3949F0893A69F4B9
:100FE000089581E080936A0110927201089581E072
:100FF00080936A0180937201089580917101E82FB6
:10100000F0E0ED5AFE4F90838F5F809371018091E5
:101010007101843148F080916801882311F483E1E3
:101020000CC0109271010BC0909171018091680108
:10103000981729F4809171018150809371018091FA
:10104000690180648093690108951F920F920FB621
:101050000F9211242F933F934F935F936F937F933E
:101060008F939F93AF93BF93EF93FF938091B900BA
:1010700090E0887F90708035910509F49AC08135A1
:10108000910594F58032910509F48CC08132910567
:101090009CF48830910509F460C08930910524F4EE
:1010A000892B09F474C0D3C08031910509F461C063
:1010B000489709F0CCC061C08833910509F46CC031
:1010C0008933910544F48832910509F45BC0C097D7
:1010D00009F0BDC057C08034910509F493C088342D
:1010E000910509F0B4C05EC0803A910509F4A0C032
:1010F000813A9105CCF48836910509F46DC08936A2
:1011000091054CF48835910509F453C0803691055A
:1011100009F09DC066C08038910509F46FC0883819
:10112000910509F094C070C0883B910509F476C020
:10113000893B91054CF4883A910509F46FC0803BD6
:10114000910509F084C065C0803C910509F470C028
:10115000883C910509F07BC06BC0809151018130C2
:1011600041F080916D0181608093BB00109273010A
:101170006EC080916D018E7FF7CF80915201809378
:10118000BB0065C084E0809351011092700181E042
:101190008093730185E55EC080916F018F5F8093BE
:1011A0006F0157C084E08093510181E0809370010A
:1011B000EFCF8091BB008093260180915101823056
:1011C00009F78091260187FD44C084E08093510196
:1011D00083E080937001DBCF80916F018F5F8093FC
:1011E0006F01A895109273019091BB0080916B01E3
:1011F00081509695892380936C0104C08091BB0037
:101200000E94E20785E026C08091BB000E94E207B1
:101210000FC080916F018F5F80936F018091690192
:101220008093BB001092730181E0809367010FC02F
:1012300081E08093730180915101833051F080915E
:101240005101813031F080915101823011F085E4FB
:1012500001C085E680688093BC00FF91EF91BF914B
:10126000AF919F918F917F916F915F914F913F913E
:101270002F910F900FBE0F901F90189580915101E4
:10128000882321F0809151018430C1F70895982F6F
:1012900080915101882321F0809151018430C1F760
:1012A000F8949093520197FF02C081E001C082E060
:1012B0008093510180917301882349F08091BC0093
:1012C00084FDFCCF8091BC0080628093BC00789448
:1012D0000895982F80915101882321F08091510128
:1012E0008430C1F720916D0190936D0183E080936C
:1012F000510180917301882349F08091BC0084FDE5
:10130000FCCF8091BC0080628093BC008091510131
:10131000882321F0809151018430C1F720936D0121
:1013200080917001882319F02FEF3FEF04C0809166
:101330002601282F30E0C90108951F93182F8250ED
:101340008B3DA0F410FD12C0812F0E94690997FF08
:101350000DC0F8941093BA008091BC008064809313
:10136000BC00789410936E0181E00DC0F894109247
:10137000BA008091BC008F7B8093BC0078948FEF83
:1013800080936E0180E01F91089581E08093730146
:1013900010925101109270018093B9008BE38093F9
:1013A000B80080916E018E7F8093BA0084E88093AC
:1013B000BC0080916B018150880F8093BD0010921A
:1013C0006F011092680110927101109252010895FC
:1013D000613039F4882311F48CED08958C59880F0D
:1013E0000895882311F488EC0895880F0895FB016F
:1013F000982F9695953630F081E080839E3631F0B7
:10140000945605C082E08083943609F490E0892FD9
:101410000895DC019091680180917101981711F491
:1014200080E0089590916801E92FF0E0ED5AFE4FB9
:1014300080818C939F5F90936801809168018431D3
:1014400010F01092680190916801809171019817D5
:1014500011F081E00895F894809169018F7B809369
:101460006901789481E008959091680180917101FB
:1014700020E0981709F421E0822F089580916D01F2
:10148000882329F487E291E00E94C30A089587E245
:1014900091E00E94E30A835A924098F08091730190
:1014A000882379F080915101882321F080915101A6
:1014B000843039F489EA0E94470987E291E00E946A
:1014C000C30A0895AF92BF92DF92EF92FF920F93FB
:1014D0001F93DF93CF9300D000D00F92CDB7DEB72C
:1014E0007C018E010E5F1F4FC8010E94C30A5E017E
:1014F0000894A11CB11CD02E012FC5010E94090A1D
:10150000882319F089818C3A49F08D2D902F0E9403
:10151000E30AE816F90610F0A895EFCF0F900F90A8
:101520000F900F900F90CF91DF911F910F91FF902F
:10153000EF90DF90BF90AF90089582E08093B0006D
:1015400084E08093B10086EE8093B300E0E7F0E0A2
:1015500080818260808308951F920F920FB60F9250
:1015600011248F939F93809174019091750101963E
:1015700090937501809374019F918F910F900FBE8E
:101580000F901F901895FC01F89480917401909130
:101590007501918380831382128278940895FC01EF
:1015A00080819181860F971F9183808382819381AF
:1015B0008617970718F4138212820895861B970BDB
:1015C000938382830895FC01F894209174013091F3
:1015D000750180819181281B390B789482819381D8
:1015E0008217930710F433832283828193810895B5
:1015F000FF920F931F93CF93DF93EC01F62E10E031
:1016000000E001C000E20E945C048A30A9F08B3047
:1016100028F4882351F0893051F5F5CF803221F13B
:10162000833289F38D3019F507C0112319F0C10FEA
:10163000D11D188280E035C0112389F4002319F3ED
:10164000802F8D52823060F10B3251F10D3341F118
:101650000F3231F1003229F00883198203C0C10F23
:10166000D11D188282E01DC0112361F202C08032B8
:1016700050F21F1540F6112369F4002311F4082FCE
:10168000C2CF003219F4888311E0BDCF088389836B
:1016900012E0B9CFFE01E10FF11D80831F5FB3CFD0
:1016A00081E0DF91CF911F910F91FF900895CF932B
:1016B000DF93EC010E945C048A3431F18B3490F4A6
:1016C000803329F1813348F48D3209F18E32D0F420
:1016D0008823B1F08B3271F717C08133A9F08D33B5
:1016E00049F710C08A3681F08B3628F48E3479F0B1
:1016F000893501F709C08E3651F08937D9F604C013
:1017000080E007C081E005C081E0888301C01882C5
:1017100082E0DF91CF910895FF920F931F93CF93B3
:10172000DF93EC01062F10E08AE0F82E0E945C04A3
:10173000282F80538A3068F4112331F088818F9DDF
:10174000C00111248053820F88831F5F101771F727
:1017500016C0822F8D52823030F02B3221F02D3383
:1017600011F02F3221F4112351F481E009C022231A
:1017700011F480E005C02930C9F21123B9F282E0EA
:10178000DF91CF911F910F91FF900895EF92FF92FB
:101790000F931F93DF93CF9300D0CDB7DEB78DEFBC
:1017A00091E00E94D30C7E010894E11CF11C8E0193
:1017B0000E5F1F4F80916E01B7010E94F7098A8367
:1017C00086EE91E00E94D30C8A8169810E949D0C73
:1017D0008BED91E00E94D30CC80160E00E948C0B5D
:1017E000882389F190916B0191958A8189238A835D
:1017F00080ED91E00E94D30C8A8162E00E949D0CF2
:1018000080E20E9493048A8162E00E94E8090E94BB
:101810009D09882399F08BEC91E00E94D30C1091E4
:101820006E0180E090E00E945F12181729F080E0BE
:1018300090E0612F0E94671281E006C08BE991E081
:101840000E94D30CB7CF80E00F900F90CF91DF9123
:101850001F910F91FF90EF900895FC0112AA13AA17
:1018600014AA0895FC0194A983A920E0981709F40B
:1018700021E0822F0895FC0183A9813310F020E03C
:1018800002C0282F2F5F84A990E0281709F491E067
:10189000892F0895DC01D3968C91D397813310F072
:1018A00090E002C0982F9F5FD4968C91D4979817A0
:1018B00011F480E008959FB7F894D3968C91D39754
:1018C000FD01E80FF11D6083D3968C91D39781338E
:1018D00010F080E001C08F5FD3968C939FBF81E0B2
:1018E0000895DC012FB7F894D4968C91D497FD011C
:1018F000E80FF11D8081D4969C91D497913310F01C
:1019000090E001C09F5FD4969C932FBF0895FC0187
:1019100093A984A9981718F023A984A903C023A91F
:1019200084A92E5C281B822F08958A3010F4805DD4
:1019300001C0895A0E94930408950F931F93082FA2
:10194000262F8A3010F462307CF0802F6AE00E94EB
:101950005312182F2150622F0E949D0C86EF9FEF8B
:10196000189F102D1124010F802F0E94950C1F919C
:101970000F9108951F93182F82958F700E94950CD8
:10198000812F8F700E94950C1F910895CF93DF9344
:10199000EC0103C00E949304219688818823D1F72B
:1019A000DF91CF910895CF93DF93EC0103C00E94A4
:1019B00093042196FE0184918823C9F7DF91CF918A
:1019C0000895109283011092840180E890E0909332
:1019D0007B0180937A0108951F93CF93DF93182F93
:1019E000EB0180918401883030F4823030F5813011
:1019F00009F04EC004C0883009F04AC039C0809157
:101A00008301882329F080918301883009F040C048
:101A100018828DE791E00E94C30A82E080938401DE
:101A200080918201880F880F880F809382018091B6
:101A300082018760809382012BC08DE791E00E9434
:101A4000E30A449728F18DE791E064E170E00E9499
:101A5000CF0A809182018078888380918201880FEB
:101A600080938201809184018F5F8093840110C0F4
:101A70008DE791E00E94E30A4E9750F08DE791E0E8
:101A80006EE170E00E94CF0A1092840181E08883A9
:101A900080918301883048F4823008F048C0882360
:101AA00039F0813009F0A3C018C0883009F09FC018
:101AB000112309F09CC086E791E00E94C30A81E0EF
:101AC000809383011092810180E890E090937B01E4
:101AD00080937A0110927C018AC0112399F0809141
:101AE0007A0190917B01019690937B0180937A011A
:101AF00080917A0190917B01873991051CF01092B9
:101B0000830175C086E791E00E94E30A0B9708F411
:101B10006EC082E08093830180E890E090937B0127
:101B200080937A0186E791E00E94C30A60C086E74D
:101B300091E00E94E30A4497A8F1809183018730E5
:101B4000A1F4112309F453C080917A0190917B0193
:101B500020E0803891050CF421E020937C018091F5
:101B600083018F5F8093830142C080918101880F40
:101B70008093810180917A0190917B018038910559
:101B80002CF080918101816080938101809183019B
:101B90008F5F8093830186E791E00E94C30A80E80B
:101BA00090E021C086E791E00E94E30A4197F8F0B7
:101BB000112369F080917A0190917B018F3F91050B
:101BC000B4F480917A0190917B0101960CC08091D0
:101BD0007A0190917B01181619064CF480917A01D4
:101BE00090917B01019790937B0180937A01DF9123
:101BF000CF911F91089580912D0190E0882309F4E1
:101C000091E0892F089580912D01833031F08091EA
:101C10002D0120E030E0843011F421E030E0822F0B
:101C2000089580916C01089580913101089580910B
:101C30007201089580932E01089580912D018823CB
:101C400031F080912D0120E030E0853011F421E069
:101C500030E0822F0895682F8F3119F41092B70168
:101C600005C08B3119F481E08093B70185E891E0DC
:101C70000E944A0C08951F93182F80912D018230E5
:101C800061F480913201882341F085E891E0612F71
:101C90000E944A0C10932F0104C089E090E00E943A
:101CA00075031F91089585E891E00E94320C089514
:101CB000CF93DF93EC018AEB91E00E94320C8823F2
:101CC00011F080E006C08AEB91E00E94710C8883DD
:101CD00081E0DF91CF91089585E891E00E943B0C6F
:101CE0000895DF93CF9300D0CDB7DEB7982F8B3018
:101CF00019F18C3020F4823009F046C006C08731DB
:101D000071F18A3109F040C00BC085E891E06FE1C4
:101D10000E944A0C882309F45EC01092B7015DC08E
:101D200085E891E06BE10E944A0C882309F453C0D6
:101D300081E08093B70151C08091B701882341F4BD
:101D400085E891E06BE10E944A0C882309F443C0C6
:101D500081E08093B70185E891E06AE111C080914C
:101D6000B701882339F485E891E06BE10E944A0CC1
:101D7000882389F181E08093B70185E891E062E1F1
:101D80000E944A0C982F2AC0892F81548A3108F466
:101D9000905E892F67EB71E0AE014F5F5F4F9E0150
:101DA0002E5F3F4F0E947E078823B9F085E891E0BF
:101DB00069810E944A0C882371F06A816F3F69F043
:101DC00085E891E00E944A0C90E0882309F491E0B4
:101DD00081E0982703C090E001C091E0892F0F9027
:101DE0000F90CF91DF910895EF92FF920F931F9381
:101DF000DF93CF930F92CDB7DEB78C017E010894AD
:101E0000E11CF11CC7010E94580E8823C9F0809183
:101E1000EC01882359F089818A3111F48BE003C0E9
:101E2000823121F487E1F801808309C089816CEE59
:101E300071E00E946507F8018083882319F381E02F
:101E40000F90CF91DF911F910F91FF90EF90089528
:101E50000F931F93082F80912D01081709F4C7C015
:101E6000F89410923201043009F46EC0053050F439
:101E70000130B1F10130E8F00230D9F1033009F05E
:101E8000B3C04FC0063009F4A5C0063008F499C0AD
:101E9000073009F492C0083009F0A6C080916901AA
:101EA0008F7780936901809169018F7E80936901AA
:101EB00014C08091690180748093690180916901E7
:101EC000806880936901809169018F7D80936901A9
:101ED00081E080932E018093720110926D0184C085
:101EE000809169018F7780936901809169018F7E6C
:101EF00079C0809169018F77809369018091690130
:101F00008F7E8093690110922F0110923001109200
:101F1000310181E08093320185E891E00E942D0C2F
:101F200063C0809169018F77809369018091690115
:101F30008F7E80936901809169018061809369013E
:101F40008091690188604EC08091690187FF0FC050
:101F5000809169018F7780936901809169018F7EFB
:101F6000809369018091690180618093690180910A
:101F70006901806280936901809169018260809328
:101F80006901809169018460809369018091690190
:101F900081608093690111E01093000185E891E070
:101FA0000E942D0C8AEB91E00E942D0C0E94E10C06
:101FB00010932E011093720117C080916901806205
:101FC00011C0809169018F7D8093690180916901C1
:101FD000877F08C0809169018F7D8093690180911E
:101FE00069018D7F8093690100932D0178941F9181
:101FF0000F9108950E943E09809131016091300156
:102000000E94E80980936D0180916E0186950E947F
:1020100047090E943E0983E391E00E94C30A809130
:102020007001882369F482E08093320183EA0E9480
:1020300047090E943E0983E391E00E94C30A089584
:1020400080917001833049F41092700110926D01FB
:1020500085E00E94280F82E60CC0109270018091EA
:102060003001823048F010926D0185E00E94280F07
:1020700088E780932C01089510926D0108951F92B6
:102080000F920FB60F9211241F932F933F934F93EC
:102090005F936F937F938F939F93AF93BF93EF93D0
:1020A000FF93DF93CF930F92CDB7DEB780912B01D3
:1020B000882309F054C181E080932B0180916E0048
:1020C0008E7F80936E007894CE0101960E94090A5B
:1020D000882309F455C080912D01883021F481E0D6
:1020E00090E00E9475036981663A71F1673A58F48D
:1020F000633AE1F0643A20F4603808F041C00DC062
:10210000653AF1F51BC06C3A39F16D3A18F46A3A48
:10211000B9F522C0603FA0F12BC080912D0188232A
:1021200079F5660F60936D0181E005C080912D0106
:10213000813031F583E00E94280F22C080912D016B
:102140008230F1F484E0F7CF80912D018230C1F428
:1021500083E08093320114C080912D01863011F408
:1021600080E0E9CF80912D01882351F085E0E3CF15
:1021700080912D01873021F48AEB91E00E944A0C76
:1021800080912D01823021F0843009F0ABC03EC037
:1021900085E891E00E94320C882309F0A3C0809169
:1021A0003201823009F49EC085E891E00E94710CF2
:1021B000182F809130018F5F809330018091320120
:1021C0008130B1F480913001813019F410933101E4
:1021D0000DC080913001823059F4809131012AE0A4
:1021E000829FC0011124810F809331010E94FA0F58
:1021F00080913201833009F075C0812F80550E9493
:10220000470983E391E00E94C30A6CC080916A0190
:10221000882359F080917201882321F082E00E9486
:10222000D30703C082E00E94C30785E891E00E94C3
:10223000320C882369F480918401882349F485E86D
:1022400091E00E94710C8093820181E0809384016F
:10225000809172016EE271E00E94EC0C80912E017F
:10226000882321F080E00E94D30703C080E00E9411
:10227000C30780918301883041F4609181018AEB2A
:1022800091E00E944A0C109283018091730188238F
:1022900049F180915101882329F580912E018823ED
:1022A00081F080910001823021F080910001833023
:1022B00011F48CE915C080910001882399F48AE912
:1022C0000FC080910001882321F0809100018130AE
:1022D00011F483E905C080910001823019F486E988
:1022E0000E94470980915101843011F583E391E008
:1022F0000E94C30A809170018823C1F48091520129
:10230000863961F0873918F4833981F405C08A3938
:1023100051F08C3959F404C082E006C083E004C057
:102320001092000103C081E08093000110925101DE
:1023300080916D01882339F080912D01873019F04B
:102340000E943E0A01C0A89588E486BD81E085BB55
:1023500080916E00816080936E0010922B010F902F
:10236000CF91DF91FF91EF91BF91AF919F918F91AD
:102370007F916F915F914F913F912F911F910F909E
:102380000FBE0F901F9018951F93182F80912D014D
:10239000882341F080912D01883021F08AE090E07F
:1023A0000E947503112311F080E001C088E00E94B3
:1023B000280F1F91089580912D018823C9F081E095
:1023C00080932B0180912D01853031F48CEA0E949D
:1023D00047090E943E0907C08AEA0E94470988EB24
:1023E0009BE00E94620A80E00E94280F10922B015D
:1023F000089580912D01833091F481E080932B0129
:1024000085EA0E9447090E943E0989EA0E9447091D
:1024100084E00E94280F10922B0182E008958091A1
:102420006E018F3F11F480E0089580912D01882383
:1024300021F088E090E00E94750381E080932B01F9
:10244000F894809169018F77809369018091690187
:102450008F7E80936901809169018F7E80936901ED
:10246000789482E00E94280F10922B0181E0089559
:1024700014BC82E085BDEEE6F0E08081816080835F
:1024800080E8809369010E94E10C80E00E94280F9F
:1024900085E891E00E942D0C8AEB91E00E942D0CC2
:1024A00010922B010895991B79E004C0991F96178B
:1024B00008F0961B881F7A95C9F780950895F999B9
:1024C000FECF92BD81BDF89A992780B50895262F39
:1024D000F999FECF1FBA92BD81BD20BD0FB6F89409
:0E24E000FA9AF99A0FBE01960895F894FFCF6C
:0224EE000100EB
:00000001FF
