:100000000C944D030C946A030C946A030C946A03D9
:100010000C946A030C946A030C946A030C94950C78
:100020000C946A030C946A030C946A030C949A036C
:100030000C946A030C946A030C946A030C946A038C
:100040000C943F170C946A030C946A030C946A0393
:100050000C946A030C946A030C946A030C946A036C
:100060000C94900D0C946A03202223252628292A1B
:100070002C2D2F3031323435363738393A3B3B3C32
:100080003D3D3E3E3E3F3F3F3F3F3F3F3E3E3E3D8C
:100090003D3C3B3B3A3938373635343231302F2D01
:1000A0002C2A292826252322201E1D1B1A18171644
:1000B000141311100F0E0C0B0A090807060505048E
:1000C0000303020202010101010101010202020314
:1000D00003040505060708090A0B0C0E0F1011137F
:1000E000141617181A1B1D1E5F5F5F69746C785F0A
:1000F0004544313030305F5F5F53657020323420CB
:10010000323032305F5F5F32323A30353A30355F0D
:100110005F5F3433345F5F5F000D0A766F67656C35
:100120002071756178207A7769636B74206A6F68D3
:100130006E79732070666572642062696D0D0A7352
:10014000796C766961207761677420717569636B7A
:100150002064656E206A7578206265692070666F1C
:10016000727A6865696D0D0A7072616C6C20766FC9
:100170006D20776869736B7920666C6F6720717585
:1001800061782064656E206A6574207A75206272D9
:100190007563680D0A6A65646572207761636B65D3
:1001A00072652062617965722076657274696C6728
:1001B000742062657175656D207A776F2070667541
:1001C0006E64206B616C6273686178656E0D0A669F
:1001D00072616E7A206A61677420696D206B6F6D41
:1001E000706C65747420766572776168726C6F7379
:1001F00074656E207461786920717565722064750C
:100200007263682062617965726E0D0A62656920A9
:100210006A6564656D206B6C7567656E20776F72BB
:100220007420766F6E20736F6B72617465732072C9
:100230006965662078616E746869707065207A7986
:100240006E697363683A20717561747363680D0A2F
:10025000313233343536373839302C2E3A2D2B3D68
:100260002F28290D0A7279727972797279727972EE
:100270007972797279727972797279727972797226
:100280007972797279727972797279727972797216
:100290007972797279727972797279727972797206
:1002A000797279720D0A7234793672347936723411
:1002B00079367234793672347936723479367234EA
:1002C00079367234793672347936723479367234DA
:1002D00079367234793672347936723479367234CA
:1002E0007936723479360D0A000D0A202B2B2B201B
:1002F0000D0A0A0A0A0029206E65753A202020207E
:1003000020000D0A2066756E6B74696F6E20746133
:1003100073746520616D206D6F64756C2028616B4E
:10032000742E200029206E65753A202020202000A0
:100330000D0A206D6178696D616C6520686F636876
:100340006C6175662D7A65697420696E2073656BC2
:10035000756E64656E2028332D32352C20616B74E8
:100360002E20002B290D0A2020000D0A207761681D
:100370006C7A69666665726E2065696E676562652E
:100380006E2C20656E6465206D6974202B202861B9
:100390006B742E3A20000D0A206175746F6D6174C4
:1003A000697363686520766F727761686C20616B32
:1003B000746976696572656E3F20616B7475656CF2
:1003C0006C3A2020200029206E6575202830203DC1
:1003D00020617573293A2020202020006175730068
:1003E0000D0A206C6F6B616C6265747269656220C6
:1003F000776165686C656E206D69743A2028616B61
:10040000742E200029206E6575202830203D206143
:100410007573293A202020202000617573000D0A91
:10042000206B6F6D6D656E646520616E72756665BB
:10043000207370657272656E206D69743A20286150
:100440006B742E20000D0A202B2B2B200D0A0A0A7C
:100450000A000D0A2065696E6661636865206B6F2E
:100460006E66696775726174696F6E3F2020202027
:10047000000D0A206B6F6E66696775726174696F33
:100480006E206564313030302076657273696F6E2E
:100490002034333420646174756D205365702032CC
:1004A000342032303230000D0A6C6F630D0A0023A5
:1004B000740D6F20686E6D0A6C7267697063766583
:1004C0007A64627379667861776A2375716B232326
:1004D000350D3920232C2E0A29342338303A3D3368
:1004E0002B173F2736232F2D320723373128232080
:1004F0006F6B2E2000206E65753A20202020200092
:100500000D0A207765697465726C656974756E672C
:10051000656E20616277656973656E3F20616B74FB
:1005200075656C6C3A2000207363686F6E20766589
:1005300072676562656E206F64657220756E67759F
:10054000656C7469672C20616E64657265207761E3
:1005500065686C656E21000D0A20707275656665B0
:1005600020000D0A2064757263687761686C2061F1
:100570006B7475656C6C3A20006E65696E006A611B
:10058000000D0A2073706572727A65697420776F46
:100590006368656E656E642D61626861656E67692A
:1005A000673F20616B7475656C6C3A20000D0A2002
:1005B0002E2E2E206269733A200020766F6E3A202C
:1005C000000D0A2073706572727A65697420000DDF
:1005D0000A207A656974656E207669657273746540
:1005E0006C6C6967206F686E652070756E6B742027
:1005F000756E64206B6F6D6D612065696E676562F5
:10060000656E000D0A207A65697473706572726593
:1006100020616B746976696572656E3F20616B74E9
:1006200075656C6C3A2000202020200D0D0A0020FA
:100630006164726573736520006665686C657263DA
:100640006F64652000736368726569626665686CD3
:100650006572007363687765726572206C65736597
:100660006665686C6572007761726E756E67206C86
:100670006573656665686C657200696E666F206992
:100680006E697469616C697369657274000D0D0A35
:1006900020656570726F6D20000011241FBECFEFC2
:1006A000D4E0DEBFCDBF11E0A0E0B1E0E4EDFCE3BB
:1006B00002C005900D92A230B107D9F712E0A2E076
:1006C000B1E001C01D92A433B107E1F70E94E30736
:1006D0000C94681E0C940000109202011092030109
:1006E0001092250110922401109280008AE08093DC
:1006F0008100109282008FE890E0909389008093AF
:100700008800EFE6F0E0808182608083089580E6D3
:1007100080937C0086EC80937A0080917A0086FD3D
:10072000FCCF80917A00806180937A0081E0809391
:100730007E0008951F920F920FB60F9211248F938F
:100740009F93EF93FF9390912401809179008058BB
:10075000E4E0F1E0E90FF11D80839F5F90932401B5
:10076000809124018F7180932401909102018091E6
:100770000301890F80930201809102018F7780939A
:10078000020180910201E8E6F0E0E80FF11DE4913A
:10079000E5B9EAE7F0E0808180648083FF91EF9122
:1007A0009F918F910F900FBE0F901F901895BF9241
:1007B000CF92DF92EF92FF920F931F93CF93DF932D
:1007C000B0907D01BB2029F180918101882309F13E
:1007D00087E080930301E091670110917E01009111
:1007E000750120917C01F0906301B0915D019091C1
:1007F0006601D0907B0130915E014091760170914D
:100800006401E090650160912501CC24C8E2D0E04C
:1008100078C085E08093030181E080937F01DBCF86
:10082000E62FF0E0EC5FFE4FE0816F5F6F714E2FBF
:10083000552747FD5095892F992787FD9095481B8F
:10084000590B8DE9280290011124F7E50F02C00130
:100850001124280F391FCA01A5E0880F991FAA95F6
:10086000E1F7840F951F280F391F220F232F221F16
:10087000330BA22F2AE9B202C0011124BF2DFDEED5
:10088000BF0290011124820F931F4C9F90014D9F36
:10089000300D5C9F300D1124820F931F880F892F1C
:1008A000881F990B982F8A2F865A853B40F49B35D9
:1008B00034F4963A24F0112321F0115002C018E2CA
:1008C00002C0112311F0589A01C05898492F47FDD2
:1008D00041953A2F37FD319534173CF4723318F0B7
:1008E000EE24E39407C07F5F05C0772311F4EE2464
:1008F00001C07150C394202F0A2FBF2DF92E9D2DBA
:10090000DE2E80912401681709F08ACFE0936701F9
:1009100010937E010093750120937C01F092630196
:10092000B0935D0190936601D0927B0130935E019C
:100930004093760170936401E09265016093250114
:10094000EE2051F021E02093800110927F018091F0
:100950005F01882349F50BC080917F01882321F036
:1009600081E08093800110C0109280010DC08091C1
:100970006801909169018C0D911D35E080309307DD
:10098000C0F020935F0110C080915F01882361F067
:1009900080916801909169018C0D911DB9E18030C1
:1009A0009B0738F010925F01109269011092680164
:1009B00004C09093690180936801BB2039F0809155
:1009C0008101882311F45B9A01C05B9880915F01DB
:1009D000882389F080919B019091800184FF06C05B
:1009E000992311F4599A07C0599805C0992311F415
:1009F0005A9A01C05A98DF91CF911F910F91FF90A1
:100A0000EF90DF90CF90BF900895BF92CF92DF928A
:100A1000EF92FF920F931F93DF93CF93CDB7DEB783
:100A200028970FB6F894DEBF0FBECDBF8E010F5FC3
:100A30001F4FC8010E94AC0C85E0E82EF12CEC0E93
:100A4000FD1EC7010E94AC0C429A87E791E00E940C
:100A5000AC0CBB24B394D02E012FCE2C1F2DB8EE9E
:100A6000EB2EB3E0FB2EB0927D01B09281010E948B
:100A7000D70380915F01882321F48D2D902F0E9450
:100A8000AC0C8C2D912F0E94CD0C2091600130E098
:100A9000A9014E9D90014F9D300D5E9D300D11249A
:100AA0002817390768F410927D0181E08093810155
:100AB0000E94D70387E791E00E94AC0C80E008C059
:100AC0008D2D902F0E94CD0C8C52914060F281E0D0
:100AD00028960FB6F894DEBF0FBECDBFCF91DF9141
:100AE0001F910F91FF90EF90DF90CF90BF900895EE
:100AF000EF92FF920F931F93DF93CF9300D000D01C
:100B0000CDB7DEB780915F01882331F080917D0100
:100B1000882311F40E9405058E010F5F1F4FC80145
:100B20000E94AC0CEE24E394F02E012F10927D0174
:100B3000E09281010E94D70380915F01882321F018
:100B40008F2D902F0E94AC0C8F2D902F0E94CD0CDA
:100B5000845F914058F387E791E00E94AC0C0F90BE
:100B60000F900F900F90CF91DF911F910F91FF90F9
:100B7000EF900895DF93CF9300D000D0CDB7DEB7CC
:100B80007C0180E88093BC0010927D0181E080931D
:100B900081010E94D70342988E010F5F1F4FC80149
:100BA0000E94AC0CDD24BB24C02E012F31E0432E6B
:100BB000512C4E205F2022E0622E712C6E207F206F
:100BC00094E0892E912C8E209F2028E0E222FF24A1
:100BD00002C0BB24B394A8958C2D902F0E94CD0CFD
:100BE00081599140F0F08C2D902F0E94AC0C3199DE
:100BF00005C084E08D1568F3D394EDCFDD2059F363
:100C0000DA9449F7BB2039F3F8942EE088E190E0BC
:100C10000FB6F894A895809360000FBE20936000F3
:100C2000FFCFBB20F1F48C2D902F0E94CD0C893C7E
:100C30009105B8F04114510411F0589A01C0589828
:100C40006114710411F0599A01C0599881149104EA
:100C500011F05A9A01C05A98E114F10429F05B9AF4
:100C6000BACF589859985A985B98B5CFFF920F937E
:100C70001F93DF93CF9300D000D0CDB7DEB7589A43
:100C800080E00E947B1781E08093810180917D014B
:100C90008823A1F40E9405058E010F5F1F4FC80134
:100CA0000E94AC0CF02E012F02C00E94D7038F2DA2
:100CB000902F0E94CD0C845F9140B8F387EA94E0B6
:100CC0000E94691802C00E94D70380915F018823A7
:100CD000D1F70E94780581E00E947B1758980F9009
:100CE0000F900F900F90CF91DF911F910F91FF9078
:100CF0000895AF92BF92CF92DF92FF920F931F930E
:100D0000DF93CF9300D000D0CDB7DEB7F82ECE0161
:100D100001960E94AC0C80E00E947B17FF2051F0EE
:100D200083E0F81639F082E0F81611F081E003C094
:100D300084E001C082E090E024EF31E0829F500126
:100D4000839FB00C929FB00C11242CE231E0829F63
:100D50006001839FD00C929FD00C11248E010F5FF5
:100D60001F4F0E94E30C80918401882329F0109288
:100D700084010E94A01A2FC00E94D70380915F01B6
:100D8000882349F5C8010E94CD0CA816B90620F4A5
:100D9000C8010E94AC0C09C0C8010E94CD0CC81645
:100DA000D90610F45B9A01C05B9880918901882371
:100DB000C1F2609189018BE891E00E946B19882350
:100DC00039F082E0F81621F40E943D1A882319F0C8
:100DD00010928901C6CF5B9881E00E947B170F902B
:100DE0000F900F900F90CF91DF911F910F91FF9077
:100DF000DF90CF90BF90AF90089510922002809323
:100E0000B10181E08093B30108C08091800161E865
:100E100071E00E944D120E94D7038091B301882394
:100E2000A1F708951092EB010E94D70380918001F1
:100E300061E871E00E944D128091B201883051F456
:100E40008091B0016AEE71E00E948C101092B201A4
:100E5000882321F480915F01882331F70895DF9280
:100E6000EF92FF920F931F93DF93CF9300D000D0A8
:100E7000CDB7DEB7E82E8E010F5F1F4FC8010E946D
:100E8000AC0C81E00E94DB1381E080932002809310
:100E9000EB01DD24D394F02E012F01C0EE240E943B
:100EA000D7030E94E30C80915F01882361F40E94C4
:100EB00092170E94780502C00E94D7030E94DE1399
:100EC0008823D1F356C00E94DE13882331F00E949C
:100ED000780580E00E9492174CC00E94D81380933E
:100EE00081018091B301823060F4809180010E9481
:100EF000DB1307C08CEE91E00E94D5188F3109F00A
:100F0000EE248CEE91E00E948518882399F3EE2060
:100F100011F18F2D902F0E94CD0CDD2019F428E8BF
:100F200033E102C024EF31E082179307A0F086EB93
:100F300091E06BE10E94AE1886EB91E06BE10E94BC
:100F4000AE1886EB91E062E10E94AE188F2D902FD3
:100F50000E94AC0CDD248F2D902F0E94CD0C895E59
:100F6000934008F49CCF80918001882309F496CFA8
:100F700096CF0F900F900F900F90CF91DF911F9110
:100F80000F91FF90EF90DF900895DF93CF9300D003
:100F9000CDB7DEB76AEE71E0AE014F5F5F4F9E01E5
:100FA0002E5F3F4F0E94C210882341F089810E942A
:100FB000FD068A818F3F11F00E94FD060F900F9071
:100FC000CF91DF9108956F927F928F929F92AF920F
:100FD000BF92CF92DF92EF92FF920F931F93DF9316
:100FE000CF93CDB7DEB72A970FB6F894DEBF0FBE0A
:100FF000CDBF2FE088E190E00FB6F894A8958093DC
:1010000060000FBE20936000509A519A529A539AF2
:10101000209A219A229A239A249A259A38984098BD
:101020003998419A3A9A3B98439A589A0E94870372
:101030000E940F1C0E94860C10927C011092750178
:1010400010925E0110925D01109263011092760180
:101050001092660110927B01109267011092650157
:1010600010927D0110925F0111E0109381011093A5
:1010700080010E946C030E94EA1980E090E06EE318
:1010800042E02CED0E94031E8E7F8093A2011093FC
:101090009F011093880187E190E060E00E94281E84
:1010A0008093B40181E090E060E040E023E60E949C
:1010B000031E8093610188E190E068E540E023E64B
:1010C0000E94031E8093740182E090E00E94CC1B7A
:1010D00086E190E060E040E021E00E94031E809302
:1010E000620109E110E0C8016FEF0E94E21CF80103
:1010F000EF5AFE4F80830F5F1F4F0332110599F7A0
:1011000083E290E067E043E029E10E94031E8093C0
:10111000600110927D0181E08093810110925F0156
:10112000809380010E940618CE0103960E94AC0CA9
:1011300078940E94D7038E010D5F1F4FC8010E9453
:10114000CD0C8A3F9105D0F3E6B05898599A0E9489
:10115000F10F8E010D5F1F4FC8010E94CD0C845FFF
:101160009140D0F359985A9A8E010D5F1F4FC801D4
:101170000E94CD0C8E5E9240D0F35A985B9A80E923
:101180008093BC008E010D5F1F4FC8010E94CD0CE3
:10119000885F9240D0F385EC8093BC008E010D5F98
:1011A0001F4F64E1F62EC8010E94CD0C4091A201B0
:1011B0004F9D9001112428513C4F8217930798F3BB
:1011C000E1FC47C010927D0110925F0110928101F5
:1011D00010928001C8010E94AC0CFF24F3948E0190
:1011E0000D5F1F4F319903C01092810105C0F0922D
:1011F0008101C8010E94AC0C0E94D70380917D013F
:10120000882311F0589A01C0589880915F01882373
:1012100011F0599A01C0599880918101882311F0E9
:101220005A9A01C05A9880918001882311F05B9AE4
:1012300001C05B98C8010E94CD0C895E934090F27A
:1012400080917D018F2580937D01C8010E94AC0CA7
:10125000C9CF842F0E94BE0F10927D0181E0809340
:10126000810187E791E00E94AC0C53E0A52EB12CE0
:10127000AC0EBD1E4E010894811C911C42E0642EF0
:10128000712C6C0E7D1EC5010E94CD0C815B9440BB
:1012900060F0C5010E94CD0C8957954040F48091C3
:1012A000A2018F3F11F4589A05C0589803C0C50198
:1012B0000E94AC0C59985A985B980E94E30C0E94CB
:1012C000D70380918401823009F070C110928401AB
:1012D0000E94421280E00E947B17589A0E940505E6
:1012E000882309F425C18091EA018E7F8093EA0169
:1012F00081E794E00E94691882E594E00E946918F1
:10130000C4010E946811882309F412C18FEE94E091
:101310000E9469180E94CA11882309F409C18981B1
:10132000882391F01092610188E58093740187E031
:10133000809360010E94EA19109262018FEF8093FE
:101340006A0185E494E0F2C08EE194E00E9469189D
:1013500080916101882321F062E00E94371804C067
:101360008AE194E00E94691884E094E00E94691880
:1013700081E691E062E00E94941187FDD9C08FEE72
:1013800094E00E94691880EE93E00E9469188091B1
:101390007401882321F062E00E94371804C08CEDAC
:1013A00093E00E94691886EC93E00E94691884E734
:1013B00091E062E00E94941187FDBAC08FEE94E044
:1013C0000E9469180E94F31A882309F4B1C086E9C3
:1013D00093E00E94691890E080916A018A3008F4D5
:1013E00091E09A83892F0E94771885EF94E00E94FC
:1013F0006918C3010E946811882309F499C08FEE0F
:1014000094E00E9469188A81882309F44FC08AE613
:1014100093E00E9469180AE611E0F80180818A30A1
:1014200048F460E00E9437180F5F1F4FF1E0043767
:101430001F0799F783E693E00E94691885EF94E00F
:101440000E94691810E00E941207982F90539A305A
:1014500038F4E12FF0E0E659FE4F90831F5F19C08A
:101460008B32C9F08D3321F08E3211F08F3229F496
:10147000112389F48FEE94E059C0882351F411238D
:1014800009F456C0E12FF0E0E659FE4F8FEF80835C
:101490004FC01930C0F2E12FF0E0E659FE4F8FEF58
:1014A00080838FEE94E00E94691803C08FEF8093D1
:1014B0006A0180E393E00E9469188091600160E016
:1014C0000E94371884E293E00E94691880E691E058
:1014D00060E00E94941187FD2BC0809160018330F1
:1014E00010F483E003C08A3118F089E18093600131
:1014F0008FEE94E00E94691882E093E00E946918E0
:101500008091620160E00E94371886EF92E00E94AD
:10151000691882E691E060E00E94941187FD08C09E
:101520008FEE94E00E94691889EE92E00E9469189B
:101530000E94780580E090E06091A2010E948B1CDF
:1015400087E190E06091B4010E948B1C81E090E003
:10155000609161010E948B1C88E190E060917401B0
:101560000E948B1C86E190E0609162010E948B1CBE
:1015700083E290E0609160010E948B1C09E110E021
:10158000F801EF5AFE4FC80160810E948B1C0F5F6B
:101590001F4F03321105A1F782E090E00E94A21BC9
:1015A00081E00E947B1758981092840180918401F9
:1015B000813009F04CC01092840180916201813029
:1015C00019F0823079F528C00E94421280E00E9412
:1015D0007B170E9405058823D1F15B9A09E111E090
:1015E0000EC00E94C5070E94E30C809184018823ED
:1015F00051F480915F01882331F00F5F1F4FF80194
:101600008491882371F7109284010E94780581E00B
:101610000E947B175B981BC0429A87E791E00E946B
:10162000AC0C15C05B9A80E00E947B1702C00E9440
:10163000E30C809184018823D1F31092840181E02E
:101640000E947B175B98589880E00E9479068091F1
:101650005F01882309F4EFC08091A2018F3F09F454
:10166000E3C00E94A01A599A0E94C617882321F04D
:10167000813009F0DCC002C05998DDC00E94050528
:10168000882309F4A9C00E9442128BE10E94FD0642
:101690008091EA0182608B7F8093EA010AE611E083
:1016A000F80180818A3040F40E941C140F5F1F4FA4
:1016B000F1E004371F07A1F78E01095F1F4FC80132
:1016C0000E94AC0CEE24FF24DD24C02E012F0E94CA
:1016D000D7038091800161E871E00E944D128091F2
:1016E000B201883079F58091B0016AEE71E00E9414
:1016F0008C101092B201982F90539A3030F4892FA9
:101700000E941C14DD24D39412C08C3629F4DD20F1
:1017100059F40E94360660C0882349F0803239F0BF
:101720008D3029F08A3019F00894E11CF11C8C2DC1
:10173000902F0E94AC0C06C08FE30E94C50708944E
:10174000E108F108E114F10439F08C2D902F0E948A
:10175000CD0C883C910580F70E94C413882309F0C2
:10176000CFC08C2D902F0E94CD0CDD2029F428E9CC
:101770003AE340E050E004C028EC3FEA40E050E0AB
:10178000A0E0B0E0281739074A075B07E4F4589A4D
:1017900081E00E94921780E00E947B17DD2019F003
:1017A0000E94780507C087E791E00E94AC0C02C058
:1017B0000E94D70380915F018823D1F7589881E078
:1017C0000E947B1709C080915F01882329F00E9445
:1017D000DE13882309F47BCF81E00E949217809169
:1017E0006101882369F00E94D513909161018917E6
:1017F00039F459980E94780583E00E9479061BC04D
:1018000080917401882331F00E94D5139091740166
:10181000891739F00E94D5139091A20196958917E6
:1018200019F40E94360607C00E94780504C08FE0B4
:1018300090E00E94BA050E94C4138823F9F00E9428
:10184000D7035A9A589A0E940505882349F45A9852
:1018500081E00E94921781E00E94790658980EC09C
:1018600058980E94C617823031F081E00E9492178A
:101870000E94780503C080E00E942F0780E00E944C
:101880001A1C8823B9F00E94421280E00E947B1744
:10189000589A0E940505882369F08091EA018E7F9D
:1018A0008093EA010E94271C0E94780581E00E9433
:1018B0007B17589880918901882389F0609189016C
:1018C0008BE891E00E946B19882339F00E943D1A41
:1018D000882319F082E00E947906109289013399D9
:1018E00005C0429A87E791E00E94AC0C87E791E03F
:1018F0000E94CD0C81569A4E08F4C5CC4298C3CCB8
:1019000081E00E942F070E94A01A95CF82E0809369
:10191000B00084E08093B10085EE8093B300E0E7EF
:10192000F0E080818260808308951F920F920FB64D
:101930000F9211248F939F93809182019091830144
:10194000019690938301809382019F918F910F90D4
:101950000FBE0F901F901895FC012FB7F89480913F
:1019600082019091830191838083138212822FBF21
:101970000895FC0180819181860F971F9183808358
:10198000828193818617970718F413821282089533
:10199000861B970B938382830895FC018FB7F8947D
:1019A000409182015091830120813181421B530B70
:1019B0008FBF828193818417950710F453834283EC
:1019C000828193810895809126018130A9F0813030
:1019D00018F0823039F522C0319909C087E291E0D0
:1019E0000E94CD0CC397F0F081E08093260187E23E
:1019F00091E00E94AC0C089531990BC087E291E010
:101A00000E94CD0C8152934068F082E080932601C1
:101A100002C010922601809384010895319B02C078
:101A20001092260108951092840103C0A8950E9487
:101A3000E30C809184018823C9F380918401109282
:101A4000840190E0823009F491E0892F08954FB726
:101A5000F89490919B0121E030E002C0220F331FE7
:101A60008A95E2F72095292320939B014FBF089583
:101A70004FB7F89490919B0121E030E002C0220F13
:101A8000331F8A95E2F7922B90939B014FBF0895E5
:101A9000982F8A3991F08B3928F4833941F08639AF
:101AA00091F405C08C3949F0893A69F4089581E0D0
:101AB00080939E011092A501089581E080939E017C
:101AC0008093A501089580913F01E82FF0E0E55D46
:101AD000FE4F90838F5F80933F0180913F0184315F
:101AE00048F080914001882311F483E10CC01092EA
:101AF0003F010BC090913F0180914001981729F45C
:101B000080913F01815080933F0180919B018064CF
:101B100080939B0180919B018F7780939B01089517
:101B20001F920F920FB60F9211242F933F934F9352
:101B30005F936F937F938F939F93AF93BF93EF9335
:101B4000FF93809185019091860101969093860183
:101B5000809385018091B90090E0887F90708036F5
:101B6000910509F4F5C081369105CCF588329105CF
:101B700009F4A8C089329105B4F48031910509F4C3
:101B800080C0813191053CF4009709F4B7C00897F3
:101B900009F061C165C08831910509F476C080976C
:101BA00009F059C186C08034910509F4E8C0813438
:101BB000910544F48033910509F484C0C89709F075
:101BC0004AC1A1C08035910509F4AAC088359105A4
:101BD00009F4A6C08834910509F03DC19AC088393E
:101BE000910509F404C189399105ECF48837910510
:101BF00009F4DBC0893791054CF48836910509F466
:101C0000A2C08037910509F026C1D4C0883891055B
:101C100009F4B7C08039910509F4D7C0803891051F
:101C200009F019C1A8C0803B910509F4F5C0813BBA
:101C300091054CF4803A910509F4A8C0883A9105C1
:101C400009F009C1EEC0803C910509F4F1C0883C5F
:101C5000910509F4EDC0883B910509F0FCC0E1C095
:101C600080918701843029F41092BB0010924201C8
:101C7000DCC080918701813021F08091A1018160D9
:101C8000D2C08091A1018E7FCEC080918701843027
:101C900059F480914201E82FF0E0E557FE4FE081D2
:101CA0008F5F8093420102C0E0918A01E093BB0004
:101CB000D2C085E080938701809187018430E1F074
:101CC00081E03EC080918701843099F49091420177
:101CD00080918901981768F480914201E82FF0E023
:101CE000E557FE4F90818F5F809342019093BB0038
:101CF000B2C085E0809387011092A40181E08093B7
:101D0000A60185E5ABC08091A3018F5F8093A301FD
:101D1000A4C085E08093870181E08093A401EFCF88
:101D20008091BB008093410180918701823009F747
:101D30008091410187FD91C085E08093870183E018
:101D40008093A401DBCF8091A3018F5F8093A301D7
:101D5000A89510929D0110929C011092A6011092DC
:101D600042019091BB0080919F01815096958923FB
:101D70008093A00104C08091BB000E94480D85E0C3
:101D80006DC08091BB000E94480D52C081E08093DD
:101D9000A6019091420180918901891708F04BC0FA
:101DA000809142018093890146C08091A3018F5F99
:101DB0008093A30110929D0110929C011092A601A4
:101DC000109242011092890146C09091BB0080910F
:101DD0004201803108F03FC080914201E82FF0E0DD
:101DE000E557FE4F90838F5F8093420134C09091FE
:101DF000BB0080914201803150F480914201E82F74
:101E0000F0E0E557FE4F90838F5F80934201809111
:101E10004201809389010CC08091A3018F5F809360
:101E2000A30180919B018093BB001092A60113C077
:101E300081E08093A60180918701833071F08091C9
:101E40008701813051F080918701823031F080919B
:101E50008701843011F085E401C085E680688093B5
:101E6000BC00FF91EF91BF91AF919F918F917F91B6
:101E70006F915F914F913F912F910F900FBE0F90F7
:101E80001F90189580918701882321F08091870108
:101E90008530C1F70895982F80918701882321F01C
:101EA000809187018530C1F72FB7F89490938A010C
:101EB00097FF02C081E001C082E08093870180919A
:101EC000A601882349F08091BC0084FDFCCF80915D
:101ED000BC0080628093BC002FBF08958091870171
:101EE000882321F0809187018530C1F79FB7F8944E
:101EF00084E0809387018091A601882349F0809136
:101F0000BC0084FDFCCF8091BC0080628093BC004B
:101F10009FBF0895982F80918701882321F0809199
:101F200087018530C1F72091A1019093A10183E041
:101F3000809387018091A601882349F08091BC009D
:101F400084FDFCCF8091BC0080628093BC008091B6
:101F50008701882321F0809187018530C1F7209384
:101F6000A1018091A401882319F02FEF3FEF04C055
:101F700080914101282F30E0C90108951F93182F47
:101F800082508B3DF0F410FD1CC0812F0E948A0FFF
:101F900097FF17C09FB7F8941093BA0080918801FB
:101FA000882329F08091BA0081608093BA008091E3
:101FB000BC0080648093BC001093A2019FBF81E0AD
:101FC0000EC08FB7F8941092BA009091BC009F7B1E
:101FD0009093BC009FEF9093A2018FBF80E01F9170
:101FE000089581E08093A601109287011092A401C8
:101FF0001092A3011092400110923F0110928601AD
:102000001092850110929D0110929C0110928A01FC
:102010008093B9008BE38093B8008091A2018E7FFA
:102020008093BA0010928901109242018091880138
:10203000882329F08091BA0081608093BA0084E8F7
:102040008093BC0080919F018150880F8093BD00D8
:102050000895613041F48A3080F4882311F48CEDC6
:1020600008958C5908C0623041F4882311F488EC3B
:102070000895843610F4880F08958FEF0895982FEF
:10208000FB0182508B3D10F010820DC09695953665
:1020900030F081E080839E3630F4945605C082E0B3
:1020A0008083943609F490E0892F0895DC019091A3
:1020B000400180913F01981711F480E008959091BC
:1020C0004001E92FF0E0E55DFE4F80818C939F5F3A
:1020D0009093400180914001843110F010924001B2
:1020E0009091400180913F01981711F081E008958F
:1020F0009FB7F89480919B018F7B80939B019FBF3A
:1021000081E008959091400180913F0120E098176F
:1021100009F421E0822F0895982FFB018B3119F4E7
:1021200082E0808303C08F3119F4108280E008952B
:1021300080818E7F80838670E92FF0E0823021F4E9
:10214000E153FB4F84910895E155FB4F849108952D
:10215000282F6670623019F0EFEAF4E002C0EFEC6D
:10216000F4E0822F81548A3108F4205E90E084915B
:10217000281731F09F5F903211F03196F8CF9FEF22
:10218000892F0895CF92DF92FF920F931F93CF93E1
:10219000DF93F82E6B01EA0189018FEFF90180834B
:1021A000FFE0FF1641F1FEE0FF16A9F0FB016081A0
:1021B00060FF09C0F7E1FF1631F08F2D0E94A810D3
:1021C00088838F3FE9F48F2D60E00E94A810F8010A
:1021D00080838F3F31F08FE1888381E0F601808337
:1021E00010C08F2D62E00E94A810F80180838F3FFD
:1021F00011F480E006C08BE1888383E0F6018083E0
:1022000081E0DF91CF911F910F91FF90DF90CF90F0
:102210000895FF920F931F93CF93DF93EC01F62E57
:1022200010E000E001C000E20E9412078A30A9F02D
:102230008B3028F4882351F0893051F5F5CF803266
:1022400021F1833289F38D3019F507C0112319F07C
:10225000C10FD11D188280E035C0112389F40023FD
:1022600019F3802F8D52823060F10B3251F10D3312
:1022700041F10F3231F1003229F00883198203C095
:10228000C10FD11D188282E01DC0112361F202C06E
:10229000803250F21F1540F6112369F4002311F427
:1022A000082FC2CF003219F4888311E0BDCF088314
:1022B000898312E0B9CFFE01E10FF11D80831F5F1A
:1022C000B3CF81E0DF91CF911F910F91FF900895DF
:1022D000CF93DF93EC010E9412078133E9F0823340
:1022E00058F48033E0F48E32A8F48B32A9F08D32AA
:1022F000B1F0882369F0EFCF8E3689F08F3628F45D
:102300008D3341F08A3639F707C0893721F704C089
:1023100080E007C081E005C081E0888301C01882A9
:1023200082E0DF91CF910895FF920F931F93CF9397
:10233000DF93EC01062F10E08AE0F82E0E941207CE
:10234000282F80538A3068F4112331F088818F9DC3
:10235000C00111248053820F88831F5F101771F70B
:1023600012C0822F8D52823070F02B3261F02D33EB
:1023700051F02F3241F0222311F48FEF05C02930A4
:10238000E9F21123D9F2812FDF91CF911F910F91A3
:10239000FF900895EF92FF920F931F93DF93CF93D7
:1023A00000D0CDB7DEB78E010F5F1F4F92E0E92E50
:1023B000F12CEC0EFD1E8091A201B8010E943F108D
:1023C0008A8382E695E00E9469188A8169810E9469
:1023D000371885EF94E00E946918C70162E00E94F7
:1023E000941187FD45C0882339F48091A201B8017A
:1023F0000E943F108A8301C0898390919F0191952B
:102400008A8189238A8387E595E00E9469188A81F9
:1024100069810E94371880E20E94C5078A8169811C
:102420000E9429100E94BE0F8823B9F08FEE94E01D
:102430000E94691880E095E00E9469188091B401BB
:102440000E94771885EF94E00E94691884EB91E070
:102450000E946811882361F005C087E295E00E9420
:102460006918A9CF8FEE94E00E94691881E001C03D
:1024700080E00F900F90CF91DF911F910F91FF900F
:10248000EF9008951092B2011092B30180E890E0AD
:10249000909344018093430108951F93CF93DF935A
:1024A000182FEB018091B301883030F4823088F529
:1024B000813009F05AC004C0883009F056C047C0C6
:1024C0008091B201882329F08091B201883009F00F
:1024D0004CC087EA91E00E94CD0CCC9708F445C02F
:1024E00018828CEA91E00E94AC0C82E08093B301E8
:1024F0008091B1018F718093B1018091B101880FFA
:10250000880F8093B1018091B10183608093B10104
:102510002CC08091B101188287FF02C081E08883BE
:102520008CEA91E00E94CD0C4497F8F08CEA91E09F
:1025300064E170E00E94B90C8091B101880F809332
:10254000B1018091B3018F5F8093B3010EC081E030
:1025500088838CEA91E00E94CD0C4E9730F08CEA93
:1025600091E00E94AC0C1092B3018091B2018730CF
:1025700048F4823008F06FC0882389F0813009F078
:10258000FFC022C0873009F494C0883009F0F8C039
:1025900087EA91E00E94CD0C039708F4F1C0112363
:1025A00009F0EEC087EA91E00E94AC0C81E08093D4
:1025B000B2011092B00180E890E0909344018093C2
:1025C00043011092AB01DCC0112369F080914301FB
:1025D000909144018F3F9105B4F480914301909113
:1025E000440101960CC0809143019091440118165A
:1025F00019064CF480914301909144010197909306
:1026000044018093430180914301909144018739B3
:102610009105F4F487EA91E00E94CD0C0B9708F441
:10262000AFC080914301909144018038910584F4BA
:1026300082E08093B20180E890E09093440180931F
:10264000430187EA91E068E070E00E94B90C98C00D
:102650001092B20195C087EA91E00E94CD0C40979C
:1026600008F48EC0112369F08091430190914401D8
:102670008F3F9105B4F480914301909144010196FC
:102680000CC08091430190914401181619064CF436
:10269000809143019091440101979093440180936C
:1026A000430187EA91E00E94CD0C449708F046C0B0
:1026B00067C087EA91E00E94CD0C409708F460C0A3
:1026C000112369F080914301909144018F3F91055E
:1026D000B4F4809143019091440101960CC0809123
:1026E000430190914401181619064CF4809143015E
:1026F000909144010197909344018093430187EAAC
:1027000091E00E94CD0C0F97D8F18091B2018730F3
:10271000A9F41123A9F1809143019091440120E093
:10272000803891050CF421E02093AB0188E0809380
:10273000B20187EA91E00E94AC0C22C08091B00106
:10274000880F8093B00180914301909144018038BB
:1027500091052CF08091B00181608093B00180914F
:10276000B2018F5F8093B20187EA91E064E170E08B
:102770000E94B90C80E890E090934401809343015B
:10278000DF91CF911F9108958091B501833031F091
:102790008091B50120E030E0843011F421E030E098
:1027A000822F08958091A001089580914A01089593
:1027B0008091480108958093470108958091B50163
:1027C000882331F08091B50120E030E0853011F4AC
:1027D00021E030E0822F089586EB91E00E94851879
:1027E0000895CF93DF93EC018CEE91E00E94851861
:1027F000882311F080E006C08CEE91E00E94D5188D
:10280000888381E0DF91CF9108951F93182F86EB85
:1028100091E0612F0E94AE18882361F01F3121F4EE
:1028200081E08093EA0106C01B3119F483E08093B4
:10283000EA0181E01F910895682F8091B5018230EF
:1028400049F480914B01882329F086EB91E00E94A6
:10285000AE18089589E090E00E94BA05089586EBCD
:1028600091E00E948E180895DF93CF9300D0CDB7EA
:10287000DEB76AEE71E0AE014F5F5F4F9E012E5FE3
:102880003F4F0E94C210882379F086EB91E0698166
:102890000E94AE18882349F06A816F3F29F086EBC9
:1028A00091E00E94AE18811181E00F900F90CF91BE
:1028B000DF910895EF92FF920F931F93DF93CF93D1
:1028C0000F92CDB7DEB78C017E010894E11CF11C9C
:1028D000C7010E94F113882351F089816AEE71E0EB
:1028E0000E948C10F8018083882391F381E00F907F
:1028F000CF91DF911F910F91FF90EF900895FF927C
:102900000F931F93082F8091B501081709F4CEC0CB
:10291000FFB6F89410924B01033009F45AC004300A
:1029200028F40130A9F10230E0F517C0053009F4B0
:10293000A7C0053008F467C0063009F4AAC0073004
:1029400009F0B1C080919B018F7780939B018091AA
:102950009B018F7E80939B0118C080919B018074A6
:1029600080939B0180919B01806880939B01809163
:10297000B401882329F080919B01806180939B01A1
:1029800081E080934701809348011092A1018BC0A0
:1029900080919B018F7780939B0180919B018F7E1B
:1029A00080C080919B018F7780939B0180919B01D8
:1029B0008F7E80939B011092490110924A0181E021
:1029C00080934B0186EB91E00E9481181092EA01FE
:1029D0006AC080919B018F7780939B0180919B01BE
:1029E0008F7E80939B0180919B01806180939B01EE
:1029F00080919B01886080939B0181E08093A50179
:102A00008093480150C080919B0187FF0FC0809147
:102A10009B018F7780939B0180919B018F7E809398
:102A20009B0180919B01806180939B0180919B0120
:102A3000806280939B0180919B01826080939B01C7
:102A400080919B01846080939B0180919B018160B8
:102A500080939B0111E01093000186EB91E00E94AE
:102A600081188CEE91E00E9481181092EA010E9478
:102A700042121093A501109347011093480113C00F
:102A800080919B018F7D80939B0180919B01877F2B
:102A900008C080919B018F7D80939B0180919B0159
:102AA0008D7F80939B010093B501FFBE1F910F9115
:102AB000FF9008950E94420F80914A016091490160
:102AC0000E9429108093A1018091A20186950E9405
:102AD0004B0F0E94420F8CE491E00E94AC0C80915D
:102AE000A401882369F482E080934B0183EA0E9469
:102AF0004B0F0E94420F8CE491E00E94AC0C0895B1
:102B00008091A401833059F41092A4011092A10184
:102B100085E00E947F1482E680934601089510921A
:102B2000A4011092A10180914901823030F085E02A
:102B30000E947F1488E78093460108951F93DF93D6
:102B4000CF9300D0CDB7DEB7CE0101960E945610CC
:102B5000882309F443C08091B501873021F481E0D6
:102B600090E00E94BA059981953AE9F0963A28F4E6
:102B7000903850F0933A91F510C09A3A11F19C3A7E
:102B800031F1963A59F515C08091B501882331F598
:102B9000990F9093A10181E01FC08091B501813010
:102BA000E9F483E019C08091B5018230B9F484E082
:102BB00013C08091B501823089F483E080934B018A
:102BC0000DC08091B501882349F085E005C0809152
:102BD000B501863019F480E00E947F148091B50120
:102BE000843009F444C0863009F4E8C0823009F02A
:102BF000EFC086EB91E00E948518882309F0E8C0B9
:102C000080914B01823009F4E3C086EB91E00E9491
:102C1000D518182F809149018F5F809349018091C9
:102C20004B018130B1F480914901813019F4109346
:102C30004A010DC080914901823059F480914A01C6
:102C40002AE0829FC0011124810F80934A010E94D3
:102C50005A1580914B01833009F0BAC0812F8055FD
:102C60000E944B0F8CE491E00E94AC0CB1C08091AB
:102C70009E01882359F08091A501882321F082E0EC
:102C80000E94380D03C082E00E94270D86EB91E080
:102C90000E948518882369F48091B301882349F440
:102CA00086EB91E00E94D5188093B10181E080937A
:102CB000B3018091EB01882319F48091470119C079
:102CC000813019F48091A50114C0823089F480917B
:102CD000A501882319F480E090E00BC080914701A2
:102CE00090E0882309F491E081E09827892F01C0C2
:102CF00081E0BE016E5F7F4F0E944D128091B20154
:102D0000883041F46091B0018CEE91E00E94AE18E1
:102D10001092B2018091A501809348011091470162
:102D20008091B3018823A9F08091B301813089F0AB
:102D300080912002882321F48A818093480109C070
:102D4000813011F41A8105C0823019F41A81109370
:102D50004801112321F080E00E94380D03C080E07B
:102D60000E94270D8091A601882391F1809187010F
:102D7000882371F5112381F080910001823021F0C8
:102D800080910001833011F48CE90FC08091000123
:102D90008823F1F48AE909C080910001882321F099
:102DA00080910001813021F483E90E944B0F10C013
:102DB00080910001823061F486E9F7CF80E591E0EF
:102DC0000E94CD0C815A9F4018F080E00E947F1431
:102DD00080918701853011F58CE491E00E94AC0C64
:102DE0008091A4018823C1F480918A01863961F021
:102DF000873918F4833981F405C08A3951F08C3948
:102E000059F404C082E006C083E004C010920001BF
:102E100003C081E080930001109287018091A1019D
:102E20008823D1F08091A6018823B1F08091870199
:102E3000882321F080918701853071F48CE491E042
:102E40000E94CD0C8251934038F089EA0E944B0FCA
:102E50008CE491E00E94AC0C8091A101882341F0A8
:102E60008091B501863021F08091B501853009F45B
:102E7000A8950F900F90CF91DF911F9108951F9209
:102E80000F920FB60F9211242F933F934F935F939E
:102E90006F937F938F939F93AF93BF93EF93FF9322
:102EA000809145018823B1F481E0809345018091B0
:102EB0006E008E7F80936E0078940E949E1588E449
:102EC00086BD81E085BB80916E00816080936E003D
:102ED00010924501FF91EF91BF91AF919F918F911A
:102EE0007F916F915F914F913F912F910F900FBE06
:102EF0000F901F9018951F93182F8091B50188236C
:102F000041F08091B501873021F08AE090E00E9485
:102F1000BA05112311F080E001C087E00E947F1400
:102F20001F9108951F93182F8091B501882361F197
:102F30008091A101882319F40E947F1425C081E0AB
:102F4000809345018091B501853049F48CEA0E9457
:102F50004B0F0E94420F80E00E947F140AC08AEA51
:102F60000E944B0F86E00E947F1480E591E00E9452
:102F7000AC0C1092450102C00E949E158091B501D3
:102F8000863011F41123C1F71F9108958091B50186
:102F9000833091F481E08093450185EA0E944B0FD4
:102FA0000E94420F89EA0E944B0F84E00E947F1426
:102FB0001092450182E008958091A2018F3F11F4A3
:102FC00080E008958091B501882321F088E090E0A9
:102FD0000E94BA0581E0809345019FB7F8948091E3
:102FE0009B018F7780939B0180919B018F7E8093C3
:102FF0009B0180919B018F7E80939B019FBF82E00C
:103000000E947F141092450181E0089514BC82E073
:1030100085BD80916E00816080936E0080E8809312
:103020009B018091B401882329F080919B018061EC
:1030300080939B010E94421280E00E947F1486EBE5
:1030400091E00E9481188CEE91E00E94811810920C
:10305000450181E0809320028093EB0108958A303E
:1030600010F4805D01C0895A0E94C50708951F931E
:10307000282F362F6AE00E94321E482F822F0E948E
:10308000321E192F442311F432302CF03150842F8A
:10309000632F0E943718812F0E942F181F910895C7
:1030A0001F93182F82958F700E942F18812F8F7079
:1030B0000E942F181F910895CF93DF93EC0103C056
:1030C0000E94C507219688818823D1F7DF91CF918F
:1030D0000895CF93DF93EC0103C00E94C5072196AA
:1030E000FE0184918823C9F7DF91CF910895882349
:1030F00019F489E795E002C08EE795E00E9469180F
:103100000895FC0112AA13AA0895FC0193A982A9AB
:1031100020E0981709F421E0822F0895FC0182A98C
:10312000813310F090E002C0982F9F5F83A9981719
:1031300089F082A9813310F080E005C08F5F813370
:1031400011F490E002C0982F9F5F83A920E030E047
:10315000981711F421E030E0822F0895DC01D29617
:103160008C91D297813310F090E002C0982F9F5F2E
:10317000D3968C91D397981711F480E008959FB758
:10318000F894D2968C91D297FD01E80FF11D6083DF
:10319000D2968C91D297813310F080E001C08F5F7E
:1031A000D2968C939FBF81E00895DC012FB7F894ED
:1031B000D3968C91D397FD01E80FF11D8081D396B2
:1031C0009C91D397913310F090E001C09F5FD3960C
:1031D0009C932FBF0895FC0192A983A9981718F01A
:1031E00022A983A903C022A983A92E5C281B822FB0
:1031F0000895FC0183A9E80FF11D80810895809155
:10320000A101882329F484E591E00E94AC0C089583
:1032100084E591E00E94CD0C835A924098F0809111
:10322000A601882379F080918701882321F080917D
:103230008701853039F489EA0E944B0F84E591E0DB
:103240000E94AC0C0895AF92BF92DF92EF92FF9272
:103250000F931F93DF93CF9300D000D00F92CDB781
:10326000DEB77C018E010E5F1F4FC8010E94AC0CBF
:103270005E010894A11CB11CD02E012FC5010E9433
:103280005610882319F089818C3A49F08D2D902FA2
:103290000E94CD0CE816F90610F0A895EFCF0F901C
:1032A0000F900F900F900F90CF91DF911F910F9182
:1032B000FF90EF90DF90BF90AF900895109224029E
:1032C00010922502109222021092210210922302E3
:1032D000109226020895FC016830F8F08081833650
:1032E000E1F481818C36C9F482818B36B1F483811B
:1032F0008093240284818093250285818093220219
:10330000868180932102878180932302683019F09F
:1033100080858093260281E0089580E00895FF92E1
:103320000F931F938C01F62E862F6AE00E94321EA7
:10333000805D62E00E94A810F80180838F2D6AE012
:103340000E94321E892F805D62E00E94A810F80161
:1033500081831F910F91FF9008951F93CF93DF9367
:10336000EC0180912202882389F18BE1888380918E
:103370002602805D62E00E94A810898387E18A832B
:10338000CE010396609122020E948F1917E01D83DF
:10339000CE010696609125020E948F191887CE01F2
:1033A0000996609124020E948F1984E08B87CE01D8
:1033B0000C96609121020E948F198EE08E87CE01BB
:1033C0000F96609123020E948F1981E1DF91CF91C6
:1033D0001F910895109229021092280210922B0238
:1033E00010922A0210922D0210922C0210922F029B
:1033F00010922E02109227021092580110925A0138
:103400001092590110925C0110925B010895982F5F
:10341000FA01A081B18142815381A417B50711F44B
:1034200080E0089570E0A417B507A8F48CE3989F96
:10343000C0011124860F971F8A179B0718F480E09C
:1034400090E0089520E08417950708F021E081E0DE
:103450002827822F08958CE3989FC0011124860F9E
:10346000971F8417950728F020E030E08A179B0704
:1034700010F021E030E0822F08950F931F93809188
:10348000580110912102009123028823E9F0109243
:1034900058018CE3189F90011124200F311D3093A7
:1034A0005A0120935901C9010A9690935C018093B7
:1034B0005B01815A954008F43FC02659354030934E
:1034C0005C0120935B0138C0812F602F49E551E0FA
:1034D0000E94071A882381F510925A01109259010F
:1034E00010925C0110925B0180912702882391F475
:1034F000812F602F48E252E00E94071A882319F0BA
:1035000081E090E01AC0812F602F4CE252E00E94CF
:10351000071A13C080912602863038F0812F602F61
:103520004CE252E00E94071A08C0812F602F48E247
:1035300052E00E94071A01C080E01F910F91089588
:1035400081E08093580108950F931F93DF93CF93E9
:1035500000D0CDB7DEB78C01FC01808191816CE396
:1035600070E00E943E1E862F698324EC3FEF629F2D
:10357000202D11249081290F2A8362E00E943718A0
:103580008A8162E00E94371885EF94E00E946918F2
:10359000CE01019662E00E9494118823E1F0CE01F1
:1035A000029662E00E94941187FF02C080E014C07E
:1035B00089812CE3829FC00111242A81820F911DF1
:1035C000F80191838083815A954028F080EA95E044
:1035D000F8019183808381E00F900F90CF91DF916C
:1035E0001F910F910895DF93CF930F92CDB7DEB760
:1035F00083E096E00E946918209128023091290208
:1036000080912A0290912B022817390769F440E033
:1036100050E020912C0230912D0280912E02909149
:103620002F022817390711F041E050E04983842F19
:103630000E94771885EF94E00E946918CE010196E8
:103640000E946811882309F478C08981882389F44D
:10365000809128029091290290932B0280932A0254
:1036600080912C0290912D0290932F0280932E0234
:1036700062C08FEC95E00E94691881EC95E00E9491
:10368000691881E60E94C5078AEB95E00E946918D7
:1036900088E292E00E94A41A882309F44EC08FEEBB
:1036A00094E00E9469188DEA95E00E9469188AE208
:1036B00092E00E94A41A882309F43FC08FEE94E0A0
:1036C0000E94691881EC95E00E94691882E60E94C8
:1036D000C5078AEB95E00E9469188CE292E00E948F
:1036E000A41A882351F18FEE94E00E9469188DEAA4
:1036F00095E00E9469188EE292E00E94A41A882345
:10370000E1F08FEE94E00E94691881E895E00E9454
:103710006918809127020E94771885EF94E00E9433
:10372000691887E292E00E946811882331F08FEED9
:1037300094E00E94691881E001C080E00F90CF9171
:10374000DF9108950F931F938C016091280270916F
:1037500029020E94D11C60912A0270912B02C8019B
:1037600002960E94D11C60912C0270912D02C8011A
:1037700004960E94D11C60912E0270912F02C80104
:1037800006960E94D11CC8010896609127020E94EB
:10379000CE1C1F910F9108950F931F938C0160E031
:1037A00070E040E050E02FE935E00E94BC1D9093AE
:1037B000290280932802C801029660E070E040E090
:1037C00050E02FE935E00E94BC1D90932B028093BE
:1037D0002A02C801049660E070E040E050E02FE962
:1037E00035E00E94BC1D90932D0280932C02C801ED
:1037F000069660E070E040E050E02FE935E00E947E
:10380000BC1D90932F0280932E02C801089660E0A1
:103810000E94281E809327021F910F9108951092F5
:1038200032028FEF90E09093310280933002109239
:103830003302089590913202882311F010923202DF
:10384000892F0895809130029091310208958091DE
:1038500032028823D9F18DE896E00E9469188091A0
:103860003202823069F0833018F48130A1F405C04F
:10387000833059F0843079F40BC08AE796E002C0B7
:1038800087E696E00E9469180FC083E596E0FACFBC
:1038900085E496E0F7CF89E396E00E94691880916D
:1038A000320260E00E9437188FE296E00E946918A9
:1038B000809131020E945018809130020E9450186D
:1038C00087E296E00E946918109232020895FF92F2
:1038D0000F931F93082FF92E162F0E94521E1817B0
:1038E000B1F0802F9F2D612F0E945A1E802F9F2D97
:1038F0000E94521E181759F080913202843038F419
:1039000084E08093320200933002F09231021F91E2
:103910000F91FF900895FF920F931F938C01F62E45
:103920000E94671CC80180569F4F6F2D0E94671C24
:10393000C801805C9E4F6F2D0E94671C1F910F91E4
:10394000FF900895CF92DF92EF92FF921F93CF9353
:10395000DF937C016B0110E0C42FD0E0219705C0FC
:103960008E0D9F1D0E948B1C1F5F812F90E08C1776
:103970009D0734F4F601E80FF91F6081662381F793
:10398000C701810F911D60E00E948B1CDF91CF91D8
:103990001F91FF90EF90DF90CF9008950E948B1CB5
:1039A0000895FF920F931F938C01F62E672F0196B7
:1039B0000E948B1CC8016F2D0E948B1C1F910F91C0
:1039C000FF900895BF92CF92DF92EF92FF920F93F4
:1039D0001F93CF93DF93EC01B62E0E94521E182F37
:1039E00090EAC92ED12CCC0EDD1EC6010E94521EBB
:1039F000082F80E4E82E81E0F82EEC0EFD1EC701B2
:103A00000E94521E101719F4181709F446C00F3FF0
:103A100011F48F3FD9F0101761F480913202823097
:103A2000A8F482E080933202F0923102E0923002F8
:103A30000DC0181781F480913202823038F482E090
:103A400080933202D0923102C0923002CE01612FB7
:103A50000E948B1C22C090913202081789F4923088
:103A600048F482E08093320280EA90E09093310241
:103A700080933002CE01602F0E948B1C102F0DC04E
:103A8000933038F483E080933202D0933102C093B4
:103A9000300281E0809333021B2D812FDF91CF9183
:103AA0001F910F91FF90EF90DF90CF90BF900895FE
:103AB0005F926F927F928F929F92AF92BF92CF92BE
:103AC000DF92EF92FF920F931F93CF93DF933C010E
:103AD000EB01D42E4901109233025B017B0100E01F
:103AE00010E0552453941DC0F401E00FF11FE49140
:103AF000C801860D971D6E2F0E94E21CD7018C9382
:103B00008F3710F050923302F7018081882361F0E3
:103B10000F5F1F4F0894E11CF11C80913302882332
:103B200019F4C02E0D1500F380913302882371F033
:103B300080E090E008C0F401E80FF91FE491D5019E
:103B4000ED935D0101968D15B0F302C0CD1420F008
:103B5000CD0DD11D21971882DF91CF911F910F912B
:103B6000FF90EF90DF90CF90BF90AF909F908F909D
:103B70007F906F905F900895AF92BF92CF92DF9247
:103B8000FF920F931F93CF93DF93EC01162F072F14
:103B90006A015901109233020196672F0E94E21CBC
:103BA000F82ECE01612F0E94E21C282F8091330253
:103BB0008823D9F49F2D80E030E0282B392B2C1559
:103BC0003D0518F0A216B30698F4809132028823BE
:103BD00039F481E080933202D0933102C0933002F5
:103BE000CE01612F702F0E94D11C812F902F9C013C
:103BF000C901DF91CF911F910F91FF90DF90CF907E
:103C0000BF90AF900895FF920F931F93CF93DF93D0
:103C1000EC01062F142FF22E0E94E21C811710F0E7
:103C2000F81680F480913202882339F481E0809381
:103C30003202D0933102C0933002CE01602F0E9435
:103C40008B1C802FDF91CF911F910F91FF900895D2
:103C500040E021E00E94031E90E0813009F491E0F1
:103C6000892F0895991B79E004C0991F961708F0D1
:103C7000961B881F7A95C9F780950895AA1BBB1BD0
:103C800051E107C0AA1FBB1FA617B70710F0A61B5C
:103C9000B70B881F991F5A95A9F780959095BC017D
:103CA000CD010895F999FECF92BD81BDF89A99276B
:103CB00080B50895262FF999FECF1FBA92BD81BD18
:103CC00020BD0FB6F894FA9AF99A0FBE019608959E
:043CD000F894FFCF96
:023CD4000100ED
:00000001FF
