:100000000C9448010C9465010C9465010C946501F5
:100010000C9465010C9465010C9465010C940A1410
:100020000C9465010C9465010C9465010C946501B8
:100030000C9465010C9465010C9465010C946501A8
:100040000C946E0B0C9465010C9465010C94650185
:100050000C9465010C9465010C9465010C94650188
:100060000C94CB0D0C9465015F5F5F69746C785FD5
:1000700054573339706C75735F5F5F4A616E20202F
:100080003220323031375F5F5F30393A34353A32BF
:10009000345F5F5F3236385F5F5F000D0A202B2BC5
:1000A0002B200D0A0029206E6575202830203D2068
:1000B000617573293A202020202000617573000D9E
:1000C0000A206B6F6D6D656E646520616E7275667A
:1000D00065207370657272656E206D69743A2028B0
:1000E000616B742E20002F3130302073656B293FF7
:1000F000202020202020000D0A206C61656E67659D
:10010000207761686C617566662D696D702E202898
:10011000616B742E20000D0A20776165686C736333
:10012000686569626520766F7268616E64656E3FAE
:10013000202020202020000D0A206B6F6E6669674A
:1001400075726174696F6E2074773339706C757372
:100150002076657273696F6E203236382064617460
:10016000756D204A616E20203220323031370023F5
:10017000740D6F20686E6D0A6C72676970637665C6
:100180007A64627379667861776A0F75716B0E00B5
:1001900023350D3920232C2E0A29342338303A3DBB
:1001A000332B233F2736232F2D32250F3731280EAF
:1001B00000206F6B2E2000207363686F6E207665C1
:1001C00072676562656E206F64657220756E677513
:1001D000656C7469672C20616E6465726520776157
:1001E00065686C656E21000D0A2070727565666524
:1001F0002000206E65753A2020202020000D0A2066
:1002000064757263687761686C20616B7475656C86
:100210006C3A20000D0A2073706572727A656974F9
:1002200020776F6368656E656E642D6162686165D5
:100230006E6769673F202020202020000D0A202EB5
:100240002E2E206269733A20202020200020766F15
:100250006E3A2020202020000D0A207370657272F3
:100260007A65697420000D0A207A656974656E20CC
:10027000766965727374656C6C69672065696E6711
:100280006562656E00206E65753A20202020200092
:1002900011241FBECFEFD4E0DEBFCDBF11E0A0E040
:1002A000B1E0EAE9FEE202C005900D92A230B1078A
:1002B000D9F711E0A2E0B1E001C01D92A33FB10760
:1002C000E1F70E9467040C944B170C940000809196
:1002D0003C01882331F05F9A80914301882319F013
:1002E00004C05F9803C05C9A01C05C988091430190
:1002F000882311F0289A01C02898809135014E9BDF
:100300000CC08823B1F087E391E00E94421481522F
:10031000934098F01092350110C0882351F487E380
:1003200091E00E944214069740F081E080933501ED
:1003300004C087E391E00E94211480914301882347
:1003400021F080913501882321F481E080934101DF
:100350001BC0909141014E9B0BC09923A9F08DE3E6
:1003600091E00E944214049798F01092410110C04D
:10037000992351F48DE391E00E944214049740F0D8
:1003800081E08093410104C08DE391E00E9421143B
:100390008091C8019091410184FF06C0992311F416
:1003A0005A9A08955A980895992311F45B9A0895DA
:1003B0005B980895CF92DF92EF92FF920F931F9375
:1003C000DF93CF93CDB7DEB728970FB6F894DEBF93
:1003D0000FBECDBF8E010F5F1F4FC8010E942114B9
:1003E00085E0E82EF12CEC0EFD1EC7010E942114C1
:1003F000CC24C394D02E012F1E2DEF2CC0923C0193
:10040000C09243010E94670180913501882321F445
:100410008D2D902F0E942114812F9E2D0E94421419
:1004200089559B4148F010923C0181E08093430143
:100430000E94670180E008C08D2D902F0E94421419
:100440008C529140D8F281E028960FB6F894DEBF26
:100450000FBECDBFCF91DF911F910F91FF90EF9015
:10046000DF90CF900895EF92FF920F931F93DF9349
:10047000CF9300D000D0CDB7DEB78091350188236F
:1004800031F080913C01882311F40E94DA018E0141
:100490000F5F1F4FC8010E942114EE24E394F02E39
:1004A000012F10923C01E09243010E94670180916C
:1004B0003501882321F08F2D902F0E9421148F2D3C
:1004C000902F0E944214845F914058F30F900F9038
:1004D0000F900F90CF91DF911F910F91FF90EF90B0
:1004E0000895DF93CF9300D000D0CDB7DEB77C0165
:1004F00080E88093BC008E010F5F1F4FC8010E94EF
:100500002114DD24BB24C02E012F31E0432E512CB9
:100510004E205F2022E0622E712C6E207F2094E01E
:10052000892E912C8E209F2028E0E222FF2402C0F9
:10053000BB24B394A8958C2D902F0E94421481590E
:100540009140F0F08C2D902F0E942114489B13C0F5
:10055000DD2081F3DA9471F7BB2061F3F8942EE08B
:1005600088E190E00FB6F894A895809360000FBEE4
:1005700020936000FFCF84E08D15D0F2D394DACFC2
:10058000BB20F1F48C2D902F0E944214893C9105E0
:10059000B8F04114510411F0599A01C059986114EE
:1005A000710411F05A9A01C05A988114910411F003
:1005B0005B9A01C05B98E114F10429F05C9ABACF10
:1005C00059985A985B985C98B5CFAF92BF92CF92EA
:1005D000DF92FF920F931F93DF93CF9300D000D051
:1005E000CDB7DEB7F82ECE0101960E94211480E02F
:1005F0000E94AA0BFF2051F083E0F81639F082E048
:10060000F81611F081E003C084E001C082E090E0C0
:1006100024EF31E0829F5001839FB00C929FB00C79
:1006200011242CE231E0829F6001839FD00C929FC5
:10063000D00C11248E010F5F1F4F0E94C7108091B4
:10064000D401882329F01092D4010E9491152CC066
:100650000E94670180913501882331F5C8010E940D
:100660004214A816B90620F4C8010E94211409C03A
:10067000C8010E944214C816D90610F45C9A01C041
:100680005C988091B6018823C1F26091B60188EB35
:1006900091E00E946514882381F282E0F81669F6E1
:1006A0000E942E15882349F65C9881E00E94AA0BCF
:1006B0000F900F900F900F90CF91DF911F910F919E
:1006C000FF90DF90CF90BF90AF9008951F93182FA9
:1006D000599A81E00E94C10B80E00E94AA0B11236D
:1006E00029F00E94330202C00E9467018091350107
:1006F0008823D1F7599881E00E94AA0B1F91089591
:100700001092B1018093DF0181E08093E10108C084
:100710008091410163E471E00E9416110E9467011B
:100720008091E1018823A1F7089510927B010E9436
:1007300067018091410163E471E00E94161180918C
:10074000E001883051F48091DE0162E471E00E94A2
:10075000FF0C1092E001882321F480913501882359
:1007600031F70895DF92EF92FF920F931F93DF937B
:10077000CF9300D000D0CDB7DEB7E82E8E010F5F4B
:100780001F4FC8010E94211481E00E94B507DD249B
:10079000D394F02E012F01C0EE240E9467010E9425
:1007A000C71080913501882361F40E94C10B0E941B
:1007B000330202C00E9467010E94B8078823D1F368
:1007C00056C00E94B807882331F00E94330280E0AF
:1007D0000E94C10B4CC00E94B207809343018091DC
:1007E000E101823060F4809141010E94B50707C0A9
:1007F0008CE791E00E94AA0C8F3109F0EE248CE77F
:1008000091E00E945A0C882399F3EE2011F18F2D6C
:10081000902F0E944214DD2019F428E833E102C031
:1008200024EF31E082179307A0F086E491E06BE1BA
:100830000E94830C86E491E06BE10E94830C86E4C5
:1008400091E062E10E94830C8F2D902F0E94211471
:10085000DD248F2D902F0E944214895E934008F46E
:100860009CCF80914101882309F496CF96CF0F90B9
:100870000F900F900F90CF91DF911F910F91FF90EC
:10088000EF90DF900895DF93CF9300D0CDB7DEB720
:10089000982F81548A3108F4905E892F62E471E0C8
:1008A000AE014F5F5F4F9E012E5F3F4F0E941C0DB8
:1008B000882341F089810E9480038A818F3F11F053
:1008C0000E9480030F900F90CF91DF910895AF9217
:1008D000BF92CF92DF92FF920F931F93DF93CF933C
:1008E000CDB7DEB728970FB6F894DEBF0FBECDBFE9
:1008F0008FE028E130E00FB6F894A89520936000CF
:100900000FBE80936000519A529A539A549A209A3B
:10091000579A56985E9A5098589A599A0E94FB1383
:100920000E94DB1480E090E00E941A178E7F809373
:10093000CF0182508B3D18F08EE38093CF0111E000
:100940001093CC011093B50181E090E00E941A173A
:1009500010924401882311F01093440182E090E04A
:100960000E941A1780933B018150843618F08EE163
:1009700080933B0183E090E00E941A178093360138
:10098000843610F01092360184E090E00E94411607
:1009900010923C0181E080934301109235018093D5
:1009A00041010E94350C0E946701CE0101960E9410
:1009B000211478948E010F5F1F4FC8010E944214CA
:1009C0008A3F9105D0F348990FC088E10FB6F8949B
:1009D00080936000109260000FBE489BFECF5A9A31
:1009E000CE0101960E94211459985A9A0E942C1007
:1009F0008E010F5F1F4FC8010E944214845F914017
:100A0000D0F35A985B9A8E010F5F1F4FC8010E9466
:100A100042148E5E9240D0F35B985C9A80E980939A
:100A2000BC008E010F5F1F4FC8010E944214885FF7
:100A30009240D0F385EC8093BC008E010F5F1F4F76
:100A400054E1F52EC8010E9442144091CF014F9D00
:100A50009001112428513C4F8217930798F3842F5B
:100A60000E94F90F10923C0181E0809343015E01E6
:100A70000894A11CB11C45E0C42ED12CCC0EDD1E67
:100A8000C5010E944214815B944060F0C5010E9440
:100A900042148957954040F48091CF018F3F11F463
:100AA000599A05C0599803C0C5010E9421145A984B
:100AB0005B985C980E94C7100E9467018091D401E6
:100AC000823009F0B8C01092D4010E940B1110922C
:100AD000420180E00E94AA0B599A0E94DA01882301
:100AE00009F4A3C087E391E00E94ED130E9457131D
:100AF000882309F49AC01091CF0180E090E00E9411
:100B00001A17181729F080E090E0612F0E9428172B
:100B100086E191E00E94ED1384E491E00E94EC12E2
:100B2000882309F482C01091440181E090E00E9482
:100B30001A17412F50E020E030E0882311F021E027
:100B400030E04217530729F081E090E0612F0E94C6
:100B5000281781EB91E00E94ED13809144018823D6
:100B600061F187EF90E00E94ED1380913B0160E01E
:100B70000E94BB1386EE90E00E94ED138BE391E0A0
:100B800060E00E94211387FD50C080913B018823C3
:100B900019F481E080933B0110913B0182E090E0E9
:100BA0000E941A17181729F082E090E0612F0E9426
:100BB000281781EB91E00E94ED138FEB90E00E94EB
:100BC000ED1380913601882321F062E00E94BB136F
:100BD00004C08BEB90E00E94ED1385EA90E00E9448
:100BE000ED1386E391E060E00E94211387FD1DC0B4
:100BF0001091360183E090E00E941A17181729F02F
:100C000083E090E0612F0E94281781EB91E00E9421
:100C1000ED130E94E415882341F084E090E00E94E7
:100C200094168BE990E00E94ED130E94330281E05C
:100C30000E94AA0B59988091D4018130B9F4109286
:100C4000D4015C9A80E00E94AA0B02C00E94C710E7
:100C50008091D4018823D1F31092D40181E00E94C5
:100C6000AA0B5C98599880E00E94E50280913501BA
:100C7000882309F41FC18091CF018F3F19F40E948E
:100C8000330218C10E9491155A9A0E94F50B8823CD
:100C900021F0813009F002C102C05A980BC1809145
:100CA0004401882309F474C0C6010E94211402C0C3
:100CB0000E946701C6010E9442148C5B9240C0F3FF
:100CC00010924301C6010E9421141AE002C00E9442
:100CD0006701C6010E94421420913B01219F9001AF
:100CE00011248217930798F381E080934301C60192
:100CF0000E94211400E010E00E94670180914101F0
:100D0000882371F40E94670180914101882321F4B6
:100D1000809135018823B1F71F5FC6010E9421141D
:100D200080913501882309F4A5C00E94B807882363
:100D300009F0A0C0112379F0C6010E944214893C39
:100D4000910548F01A3010F080E001C0812F0E9418
:100D5000F40701E010E00E949E07882309F0E3C039
:100D6000C6010E944214002329F428E93AE340E036
:100D700050E004C028EC3FEA40E050E0A0E0B0E0E2
:100D8000281739074A075B070CF0B6CF802F70C0D1
:100D90000E94DA01882309F46DC00E940B118BE1D7
:100DA0000E948003C6010E94211481E380934201C6
:100DB00000E010E0FF240E9467018091410163E49C
:100DC00071E00E9416118091E001883029F5809130
:100DD000DE0162E471E00E94FF0C1092E001982FA6
:100DE00090539A3030F4892F0E94F407FF24F39433
:100DF0000AC0882341F0803231F08D3021F08A30F2
:100E000011F00F5F1F4FC6010E94211405C08FE330
:100E10000E944304015010400115110531F0C60134
:100E20000E9442148436910590F780913501882301
:100E300009F10E94B8078823E9F40E949E078823DD
:100E400089F5C6010E944214FF2029F428E93AE3FB
:100E500040E050E004C028EC3FEA40E050E0A0E071
:100E6000B0E0281739074A075B070CF0A4CF8F2D95
:100E70000E94660381E00E94C10B0E9433028091B0
:100E800036018823B9F00E94AF0790913601891787
:100E900089F45A9883E00E94E5020CC08FE090E04C
:100EA0000E9471028091440191E089270E94B2035F
:100EB0000E9491150E949E078823F1F00E9467010D
:100EC0005B9A599A0E94DA01882341F45B9881E089
:100ED0000E94C10B81E00E94E5020EC059980E9459
:100EE000F50B823031F081E00E94C10B0E94330289
:100EF00003C080E00E94B2038091B601882309F408
:100F0000BFCD6091B60188EB91E00E946514882303
:100F100039F00E942E15882319F082E00E94E50224
:100F20001092B601ADCD0E94DA01BCCF809145018F
:100F300090E0882309F491E0892F0895809145017C
:100F4000833031F08091450120E030E0843011F4AD
:100F500021E030E0822F08958091CD0108958091A5
:100F60000701089580910501089580930401089573
:100F700080914501882331F08091450120E030E0E7
:100F8000853011F421E030E0822F089586E491E06D
:100F90000E945A0C0895CF93DF93EC018CE791E007
:100FA0000E945A0C882311F080E006C08CE791E083
:100FB0000E94AA0C888381E0DF91CF9108951F934E
:100FC000182F86E491E0612F0E94830C882351F052
:100FD0001F3111F481E603C01B3119F481E38093C2
:100FE000780181E01F910895682F8091450182303A
:100FF00049F480910801882329F086E491E00E9459
:10100000830C089589E090E00E947102089586E4BF
:1010100091E00E94630C0895DF93CF9300D0CDB789
:10102000DEB7982F8E3059F08F3020F48B3009F0D6
:1010300042C01BC08F3069F08731E9F528C086E4D3
:1010400091E06FE10E94830C882309F457C081E688
:1010500009C086E491E06BE10E94830C882309F4C7
:101060004DC081E3809378014BC08091780181333A
:1010700039F086E491E06BE10E94830C8823F1F162
:1010800081E38093780186E491E06AE111C0809168
:101090007801813339F086E491E06BE10E94830CA2
:1010A000882361F181E38093780186E491E062E135
:1010B0000E94830C26C0892F81548A3108F4905EE7
:1010C000892F68E771E0AE014F5F5F4F9E012E5F91
:1010D0003F4F0E941C0D882399F086E491E06981BE
:1010E0000E94830C882351F06A816F3F49F086E4A7
:1010F00091E00E94830C882321F002C080E001C0AF
:1011000081E00F900F90CF91DF910895EF92FF92C1
:101110000F931F93DF93CF930F92CDB7DEB78C0160
:101120007E010894E11CF11CC7010E94CB078823B3
:10113000C9F08091AE01813359F489818A3111F46B
:101140008BE003C0823121F487E1F801808309C07C
:1011500089816EEA71E00E94FF0CF8018083882388
:1011600019F381E00F90CF91DF911F910F91FF90C4
:10117000EF900895FF920F931F93082F80914501E0
:10118000081709F4C6C0FFB6F8941092080103309E
:1011900009F454C0043028F4013089F10230C0F55C
:1011A00017C0053009F49FC0053008F461C006304F
:1011B00009F4A2C0073009F0A9C08091C8018F7757
:1011C0008093C8018091C8018F7E8093C80114C0AC
:1011D0008091C80180748093C8018091C8018068A3
:1011E0008093C8018091C8018F7D8093C80181E000
:1011F00080930401809305011092CE0187C08091F5
:10120000C8018F778093C8018091C8018F7E7CC010
:101210008091C8018F778093C8018091C8018F7E2B
:101220008093C801109206011092070181E080931B
:10123000080186E491E00E94550C68C08091C801C5
:101240008F778093C8018091C8018F7E8093C801F9
:101250008091C80180618093C8018091C801886035
:101260008093C80181E08093D201809305014EC034
:101270008091C80187FF0FC08091C8018F7780934C
:10128000C8018091C8018F7E8093C8018091C801F8
:1012900080618093C8018091C80180628093C801F9
:1012A0008091C80182608093C8018091C8018460E8
:1012B0008093C8018091C80181608093C80111E0CA
:1012C0001093000186E491E00E94550C8CE791E0B8
:1012D0000E94550C0E940B111093D201109304012F
:1012E0001093050113C08091C8018F7D8093C801C0
:1012F0008091C801877F08C08091C8018F7D80934D
:10130000C8018091C8018D7F8093C8010093450179
:10131000FFBE1F910F91FF9008950E947D0F809155
:101320000701609106010E9464108093CE018091B4
:10133000CF0186950E94860F0E947D0F89E091E083
:101340000E9421148091D101882369F482E0809366
:10135000080183EA0E94860F0E947D0F89E091E0D8
:101360000E94211408958091D101833059F4109284
:10137000D1011092CE0185E00E94BA0882E68093E6
:10138000030108951092D1011092CE0180910601BF
:10139000823030F085E00E94BA0888E7809303012C
:1013A00008951F93DF93CF9300D0CDB7DEB7CE0162
:1013B00001960E949110882309F443C08091450151
:1013C000873021F481E090E00E9471029981953A82
:1013D000E9F0963A28F4903850F0933A91F510C01D
:1013E0009A3A11F19C3A31F1963A59F515C080912B
:1013F0004501882331F5990F9093CE0181E01FC0FC
:10140000809145018130E9F483E019C08091450164
:101410008230B9F484E013C080914501823089F4B0
:1014200083E0809308010DC080914501882349F035
:1014300085E005C080914501863019F480E00E9466
:10144000BA0880914501843009F444C0863009F41B
:10145000E4C0823009F0EBC086E491E00E945A0CAF
:10146000882309F0E4C080910801823009F4DFC0CC
:1014700086E491E00E94AA0C182F809106018F5FEC
:1014800080930601809108018130B1F480910601BA
:10149000813019F4109307010DC08091060182304C
:1014A00059F4809107012AE0829FC0011124810F25
:1014B000809307010E948D0980910801833009F013
:1014C000B6C0812F80550E94860F89E091E00E946E
:1014D0002114ADC08091CB01882359F08091D201B5
:1014E000882321F082E00E94730D03C082E00E94F5
:1014F000620D86E491E00E945A0C882369F4809181
:10150000E101882349F486E491E00E94AA0C8093CB
:10151000DF0181E08093E10180917B01882319F450
:101520008091040119C0813019F48091D20114C056
:10153000823089F48091D201882319F480E090E010
:101540000BC08091040190E0882309F491E081E0D0
:101550009827892F01C081E0BE016E5F7F4F0E94F6
:1015600016118091E001883041F46091DE018CE732
:1015700091E00E94830C1092E0018091D20180934F
:101580000501109104018091E101882389F0809187
:10159000B101882321F48A818093050109C081303B
:1015A00011F41A8105C0823019F41A8110930501D3
:1015B000112321F080E00E94730D03C080E00E949F
:1015C000620D8091D301882391F18091B401882329
:1015D00071F5112381F080910001823021F080911A
:1015E0000001833011F48CE90FC080910001882341
:1015F000F1F48AE909C080910001882321F08091EB
:101600000001813021F483E90E94860F10C080918F
:101610000001823061F486E9F7CF8DE091E00E940D
:101620004214815A9F4018F080E00E94BA088091CD
:10163000B401853011F589E091E00E942114809178
:10164000D1018823C1F48091B701863961F08739CF
:1016500018F4833981F405C08A3951F08C3959F472
:1016600004C082E006C083E004C01092000103C001
:1016700081E0809300011092B4018091CE01882313
:10168000D1F08091D3018823B1F08091B4018823F7
:1016900021F08091B401853071F489E091E00E94DD
:1016A00042148251934038F089EA0E94860F89E003
:1016B00091E00E9421148091CE01882341F0809115
:1016C0004501863021F080914501853009F4A895C7
:1016D0000F900F90CF91DF911F9108951F920F925D
:1016E0000FB60F9211242F933F934F935F936F93F5
:1016F0007F938F939F93AF93BF93EF93FF938091CB
:1017000002018823B1F481E08093020180916E0090
:101710008E7F80936E0078940E94D10984EB86BD01
:1017200081E085BB80916E00816080936E00109295
:101730000201FF91EF91BF91AF919F918F917F91A6
:101740006F915F914F913F912F910F900FBE0F902E
:101750001F9018951F93182F80914501882341F001
:1017600080914501873021F08AE090E00E9471026B
:10177000112311F080E001C087E00E94BA081F9198
:1017800008951F93182F80914501882361F180915E
:10179000CE01882319F40E94BA0825C081E0809305
:1017A000020180914501853049F48CEA0E94860F40
:1017B0000E947D0F80E00E94BA080AC08AEA0E9457
:1017C000860F86E00E94BA088DE091E00E94211405
:1017D0001092020102C00E94D10980914501863019
:1017E00011F41123C1F71F910895809145018330B1
:1017F00091F481E08093020185EA0E94860F0E94A5
:101800007D0F89EA0E94860F84E00E94BA08109238
:10181000020182E008958091CF018F3F11F480E0B2
:10182000089580914501882321F088E090E00E948E
:10183000710281E0809302019FB7F8948091C80102
:101840008F778093C8018091C8018F7E8093C801F3
:101850008091C8018F7E8093C8019FBF82E00E9463
:10186000BA081092020181E0089514BC82E085BD9F
:10187000EEE6F0E080818160808380E88093C8019B
:101880000E940B1180E00E94BA0886E491E00E9459
:10189000550C8CE791E00E94550C1092020181E0FA
:1018A0008093B10180937B010895FC0112AA13AAD1
:1018B00014AA0895FC0194A983A920E0981709F4BB
:1018C00021E0822F0895FC0183A9813310F090E07C
:1018D00002C0982F9F5F84A9981789F083A981334C
:1018E00010F080E005C08F5F813311F490E002C0FA
:1018F000982F9F5F84A920E030E0981711F421E031
:1019000030E0822F0895DC01D3968C91D3978133F8
:1019100010F090E002C0982F9F5FD4968C91D497DE
:10192000981711F480E008959FB7F894D3968C919E
:10193000D397FD01E80FF11D6083D3968C91D39767
:10194000813310F080E001C08F5FD3968C939FBFEE
:1019500081E00895DC012FB7F894D4968C91D49748
:10196000FD01E80FF11D8081D4969C91D4979133AD
:1019700010F090E001C09F5FD4969C932FBF089514
:10198000FC0193A984A9981718F023A984A903C07E
:1019900023A984A92E5C281B822F0895DC012FB770
:1019A000F894D4968C91D497FD01E80FF11D8081B5
:1019B000D4969C91D497913310F090E001C09F5F32
:1019C000D4969C932FBF0895282F613619F4EFE623
:1019D000F1E004C0613381F4E0E9F1E0822F815449
:1019E0008A3108F4205E90E08491281731F09F5FDF
:1019F000903211F03196F8CF9FEF892F0895DB01D7
:101A00008B3111F481E303C08F3119F481E68C939B
:101A10000BC06C91613331F4E82FF0E0E057FE4FDA
:101A200084910895613611F080E00895E82FF0E088
:101A3000E159FE4F84910895DF92EF92FF920F9348
:101A40001F93CF93DF93D82E7B01EA01890187E1B1
:101A5000D81641F48BE1888382E1F9018083FB0190
:101A6000108227C08D2DFB0160810E94E40C8883C9
:101A70008FEFF801808388818F3FD9F48D2D61E647
:101A80000E94E40CF80180838F3F21F08FE188836E
:101A900081E60DC08D2D61E30E94E40CF801808386
:101AA0008F3F11F480E006C08BE1888381E3F7016A
:101AB000808381E0DF91CF911F910F91FF90EF9094
:101AC000DF9008954FB7F8949091C80121E030E07D
:101AD00002C0220F331F8A95E2F720952923209315
:101AE000C8014FBF08954FB7F8949091C80121E005
:101AF00030E002C0220F331F8A95E2F7922B9093B9
:101B0000C8014FBF0895982F8A3991F08B3928F476
:101B1000833941F0863991F405C08C3949F0893A0E
:101B200069F4089581E08093CB011092D201089569
:101B300081E08093CB018093D201089580912501AB
:101B4000E82FF0E0EF5EFE4F90838F5F80932501DA
:101B500080912501843148F080912601882311F479
:101B600083E10CC0109225010BC09091250180915A
:101B70002601981729F48091250181508093250131
:101B80008091C80180648093C8018091C8018F77DB
:101B90008093C80108951F920F920FB60F921124DF
:101BA0002F933F934F935F936F937F938F939F9365
:101BB000AF93BF93EF93FF938091B2019091B301E4
:101BC00001969093B3018093B2018091B90090E0A7
:101BD000887F90708036910509F4F5C081369105B3
:101BE000CCF58832910509F4A8C089329105B4F486
:101BF0008031910509F480C0813191053CF4009752
:101C000009F4B7C0089709F061C165C08831910532
:101C100009F476C0809709F059C186C080349105D7
:101C200009F4E8C08134910544F48033910509F446
:101C300084C0C89709F04AC1A1C08035910509F454
:101C4000AAC08835910509F4A6C08834910509F029
:101C50003DC19AC08839910509F404C189399105BB
:101C6000ECF48837910509F4DBC0893791054CF411
:101C70008836910509F4A2C08037910509F026C184
:101C8000D4C08838910509F4B7C08039910509F4AA
:101C9000D7C08038910509F019C1A8C0803B9105D3
:101CA00009F4F5C0813B91054CF4803A910509F4A3
:101CB000A8C0883A910509F009C1EEC0803C9105A1
:101CC00009F4F1C0883C910509F4EDC0883B910509
:101CD00009F0FCC0E1C08091B401843029F4109275
:101CE000BB0010922801DCC08091B401813021F04A
:101CF0008091CE018160D2C08091CE018E7FCEC016
:101D00008091B401843059F480912801E82FF0E0EB
:101D1000E854FE4FE0818F5F8093280102C0E0917C
:101D2000B701E093BB00D2C085E08093B4018091FD
:101D3000B4018430E1F081E03EC08091B401843090
:101D400099F4909128018091B601981768F48091D8
:101D50002801E82FF0E0E854FE4F90818F5F8093D8
:101D600028019093BB00B2C085E08093B40110922B
:101D7000D10181E08093D30185E5ABC08091D00192
:101D80008F5F8093D001A4C085E08093B40181E08F
:101D90008093D101EFCF8091BB0080932701809188
:101DA000B401823009F78091270187FD91C085E059
:101DB0008093B40183E08093D101DBCF8091D00187
:101DC0008F5F8093D001A8951092CA011092C9012B
:101DD0001092D301109228019091BB008091CC0108
:101DE0008150969589238093CD0104C08091BB00DA
:101DF0000E94830D85E06DC08091BB000E94830D21
:101E000052C081E08093D301909128018091B60166
:101E1000891708F04BC0809128018093B60146C015
:101E20008091D0018F5F8093D0011092CA011092EF
:101E3000C9011092D301109228011092B60146C038
:101E40009091BB0080912801803108F03FC08091C3
:101E50002801E82FF0E0E854FE4F90838F5F8093D5
:101E6000280134C09091BB0080912801803150F44A
:101E700080912801E82FF0E0E854FE4F90838F5FB7
:101E800080932801809128018093B6010CC0809135
:101E9000D0018F5F8093D0018091C8018093BB00F7
:101EA0001092D30113C081E08093D3018091B401DB
:101EB000833071F08091B401813051F08091B40190
:101EC000823031F08091B401843011F085E401C09A
:101ED00085E680688093BC00FF91EF91BF91AF9140
:101EE0009F918F917F916F915F914F913F912F9132
:101EF0000F900FBE0F901F9018958091B40188230A
:101F000021F08091B4018530C1F70895982F809118
:101F1000B401882321F08091B4018530C1F72FB737
:101F2000F8949093B70197FF02C081E001C082E06E
:101F30008093B4018091D301882349F08091BC0043
:101F400084FDFCCF8091BC0080628093BC002FBFD9
:101F500008958091B401882321F08091B4018530E7
:101F6000C1F79FB7F89484E08093B4018091D301C6
:101F7000882349F08091BC0084FDFCCF8091BC0097
:101F800080628093BC009FBF0895982F8091B40118
:101F9000882321F08091B4018530C1F72091CE01D2
:101FA0009093CE0183E08093B4018091D301882384
:101FB00049F08091BC0084FDFCCF8091BC00806220
:101FC0008093BC008091B401882321F08091B401FA
:101FD0008530C1F72093CE018091D101882319F07B
:101FE0002FEF3FEF04C080912701282F30E0C90177
:101FF00008951F93182F82508B3DF0F410FD1CC0E4
:10200000812F0E94C50F97FF17C09FB7F8941093B8
:10201000BA008091B501882329F08091BA008160CF
:102020008093BA008091BC0080648093BC001093C0
:10203000CF019FBF81E00EC08FB7F8941092BA0015
:102040009091BC009F7B9093BC009FEF9093CF0139
:102050008FBF80E01F91089581E08093D30110929B
:10206000B4011092D1011092D00110922601109269
:1020700025011092B3011092B2011092CA01109280
:10208000C9011092B7018093B90087E18093B8002D
:102090008091CF018E7F8093BA001092B60110928A
:1020A00028018091B501882329F08091BA008160D0
:1020B0008093BA0084E88093BC008091CC01815069
:1020C000880F8093BD000895613041F48A3080F418
:1020D000882311F48CED08958C5908C0623041F4C6
:1020E000882311F488EC0895843610F4880F08953D
:1020F0008FEF0895982FFB0182508B3D10F01082D6
:102100000DC09695953630F081E080839E3630F490
:10211000945605C082E08083943609F490E0892FBC
:102120000895DC019091260180912501981711F402
:1021300080E0089590912601E92FF0E0EF5EFE4FD8
:1021400080818C939F5F909326018091260184313A
:1021500010F0109226019091260180912501981788
:1021600011F081E008959FB7F8948091C8018F7BAA
:102170008093C8019FBF81E00895909126018091CE
:10218000250120E0981709F421E0822F089580911D
:1021900029018130A9F0813018F0823039F522C050
:1021A000489909C08AE291E00E944214C397F0F076
:1021B00081E0809329018AE291E00E942114089530
:1021C00048990BC08AE291E00E94421481529340E8
:1021D00068F082E08093290102C010922901809367
:1021E000D4010895489B02C01092290108951092CD
:1021F000D40103C0A8950E94C7108091D401882300
:10220000C9F38091D4011092D40190E0823009F496
:1022100091E0892F08951092E0011092E10180E889
:1022200090E090932F0180932E0108951F93CF93F8
:10223000DF93182FEB018091E101883030F4823078
:1022400088F5813009F05AC004C0883009F056C0C2
:1022500047C08091E001882329F08091E001883017
:1022600009F04CC085ED91E00E944214CC9708F42F
:1022700045C018828AED91E00E94211482E080938B
:10228000E1018091DF018F718093DF018091DF0197
:10229000880F880F8093DF018091DF018360809336
:1022A000DF012CC08091DF01188287FF02C081E02E
:1022B00088838AED91E00E9442144497F8F08AEDF9
:1022C00091E064E170E00E942E148091DF01880F9C
:1022D0008093DF018091E1018F5F8093E1010EC067
:1022E00081E088838AED91E00E9442144E9730F09D
:1022F0008AED91E00E9421141092E1018091E001A9
:10230000873048F4823008F06FC0882389F081302C
:1023100009F0FFC022C0873009F494C0883009F06A
:10232000F8C085ED91E00E944214039708F4F1C0D3
:10233000112309F0EEC085ED91E00E94211481E0A7
:102340008093E0011092DE0180E890E090932F01ED
:1023500080932E011092D901DCC0112369F0809185
:102360002E0190912F018F3F9105B4F480912E01A1
:1023700090912F0101960CC080912E0190912F0118
:10238000181619064CF480912E0190912F01019797
:1023900090932F0180932E0180912E0190912F0117
:1023A00087399105F4F485ED91E00E9442140B9772
:1023B00008F4AFC080912E0190912F0180389105D3
:1023C00084F482E08093E00180E890E090932F0114
:1023D00080932E0185ED91E068E070E00E942E145C
:1023E00098C01092E00195C085ED91E00E944214E2
:1023F000409708F48EC0112369F080912E019091CE
:102400002F018F3F9105B4F480912E0190912F01FF
:1024100001960CC080912E0190912F01181619067B
:102420004CF480912E0190912F01019790932F01F0
:1024300080932E0185ED91E00E944214449708F0AC
:1024400046C067C085ED91E00E944214409708F4B1
:1024500060C0112369F080912E0190912F018F3F70
:102460009105B4F480912E0190912F0101960CC03A
:1024700080912E0190912F01181619064CF480912D
:102480002E0190912F01019790932F0180932E019F
:1024900085ED91E00E9442140F97D8F18091E00100
:1024A0008730A9F41123A9F180912E0190912F0179
:1024B00020E0803891050CF421E02093D90188E0D8
:1024C0008093E00185ED91E00E94211422C080916B
:1024D000DE01880F8093DE0180912E0190912F0103
:1024E000803891052CF08091DE0181608093DE01BF
:1024F0008091E0018F5F8093E00185ED91E064E1E0
:1025000070E00E942E1480E890E090932F01809359
:102510002E01DF91CF911F910895FF920F931F938A
:10252000CF93DF93EC01F62E10E000E001C000E253
:102530000E9495038A30A9F08B3028F4882351F04B
:10254000893051F5F5CF803221F1833289F38D3016
:1025500019F507C0112319F0C10FD11D188280E0B1
:1025600035C0112389F4002319F3802F8D52823056
:1025700060F10B3251F10D3341F10F3231F1003284
:1025800029F00883198203C0C10FD11D188282E08F
:102590001DC0112361F202C0803250F21F1540F6B7
:1025A000112369F4002311F4082FC2CF003219F46B
:1025B000888311E0BDCF0883898312E0B9CFFE0183
:1025C000E10FF11D80831F5FB3CF81E0DF91CF91D9
:1025D0001F910F91FF900895CF93DF93EC010E941C
:1025E00095038A3431F18B3490F4803329F18133AF
:1025F00048F48D3209F18E32D0F48823B1F08B3259
:1026000071F717C08133A9F08D3349F710C08A36AE
:1026100081F08B3628F48E3479F0893501F709C0C2
:102620008E3651F08937D9F604C080E007C081E0CA
:1026300005C081E0888301C0188282E0DF91CF91DC
:102640000895FF920F931F93CF93DF93EC01062F12
:1026500010E08AE0F82E0E949503282F80538A30DC
:1026600068F4112331F088818F9DC00111248053BB
:10267000820F88831F5F101771F712C0822F8D524F
:10268000823070F02B3261F02D3351F02F3241F057
:10269000222311F48FEF05C02930E9F21123D9F27A
:1026A000812FDF91CF911F910F91FF900895EF92AD
:1026B000FF920F931F93DF93CF9300D0CDB7DEB778
:1026C0008E010F5F1F4F92E0E92EF12CEC0EFD1EE4
:1026D0008091CF01B8010E947A108A838DEF91E03A
:1026E0000E94ED138A8169810E94BB1382EF91E001
:1026F0000E94ED13C70160E00E94211389838823A3
:1027000031F48091CF01B8010E947A108A839091B0
:10271000CC0191958A8189238A8387EE91E00E947A
:10272000ED138A8169810E94BB1380E20E944304F9
:102730008A8169810E9464100E94F90F882371F0D8
:1027400081EB91E00E94ED1381E00F900F90CF910B
:10275000DF911F910F91FF90EF90089587EB91E02B
:102760000E94ED13B5CF8A3010F4805D01C0895A04
:102770000E94430408951F93282F362F6AE00E9479
:10278000FA16482F822F0E94FA16192F442311F4AB
:1027900032302CF03150842F632F0E94BB13812FD5
:1027A0000E94B3131F9108951F93182F82958F7065
:1027B0000E94B313812F8F700E94B3131F9108954D
:1027C000CF93DF93EC0103C00E94430421968881DC
:1027D0008823D1F7DF91CF910895CF93DF93EC0158
:1027E00003C00E9443042196FE0184918823C9F707
:1027F000DF91CF91089582E08093B00084E08093D0
:10280000B1008FE58093B300E0E7F0E08081826063
:10281000808308951F920F920FB60F9211248F9309
:102820009F938091E2019091E30101969093E301DF
:102830008093E2019F918F910F900FBE0F901F9098
:102840001895FC012FB7F8948091E2019091E30173
:1028500091838083138212822FBF0895FC018081AF
:102860009181860F971F9183808382819381861740
:10287000970718F4138212820895861B970B93838F
:1028800082830895FC018FB7F8944091E201509142
:10289000E30120813181421B530B8FBF82819381E1
:1028A0008417950710F4538342838281938108959E
:1028B0001092E7011092E8011092E5011092E401F4
:1028C0001092E6011092E9010895FC016830F8F0D9
:1028D00080818336E1F481818C36C9F482818B3624
:1028E000B1F483818093E70184818093E80185813D
:1028F0008093E50186818093E40187818093E601DE
:10290000683019F080858093E90181E0089580E0C6
:102910000895FF920F931F938C01F62E862F6AE085
:102920000E94FA16805D61E30E94E40CF801808346
:102930008F2D6AE00E94FA16892F805D61E30E9464
:10294000E40CF80181831F910F91FF9008951F936C
:10295000CF93DF93EC018091E501882341F1FE01E3
:102960008BE18193CF016091E5010E94891417E00A
:102970001B83CE0104966091E8010E9489141E8396
:10298000CE0107966091E7010E94891484E089874F
:10299000CE010A966091E4010E9489148EE08C8732
:1029A000CE010D966091E6010E9489148FE0DF91BF
:1029B000CF911F9108951092EC011092EB011092AB
:1029C000EE011092ED011092F0011092EF011092C1
:1029D000F2011092F1011092EA011092300110926E
:1029E0003201109231011092340110923301089596
:1029F000982FFA01A081B18142815381A417B507B4
:102A000011F480E0089570E0A417B507A8F48CE3F2
:102A1000989FC0011124860F971F8A179B0718F4EF
:102A200080E090E0089520E08417950708F021E009
:102A300081E02827822F08958CE3989FC0011124FC
:102A4000860F971F8417950728F020E030E08A173B
:102A50009B0710F021E030E0822F08950F931F9321
:102A6000809130011091E4010091E6018823E9F0A2
:102A7000109230018CE3189F90011124200F311D1A
:102A80003093320120933101C9010A9690933401A9
:102A900080933301815A954008F43FC02659354050
:102AA000309334012093330138C0812F602F41E3EC
:102AB00051E00E94F814882381F51092320110929F
:102AC000310110923401109233018091EA01882380
:102AD00091F4812F602F4BEE51E00E94F81488236F
:102AE00019F081E090E01AC0812F602F4FEE51E085
:102AF0000E94F81413C08091E901863038F0812FCC
:102B0000602F4FEE51E00E94F81408C0812F602F13
:102B10004BEE51E00E94F81401C080E01F910F912C
:102B2000089581E08093300108950F931F93DF9300
:102B3000CF9300D0CDB7DEB78C01FC0180819181AD
:102B40006CE370E00E940617862F698324EC3FEF48
:102B5000629F202D11249081290F2A8362E00E9418
:102B6000BB138A8162E00E94BB1385E892E00E9459
:102B7000ED13CE01019662E00E9421138823E1F05B
:102B8000CE01029662E00E94211387FF02C080E01E
:102B900014C089812CE3829FC00111242A81820FF5
:102BA000911DF80191838083815A954028F080EA35
:102BB00095E0F8019183808381E00F900F90CF9191
:102BC000DF911F910F91089586E692E00E94ED1328
:102BD00088E592E00E94ED1381E60E9443048DE4B3
:102BE00092E00E94ED138BEE91E00E9495158823F0
:102BF00009F445C081EB91E00E94ED138CE392E073
:102C00000E94ED138DEE91E00E9495158823B9F195
:102C100081EB91E00E94ED1388E592E00E94ED13B4
:102C200082E60E9443048DE492E00E94ED138FEE51
:102C300091E00E949515882311F181EB91E00E94AB
:102C4000ED138CE392E00E94ED1381EF91E00E947E
:102C500095158823A1F081EB91E00E94ED1384E1AA
:102C600092E00E94ED138AEE91E00E94EC1288231C
:102C700031F081EB91E00E94ED1381E0089580E056
:102C80000895CF93DF93EC010E9422179093EC01FB
:102C90008093EB01815A954030F080EA95E0909363
:102CA000EC018093EB01CE0102960E9422179093D3
:102CB000EE018093ED01815A954030F080EA95E075
:102CC0009093EE018093ED01CE0104960E942217AD
:102CD0009093F0018093EF01815A954030F080EAA3
:102CE00095E09093F0018093EF01CE0106960E944B
:102CF00022179093F2018093F101815A954030F0B0
:102D000080EA95E09093F2018093F101CE01409624
:102D10000E9422171092EA01019719F481E0809332
:102D2000EA01DF91CF910895EF92FF920F931F93E5
:102D3000CF93DF93EC010091EB011091EC010E9425
:102D400022170817190721F0CE01B8010E94361783
:102D5000E090ED01F090EE018E010E5F1F4FC80173
:102D60000E942217E816F90621F0C801B7010E9457
:102D70003617E090EF01F090F0018E010C5F1F4FCD
:102D8000C8010E942217E816F90621F0C801B70110
:102D90000E943617E090F101F090F2018E010A5F77
:102DA0001F4FC8010E942217E816F90621F0C8013A
:102DB000B7010E9436171091EA016096CE010E9479
:102DC0002217412F50E020E030E0019711F421E07C
:102DD00030E04217530739F081E01827CE01612F08
:102DE00070E00E943617DF91CF911F910F91FF90F5
:102DF000EF900895991B79E004C0991F961708F089
:102E0000961B881F7A95C9F780950895AA1BBB1B4E
:102E100051E107C0AA1FBB1FA617B70710F0A61BDA
:102E2000B70B881F991F5A95A9F780959095BC01FB
:102E3000CD010895F999FECF92BD81BDF89A9927E9
:102E400080B50895A8E1B0E042E050E00C943D1751
:102E5000262FF999FECF1FBA92BD81BD20BD0FB6B6
:102E6000F894FA9AF99A0FBE019608950E942817CD
:102E7000272F0C942917DC01CB01FC01F999FECF17
:102E800006C0F2BDE1BDF89A319600B40D924150F2
:0A2E90005040B8F70895F894FFCF02
:022E9A00010035
:00000001FF
