:100000000C9470030C948D030C948D030C948D034D
:100010000C948D030C948D030C948D030C942F1869
:100020000C948D030C948D030C948D030C948D0310
:100030000C948D030C948D030C948D030C948D0300
:100040000C94AE110C948D030C948D030C948D03C1
:100050000C948D030C948D030C948D030C948D03E0
:100060000C940D130C948D03460E5F0E660E7C0EE1
:10007000980ED30EDA0E3D0E691069107E0F6910CE
:10008000BB0F69105F106910202020200D0D0A00A1
:10009000206164726573736520006665686C6572C3
:1000A000636F646520007363687265696266656882
:1000B0006C6572007363687765726572206C657336
:1000C000656665686C6572007761726E756E672033
:1000D0006C6573656665686C657200696E666F2035
:1000E000696E697469616C697369657274000D0D7C
:1000F0000A20656570726F6D20000D0A6C6F630DCC
:100100000A000D0A202B2B2B200D0A0A0A0A0029AF
:10011000206E65753A2020202020000D0A2066758B
:100120006E6B74696F6E20746173746520616D20ED
:100130006D6F64756C2028616B742E200029206E11
:1001400065753A2020202020000D0A207665727AFD
:100150006F65676572756E6720727565636B6D6537
:100160006C64756E672066732D616E6C61756620B8
:10017000696E202F31302073656B756E64656E0D6E
:100180000A2028332D3230302C20616B742E200051
:1001900029206E65753A2020202020000D0A206D50
:1001A0006178696D616C6520686F63686C61756604
:1001B0002D7A65697420696E2073656B756E646550
:1001C0006E2028332D32352C20616B742E20002BAD
:1001D000290D0A2020000D0A207761686C7A696673
:1001E0006665726E2065696E676562656E2C206556
:1001F0006E6465206D6974202B2028616B742E3A23
:1002000020000D0A206175746F6D617469736368F5
:100210006520766F727761686C20616B74697669AE
:100220006572656E3F20616B7475656C6C3A202059
:10023000200029206E6575202830203D20617573CF
:10024000293A202020202000617573000D0A206CBF
:100250006F6B616C62657472696562207761656855
:100260006C656E206D69743A2028616B742E2000D5
:1002700029206E6575202830203D20617573293A4C
:10028000202020202000617573000D0A206B6F6D07
:100290006D656E646520616E72756665207370654C
:1002A0007272656E206D69743A2028616B742E201D
:1002B000000D0A202B2B2B200D0A0A0A0A002F31D1
:1002C00030302073656B2C20000D0A206C61656E48
:1002D0006765207761686C617566662D696D702E43
:1002E0003A20616B742E20000D0A20776165686CDE
:1002F0007363686569626520766F7268616E6465B4
:100300006E3F20616B7475656C6C3A20000D0A209D
:1003100065696E6661636865206B6F6E6669677597
:10032000726174696F6E3F20202020000D0A206BDF
:100330006F6E66696775726174696F6E207477336A
:1003400039706C75732076657273696F6E20353401
:100350003920646174756D20417072203133203210
:10036000303232000D0A766F67656C2071756178E6
:10037000207A7769636B74206A6F686E7973207076
:10038000666572642062696D0D0A73796C766961C5
:10039000207761677420717569636B2064656E20D6
:1003A0006A7578206265692070666F727A6865691F
:1003B0006D0D0A7072616C6C20766F6D20776869C4
:1003C000736B7920666C6F67207175617820646546
:1003D0006E206A6574207A752062727563680D0AF2
:1003E0006A65646572207761636B6572652062611E
:1003F0007965722076657274696C677420626571C4
:1004000075656D207A776F207066756E64206B61FC
:100410006C6273686178656E0D0A6672616E7A202F
:100420006A61677420696D206B6F6D706C657474A0
:1004300020766572776168726C6F7374656E207474
:1004400061786920717565722064757263682062D5
:10045000617965726E0D0A626569206A6564656D11
:10046000206B6C7567656E20776F727420766F6E87
:1004700020736F6B72617465732072696566207892
:10048000616E746869707065207A796E69736368EB
:100490003A20717561747363680D0A3132333435F3
:1004A00036373839302C2E3A2D2B3D2F28290D0A7E
:1004B00072797279727972797279727972797279E4
:1004C00072797279727972797279727972797279D4
:1004D00072797279727972797279727972797279C4
:1004E0007279727972797279727972797279720D20
:1004F0000A723479367234793672347936723479D4
:100500003672347936723479367234793672347997
:100510003672347936723479367234793672347987
:100520003672347936723479367234793672347977
:10053000360D0A005F5F5F69746C785F545733391A
:10054000706C75735F5F5F417072203133203230A1
:1005500032325F5F5F31313A31363A33365F5F5F57
:100560003534395F5F5F0023350D3920232C2E0A87
:1005700029342338303A3D332B173F2736232F2D8C
:100580003207233731282323740D6F20686E6D0ADC
:100590006C726769706376657A6462737966786194
:1005A000776A2375716B23207363686F6E2076659D
:1005B00072676562656E206F64657220756E67751F
:1005C000656C7469672C20616E6465726520776163
:1005D00065686C656E21000D0A2077656974657227
:1005E0006C656974756E67656E20616277656973A5
:1005F000656E3F20616B7475656C6C3A20000D0A66
:100600002070727565666520000D0A20647572633E
:10061000687761686C20616B7475656C6C3A20005A
:10062000206E65753A202020202000206F6B2E2040
:10063000006E65696E006A61000D0A207370657254
:10064000727A65697420776F6368656E656E642D74
:1006500061626861656E6769673F20616B7475658B
:100660006C6C3A20000D0A202E2E2E206269733AFF
:10067000200020766F6E3A20000D0A20737065729C
:10068000727A65697420000D0A207A656974656E56
:1006900020766965727374656C6C6967206F686E2B
:1006A000652070756E6B7420756E64206B6F6D6D58
:1006B000612065696E676562656E000D0A207A6566
:1006C000697473706572726520616B7469766965AF
:1006D00072656E3F20616B7475656C6C3A2000002A
:1006E00011241FBECFEFD4E0DEBFCDBF11E0A0E0EC
:1006F000B1E0EEE9F5E302C005900D92A230B1073A
:10070000D9F722E0A2E0B1E001C01D92A730B20704
:10071000E1F70E946E080C94CD1A0C9400009091A1
:100720003601981730F48093360170933501609349
:1007300034010895109236018FEF90E090933501C7
:10074000809334011092370108951F93CF93DF9364
:10075000EC01162F0E94B71A811781F0612FCE018C
:100760000E94BF1ACE010E94B71A181739F0BE01B5
:1007700084E0DF91CF911F910C948F03DF91CF9193
:100780001F9108951F93CF93DF93EC01162F0E94C2
:10079000A503612FCE0180569F4F0E94A503612FB4
:1007A000CE01805C9E4FDF91CF911F910C94A503E9
:1007B000BF92CF92DF92EF92FF920F931F93CF934E
:1007C000DF938C01B62E0E94B71AC82F680180EA09
:1007D000C80ED11CC6010E94B71AD82F780180EC30
:1007E000E81A8EEFF80AC7010E94B71ACD1303C0AA
:1007F000C8130BC008C0DF3F79F48F3F69F46C2F3A
:10080000C8010E94C2038C2F24C0CF3FF9F0B7016A
:1008100082E00E948F03F3CFC81302C0B601F8CF65
:10082000D8130BC060EA70E082E00E948F036D2F46
:10083000C8010E94C2038D2F0CC0B80183E00E9442
:100840008F0381E0809337018B2D03C08F3FB9F276
:10085000DECFDF91CF911F910F91FF90EF90DF904E
:10086000CF90BF900895FF920F931F93CF93DF9384
:100870008C01C62FF42ED22F0E94D8038F1510F0B2
:10088000D81748F4B80181E00E948F036C2FC8018B
:100890000E94C2038C2FDF91CF911F910F91FF9087
:1008A000089521E040E00E94330491E0813009F096
:1008B00090E0892F08951F93CF93DF93EC01162FBB
:1008C000672F01960E94C203612FCE01DF91CF9165
:1008D0001F910C94C203BF92CF92DF92EF92FF92CE
:1008E0000F931F93CF93DF93EC016B017A01890182
:1008F000109237016D2D01960E94D803B82E6C2DF1
:10090000CE010E94D80390913701911112C090E05E
:100910009B298E159F0518F00817190748F4BE018A
:1009200081E00E948F03B601CE010E945B0401C0EA
:100930006C01C601DF91CF911F910F91FF90EF9055
:10094000DF90CF90BF9008950C94C2039091360130
:10095000811110923601892F0895809136018823E4
:10096000C1F18EEE90E00E94E21780913601823054
:1009700069F028F4813091F48BED90E009C0833068
:1009800051F0843059F486EA90E002C088EC90E09F
:100990000E94E2170CC084EB90E0FACF8AE990E065
:1009A0000E94E21760E0809136010E94041880E9FD
:1009B00090E00E94E217809135010E94F917809122
:1009C00034010E94F91788E890E00E94E217109223
:1009D00036010895599A0895599808955A9A089594
:1009E0005A9808955B9A08955B9808955C9A0895C3
:1009F0005C980895CF93DF9300D000D0CDB7DEB7D9
:100A000089B1881F8827881F90915101981769F034
:100A10004E990BC02898CE0101960E944618CE012F
:100A200001960E9467180A97D0F38091510188239C
:100A300011F05F9A01C05F9880915701882311F0EF
:100A4000289A01C02898809138014E9B0CC08823B9
:100A500061F088E491E00E9467188132934098F039
:100A60001092380110C0882329F088E491E00E9498
:100A7000461809C088E491E00E946718069718F0AC
:100A800081E08093380180915701882321F0809183
:100A90003801811104C081E08093560111C080911A
:100AA00056014E9B0BC0882359F082E591E00E94CD
:100AB0006718039798F01092560110C0882329F008
:100AC00082E591E00E94461809C082E591E00E940B
:100AD0006718039718F081E0809356019091DC012C
:100AE0008091560194FF08C0811103C00E94EE045A
:100AF0000AC00E94F00407C0811103C00E94F204E2
:100B000002C00E94F40480915101882349F0809131
:100B10005701811103C00E94F60402C00E94F8042C
:100B20000F900F900F900F90DF91CF910895EF925B
:100B3000FF920F931F93CF93DF93CDB7DEB7289724
:100B40000FB6F894DEBF0FBECDBF182FCE010596AD
:100B50000E944618CE0101960E9446182D9A8DE4F7
:100B600091E00E94461880915101811110E001E04E
:100B700088EEE82E83E0F82E009351010093570190
:100B80000E94FA0480913801811104C0CE010596BB
:100B90000E944618CE0101960E94671840913901C3
:100BA0004E9D90014F9D300D11242817390768F490
:100BB0001092510181E0809357010E94FA048DE464
:100BC00091E00E94461880E01FC0CE0105960E9469
:100BD00067188C32914080F2111102C081E014C07C
:100BE000CE0105960E944618CE0105960E94671810
:100BF00020913C0144E6249F900111248217930721
:100C000068F70E94FA04F0CF28960FB6F894DEBF7A
:100C10000FBECDBFDF91CF911F910F91FF90EF904D
:100C200008951F93CF93DF9300D000D0CDB7DEB7E8
:100C300080913801882331F080915101811102C0E7
:100C40000E949705CE0101960E94461811E010926D
:100C50005101109357010E94FA04809138018823B2
:100C600021F0CE0101960E944618CE0101960E9405
:100C70006718843F914058F38DE491E00E94461834
:100C80000F900F900F900F90DF91CF911F910895CB
:100C90001092C5018093F30181E08093F50180916A
:100CA000F501882349F067E571E0809156010E94C3
:100CB000F0150E94FA04F3CF08950E94EA0480E040
:100CC0000E94981181E080935701809158018823F8
:100CD00019F081E00E9497058AEF90E00E94E217E8
:100CE00080913801882319F00E94FA04F9CF0E94FC
:100CF000110681E00E9498110C94EC04CF92DF92CF
:100D0000EF92FF921F93CF93DF9300D000D0CDB727
:100D1000DEB7182FCE0101960E94461880E00E948F
:100D20009811112331F0133021F0123021F081E0BD
:100D300003C082E001C084E090E024EF31E0829FB4
:100D40007001839FF00C929FF00C11242CE231E093
:100D5000829F6001839FD00C929FD00C11240E942F
:100D600098158091E801882329F01092E8010E94EB
:100D70008B1938C00E94FA0480913801811132C069
:100D8000CE0101960E946718E816F90628F4CE01F4
:100D900001960E9446180CC0CE0101960E94671869
:100DA000C816D90618F40E94F60402C00E94F8047E
:100DB0008091CA01882399F26091CA018CEC91E07C
:100DC0000E947D18882349F0123049F40E942819A6
:100DD000811105C01092CA0105C01092CA0110927B
:100DE000CA01BDCF0E94F80481E00E9498110F90C3
:100DF0000F900F900F90DF91CF911F91FF90EF9088
:100E0000DF90CF900895CF93C82F0E94EA0481E02D
:100E10000E94551180E00E949811CC2319F00E9485
:100E2000110604C08DE491E00E94461880913801BB
:100E3000882319F00E94FA04F9CF0E94EC0481E0A3
:100E4000CF910C9498110F931F93CF93DF9300D001
:100E500000D0CDB7DEB7182FCE0101960E944618FC
:100E600081E00E94521181E08093C501809390013E
:100E700001E00E94FA040E949815809138018111C6
:100E80000BC00E9455110E9411060E948A11811107
:100E900059C00E94FA04F9CF0E948A11882331F0C8
:100EA0000E94110680E00E9455114CC00E944F1113
:100EB000809357018091F501823060F48091560152
:100EC0000E94521107C081E991E00E9413128F31F4
:100ED00009F010E081E991E00E94EF11882399F375
:100EE000112311F1CE0101960E946718011103C070
:100EF00028E833E102C024EF31E082179307A0F025
:100F00006BE18BE591E00E94F6116BE18BE591E0DE
:100F10000E94F61162E18BE591E00E94F611CE018C
:100F200001960E94461800E0CE0101960E946718C3
:100F3000893E934008F49DCF80915601811199CF4D
:100F400010E097CF0F900F900F900F90DF91CF91FF
:100F50001F910F910895CF93DF9300D000D0CDB7AC
:100F6000DEB77C0180E88093BC001092510181E0E3
:100F7000809357010E94FA042D98CE0101960E9499
:100F8000461800E010E0670121E0C222DD2457018D
:100F900082E0A822BB24470124E08222992488E031
:100FA000E822FF24A895CE0101960E946718813996
:100FB0009140F0F0CE0101960E944618489906C073
:100FC000153010F001E0EECF1F5FECCF112351F38D
:100FD000115041F7002331F3F8949EE088E10FB6F9
:100FE000F894A895809360000FBE90936000FFCFA7
:100FF000011125C0CE0101960E946718893C910518
:10100000F0F0C114D10419F00E94EA0402C00E9459
:10101000EC04A114B10419F00E94EE0402C00E9475
:10102000F0048114910419F00E94F20402C00E949D
:10103000F404E114F10449F00E94F604B3CF0E94D5
:10104000EC040E94F0040E94F4040E94F804AACF69
:10105000109290010E9498150E94FA0467E571E0D1
:10106000809156010E94F0158091F401883029F09A
:101070008091380181110CC008958091F2016FE8D0
:1010800071E00E9424121092F401882389F30895DC
:101090008091E8018823F1F21092E80180E0089540
:1010A000CF93DF9300D0CDB7DEB79E012F5F3F4FC8
:1010B000AE014E5F5F4F6FE871E00E9458128823C7
:1010C00041F08A810E94480689818F3F11F00E9479
:1010D00048060F900F90DF91CF910895CF93DF9343
:1010E000CDB7DEB729970FB6F894DEBF0FBECDBFE0
:1010F0009FE088E10FB6F894A895809360000FBE3A
:1011000090936000519A529A539A549A209A579AFF
:1011100056985E9A5098589A259A24982C9A0E942C
:10112000EA040E949A030E9420180E941319E4E323
:10113000F5E0E4912CED42E066E180E090E00E9471
:1011400033048E7F8093E30181E08093E0018093FC
:10115000C90161E081E090E00E9451048093580150
:1011600028EC41E063E082E090E00E943304809349
:101170004C0160E089E190E00E94510480935901A4
:1011800023E640E060E083E090E00E943304809337
:101190003A0122E040E060E088E190E00E94330400
:1011A00080933B0184E090E00E948F1923E640E0A9
:1011B00068E58AE190E00E9433048093470128ECBF
:1011C00042E065E086E290E00E94330480933C01B7
:1011D000BDE3EB2EB1E0FB2E0BE110E06FEFC80199
:1011E0000E94D803F70181937F010F5F1F4F0532E3
:1011F0001105A1F729E143E067E085E290E00E9454
:101200003304809339011092510181E0809357019A
:1012100010923801809356010E94BD10CE010596B0
:101220000E94461878940E94FA04CE0105960E9406
:1012300067188A3F9105C8F319B111700E94EC0438
:101240000E94EE040E940E15CE0105960E946718BA
:10125000843F9140C8F30E94F0040E94F204CE0142
:1012600005960E9467188E3E9240C8F30E94F404CF
:101270000E94F6041092510181E0809357010E9470
:10128000FA0480E98093BC00CE0105960E9467189D
:10129000883F9240C8F385EC8093BC00CE01059650
:1012A0000E9467184091E301242F30E028513C4F01
:1012B0008217930798F3111150C0109251011092A8
:1012C00038011092570110925601CE0105960E94E6
:1012D000461811E001E0489903C01092570106C07A
:1012E00000935701CE0105960E9446180E94FA0409
:1012F00080915101882319F00E94EA0402C00E94E3
:10130000EC0480913801882319F00E94EE0402C099
:101310000E94F00480915701882319F00E94F20482
:1013200002C00E94F40480915601882319F00E94A3
:10133000F60402C00E94F804CE0105960E946718C8
:10134000893E934040F28091510181278093510161
:10135000CE0105960E944618BECF842F0E94DB1452
:101360008DE491E00E944618A7E4CA2EA1E0DA2E8F
:1013700008EC79E1972EE3E08E2E1FEFF8E57F2E43
:10138000CE0105960E946718813B944018F40E9494
:10139000EC0412C0CE0105960E946718893795406B
:1013A00038F48091E3018F3F91F70E94EA0404C072
:1013B000CE0105960E9446180E94F0040E94F40493
:1013C0000E94F8040E9498150E94FA048091E80196
:1013D000823009F0F1C11092E8010E94E51580E029
:1013E0000E9498110E94EA0481E00E9497058823D8
:1013F00009F48BC180918F018E7F80938F018CE2E5
:1014000093E00E94E2178DE093E00E94E217CE0184
:1014100009960E944A17882309F477C18BE296E067
:101420000E94E2170E947317882309F46EC188EEA8
:1014300092E00E94E217809158010E94171880E202
:1014400096E00E94E21788E591E00E944A178823FF
:1014500009F45BC18BE296E00E94E217809158018B
:10146000882319F189EC92E00E94E21760E08091F4
:101470004C010E9404188EEB92E00E94E21780E279
:1014800096E00E94E21760E08CE491E00E9415175C
:1014900087FD3BC180914C01811103C081E08093A5
:1014A0004C018BE296E00E94E2178985882399F02F
:1014B00010923A017092470187E08093390185E0EC
:1014C00080933C010E94131910923B0110933D013F
:1014D00081EB92E018C18AE892E00E94E2178091C5
:1014E0003A01882321F062E00E94041804C086E8D3
:1014F00092E00E94E21780E792E00E94E21762E029
:101500008AE391E00E94151787FDFFC08BE296E009
:101510000E94E2178CE492E00E94E217809147015A
:10152000882321F062E00E94041804C088E492E05D
:101530000E94E21782E392E00E94E21762E087E4F1
:1015400091E00E94151787FDE0C08BE296E00E94B3
:10155000E2170E94FF19882309F4D7C082E092E0C5
:101560000E94E21781E090913D019A3008F080E0FE
:1015700089830E94171880E296E00E94E217CE014C
:1015800001960E944A17882309F4BFC08BE296E0B7
:101590000E94E2178981882309F452C086ED91E008
:1015A0000E94E2176DE3E62E61E0F62EF7018191CD
:1015B0007F018A3050F08FEC91E00E94E21780E2C8
:1015C00096E00E94E217F12C16C060E00E94041819
:1015D000F7E4EF16F1E0FF0649F7EDCF8B3231F17A
:1015E0008D33B1F092ED980F923090F08823A9F0EE
:1015F00029E0F216D9F00E94280890ED980F9A3051
:1016000068F7EF2DF0E0E35CFE4F9083F394F0CFAA
:10161000F1100CC059E0F52E09C0FF2009F475C087
:10162000EF2DF0E0E35CFE4F10836FC0EF2DF0E094
:10163000E35CFE4F10838BE296E00E94E21702C04B
:1016400010933D018CE991E00E94E21760E08091E7
:1016500039010E94041880E991E00E94E21760E0DD
:1016600089E391E00E94151787FD4FC080913901F1
:10167000833018F48092390104C08A3110F09092BE
:1016800039018BE296E00E94E21789E491E00E9422
:10169000E21760E080913C010E9404188DE391E024
:1016A0000E94E21760E08CE391E00E94151787FD2D
:1016B0002CC080913C01823020F482E080933C0178
:1016C00004C0893C10F000933C018BE296E00E943C
:1016D000E2178BE191E00E94E21760E080913B010C
:1016E0000E9404188FE091E00E94E21760E08BE313
:1016F00091E00E94151787FD08C08BE296E00E94DA
:10170000E21782E091E00E94E2170E9411066091C8
:10171000E30180E090E00E94C2036091590189E1F9
:1017200090E00E94C2036091580181E090E00E9425
:10173000A40460914C0182E090E00E94C203609199
:101740003A0183E090E00E94C203609147018AE180
:1017500090E00E94C20360913B0188E190E00E940A
:10176000C2036091390185E290E00E94C20360915A
:101770003C0186E290E00E94C2033DE3A32E31E0EB
:10178000B32E4BE1E42EF12CF50161915F01C7010D
:101790000E94C203FFEFEF1AFF0A25E2E216F104EE
:1017A00099F784E090E00E94D41981E00E9498119A
:1017B0000E94EC041092E8018091E801813009F068
:1017C00057C01092E80180913B01813041F0823096
:1017D000B9F52D9A8DE491E00E94461849C00E9407
:1017E000E51580E00E94981181E00E94970588230A
:1017F00009F43EC00E94F60424E6E22E23E0F22E15
:10180000F7018491882369F0F70184910E945008C0
:10181000FFEFEF1AFF0A0E9498158091E8018823D4
:1018200051F01092E8010E94110681E00E94981187
:101830000E94F8041DC0809138018111E1CFF1CFE1
:101840000E94F60480E00E9498118091E8018111C5
:1018500003C00E949815F9CF1092E80181E00E9420
:1018600098110E94F8040E94EC0480E00E947E0619
:1018700080913801882309F479C18091E3018F3F79
:1018800019F40E94110672C10E948B190E94EE0485
:101890000E94F410811103C00E94F00467C180917E
:1018A0005801882309F49EC01092510181E0809371
:1018B0005701CE0101960E944618CE0101960E9462
:1018C00067188C3B924018F40E94FA04F6CF1092ED
:1018D0005701CE0101960E944618CE0101960E9442
:1018E000671820914C014AE0249F9001112482172F
:1018F000930718F40E94FA04F0CF81E08093570117
:101900009DE3E92E91E0F92EF70181917F018A3064
:1019100038F0CE0101960E944618E12CF12C06C049
:101920000E943B11CE14DF0479F7F3CF0E94FA0432
:101930008091560181110FC0F3940E94FA048091A6
:101940005601811104C0809138018111F6CFCE017A
:1019500001960E944618809138018823B1F10E94B7
:101960008A11811132C0FF2091F0CE0101960E94B0
:101970006718893C910558F0F9E0FF1510F480E0F4
:1019800001C08F2D0E943B11EE24E394F12C0E94A4
:10199000E610811123C0CE0101960E946718A0E0D5
:1019A000B0E0E11005C048E95AE360E070E004C02F
:1019B00048EC5FEA60E070E0481759076A077B0768
:1019C0000CF0B4CF8E2D0E94030781E00E945511C8
:1019D00080913A01882309F4A2C093C081E00E945B
:1019E0009705B2C080E00E949705882371F30E949A
:1019F000E51580918F018B7F826080938F018DE34D
:101A0000E82E81E0F82EF70181917F018A3040F0C5
:101A1000CE0101960E944618E12CF12CB12C0EC08B
:101A20000E943B11CE14DF0471F7F2CF8091380190
:101A3000882359F20E948A118111C7CF0E94FA04AB
:101A400067E571E0809156010E94F0158091F401E4
:101A50008830B9F58091F2016FE871E00E9424129C
:101A60001092F40190ED980F9A3030F4892F0E9473
:101A70003B11BB24B39413C08C3629F4B1100CC0B5
:101A80000E945D06A2CF982F9F7D49F08B3239F0DE
:101A90008D3029F08A3019F0FFEFEF1AFF0ACE01DE
:101AA00001960E9446180DC0CE0101960E9467184B
:101AB000883C910548F08FE30E94500821E0E21A2B
:101AC000F108E114F10481F70E94E61081113CC095
:101AD000CE0101960E946718A0E0B0E0B11005C0E9
:101AE00048E95AE360E070E004C048EC5FEA60E077
:101AF00070E0481759076A077B070CF097CF8B2DCA
:101B000062CF0E944C1190913A01891308C00E9443
:101B1000F0040E94110683E00E947E0625C0809199
:101B20004701811108C00E944C119091E3019695E4
:101B3000891318C006C00E944C1190914701891367
:101B4000F2CF0E945D0610C00E941E11882339F05A
:101B50009091580181E089270E94230705C081E008
:101B60000E9455110E9411060E948B190E94E610D6
:101B7000882329F10E94FA040E94F2040E94EA04D8
:101B800081E00E94970581110BC00E94F40481E05E
:101B90000E94551181E00E947E060E94EC040FC055
:101BA0000E94EC040E941E11811106C081E00E9477
:101BB00055110E94110603C080E00E94230780E0B7
:101BC0000E94A6048823D1F00E94E51580E00E94BF
:101BD00098110E94EA0481E00E949705882371F021
:101BE00080918F018E7F80938F010E94AD040E94AF
:101BF000110681E00E9498110E94EC048091CA01B4
:101C0000882389F06091CA018CEC91E00E947D18D4
:101C1000882339F00E942819882319F082E00E9455
:101C20007E061092CA011C9905C02D9A8DE491E0A0
:101C30000E9446188DE491E00E94671881369A4E02
:101C400008F49ECB2D9894CB1F93CF93DF93909164
:101C50005A01981709F4B9C0C82F1FB7F894109209
:101C60000A0190E08830910508F0ACC0FC01EC5C02
:101C7000FF4F8091DC010C94B11A8F778093DC01C7
:101C80008091DC018F7E8093DC0116C0807480938C
:101C9000DC018091DC0180688093DC018091590136
:101CA000882329F08091DC0180618093DC0181E050
:101CB00080930F0180930E011092E20183C08F7711
:101CC0008093DC018091DC018F7E7AC08F778093D6
:101CD000DC018091DC018F7E8093DC0110920C018D
:101CE00010920B0181E080930A018BE591E00E9444
:101CF000EB1110928F0166C08F778093DC01809189
:101D0000DC018F7E8093DC0180915A01813029F4BF
:101D10008091DC0180618093DC018091DC0188602E
:101D20008093DC0181E08093E60180930E014AC03C
:101D300087FF0FC08091DC018F778093DC01809159
:101D4000DC018F7E8093DC018091DC0180618093D7
:101D5000DC018091DC0180628093DC018091DC01F8
:101D600082608093DC018091DC0184608093DC01DF
:101D70008091DC0181608093DC01D1E0D09300018F
:101D80008BE591E00E94EB1181E991E00E94EB115B
:101D900010928F010E94E515D093E601D0930F01B8
:101DA000D0930E010FC08F7D8093DC018091DC0108
:101DB000877F06C08F7D8093DC018091DC018D7F61
:101DC0008093DC01C0935A011FBFDF91CF911F9117
:101DD00008950E94891460910C0180910B010E946A
:101DE00046158093E2018091E30186950E9492144A
:101DF0000E94891486E091E00E9446188091E501D6
:101E000081110CC082E080930A0183EA0E9492143F
:101E10000E94891486E091E00C9446188091E501B7
:101E20001092E5011092E201833021F080910C01C3
:101E3000823018F085E00C94240E08951F93CF9300
:101E4000DF9300D0CDB7DEB7CE0102960E947215A7
:101E5000882309F446C080915A01873021F481E03B
:101E600090E00E94AB078A81853A01F128F480381E
:101E700050F0833A89F035C08A3A31F18C3A51F109
:101E8000863A79F519C090915A0191112AC0880FAC
:101E90008093E20181E023C080915A01813021F0DA
:101EA00080915A018230E9F483E019C080915A018F
:101EB0008230B9F484E013C080915A01823089F4F1
:101EC00083E080930A010DC080915A01882349F074
:101ED00085E005C080915A01863019F480E00E94A7
:101EE000240EE0915A018E2F90E08830910508F081
:101EF000F0C0FC01E45CFF4F0C94B11A8BE591E05B
:101F00000E94EF118111E5C080910A01823009F42D
:101F1000E0C08BE591E00E941312182F80910C0114
:101F20008F5F80930C0180910A018130B1F4809120
:101F30000C01813019F410930B010DC080910C013C
:101F4000823059F480910B01912F2AE0829F900DED
:101F5000112490930B010E94E90E80910A018330B5
:101F600009F0B7C080EB810F0E94921486E091E0E7
:101F70000E944618AEC08091DF01882359F08091FD
:101F8000E601882321F082E00E94FB1203C082E078
:101F90000E94E8128BE591E00E94EF1181110DC0C3
:101FA0008091F501811109C08BE591E00E94131227
:101FB0008093F30181E08093F5018091900181117C
:101FC00003C080910F0104C0813031F48091E6019B
:101FD000BE016F5F7F4F14C0823071F48091E601C3
:101FE000882319F080910F0102C080E090E0BE01CB
:101FF0006F5F7F4F817004C0BE016F5F7F4F81E0D4
:102000000E94F0158091F401883041F46091F20152
:1020100081E991E00E94F6111092F4018091E601AD
:1020200080930E0110910F018091F5018823A9F092
:102030008091F501813089F08091C501811104C042
:10204000898180930E0109C0813011F4198105C086
:10205000823019F4198110930E0180E0112319F0D8
:102060000E94FB1202C00E94E8128091E7018823BF
:1020700081F18091C80181112CC080910001112350
:1020800081F0823021F080910001833011F48CE9DD
:1020900005C08091000181111CC08AE90E94921440
:1020A00018C0882321F080910001813011F483E968
:1020B000F5CF80910001823061F486E9EFCF82E0B4
:1020C00091E00E946718813A9F4018F080E00E94DA
:1020D000240E8091C8018530F9F486E091E00E94D9
:1020E00046188091E501811115C08091CB01863998
:1020F00061F020F4833971F482E00AC08A3939F042
:102100008C3941F41092000105C083E001C081E0E8
:10211000809300011092C8018091E2018823D1F0E0
:102120008091E7018823B1F08091C801882321F0D4
:102130008091C801853071F486E091E00E946718B3
:102140008231934038F089EA0E94921486E091E04F
:102150000E9446188091E201882341F080915A0143
:10216000863021F080915A01853009F4A8950F90AE
:102170000F90DF91CF911F91089514BC82E085BD2F
:1021800080916E00816080936E0080E88093DC0116
:1021900080915901882329F08091DC01806180932E
:1021A000DC010E94E51580E00E94240E8BE591E0A1
:1021B0000E94EB1181E991E00E94EB1110920D0158
:1021C00081E08093C50180939001089580915A0128
:1021D000833039F090915A0181E0943019F080E019
:1021E00001C081E0817008958091E3018F3F21F16A
:1021F00080915A01882321F088E090E00E94AB078B
:1022000081E080930D019FB7F8948091DC018F7776
:102210008093DC018091DC018F7E8093DC018091D2
:10222000DC018F7E8093DC019FBF82E00E94240E40
:1022300010920D0181E0089580E0089580915A0187
:10224000833091F481E080930D0185EA0E9492141D
:102250000E94891489EA0E94921484E00E94240E4C
:1022600010920D0181E0089590915A0181E094301F
:1022700009F080E0089590915A01923049F49091CC
:102280000A01992329F0682F8BE591E00C94F6114F
:1022900089E090E00C94AB0780910B010895809148
:1022A0000E01089580930F010895CF9390915A01E4
:1022B000992371F19091E201911104C080E0CF91D6
:1022C0000C94240EC82F81E080930D0180915A0157
:1022D000853049F48CEA0E9492140E94891480E0AF
:1022E0000E94240E0AC08AEA0E94921486E00E948C
:1022F000240E82E091E00E94461810920D01809118
:102300005A01863029F4CC2319F00E941E0FF7CF12
:10231000CF91089580915A01882339F090915A0104
:1023200081E0953019F080E001C081E0817008956E
:10233000CF93C82F80915A01882341F080915A0190
:10234000873021F08AE090E00E94AB07CC2311F0A7
:1023500080E001C087E0CF910C94240E1F920F9271
:102360000FB60F9211242F933F934F935F936F9368
:102370007F938F939F93AF93BF93CF93EF93FF93ED
:1023800080910D01811115C0C1E0C0930D018091B4
:102390006E008E7F80936E0078940E941E0F84EBF7
:1023A00086BDC5BB80916E00816080936E001092E7
:1023B0000D01FF91EF91CF91BF91AF919F918F91BF
:1023C0007F916F915F914F913F912F910F900FBE31
:1023D0000F901F901895FC0112AA13AA0895FC01F2
:1023E00023A992A981E0291380E00895FC0182A924
:1023F000813310F48F5F01C080E093A9891789F0C1
:102400009FB7F89482A9DF01A80FB11D6C9382A930
:10241000813310F48F5F01C080E082AB9FBF81E009
:10242000089580E00895FC012FB7F89483A9DF0197
:10243000A80FB11D8C9193A9913310F49F5F01C037
:1024400090E093AB2FBF0895FB018B3119F482E02C
:10245000808303C08F3119F4108280E00895908149
:10246000292F2E7F20839670E82FF0E0923019F408
:10247000E959FA4F02C0E957FA4F849108956670FE
:10248000623019F0E7E8F5E002C0E7E6F5E09FEB1F
:10249000980F9A3108F4805E90E02491821731F011
:1024A00031969F5F9032C9F78FEF0895892F089575
:1024B000CF92DF92EF92FF920F931F93CF93C82F8B
:1024C0007B016A0189018FEFF9018083CF3039F4F4
:1024D0008BE1F601808383E0F70180832AC0CE3050
:1024E00039F48FE1F601808381E0F701808322C017
:1024F000FB01608160FD09C060E08C2F0E943F12EB
:10250000F80180838F3F69F70AC0C731A9F38C2F88
:102510000E943F12F60180838F3F59F4EDCF62E0B5
:102520008C2F0E943F12F80180838F3F89F680E054
:1025300001C081E0CF911F910F91FF90EF90DF904C
:10254000CF9008958A3989F028F4833941F086398B
:1025500031F011C08C3949F0893AC9F10CC081E0E1
:102560008093DF011092E601089581E08093DF01FE
:102570008093E6010895E091130191E09E0F9093FE
:102580001301F0E0EC5EFE4F8083809113018431F3
:1025900048F080911201811102C083E10CC01092B9
:1025A00013010BC09091130180911201981305C083
:1025B000809113018150809313018091DC0180642C
:1025C0008093DC018091DC018F778093DC0108959A
:1025D0005FB7F8944091DC0121E030E0B90102C01E
:1025E000660F771F8A95E2F7CB018095842380934D
:1025F000DC015FBF08954FB7F8945091DC0121E0F2
:1026000030E0B90102C0660F771F8A95E2F7CB016F
:10261000852B8093DC014FBF08951F920F920FB658
:102620000F9211242F933F934F935F936F937F9358
:102630008F939F93AF93BF93EF93FF938091C601C6
:102640009091C70101969093C7018093C601809134
:10265000B900887F803609F4CBC0B0F5883209F420
:102660008EC090F4803109F476C038F4882309F4E0
:10267000AAC0883009F45AC037C1883109F46FC044
:10268000803209F473C030C1803409F42BC160F486
:10269000803309F474C0883309F026C18091E401C5
:1026A0008F5F8093E401DAC0803509F47FC08835FC
:1026B00009F47CC0883409F017C185E08093C80113
:1026C00081E08093E50180C0883909F4EAC0C8F44C
:1026D000883709F4C5C038F4883609F484C08037D7
:1026E00009F4C3C001C1883809F495C0803909F4E0
:1026F000C7C0803809F0F8C08091BB000E94A212C8
:10270000F1C0803B09F4E2C038F4803A09F488C093
:10271000883A09F4E0C0E8C0803C09F4DFC0883C96
:1027200009F4DCC0883B09F0DFC0D5C08091C80146
:10273000843029F41092BB001092100109C08091DE
:10274000C801813041F08091E20181608093BB003B
:102750001092E701C9C08091E2018E7FF7CF80918E
:10276000C8018430B1F08091CB011DC085E0809319
:10277000C8018091C801843021F181E031C080918D
:10278000C8018430D9F4909110018091CA01981742
:10279000A8F4E091100181E08E0F80931001F0E029
:1027A000E453FE4F80818093BB009EC08091BB00AC
:1027B000809311018091C801823051F085E08093AF
:1027C000C8011092E50181E08093E70185E58DC0A5
:1027D0008091110187FD42C085E08093C80183E0AC
:1027E0008093E501F0CF8091E4018F5F8093E40155
:1027F000A8951092DE011092DD011092E70110926F
:1028000010018091BB009091E00191508695892341
:102810008093E10167C08091BB000E94A2125EC05C
:1028200081E08093E701909110018091CA0189179E
:1028300020F4809110018093CA018091C8018330F7
:1028400069F08091C801813049F08091C8018230DF
:1028500029F08091C801843009F046C085E645C062
:102860008091E4018F5F8093E4011092DE01109269
:10287000DD011092E701109210011092CA0134C0DC
:102880008091BB0090911001903170F5E0911001A2
:1028900091E09E0F90931001F0E0E453FE4F80838F
:1028A00023C08091BB0090911001903150F4E091D1
:1028B000100191E09E0F90931001F0E0E453FE4F61
:1028C0008083809110018093CA0108C08091E40147
:1028D0008F5F8093E4018091DC0138CF81E08093A9
:1028E000E701ABCF85E001C085E480688093BC0040
:1028F000FF91EF91BF91AF919F918F917F916F91D8
:102900005F914F913F912F910F900FBE0F901F90AD
:1029100018958091C801882321F08091C8018530E5
:10292000C1F70895CF93C82F0E9489149FB7F894D8
:10293000C093CB01C7FF02C081E001C082E0809359
:10294000C8018091E701882349F08091BC0084FD93
:10295000FCCF8091BC0080628093BC009FBFCF9170
:102960000895CF93DF93D82F0E948914C091E2017C
:10297000D093E20183E08093C8018091E70188232E
:1029800049F08091BC0084FDFCCF8091BC00806246
:102990008093BC000E948914C093E2018091E501FC
:1029A000811104C08091110190E002C08FEF9FEF70
:1029B000DF91CF910895CF939EEF980F9B3DF0F458
:1029C00080FD1CC0C82F0E94B11497FF17C09FB78D
:1029D000F894C093BA008091C901882329F08091AE
:1029E000BA0081608093BA008091BC0080648093BB
:1029F000BC00C093E3019FBF81E00EC09FB7F89475
:102A00001092BA008091BC008F7B8093BC008FEF46
:102A10008093E3019FBF80E0CF91089581E0809390
:102A2000E7011092C8011092E5011092E4011092A2
:102A30001201109213011092C7011092C601109258
:102A4000DE011092DD011092CB018093B90087E185
:102A50008093B8008091E3018E7F8093BA0010923A
:102A6000CA01109210018091C901882329F0809138
:102A7000BA0081608093BA0084E88093BC008091A2
:102A8000E0018150880F8093BD000895613031F4DA
:102A90008A3080F4882351F08C5906C0623051F49A
:102AA000882331F0843630F4880F08958CED089532
:102AB00088EC08958FEF0895FB019EEF980F9B3DE2
:102AC00010F010820DC08695853630F091E090832D
:102AD0008E3631F08456089592E09083843609F45E
:102AE00080E0089530911201209113013217E1F036
:102AF000E091120121E02E0F20931201F0E0EC5E34
:102B0000FE4F2081FC01208380911201843110F05E
:102B1000109212019091120180911301981306C036
:102B200086E00E94E81202C080E0089581E00895E6
:102B300080912C01813099F018F0823011F10895C4
:102B400088E291E0489909C00E946718C397E0F0B5
:102B500081E080932C0188E291E00C94461848991A
:102B60000BC088E291E00E9467188132934060F0C8
:102B700082E080932C0102C010922C018093E80126
:102B80000895489910922C010895882369F0809146
:102B90002D0190912E018F3F9105B4F480912D016C
:102BA00090912E0101960CC080912D0190912E01E3
:102BB000181619064CF480912D0190912E01019761
:102BC00090932E0180932D0108951092F40110929C
:102BD000F50180E890E090932E0180932D010895F7
:102BE0000F931F93CF93C82F8B018091F5018830ED
:102BF00028F4823088F5813029F05BC0883009F4F0
:102C000049C057C08091F401882329F08091F401D4
:102C1000883009F04EC089EE91E00E946718CC9789
:102C200008F447C0F80110828EEE91E00E94461829
:102C300082E08093F5018091F3018F718093F3011D
:102C40008091F301880F880F8093F3018091F30145
:102C500083608093F3012DC08091F301881F882742
:102C6000881FFB0180838EEE91E00E9467184497D5
:102C700000F164E170E08EEE91E00E9453188091C3
:102C8000F301880F8093F3018091F5018F5F8093AA
:102C9000F5010FC081E0FB0180838EEE91E00E9480
:102CA00067184E9730F08EEE91E00E944618109211
:102CB000F5018091F401873040F4823008F053C070
:102CC000882381F0813011F1ACC0873009F483C0D2
:102CD000883009F0A6C089EE91E00E94671803973A
:102CE00008F49FC0C1119DC089EE91E00E94461872
:102CF00081E08093F4011092F20180E890E09093DB
:102D00002E0180932D011092ED018BC08C2F0E941B
:102D1000C51580912D0190912E018739910504F5FB
:102D200089EE91E00E9467180A9708F47AC08091B2
:102D30002D0190912E018038910594F482E08093CA
:102D4000F40180E890E090932E0180932D016AE0D9
:102D500070E089EE91E0CF911F910F910C94531880
:102D60001092F4015EC089EE91E00E9467184397CB
:102D700008F457C08091F4018C2F0E94C51589EE8C
:102D800091E00E946718469708F44BC08091F401C7
:102D90008091F201880F8093F20180912D01909132
:102DA0002E01803891052CF08091F2018160809392
:102DB000F2018091F4018F5F8093F40164E170E08F
:102DC00089EE91E00E94531880E890E090932E01E4
:102DD00080932D0126C089EE91E00E9467184397E9
:102DE00000F18C2F0E94C51589EE91E00E946718B2
:102DF0004697B8F0CC23A9F020912D0130912E01F7
:102E000081E0203831050CF080E08093ED0188E00E
:102E10008093F40189EE91E0CF911F910F910C9472
:102E20004618CF911F910F9108950F931F93CF9341
:102E3000DF938C01D62FC0E00E94280890ED980FF8
:102E40009A3090F4F801CC2351F09081990F292FFA
:102E5000220F220F920F9053890F808301C090831D
:102E6000CF5FCD13E9CF0EC093ED980F933050F0A4
:102E70008B3241F08D3331F0882331F08930E1F22B
:102E8000CC23D1F28C2F01C08FEFDF91CF911F9116
:102E90000F910895CF93DF93EC010E9428088033AF
:102EA000D9F040F48D32C1F0D0F4882381F08B3218
:102EB000A1F70FC08A3669F028F4813351F08D33C1
:102EC00071F0EBCF8E3641F0893719F0E6CF80E014
:102ED00007C081E0888301C0188282E001C081E0E0
:102EE000DF91CF9108951F93CF93DF9300D0CDB79B
:102EF000DEB7BE016E5F7F4F8091E3010E945C15DB
:102F0000898389E096E00E94E2176A8189810E94A4
:102F1000041880E296E00E94E21762E0CE0101967A
:102F20000E94151787FD46C0811109C0BE016E5F62
:102F30007F4F8091E3010E945C15898301C08A83E1
:102F40008091E00181959981892389838EEF95E0B5
:102F50000E94E2176A8189810E94041880E20E941F
:102F600050086A8189810E9446150E94DB14182F3F
:102F70008823D9F08BE296E00E94E21787ED95E076
:102F80000E94E217809159010E94171880E296E092
:102F90000E94E21789E591E00E944A17882351F0C8
:102FA0008BE296E00E94E21706C087EA95E00E9455
:102FB000E2179FCF10E0812F0F900F90DF91CF91FC
:102FC0001F910895CF93DF93EC01FE018491882334
:102FD00031F0FE0184910E9450082196F6CFDF91D6
:102FE000CF9108958A3010F4805D01C0895A0C9405
:102FF0005008CF93C82F82958F700E94F2178C2FA4
:103000008F70CF910C94F217CF93C82F80E0CA3005
:1030100018F08F5FCA50FBCF811102C062301CF0E4
:1030200061500E9404188C2FCF910C94F2178111DB
:1030300003C081E396E002C086E396E00C94E217B9
:1030400082E08093B00083E08093B1008FEB8093A7
:10305000B300E0E7F0E080818260808308951F92F2
:103060000F920FB60F9211248F939F938091F601C8
:103070009091F70101969093F7018093F6019F914B
:103080008F910F900FBE0F901F9018952FB7F89447
:103090004091F6015091F701FC0151834083138266
:1030A00012822FBF0895FC0180819181860F971FA6
:1030B00091838083828193818617970718F4138206
:1030C00012820895861B970B938382830895FC01D7
:1030D0002FB7F8948091F6019091F70140815181CA
:1030E000841B950B2FBF228133812817390710F4D9
:1030F00093838283828193810895FC016830F0F08C
:1031000080818336D9F481818C36C1F482818B36FB
:10311000A9F483818093FB0184818093FC018581E4
:103120008093F90186818093F80187818093FA0169
:10313000683031F080858093FD0102C080E0089501
:1031400081E00895FA012081318142815381241761
:103150003507E1F09CE3899FF001112470E06E0FC8
:103160007F1F2417350740F46217730760F081E072
:103170006417750748F007C081E06417750720F0F1
:103180006217730708F480E08170089580E0089565
:103190000F931F93CF93DF9300D0CDB7DEB78C0191
:1031A000FC0120819181822F6CE370E00E949D1AC6
:1031B000862F6A83FCE36F9F20191124298362E024
:1031C0000E94041862E089810E94041880E296E05F
:1031D0000E94E21762E0CE0102960E941517882332
:1031E000C1F062E0CE0101960E94151787FD13C061
:1031F0002A81898190E03CE3239F800D911D112459
:10320000813AE5E09E0714F080EA95E0F8019183A9
:10321000808381E001C080E00F900F90DF91CF911B
:103220001F910F910895EFEFF1E011821082138248
:10323000128215821482178216821092FE01109259
:103240003301EFE2F1E011821082138212820895BD
:10325000CF93DF9380913301D091F801C091FA01AF
:10326000882301F1109233016C2F70E02CE3D29F80
:10327000600D711D11247093300160932F01CB01FB
:103280000A96813A25E0920728F4909332018093C0
:10329000310106C066597540709332016093310167
:1032A00080E036C04FE251E06C2F8D2F0E94A218B3
:1032B0008111F6CF1092300110922F01109232013D
:1032C000109231018091FE01811113C04FEF51E046
:1032D0006C2F8D2F0E94A218811107C043E052E08D
:1032E0006C2F8D2F0E94A21802C081E090E08170A7
:1032F0000FC08091FD01863018F043E052E002C01B
:103300004FEF51E06C2F8D2FDF91CF910C94A218CD
:10331000DF91CF91089581E08093330108950F9359
:103320001F93CF93DF93EC012FE935E040E050E0AD
:1033300060E070E00E946B040FEF11E0F8019183F0
:1033400080832FE935E040E050E060E070E0CE019E
:1033500002960E946B04F801938382832FE935E083
:1033600040E050E060E070E0CE0104960E946B0403
:10337000F801958384832FE935E040E050E060E078
:1033800070E0CE0106960E946B04F8019783868355
:1033900060E0CE0108960E9451048093FE01DF9107
:1033A000CF911F910F9108950F931F93CF93DF93A8
:1033B000EC010FEF11E0F801608171810E945B0464
:1033C000F80162817381CE0102960E945B04F801CC
:1033D00064817581CE0104960E945B04F8016681C8
:1033E0007781CE0106960E945B046091FE01CE01BA
:1033F0000896DF91CF911F910F910C94A404EF9246
:10340000FF920F931F93CF93DF931F92CDB7DEB739
:103410008BEB96E00E94E2172091FF0130910002B1
:1034200080910102909102022817390771F481E01E
:10343000409103025091040220910502309106024E
:103440004217530719F480E001C081E0817089833D
:103450000E94171880E296E00E94E217CE010196C2
:103460000E944A17811102C010E05EC0898181115B
:1034700012C08091FF01909100029093020280930C
:1034800001028091030290910402909306028093BE
:10349000050211E049C087E896E00E94E2178FEF2D
:1034A000E82E81E0F82E01E689E796E00E94E21717
:1034B000802F0E94500882E796E00E94E217C70121
:1034C0000E94C818882381F28BE296E00E94E217DE
:1034D00085E696E00E94E217C70102960E94C8188E
:1034E000182F882309F28BE296E00E94E2170F5F03
:1034F00084E0E80EF11C0336B9F689E396E00E94F9
:10350000E2178091FE010E94171880E296E00E9467
:10351000E2178EEF91E00E944A17882309F4A4CFA6
:103520008BE296E00E94E217812F0F90DF91CF91FE
:103530001F910F91FF90EF900895AA1BBB1B51E1C3
:1035400007C0AA1FBB1FA617B70710F0A61BB70B13
:10355000881F991F5A95A9F780959095BC01CD01B8
:103560000895EE0FFF1F0590F491E02D0994F9994D
:10357000FECF92BD81BDF89A992780B50895262F78
:10358000F999FECF1FBA92BD81BD20BD0FB6F89448
:0E359000FA9AF99A0FBE01960895F894FFCFAB
:02359E0001002A
:00000001FF
