:100000000C948B010C94A8010C94A8010C94A801E9
:100010000C94A8010C94A8010C94A8010C94E6146B
:100020000C94A8010C94A8010C94A8010C94A801AC
:100030000C94A8010C94A8010C94A8010C94A8019C
:100040000C94420C0C94A8010C94A8010C94A801E7
:100050000C94A8010C94A8010C94A8010C94A8017C
:100060000C94980E0C94A8015F5F5F69746C785FC4
:1000700054573339706C75732D444F504155535F4D
:100080005F5F4D617220313020323031375F5F5F0A
:1000900031393A32373A33365F5F5F3331335F5F3E
:1000A0005F000D0A7A65696C6520310D0A7A656911
:1000B0006C6520320D0A7A65696C652033000D0A83
:1000C000202B2B2B200D0A0A0A0A0029206E6575A9
:1000D0003A2020202020000D0A2066756E6B74697E
:1000E0006F6E20746173746520616D206D6F64752F
:1000F0006C3A2028616B742E200029206E657520D3
:100100002830203D20617573293A202020202000CE
:10011000617573000D0A206B6F6D6D656E646520EF
:10012000616E72756665207370657272656E206DA2
:1001300069743A2028616B742E20002F31303020F2
:1001400073656B293F202020202020000D0A206CA1
:1001500061656E6765207761686C617566662D699B
:100160006D702E2028616B742E20000D0A2077619F
:1001700065686C7363686569626520766F72686133
:100180006E64656E3F202020202020000D0A206B29
:100190006F6E66696775726174696F6E207477330C
:1001A00039706C75732076657273696F6E203331A8
:1001B0003320646174756D204D61722031302032BE
:1001C0003031370023740D6F20686E6D0A6C7267D2
:1001D00069706376657A64627379667861776A0FAD
:1001E00075716B0E0023350D3920232C2E0A29340E
:1001F0002338303A3D332B233F2736232F2D32250A
:100200000F3731280E00206F6B2E20000D0A20774B
:1002100065697465726C656974756E67656E206179
:100220006277656973656E3F2020202020200020C2
:100230007363686F6E20766572676562656E206FA6
:1002400064657220756E6775656C7469672C2061D2
:100250006E6465726520776165686C656E21000D5E
:100260000A207072756566652000206E65753A20FB
:1002700020202020000D0A20647572636877616871
:100280006C20616B7475656C6C3A20000D0A2073EC
:10029000706572727A65697420776F6368656E65E0
:1002A0006E642D61626861656E6769673F2020201A
:1002B000202020000D0A202E2E2E206269733A2065
:1002C0000020766F6E3A20000D0A207370657272FE
:1002D0007A65697420000D0A207A656974656E205C
:1002E000766965727374656C6C6967206F686E659A
:1002F0002070756E6B7420756E64206B6F6D6D6110
:100300002065696E676562656E00206E65753A20CE
:1003100020202020000011241FBECFEFD4E0DEBF3C
:10032000CDBF11E0A0E0B1E0E2E5F0E302C005904E
:100330000D92A230B107D9F711E0A2E0B1E001C0FF
:100340001D92A53FB107E1F70E94B3040C94271852
:100350000C94000080913D01882339F05F9A299A1E
:1003600080914401882321F005C05F98299803C03B
:100370005C9A01C05C9880914401882319F0289A06
:100380002A9A02C028982A98809135014E9B0CC069
:100390008823B1F088E391E00E941E1581529340BA
:1003A00098F01092350110C0882351F488E391E051
:1003B0000E941E15069740F081E08093350104C02D
:1003C00088E391E00E94FD1480914401882321F08C
:1003D00080913501882321F481E0809342011BC084
:1003E000909142014E9B0BC09923A9F08EE391E0BE
:1003F0000E941E15049798F01092420110C0992394
:1004000051F48EE391E00E941E15049740F081E0C4
:100410008093420104C08EE391E00E94FD1480911C
:10042000CA019091420184FF06C0992311F45A9A9F
:1004300008955A980895992311F45B9A08955B984A
:100440000895CF92DF92EF92FF920F931F93DF9365
:10045000CF93CDB7DEB728970FB6F894DEBF0FBEA7
:10046000CDBF8E010F5F1F4FC8010E94FD1485E0B4
:10047000E82EF12CEC0EFD1EC7010E94FD14CC24C9
:10048000C394D02E012F1E2DEF2CC0923D01C0929F
:1004900044010E94AA0180913501882321F48D2D09
:1004A000902F0E94FD14812F9E2D0E941E158955AC
:1004B0009B4148F010923D0181E0809344010E94ED
:1004C000AA0180E008C08D2D902F0E941E158C522D
:1004D0009140D8F281E028960FB6F894DEBF0FBEA7
:1004E000CDBFCF91DF911F910F91FF90EF90DF90E3
:1004F000CF900895EF92FF920F931F93DF93CF93C6
:1005000000D000D0CDB7DEB780913501882331F01F
:1005100080913D01882311F40E9421028E010F5F1A
:100520001F4FC8010E94FD14EE24E394F02E012F0A
:1005300010923D01E09244010E94AA018091350190
:10054000882321F08F2D902F0E94FD148F2D902F46
:100550000E941E15845F914058F30F900F900F90EA
:100560000F90CF91DF911F910F91FF90EF90089521
:10057000DF93CF9300D000D0CDB7DEB77C0180E809
:100580008093BC008E010F5F1F4FC8010E94FD14B5
:10059000BB24DD24C02E012F31E0432E512C4E20F0
:1005A0005F2022E0622E712C6E207F2094E0892E45
:1005B000912C8E209F2028E0E222FF2402C0BB2441
:1005C000B394A8958C2D902F0E941E1581599140AF
:1005D000F0F08C2D902F0E94FD14489905C084E006
:1005E0008D1568F3D394EDCFDD2059F3DA9449F7F4
:1005F000BB2039F3F8942EE088E190E00FB6F89430
:10060000A895809360000FBE20936000FFCFBB20B1
:10061000F1F48C2D902F0E941E15893C9105B8F0A5
:100620004114510411F0599A01C059986114710490
:1006300011F05A9A01C05A988114910411F05B9AF2
:1006400001C05B98E114F10429F05C9ABACF599883
:100650005A985B985C98B5CFAF92BF92CF92DF92D9
:10066000FF920F931F93DF93CF9300D000D0CDB7AD
:10067000DEB7F82ECE0101960E94FD1480E00E94A4
:100680007E0CFF2051F083E0F81639F082E0F81676
:1006900011F081E003C084E001C082E090E024EF2B
:1006A00031E0829F5001839FB00C929FB00C1124C7
:1006B0002CE231E0829F6001839FD00C929FD00C8E
:1006C00011248E010F5F1F4F0E9494118091D6015B
:1006D000882329F01092D6010E946D162CC00E942A
:1006E000AA0180913501882331F5C8010E941E15A9
:1006F000A816B90620F4C8010E94FD1409C0C8015B
:100700000E941E15C816D90610F45C9A01C05C98A8
:100710008091B8018823C1F26091B8018AEB91E021
:100720000E944115882381F282E0F81669F60E9442
:100730000A16882349F65C9881E00E947E0C0F908F
:100740000F900F900F90CF91DF911F910F91FF901D
:10075000DF90CF90BF90AF9008951F93182F599AB4
:1007600081E00E94950C80E00E947E0C112329F00C
:100770000E947A0202C00E94AA018091350188235A
:10078000D1F7599881E00E947E0C1F910895109234
:10079000B3018093E10181E08093E30108C080917F
:1007A000420164E471E00E94E3110E94AA01809179
:1007B000E3018823A1F7089510927D010E94AA0108
:1007C0008091420164E471E00E94E3118091E201B2
:1007D000883051F48091E00163E471E00E94CC0D17
:1007E0001092E201882321F480913501882331F7AA
:1007F0000895DF92EF92FF920F931F93DF93CF93B1
:1008000000D000D0CDB7DEB7E82E8E010F5F1F4FAE
:10081000C8010E94FD1481E00E94810881E080935C
:10082000B30180937D01DD24D394F02E012F01C00C
:10083000EE240E94AA010E94941180913501882320
:1008400061F40E94950C0E947A0202C00E94AA01E3
:100850000E9484088823D1F356C00E94840888230C
:1008600031F00E947A0280E00E94950C4CC00E94F8
:100870007E08809344018091E301823060F480918E
:1008800042010E94810807C08EE791E00E94870D17
:100890008F3109F0EE248EE791E00E94370D882316
:1008A00099F3EE2011F18F2D902F0E941E15DD205F
:1008B00019F428E833E102C024EF31E082179307EE
:1008C000A0F088E491E06BE10E94600D88E491E083
:1008D0006BE10E94600D88E491E062E10E94600D8E
:1008E0008F2D902F0E94FD14DD248F2D902F0E94BC
:1008F0001E15895E934008F49CCF809142018823A5
:1009000009F496CF96CF0F900F900F900F90CF9144
:10091000DF911F910F91FF90EF90DF900895DF938B
:10092000CF9300D0CDB7DEB7982F81548A3108F429
:10093000905E892F63E471E0AE014F5F5F4F9E01CF
:100940002E5F3F4F0E94E90D882341F089810E946C
:10095000C7038A818F3F11F00E94C7030F900F9049
:10096000CF91DF910895AF92BF92CF92DF92EF9235
:10097000FF920F931F93DF93CF93CDB7DEB72897E6
:100980000FB6F894DEBF0FBECDBF8FE028E130E098
:100990000FB6F894A895209360000FBE8093600076
:1009A000519A529A539A549A209A579A56985E9A04
:1009B000229A219A55985D9A5098589A599A0E946D
:1009C000D7140E94B71580E090E00E94F6178E7F42
:1009D0008093D10182508B3D18F08EE38093D1013A
:1009E00081E08093CE018093B70189E190E00E947D
:1009F000F61710924601813011F48093460181E090
:100A000090E00E94F61710924501882319F081E0CA
:100A10008093450182E090E00E94F61780933C01AC
:100A20008150843618F08EE180933C0183E090E0A1
:100A30000E94F61780933601843610F0109236012A
:100A400084E090E00E941D1788E190E00E94F61774
:100A50008093370110923D0181E080934401109210
:100A60003501809342010E94090D0E94AA01CE0126
:100A700001960E94FD1478948E010F5F1F4FC801EC
:100A80000E941E158A3F9105D0F359985A9A0E94E8
:100A9000F9108E010F5F1F4FC8010E941E15845F61
:100AA0009140D0F35A985B9A8E010F5F1F4FC80197
:100AB0000E941E158E5E9240D0F35B985C9A80E98E
:100AC0008093BC008E010F5F1F4FC8010E941E154E
:100AD000885F9240D0F385EC8093BC008E010F5F5D
:100AE0001F4F54E1F52EC8010E941E154091D101FF
:100AF0004F9D9001112428513C4F8217930798F382
:100B0000842F0E94C61010923D0181E08093440121
:100B10005E010894A11CB11C45E0C42ED12CCC0E62
:100B2000DD1EC5010E941E15815B944060F0C50169
:100B30000E941E158957954040F48091D1018F3F46
:100B400011F4599A05C0599803C0C5010E94FD14BB
:100B50005A985B985C980E9494110E94AA01809117
:100B6000D601823009F0F1C01092D6010E94D8114E
:100B70001092430180E00E947E0C599A0E9421024B
:100B8000882309F4DAC08CE891E00E94C9140E941D
:100B90002414082F1091D10180E090E00E94F617F4
:100BA000181729F080E090E0612F0E94041810913E
:100BB000460189E190E00E94F617212F30E090E095
:100BC0002817390729F089E190E0612F0E94041865
:100BD000002309F4B2C08BE691E00E94C91485E4B9
:100BE00091E00E94B913882309F4A7C01091450130
:100BF00081E090E00E94F617412F50E020E030E0C5
:100C0000882311F021E030E04217530729F081E0FA
:100C100090E0612F0E94041886E092E00E94C914BF
:100C200080914501882361F18CE491E00E94C91410
:100C300080913C0160E00E9497148BE391E00E9458
:100C4000C9148CE391E060E00E94EE1387FD75C04B
:100C500080913C01882319F481E080933C0110913C
:100C60003C0182E090E00E94F617181729F082E01C
:100C700090E0612F0E94041886E092E00E94C9145F
:100C800084E191E00E94C91480913601882321F00B
:100C900062E00E94971404C080E191E00E94C914B0
:100CA0008AEF90E00E94C91486E391E062E00E941E
:100CB000EE1387FD42C01091360183E090E00E9460
:100CC000F617181729F083E090E0612F0E940418AE
:100CD00086E092E00E94C9140E94C016882369F140
:100CE00084E090E00E94701787ED90E00E94C914A4
:100CF0008091370160E00E9497148BEC90E00E9495
:100D0000C91487E391E060E00E94EE1387FD15C0EF
:100D10001091370188E190E00E94F617181729F02A
:100D200088E190E0612F0E94041886E092E00E9422
:100D3000C9148EEB90E00E94C9140E947A0281E0EF
:100D40000E947E0C59981092D6018091D601813074
:100D500009F045C01092D60180913701813051F5DC
:100D60000E94D8111092430180E00E947E0C0E94E4
:100D700021028823A1F15C9A02EA10E00EC00E94D1
:100D80008F040E9494118091D601882351F48091A0
:100D90003501882331F00F5F1F4FF80184918823BC
:100DA00071F71092D6010E947A0281E00E947E0CB7
:100DB0005C9815C05C9A80E00E947E0C02C00E9484
:100DC00094118091D6018823D1F31092D60181E04D
:100DD0000E947E0C5C98599880E00E942C038091C0
:100DE0003501882309F431C18091D1018F3F19F475
:100DF0000E947A022AC10E946D165A9A0E94C90C5A
:100E0000882321F0813009F014C102C05A981DC115
:100E100080914501882309F474C0C6010E94FD1425
:100E200002C00E94AA01C6010E941E158C5B92405E
:100E3000C0F310924401C6010E94FD141AE002C0E2
:100E40000E94AA01C6010E941E1520913C01219F0B
:100E5000900111248217930798F381E08093440155
:100E6000C6010E94FD1400E010E00E94AA018091DA
:100E70004201882371F40E94AA01809142018823D3
:100E800021F4809135018823B1F71F5FC6010E94CC
:100E9000FD1480913501882309F4B7C00E948408AD
:100EA000882309F0B2C0112379F0C6010E941E15F3
:100EB000893C910548F01A3010F080E001C0812F84
:100EC0000E94C00801E010E00E946A08882309F02F
:100ED000F6C0C6010E941E15002329F428E93AE352
:100EE00040E050E004C028EC3FEA40E050E0A0E0E1
:100EF000B0E0281739074A075B070CF0B6CF802F00
:100F000078C00E942102882309F47FC00E94D81172
:100F10008BE10E94C703C6010E94FD1481E3809308
:100F2000430100E010E0EE24FF240E94AA0180911A
:100F3000420164E471E00E94E311EE2009F05CC01C
:100F40008091E201883091F58091E00163E471E0E5
:100F50000E94CC0D1092E201982F90539A3030F4F9
:100F6000892F0E94C008FF24F39417C08C3659F4CF
:100F7000FF2089F48FE60E948F0483E60E948F048D
:100F8000EE24E3940AC0882341F0803231F08D30A2
:100F900021F08A3011F00F5F1F4FC6010E94FD142F
:100FA00005C08FE30E948F04015010400115110508
:100FB00031F0C6010E941E15883C910590F70E94F1
:100FC0006A088823D1F5C6010E941E15FF2029F466
:100FD00028E93AE340E050E004C028EC3FEA40E072
:100FE00050E0A0E0B0E0281739074A075B0724F477
:100FF0008F2D0E94AD0309C080913501882329F00F
:101000000E948408882309F490CF81E00E94950C07
:101010000E947A02809136018823B9F00E947B08F1
:1010200090913601891789F45A9883E00E942C0325
:101030000CC08FE090E00E94B8028091450191E0E1
:1010400089270E94F9030E946D160E946A0888236E
:10105000F9F00E94AA015B9A599A0E942102882302
:1010600049F45B9881E00E94950C81E00E942C037A
:1010700059980EC059980E94C90C823031F081E015
:101080000E94950C0E947A0203C080E00E94F9033E
:101090008091B801882309F444CD6091B8018AEBAE
:1010A00091E00E944115882339F00E940A16882396
:1010B00019F082E00E942C031092B80132CD0E94F8
:1010C0002102BBCF8091470190E0882309F491E091
:1010D000892F089580914701833031F08091470135
:1010E00020E030E0843011F421E030E0822F0895D8
:1010F0008091CF01089580910701089580910501A5
:10110000089580930401089580914701882331F068
:101110008091470120E030E0853011F421E030E09B
:10112000822F089588E491E00E94370D0895CF93AF
:10113000DF93EC018EE791E00E94370D882311F0D8
:1011400080E006C08EE791E00E94870D888381E0F1
:10115000DF91CF9108951F93182F88E491E0612FBC
:101160000E94600D882351F01F3111F481E603C005
:101170001B3119F481E380937A0181E01F91089576
:10118000682F80914701823049F4809108018823BB
:1011900029F088E491E00E94600D089589E090E0D4
:1011A0000E94B802089588E491E00E94400D0895DD
:1011B000DF93CF9300D0CDB7DEB7982F8E3059F0A4
:1011C0008F3020F4873009F042C01BC08F3069F0A7
:1011D0008731E9F528C088E491E06FE10E94600D55
:1011E000882309F457C081E609C088E491E06BE1E7
:1011F0000E94600D882309F44DC081E380937A0139
:101200004BC080917A01813339F088E491E06BE141
:101210000E94600D8823F1F181E380937A0188E4D4
:1012200091E06AE111C080917A01813339F088E45C
:1012300091E06BE10E94600D882361F181E380936E
:101240007A0188E491E062E10E94600D26C0892F56
:1012500081548A3108F4905E892F6AE771E0AE010B
:101260004F5F5F4F9E012E5F3F4F0E94E90D882325
:1012700099F088E491E069810E94600D882351F023
:101280006A816F3F49F088E491E00E94600D8823F5
:1012900021F002C080E001C081E00F900F90CF915B
:1012A000DF910895EF92FF920F931F93DF93CF93F7
:1012B0000F92CDB7DEB78C017E010894E11CF11CC2
:1012C000C7010E9497088823C9F08091B00181333B
:1012D00059F489818A3111F487E003C0823121F405
:1012E00087E1F801808309C0898160EB71E00E9489
:1012F000CC0DF8018083882319F381E00F90CF9102
:10130000DF911F910F91FF90EF900895FF920F933F
:101310001F93082F80914701081709F4CAC0FFB630
:10132000F89410920801033009F458C0043028F4EE
:101330000130A9F10230E0F517C0053009F4A3C06F
:10134000053008F465C0063009F4A6C0073009F07E
:10135000ADC08091CA018F778093CA018091CA0184
:101360008F7E8093CA0118C08091CA0180748093D7
:10137000CA018091CA0180688093CA0180914601A8
:10138000882329F08091CA0180618093CA0181E09D
:1013900080930401809305011092D00187C0809151
:1013A000CA018F778093CA018091CA018F7E7CC069
:1013B0008091CA018F778093CA018091CA018F7E84
:1013C0008093CA01109206011092070181E0809378
:1013D000080188E491E00E94320D68C08091CA0142
:1013E0008F778093CA018091CA018F7E8093CA0152
:1013F0008091CA0180618093CA018091CA0188608E
:101400008093CA0181E08093D401809305014EC08E
:101410008091CA0187FF0FC08091CA018F778093A6
:10142000CA018091CA018F7E8093CA018091CA014E
:1014300080618093CA018091CA0180628093CA0151
:101440008091CA0182608093CA018091CA01846040
:101450008093CA018091CA0181608093CA0111E022
:101460001093000188E491E00E94320D8EE791E034
:101470000E94320D0E94D8111093D40110930401E0
:101480001093050113C08091CA018F7D8093CA011A
:101490008091CA01877F08C08091CA018F7D8093A7
:1014A000CA018091CA018D7F8093CA0100934701D0
:1014B000FFBE1F910F91FF9008950E944A108091E6
:1014C0000701609106010E9431118093D001809143
:1014D000D10186950E9453100E944A1089E091E044
:1014E0000E94FD148091D301882369F482E08093E7
:1014F000080183EA0E9453100E944A1089E091E09B
:101500000E94FD1408958091D301833059F4109204
:10151000D3011092D00185E00E94860982E6809373
:10152000030108951092D3011092D0018091060119
:10153000823030F085E00E94860988E780930301BD
:1015400008951F93DF93CF9300D0CDB7DEB7CE01C0
:1015500001960E945E11882309F443C080914701DF
:10156000873021F481E090E00E94B8029981953A99
:10157000E9F0963A28F4903850F0933A91F510C07B
:101580009A3A11F19C3A31F1963A59F515C0809189
:101590004701882331F5990F9093D00181E01FC056
:1015A000809147018130E9F483E019C080914701BF
:1015B0008230B9F484E013C080914701823089F40D
:1015C00083E0809308010DC080914701882349F092
:1015D00085E005C080914701863019F480E00E94C3
:1015E000860980914701843009F444C0863009F4AB
:1015F000E8C0823009F0EFC088E491E00E94370D26
:10160000882309F0E8C080910801823009F4E3C022
:1016100088E491E00E94870D182F809106018F5F6A
:1016200080930601809108018130B1F48091060118
:10163000813019F4109307010DC0809106018230AA
:1016400059F4809107012AE0829FC0011124810F83
:10165000809307010E945D0A80910801833009F0A0
:10166000BAC0812F80550E94531089E091E00E94FA
:10167000FD14B1C08091CD01882359F08091D4012F
:10168000882321F082E00E94400E03C082E00E9485
:101690002F0E88E491E00E94370D882369F4809131
:1016A000E301882349F488E491E00E94870D809348
:1016B000E10181E08093E30180917D01882319F4A9
:1016C0008091040119C0813019F48091D40114C0B3
:1016D000823089F48091D401882319F480E090E06D
:1016E0000BC08091040190E0882309F491E081E02F
:1016F0009827892F01C081E0BE016E5F7F4F0E9455
:10170000E3118091E201883041F46091E0018EE7BD
:1017100091E00E94600D1092E2018091D4018093CB
:101720000501109104018091E3018823A9F08091C3
:10173000E301813089F08091B301882321F48A810B
:101740008093050109C0813011F41A8105C08230EF
:1017500019F41A8110930501112321F080E00E94F1
:10176000400E03C080E00E942F0E8091D501882397
:1017700091F18091B601882371F5112381F0809158
:101780000001823021F080910001833011F48CE956
:101790000FC0809100018823F1F48AE909C080918B
:1017A0000001882321F080910001813021F483E938
:1017B0000E94531010C080910001823061F486E9CC
:1017C000F7CF8DE091E00E941E15815A9F4018F0DE
:1017D00080E00E9486098091B601853011F589E08C
:1017E00091E00E94FD148091D3018823C1F480917F
:1017F000B901863961F0873918F4833981F405C05D
:101800008A3951F08C3959F404C082E006C083E073
:1018100004C01092000103C081E080930001109287
:10182000B6018091D0018823D1F08091D501882321
:10183000B1F08091B601882321F08091B601853006
:1018400071F489E091E00E941E158251934038F0B6
:1018500089EA0E94531089E091E00E94FD14809172
:10186000D001882341F080914701863021F080919A
:101870004701853009F4A8950F900F90CF91DF9123
:101880001F9108951F920F920FB60F9211242F935C
:101890003F934F935F936F937F938F939F93AF93F8
:1018A000BF93EF93FF93809102018823B1F481E00D
:1018B0008093020180916E008E7F80936E007894F9
:1018C0000E94A10A84EB86BD81E085BB80916E00F9
:1018D000816080936E0010920201FF91EF91BF91A1
:1018E000AF919F918F917F916F915F914F913F91B8
:1018F0002F910F900FBE0F901F9018951F93182FC8
:1019000080914701882341F080914701873021F081
:101910008AE090E00E94B802112311F080E001C03B
:1019200087E00E9486091F9108951F93182F8091C8
:101930004701882361F18091D001882319F40E9426
:10194000860925C081E0809302018091470185309E
:1019500049F48CEA0E9453100E944A1080E00E94D1
:1019600086090AC08AEA0E94531086E00E9486090E
:101970008DE091E00E94FD141092020102C00E94CD
:10198000A10A80914701863011F41123C1F71F91FC
:10199000089580914701833091F481E080930201A2
:1019A00085EA0E9453100E944A1089EA0E9453104F
:1019B00084E00E9486091092020182E008958091DD
:1019C000D1018F3F11F480E0089580914701882371
:1019D00021F088E090E00E94B80281E0809302014B
:1019E0009FB7F8948091CA018F778093CA01809144
:1019F000CA018F7E8093CA018091CA018F7E809335
:101A0000CA019FBF82E00E9486091092020181E014
:101A1000089514BC82E085BD80916E008160809342
:101A20006E0080E88093CA0180914601882329F0E6
:101A30008091CA0180618093CA010E94D81180E020
:101A40000E94860988E491E00E94320D8EE791E0C1
:101A50000E94320D1092020181E08093B3018093C5
:101A60007D010895FC0112AA13AA14AA0895FC018D
:101A700094A983A920E0981709F421E0822F089502
:101A8000FC0183A9813310F090E002C0982F9F5F82
:101A900084A9981789F083A9813310F080E005C0EC
:101AA0008F5F813311F490E002C0982F9F5F84A96B
:101AB00020E030E0981711F421E030E0822F089503
:101AC000DC01D3968C91D397813310F090E002C063
:101AD000982F9F5FD4968C91D497981711F480E03B
:101AE00008959FB7F894D3968C91D397FD01E80F92
:101AF000F11D6083D3968C91D397813310F080E0F1
:101B000001C08F5FD3968C939FBF81E00895DC0165
:101B10002FB7F894D4968C91D497FD01E80FF11D5E
:101B20008081D4969C91D497913310F090E001C0BD
:101B30009F5FD4969C932FBF0895FC0193A984A91D
:101B4000981718F023A984A903C023A984A92E5C9F
:101B5000281B822F0895FC0184A9E80FF11D8081C4
:101B60000895282F613619F4E4ECF1E004C06133E4
:101B700081F4E5EEF1E0822F81548A3108F4205E91
:101B800090E08491281731F09F5F903211F03196E8
:101B9000F8CF9FEF892F0895DB018B3111F481E39A
:101BA00003C08F3119F481E68C930BC06C916133C3
:101BB00031F4E82FF0E0EB51FE4F84910895613647
:101BC00011F080E00895E82FF0E0EC53FE4F84918F
:101BD0000895DF92EF92FF920F931F93CF93DF93BD
:101BE000D82E7B01EA01890187E1D81641F48BE107
:101BF000888382E1F9018083FB01108227C08D2D4B
:101C0000FB0160810E94B10D88838FEFF801808312
:101C100088818F3FD9F48D2D61E60E94B10DF801C6
:101C200080838F3F21F08FE1888381E60DC08D2D69
:101C300061E30E94B10DF80180838F3F11F480E0D1
:101C400006C08BE1888381E3F701808381E0DF9127
:101C5000CF911F910F91FF90EF90DF9008954FB7B4
:101C6000F8949091CA0121E030E002C0220F331FA6
:101C70008A95E2F7209529232093CA014FBF089542
:101C80004FB7F8949091CA0121E030E002C0220FD2
:101C9000331F8A95E2F7922B9093CA014FBF0895A4
:101CA000982F8A3991F08B3928F4833941F086399D
:101CB00091F405C08C3949F0893A69F4089581E0BE
:101CC0008093CD011092D401089581E08093CD01DD
:101CD0008093D401089580912501E82FF0E0EF5E14
:101CE000FE4F90838F5F8093250180912501843181
:101CF00048F080912601882311F483E10CC01092F2
:101D000025010BC09091250180912601981729F497
:101D1000809125018150809325018091CA018064C2
:101D20008093CA018091CA018F778093CA01089578
:101D30001F920F920FB60F9211242F933F934F9340
:101D40005F936F937F938F939F93AF93BF93EF9323
:101D5000FF938091B4019091B50101969093B501E4
:101D60008093B4018091B90090E0887F90708036B4
:101D7000910509F4F5C081369105CCF588329105BD
:101D800009F4A8C089329105B4F48031910509F4B1
:101D900080C0813191053CF4009709F4B7C00897E1
:101DA00009F061C165C08831910509F476C080975A
:101DB00009F059C186C08034910509F4E8C0813426
:101DC000910544F48033910509F484C0C89709F063
:101DD0004AC1A1C08035910509F4AAC08835910592
:101DE00009F4A6C08834910509F03DC19AC088392C
:101DF000910509F404C189399105ECF488379105FE
:101E000009F4DBC0893791054CF48836910509F453
:101E1000A2C08037910509F026C1D4C08838910549
:101E200009F4B7C08039910509F4D7C0803891050D
:101E300009F019C1A8C0803B910509F4F5C0813BA8
:101E400091054CF4803A910509F4A8C0883A9105AF
:101E500009F009C1EEC0803C910509F4F1C0883C4D
:101E6000910509F4EDC0883B910509F0FCC0E1C083
:101E70008091B601843029F41092BB0010922801A1
:101E8000DCC08091B601813021F08091D001816069
:101E9000D2C08091D0018E7FCEC08091B6018430B7
:101EA00059F480912801E82FF0E0E654FE4FE081DC
:101EB0008F5F8093280102C0E091B901E093BB00DD
:101EC000D2C085E08093B6018091B6018430E1F004
:101ED00081E03EC08091B601843099F49091280150
:101EE0008091B801981768F480912801E82FF0E0FC
:101EF000E654FE4F90818F5F809328019093BB0042
:101F0000B2C085E08093B6011092D30181E0809346
:101F1000D50185E5ABC08091D2018F5F8093D2015E
:101F2000A4C085E08093B60181E08093D301EFCF18
:101F30008091BB00809327018091B601823009F720
:101F40008091270187FD91C085E08093B60183E0F1
:101F50008093D301DBCF8091D2018F5F8093D20138
:101F6000A8951092CC011092CB011092D50110923D
:101F700028019091BB008091CE01815096958923D4
:101F80008093CF0104C08091BB000E94500E85E079
:101F90006DC08091BB000E94500E52C081E08093C2
:101FA000D501909128018091B801891708F04BC0A4
:101FB000809128018093B80146C08091D2018F5F43
:101FC0008093D2011092CC011092CB011092D501D6
:101FD000109228011092B80146C09091BB008091E8
:101FE0002801803108F03FC080912801E82FF0E0FF
:101FF000E654FE4F90838F5F8093280134C0909108
:10200000BB0080912801803150F480912801E82F95
:10201000F0E0E654FE4F90838F5F8093280180911B
:1020200028018093B8010CC08091D2018F5F80930A
:10203000D2018091CA018093BB001092D50113C0D8
:1020400081E08093D5018091B601833071F0809159
:10205000B601813051F08091B601823031F080912B
:10206000B601843011F085E401C085E68068809374
:10207000BC00FF91EF91BF91AF919F918F917F91A4
:102080006F915F914F913F912F910F900FBE0F90E5
:102090001F9018958091B601882321F08091B60198
:1020A0008530C1F70895982F8091B601882321F0DB
:1020B0008091B6018530C1F72FB7F8949093B9019C
:1020C00097FF02C081E001C082E08093B601809159
:1020D000D501882349F08091BC0084FDFCCF80911C
:1020E000BC0080628093BC002FBF08958091B60130
:1020F000882321F08091B6018530C1F79FB7F8940D
:1021000084E08093B6018091D501882349F08091C5
:10211000BC0084FDFCCF8091BC0080628093BC0039
:102120009FBF0895982F8091B601882321F0809158
:10213000B6018530C1F72091D0019093D00183E0A2
:102140008093B6018091D501882349F08091BC002D
:1021500084FDFCCF8091BC0080628093BC008091A4
:10216000B601882321F08091B6018530C1F7209314
:10217000D0018091D301882319F02FEF3FEF04C0E5
:1021800080912701282F30E0C90108951F93182F4F
:1021900082508B3DF0F410FD1CC0812F0E949210E4
:1021A00097FF17C09FB7F8941093BA008091B701BA
:1021B000882329F08091BA0081608093BA008091D1
:1021C000BC0080648093BC001093D1019FBF81E06C
:1021D0000EC08FB7F8941092BA009091BC009F7B0C
:1021E0009093BC009FEF9093D1018FBF80E01F912F
:1021F000089581E08093D5011092B6011092D30129
:102200001092D20110922601109225011092B50170
:102210001092B4011092CC011092CB011092B9012E
:102220008093B90087E18093B8008091D1018E7FBF
:102230008093BA001092B801109228018091B701E2
:10224000882329F08091BA0081608093BA0084E8E5
:102250008093BC008091CE018150880F8093BD0097
:102260000895613041F48A3080F4882311F48CEDB4
:1022700008958C5908C0623041F4882311F488EC29
:102280000895843610F4880F08958FEF0895982FDD
:10229000FB0182508B3D10F010820DC09695953653
:1022A00030F081E080839E3630F4945605C082E0A1
:1022B0008083943609F490E0892F0895DC01909191
:1022C000260180912501981711F480E008959091DE
:1022D0002601E92FF0E0EF5EFE4F80818C939F5F37
:1022E0009093260180912601843110F010922601EE
:1022F0009091260180912501981711F081E00895B1
:102300009FB7F8948091CA018F7B8093CA019FBFC9
:1023100081E00895909126018091250120E0981791
:1023200009F421E0822F0895809129018130A9F0DC
:10233000813018F0823039F522C0489909C08AE20C
:1023400091E00E941E15C397F0F081E0809329016F
:102350008AE291E00E94FD14089548990BC08AE238
:1023600091E00E941E158152934068F082E08093B4
:10237000290102C0109229018093D6010895489B3B
:1023800002C01092290108951092D60103C0A895A9
:102390000E9494118091D6018823C9F38091D601BF
:1023A0001092D60190E0823009F491E0892F0895CF
:1023B0001092E2011092E30180E890E090932F01E7
:1023C00080932E0108951F93CF93DF93182FEB0175
:1023D0008091E301883030F4823088F5813009F053
:1023E0005AC004C0883009F056C047C08091E2014D
:1023F000882329F08091E201883009F04CC087EDF4
:1024000091E00E941E15CC9708F445C018828CED0F
:1024100091E00E94FD1482E08093E3018091E1014C
:102420008F718093E1018091E101880F880F809383
:10243000E1018091E10183608093E1012CC08091F2
:10244000E101188287FF02C081E088838CED91E072
:102450000E941E154497F8F08CED91E064E170E065
:102460000E940A158091E101880F8093E10180911B
:10247000E3018F5F8093E3010EC081E088838CEDE0
:1024800091E00E941E154E9730F08CED91E00E9475
:10249000FD141092E3018091E201873048F482300C
:1024A00008F06FC0882389F0813009F0FFC022C096
:1024B000873009F494C0883009F0F8C087ED91E0C6
:1024C0000E941E15039708F4F1C0112309F0EEC015
:1024D00087ED91E00E94FD1481E08093E20110926B
:1024E000E00180E890E090932F0180932E011092FC
:1024F000DB01DCC0112369F080912E0190912F0146
:102500008F3F9105B4F480912E0190912F01019697
:102510000CC080912E0190912F01181619064CF4D1
:1025200080912E0190912F01019790932F0180931C
:102530002E0180912E0190912F0187399105F4F49D
:1025400087ED91E00E941E150B9708F4AFC08091B3
:102550002E0190912F018038910584F482E08093C0
:10256000E20180E890E090932F0180932E0187EDA7
:1025700091E068E070E00E940A1598C01092E201B4
:1025800095C087ED91E00E941E15409708F48EC01B
:10259000112369F080912E0190912F018F3F9105B9
:1025A000B4F480912E0190912F0101960CC080917E
:1025B0002E0190912F01181619064CF480912E01CE
:1025C00090912F01019790932F0180932E0187ED19
:1025D00091E00E941E15449708F046C067C087ED41
:1025E00091E00E941E15409708F460C0112369F025
:1025F00080912E0190912F018F3F9105B4F480912D
:102600002E0190912F0101960CC080912E01909186
:102610002F01181619064CF480912E0190912F016C
:10262000019790932F0180932E0187ED91E00E94F6
:102630001E150F97D8F18091E2018730A9F411237C
:10264000A9F180912E0190912F0120E08038910511
:102650000CF421E02093DB0188E08093E20187ED18
:1026600091E00E94FD1422C08091E001880F8093C8
:10267000E00180912E0190912F01803891052CF07E
:102680008091E00181608093E0018091E2018F5FA1
:102690008093E20187ED91E064E170E00E940A1509
:1026A00080E890E090932F0180932E01DF91CF91ED
:1026B0001F910895FF920F931F93CF93DF93EC0127
:1026C000F62E10E000E001C000E20E94DC038A3038
:1026D000A9F08B3028F4882351F0893051F5F5CFDB
:1026E000803221F1833289F38D3019F507C011232F
:1026F00019F0C10FD11D188280E035C0112389F473
:10270000002319F3802F8D52823060F10B3251F18A
:102710000D3341F10F3231F1003229F00883198273
:1027200003C0C10FD11D188282E01DC0112361F2C8
:1027300002C0803250F21F1540F6112369F40023C5
:1027400011F4082FC2CF003219F4888311E0BDCFF5
:102750000883898312E0B9CFFE01E10FF11D808368
:102760001F5FB3CF81E0DF91CF911F910F91FF9059
:102770000895CF93DF93EC010E94DC038A3431F19A
:102780008B3490F4803329F1813348F48D3209F190
:102790008E32D0F48823B1F08B3271F717C08133B9
:1027A000A9F08D3349F710C08A3681F08B3628F4B2
:1027B0008E3479F0893501F709C08E3651F08937AA
:1027C000D9F604C080E007C081E005C081E08883BD
:1027D00001C0188282E0DF91CF910895FF920F939C
:1027E0001F93CF93DF93EC01062F10E08AE0F82EC1
:1027F0000E94DC03282F80538A3068F4112331F0C3
:1028000088818F9DC00111248053820F88831F5FB0
:10281000101771F712C0822F8D52823070F02B3258
:1028200061F02D3351F02F3241F0222311F48FEF5C
:1028300005C02930E9F21123D9F2812FDF91CF9120
:102840001F910F91FF900895EF92FF920F931F93A6
:10285000DF93CF9300D0CDB7DEB78E010F5F1F4F50
:1028600092E0E92EF12CEC0EFD1E8091D101B80111
:102870000E9447118A8385E792E00E94C9148A81E9
:1028800069810E9497148AE692E00E94C914C701E8
:1028900062E00E94EE1387FD38C0882339F48091EE
:1028A000D101B8010E9447118A8301C089839091A8
:1028B000CE0191958A8189238A838FE592E00E94D7
:1028C000C9148A8169810E94971480E20E948F0452
:1028D0008A8169810E9431110E94C610882381F08B
:1028E00086E092E00E94C9148CE092E00E94C91434
:1028F00086E491E00E94B913882341F081E006C08C
:102900008FE292E00E94C914B0CF80E00F900F9048
:10291000CF91DF911F910F91FF90EF9008958A3032
:1029200010F4805D01C0895A0E948F0408951F939E
:10293000282F362F6AE00E94D617482F822F0E9438
:10294000D617192F442311F432302CF03150842F34
:10295000632F0E949714812F0E948F141F91089556
:102960001F93182F82958F700E948F14812F8F7064
:102970000E948F141F910895CF93DF93EC0103C041
:102980000E948F04219688818823D1F7DF91CF910F
:102990000895CF93DF93EC0103C00E948F0421962A
:1029A000FE0184918823C9F7DF91CF91089582E0D9
:1029B0008093B00084E08093B1008FE58093B300F2
:1029C000E0E7F0E080818260808308951F920F929B
:1029D0000FB60F9211248F939F938091E4019091F1
:1029E000E50101969093E5018093E4019F918F9119
:1029F0000F900FBE0F901F901895FC012FB7F89401
:102A00008091E4019091E501918380831382128289
:102A10002FBF0895FC0180819181860F971F9183BC
:102A20008083828193818617970718F4138212821C
:102A30000895861B970B938382830895FC018FB7BB
:102A4000F8944091E4015091E50120813181421BCD
:102A5000530B8FBF828193818417950710F45383A2
:102A600042838281938108951092E9011092EA01D4
:102A70001092E7011092E6011092E8011092EB012A
:102A80000895FC016830F8F080818336E1F481819B
:102A90008C36C9F482818B36B1F483818093E9014D
:102AA00084818093EA0185818093E7018681809308
:102AB000E60187818093E801683019F08085809372
:102AC000EB0181E0089580E00895FF920F931F933A
:102AD0008C01F62E862F6AE00E94D617805D61E396
:102AE0000E94B10DF80180838F2D6AE00E94D617F5
:102AF000892F805D61E30E94B10DF80181831F91F0
:102B00000F91FF9008951F93CF93DF93EC01809175
:102B1000E701882341F1FE018BE18193CF016091B0
:102B2000E7010E94651517E01B83CE0104966091B2
:102B3000EA010E9465151E83CE0107966091E901A6
:102B40000E94651584E08987CE010A966091E601AE
:102B50000E9465158EE08C87CE010D966091E8018C
:102B60000E9465158FE0DF91CF911F91089510921B
:102B7000EE011092ED011092F0011092EF0110920F
:102B8000F2011092F1011092F4011092F3011092EF
:102B9000EC0110923001109232011092310110922A
:102BA0003401109233010895982FFA01A081B18168
:102BB00042815381A417B50711F480E0089570E0B5
:102BC000A417B507A8F48CE3989FC0011124860FC1
:102BD000971F8A179B0718F480E090E0089520E083
:102BE0008417950708F021E081E02827822F0895B7
:102BF0008CE3989FC0011124860F971F84179507B7
:102C000028F020E030E08A179B0710F021E030E048
:102C1000822F08950F931F93809130011091E60148
:102C20000091E8018823E9F0109230018CE3189FAD
:102C300090011124200F311D309332012093310176
:102C4000C9010A969093340180933301815A9540CB
:102C500008F43FC0265935403093340120933301A6
:102C600038C0812F602F41E351E00E94D4158823A2
:102C700081F51092320110923101109234011092BC
:102C800033018091EC01882391F4812F602F4DEE68
:102C900051E00E94D415882319F081E090E01AC019
:102CA000812F602F41EF51E00E94D41513C0809115
:102CB000EB01863038F0812F602F41EF51E00E9408
:102CC000D41508C0812F602F4DEE51E00E94D4151D
:102CD00001C080E01F910F91089581E08093300141
:102CE00008950F931F93DF93CF9300D0CDB7DEB736
:102CF0008C01FC01808191816CE370E00E94E217FD
:102D0000862F698324EC3FEF629F202D1124908150
:102D1000290F2A8362E00E9497148A8162E00E9450
:102D200097148AE093E00E94C914CE01019662E0F4
:102D30000E94EE138823E1F0CE01029662E00E9429
:102D4000EE1387FF02C080E014C089812CE3829FCC
:102D5000C00111242A81820F911DF8019183808383
:102D6000815A954028F080EA95E0F80191838083AC
:102D700081E00F900F90CF91DF911F910F910895F7
:102D800086ED92E00E94C91488EC92E00E94C9147A
:102D900081E60E948F0481EC92E00E94C9148DEEBE
:102DA00091E00E947116882309F445C086E092E004
:102DB0000E94C91484EB92E00E94C9148FEE91E046
:102DC0000E9471168823B9F186E092E00E94C9142E
:102DD00088EC92E00E94C91482E60E948F0481EC84
:102DE00092E00E94C91481EF91E00E94711688233D
:102DF00011F186E092E00E94C91484EB92E00E94F7
:102E0000C91483EF91E00E9471168823A1F086E037
:102E100092E00E94C9148CE892E00E94C9148CEEE2
:102E200091E00E94B913882331F086E092E00E947D
:102E3000C91481E0089580E00895CF93DF93EC01F9
:102E40000E94FE179093EE018093ED01815A954008
:102E500030F080EA95E09093EE018093ED01CE0191
:102E600002960E94FE179093F0018093EF01815A21
:102E7000954030F080EA95E09093F0018093EF0167
:102E8000CE0104960E94FE179093F2018093F10107
:102E9000815A954030F080EA95E09093F20180935A
:102EA000F101CE0106960E94FE179093F4018093E3
:102EB000F301815A954030F080EA95E09093F40157
:102EC0008093F301CE0140960E94FE171092EC0110
:102ED000019719F481E08093EC01DF91CF9108957F
:102EE000EF92FF920F931F93CF93DF93EC0100912A
:102EF000ED011091EE010E94FE170817190721F04D
:102F0000CE01B8010E941218E090EF01F090F0019C
:102F10008E010E5F1F4FC8010E94FE17E816F906CA
:102F200021F0C801B7010E941218E090F101F09061
:102F3000F2018E010C5F1F4FC8010E94FE17E816B8
:102F4000F90621F0C801B7010E941218E090F301C0
:102F5000F090F4018E010A5F1F4FC8010E94FE1716
:102F6000E816F90621F0C801B7010E941218109165
:102F7000EC016096CE010E94FE17412F50E020E048
:102F800030E0019711F421E030E04217530739F0A7
:102F900081E01827CE01612F70E00E941218DF91A6
:102FA000CF911F910F91FF90EF900895991B79E0B9
:102FB00004C0991F961708F0961B881F7A95C9F7C9
:102FC00080950895AA1BBB1B51E107C0AA1FBB1F18
:102FD000A617B70710F0A61BB70B881F991F5A95A5
:102FE000A9F780959095BC01CD010895F999FECF80
:102FF00092BD81BDF89A992780B50895A8E1B0E007
:1030000042E050E00C941918262FF999FECF1FBA10
:1030100092BD81BD20BD0FB6F894FA9AF99A0FBE01
:10302000019608950E940418272F0C940518DC01BE
:10303000CB01FC01F999FECF06C0F2BDE1BDF89AC3
:10304000319600B40D9241505040B8F70895F8946D
:02305000FFCFB0
:0230520001007B
:00000001FF
