:10000000EBC005C104C1B5CE02C101C100C1FFC032
:10001000FEC06AC7FCC0FBC0FAC0F9C0F8C0F7C098
:10002000F6C042CAF4C08DC6A3C6ABC6BFC6D1C611
:1000300006C70EC77BC65F5F5F547850325F545768
:1000400033395F5F5F4D617220313420323031359A
:100050005F5F5F31373A35383A34345F5F5F313450
:10006000365F5F5F000D0A202B2B2B200D0A002925
:10007000206E6575202830203D206E65696E293A16
:100080002020202020006E65696E000D0A206B6F15
:100090006D6D656E642D737065727265206D697427
:1000A000207761686C3A2028616B742E20002F3114
:1000B00030302073656B293F202020202020000D48
:1000C0000A206C61656E6765207761686C61756692
:1000D000662D696D702E2028616B742E20000D0A2C
:1000E00020776165686C7363686569626520766F07
:1000F0007268616E64656E3F202020202020000D14
:100100000A206B6F6E66696775726174696F6E2025
:10011000747733392076657273696F6E20313436A7
:1001200020646174756D204D61722031342032304D
:1001300031350023740D6F20686E6D0A6C7267692B
:10014000706376657A64627379667861776A23751D
:10015000716B230023350D3920232C2E0A293423DB
:1001600038303A3D332B233F2736232F2D3225239A
:100170003731282300206F6B2E2000207363686FB7
:100180006E20766572676562656E206F64657220A9
:10019000756E6775656C7469672C20616E64657235
:1001A0006520776165686C656E21000D0A207072AC
:1001B000756566652000206E65753A202020202038
:1001C000000D0A2064757263687761686C20616B4A
:1001D0007475656C6C3A200011241FBECFE5D4E025
:1001E000DEBFCDBF10E0A0E6B0E0E4E0FFE102C07A
:1001F00005900D92A236B107D9F711E0A2E6B0E062
:1002000001C01D92A932B107E1F7A8D279CEF8CE8C
:1002100080919600882339F0979AC19A80919D0029
:10022000882321F005C09798C19803C0949A01C013
:10023000949880919D00882319F0C09AC29A02C0B8
:10024000C098C29880918F00869B0BC08823A1F034
:1002500081E990E0C6DD8152934088F010928F00D2
:100260000EC0882349F481E990E0BBDD069738F0A1
:1002700081E080938F0003C081E990E091DD80915F
:100280009D00882321F080918F00882321F481E054
:1002900080939B0019C090919B00869B0AC0992374
:1002A00099F087E990E09DDD049788F010929B001B
:1002B0000EC0992349F487E990E093DD049738F064
:1002C00081E080939B0003C087E990E069DD809125
:1002D0000D0190919B0084FF06C0992311F4929A1E
:1002E000089592980895992311F4939A08959398F4
:1002F0000895CF92DF92EF92FF920F931F93DF93B7
:10030000CF93CDB7DEB728970FB6F894DEBF0FBEF8
:10031000CDBF8E010F5F1F4FC80142DD85E0E82E83
:10032000F12CEC0EFD1EC7013BDDCC24C394D02E76
:10033000012F1E2DEF2CC0929600C0929D0068DF09
:1003400080918F00882319F48D2D902F29DD812F26
:100350009E2D47DD89559B4140F01092960081E02B
:1003600080939D0055DF80E007C08D2D902F39DDF3
:100370008C52914000F381E028960FB6F894DEBFCE
:100380000FBECDBFCF91DF911F910F91FF90EF90E6
:10039000DF90CF900895EF92FF920F931F93DF931A
:1003A000CF9300D000D0CDB7DEB780918F008823E7
:1003B00029F080919600882309F49BDF8E010F5F5E
:1003C0001F4FC801EDDCEE24E394F02E012F1092B4
:1003D0009600E0929D001CDF80918F00882319F029
:1003E0008F2D902FDDDC8F2D902FFBDC845F9140D3
:1003F00070F30F900F900F900F90CF91DF911F919E
:100400000F91FF90EF9008954F925F926F927F92BD
:100410008F929F92BF92CF92DF92EF92FF920F93B3
:100420001F93DF93CF9300D000D0CDB7DEB77C0110
:1004300080E886BF8E010F5F1F4FC801B1DCDD244D
:10044000BB24C02E012F31E0432E512C4E205F20C3
:1004500022E0622E712C6E207F2094E0892E912C58
:100460008E209F2028E0E222FF2402C0BB24B39408
:10047000A8958C2D902FB5DC81599140D8F08C2D0A
:10048000902F8EDC809B11C0DD2091F3DA9481F7F0
:10049000BB2071F3F8942EE088E190E00FB6F89459
:1004A000A89581BD0FBE21BDFFCF84E08D15F0F270
:1004B000D394DECFBB20E9F48C2D902F92DC893CC5
:1004C0009105B8F04114510411F0919A01C091982E
:1004D0006114710411F0929A01C0929881149104F0
:1004E00011F0939A01C09398E114F10429F0949AC1
:1004F000BFCF9198929893989498BACFFF920F9308
:100500001F93DF93CF9300D000D0CDB7DEB78E011D
:100510000F5F1F4FC80144DC80E03ED6F02E012F54
:10052000DAD980911901882319F01092190119C0A4
:100530006FDE80918F008823A1F48F2D902F51DCE6
:10054000895E934020F08F2D902F2ADCE9CF8F2DEC
:10055000902F47DC855F914010F0949AE1CF9498FA
:10056000DFCF949881E018D60F900F900F900F90E6
:10057000CF91DF911F910F91FF9008951F93182F36
:10058000949A80E009D601C0A6D9809119018823E8
:10059000D9F31092190181E0FFD594989198112315
:1005A00009F4ACDF1F9108951F93182F919A09D673
:1005B00080E0F2D5112319F0EEDE01C029DE809132
:1005C0008F008823D9F7919881E0E6D51F9108958F
:1005D0008093240181E08093260106C080919B00D6
:1005E0006DE970E0C3D914DE809126018823B1F74C
:1005F00008950EDE80919B006DE970E0B7D980917F
:100600002501883049F4809123016CE970E0C6D659
:1006100010922501882321F480918F00882349F7C7
:100620000895DF92EF92FF920F931F93DF93CF9382
:1006300000D000D0CDB7DEB7E82E8E010F5F1F4F80
:10064000C801AEDB81E026D3DD24D394F02E012F48
:1006500001C0EE24DDDD3FD980918F00882319F0A1
:100660001CD3882371F097DEACD50F900F900F90BC
:100670000F90CF91DF911F910F91FF90EF90DF903E
:10068000089505D380939D0080912601823050F417
:1006900080919B00FFD206C084ED90E04ED68F3152
:1006A00009F0EE2484ED90E0F8D58823A9F3EE203C
:1006B000E9F08F2D902F95DBDD2019F428E833E148
:1006C00002C024EF31E08217930780F08FE990E0B9
:1006D0006BE10CD68FE990E06BE108D68FE990E0F2
:1006E00062E104D68F2D902F5BDBDD248F2D902FC0
:1006F00078DB895E934008F4ADCF80919B0088231E
:1007000009F4A7CFA7CF0F931F93182F81548A31D5
:1007100008F4105E812F60919C0025D68F3F11F068
:1007200057DF19C0812F61E61ED6082F8F3F31F0A9
:100730008FE14EDF802F4CDF81E60BC0812F61E31C
:1007400012D6182F8F3F39F08BE142DF812F40DF27
:1007500081E380939C001F910F910895AF92BF9207
:10076000CF92DF92EF92FF920F931F93DF93CF937D
:10077000CDB7DEB728970FB6F894DEBF0FBECDBF5A
:100780002FE088E190E00FB6F894A89581BD0FBEE8
:1007900021BD8FEF86BB83BB80BB899A8A9A8B9AD7
:1007A0008C9AB89A8F9A8E98969ABA9AB99A8D9886
:1007B000959A8898909A919AD4DA80E090E08BDBB1
:1007C0008E7F8093140182508B3D18F08EE38093CE
:1007D000140111E01093110181E090E07CDB109294
:1007E0009E00882311F010939E0082E090E073DB5E
:1007F000809395008150843618F08EE180939500A7
:1008000083E090E068DB80939000843610F01092D3
:1008100090001092960081E080939D0010928F00CE
:1008200080939B0021D5F4DCCE010196B9DA78944F
:100830008E010F5F1F4FC801D4DA8A3F9105D8F3AC
:1008400080990CC088E10FB6F89481BD11BC0FBE31
:10085000809BFECF929ACE010196A2DA9198929A4D
:1008600012D88E010F5F1F4FC801BBDA845F914021
:10087000D8F39298939A8E010F5F1F4FC801B1DA97
:100880008E5E9240D8F39398949A80E986BF8E0149
:100890000F5F1F4FC801A5DA885F9240D8F385EC3F
:1008A00086BF8E010F5F1F4FC8019BDA4091140174
:1008B000242F30E028513C4F82179307A8F3842F50
:1008C00066D71092960081E080939D005E010894A7
:1008D000A11CB11C55E0C52ED12CCC0EDD1E4AE06A
:1008E000E42EC5017EDA815B944058F0C50179DAC7
:1008F0008957954040F4809114018F3F11F4919AEB
:1009000004C0919802C0C5014BDA929893989498CC
:10091000E2D77EDC80911901823009F087C0109205
:10092000190119D810929C0080E036D4919AE1DC2C
:10093000882309F477C08FEF90E006DA94D98823F2
:1009400009F470C08EED90E0FFD98EE990E01ED9D9
:10095000882309F467C010919E0081E090E0BBDA23
:10096000412F50E020E030E0882311F021E030E01A
:100970004217530721F081E090E0612FB4DA85E758
:1009800091E0E2D980919E00882329F18FEB90E0DD
:10099000DBD98091950060E0C2D98EEA90E0D4D98D
:1009A00085E990E060E026D98823E1F18091950007
:1009B000882319F481E0809395001091950082E0DE
:1009C00090E089DA181721F082E090E0612F8BDA4D
:1009D00085E791E0B9D98BE890E0B6D98091900095
:1009E000882319F062E09BD903C086E890E0ACD977
:1009F0008FE690E0A9D980E990E060E0FBD88823F9
:100A000089F01091900083E090E065DA181721F0EA
:100A100083E090E0612F67DA85E791E095D985E67C
:100A200090E092D9B8DC81E0B7D391988091190118
:100A3000813021F41092190180E0A0DD80918F00B7
:100A4000882309F4F0C0929A809114018F3F11F429
:100A5000A2DCE9C0CFD3882309F4E5C0813009F0D6
:100A6000D9C080919E00882309F464C0C60198D93A
:100A700001C0CEDBC601B5D98C5B9240D0F3109299
:100A80009D00C6018DD901C0C3DBC601AAD9209142
:100A900095002E9D9001112482179307A8F381E001
:100AA00080939D00C6017CD910E000E0B1DB80910D
:100AB0009B00882361F4ACDB80919B00882321F4A8
:100AC00080918F008823B9F71F5FC60169D9809193
:100AD0008F00882309F490C0E0D0882309F08CC0EF
:100AE000112369F0C6017DD9893C910540F01A3087
:100AF00010F080E001C0812FF2D010E001E0B6D00C
:100B0000882309F0A9C0C6016CD9002329F428E97B
:100B10003AE340E050E004C028EC3FEA40E050E017
:100B2000A0E0B0E0281739074A075B070CF0BECFFA
:100B3000802F61C0DEDB882309F45EC00CD78BE117
:100B400047DDC6012DD910929C0000E010E0FF2483
:100B50005FDB80919B006DE970E008D780912501F3
:100B6000883009F5809123016CE970E017D4109268
:100B70002501982F90539A3028F4892FB0D0FF2464
:100B8000F3940AC0882341F0803231F08D3021F097
:100B90008A3011F00F5F1F4FC60102D904C08FE3E6
:100BA000B2DD015010400115110529F0C60119D917
:100BB00084369105A0F780918F008823E9F06DD0ED
:100BC0008823D1F453D0882349F5C6010AD9FF20E0
:100BD00029F428E93AE340E050E004C028EC3FEA79
:100BE00040E050E0A0E0B0E0281739074A075B0773
:100BF0000CF0AECF8F2DD8DCE4D2CDDB809190000D
:100C0000882389F041D090919000891761F49298DF
:100C100075DC09C08FE090E0F7DB05C080919E0095
:100C200091E08927FEDC22D0882309F45ACEF0DA3D
:100C3000939A919A5EDB882329F49398C2D281E03B
:100C40009DDC4FCE9198D6D2823019F0BAD2A3DB78
:100C500048CE80E0E6DC45CE4CDBE0CF80916400FE
:100C600090E0882309F491E0892F08958091640031
:100C7000833031F08091640020E030E0843011F462
:100C800021E030E0822F08958091670008958091DF
:100C9000170108958093650008958091640088236A
:100CA00031F08091640020E030E0853011F421E0E3
:100CB00030E0822F08951F93182F8FE990E0612F65
:100CC00015D3882351F01F3111F481E603C01B3185
:100CD00019F481E38093D10081E01F910895682F7A
:100CE00080916400823041F480916800882321F073
:100CF0008FE990E0FBD2089589E090E085DB0895CC
:100D0000FF920F931F93082F80916400081709F436
:100D1000ACC0FFB6F89410926800E02FF0E0E83025
:100D2000F10508F09FC0ED5EFF4F099480910D0121
:100D30008F7780930D0180910D018F7E80930D013F
:100D400014C080910D01807480930D0180910D017C
:100D5000806880930D0180910D018F7D80930D013E
:100D600081E08093650080931701109213017AC08F
:100D700080910D018F7780930D0180910D018F7E01
:100D80006FC080910D018F7780930D0180910D01CF
:100D90008F7E80930D01109266001092670081E0B3
:100DA000809368008FE990E073D25CC080910D0160
:100DB0008F7780930D0180910D018F7E80930D01BF
:100DC00080910D01806180930D0180910D018860FB
:100DD00047C080910D0187FF0FC080910D018F7773
:100DE00080930D0180910D018F7E80930D01809184
:100DF0000D01806180930D0180910D0180628093CF
:100E00000D0180910D01826080930D0180910D0193
:100E1000846080930D0180910D01816080930D01AC
:100E200011E0109360008FE990E032D284ED90E001
:100E30002FD291D5109365001093170113C08091A4
:100E40000D018F7D80930D0180910D01877F08C07A
:100E500080910D018F7D80930D0180910D018D7F1B
:100E600080930D0100936400FFBE1F910F91FF90CE
:100E7000089533D48091670060916600ABD480936D
:100E8000130180911401869531D427D489E690E02E
:100E900087D780911601882351F482E080936800FF
:100EA00083EA24D41AD489E690E07AD70895809111
:100EB0001601833041F4109216011092130185E05F
:100EC0001FDF82E60BC0109216018091660082300F
:100ED00040F01092130185E013DF88E780936300F0
:100EE00008951092130108951F920F920FB60F925A
:100EF00011241F932F933F934F935F936F937F938F
:100F00008F939F93AF93BF93EF93FF93DF93CF9311
:100F10000F92CDB7DEB780916200882309F027C118
:100F200081E08093620089B78E7F89BF7894CE017B
:100F300001967DD4882309F441C0809164008730F4
:100F400019F481E090E060DA9981953AE9F0963AF7
:100F500028F4903850F0933A89F510C09A3A11F17C
:100F60009C3A01F1963A51F515C0809164008823AE
:100F700029F5990F9093130181E01FC080916400BF
:100F80008130E1F483E019C0809164008230B1F4D3
:100F900084E013C080916400823081F483E0809308
:100FA00068000CC080916400863011F480E005C0B8
:100FB00080916400882311F085E0A2DE80916400B6
:100FC000823021F0843009F09DC039C08FE990E073
:100FD00064D1882309F096C080916800823009F4BA
:100FE00091C08FE990E0A9D1182F809166008F5FA2
:100FF00080936600809168008130A9F4809166003A
:10100000813019F4109367000DC080916600823022
:1010100051F4809167002AE0829FC0011124810F62
:101020008093670026DF80916800833009F06AC0F2
:10103000812F80555BD389E690E0B2D663C0809162
:101040001001882349F080911701882319F082E06C
:10105000D3D102C082E0BFD18FE990E01ED18823B6
:1010600061F480912601882341F48FE990E065D1F5
:101070008093240181E0809326018091170165E629
:1010800070E074D480916500882319F080E0B4D1B9
:1010900002C080E0A0D180912501883039F46091B0
:1010A000230184ED90E022D1109225018091180156
:1010B000882341F180910B01882321F580916500FF
:1010C000882381F080916000823021F0809160005F
:1010D000833011F48CE915C080916000882391F46D
:1010E0008AE90FC080916000882321F08091600020
:1010F000813011F483E905C080916000823011F4E1
:1011000086E9F4D280910B01853009F589E690E0FB
:1011100047D6809116018823C1F480910C0186394D
:1011200061F0873918F4833981F405C08A3951F0A8
:101130008C3959F404C082E006C083E004C01092E8
:10114000600003C081E08093600010920B018091E9
:101150001301882311F05BD601C0A89584EB82BFF0
:1011600081E088BF89B7816089BF109262000F90CB
:10117000CF91DF91FF91EF91BF91AF919F918F91AF
:101180007F916F915F914F913F912F911F910F90A0
:101190000FBE0F901F9018951F93182F8091640019
:1011A000882339F080916400873019F08AE090E05C
:1011B0002BD9112311F080E001C087E0A1DD1F9140
:1011C0000895809164008823A1F081E080936200FB
:1011D00080916400853021F48CEA88D27ED205C0EB
:1011E0008AEA84D288EB9BE032D680E089DD1092D7
:1011F0006200089580916400833071F481E08093EF
:10120000620085EA73D269D289EA70D284E078DD1F
:101210001092620082E00895809114018F3F11F4D2
:1012200080E0089580916400882319F088E090E0C0
:10123000EBD881E0809362009FB7F89480910D0114
:101240008F7780930D0180910D018F7E80930D012A
:1012500080910D018F7E80930D019FBF82E050DD54
:101260001092620081E0089582E083BF89B78160B7
:1012700089BF80E880930D016ED380E041DD8FE966
:1012800090E006D084ED90E003D0109262000895C3
:10129000FC0112AA13AA14AA0895FC0194A983A917
:1012A00020E0981709F421E0822F0895FC0183A91A
:1012B000813310F090E002C0982F9F5F84A99817A7
:1012C00089F083A9813310F080E005C08F5F8133FE
:1012D00011F490E002C0982F9F5F84A920E030E0D5
:1012E000981711F421E030E0822F0895DC01D396A5
:1012F0008C91D397813310F090E002C0982F9F5FBC
:10130000D4968C91D497981711F480E008959FB7E4
:10131000F894D3968C91D397FD01E80FF11D60836B
:10132000D3968C91D397813310F080E001C08F5F0A
:10133000D3968C939FBF81E00895DC012FB7F8947A
:10134000D4968C91D497FD01E80FF11D8081D4963D
:101350009C91D497913310F090E001C09F5FD49698
:101360009C932FBF0895282F613619F4E3E3F1E031
:1013700004C0613381F4E4E5F1E0822F81548A31C5
:1013800008F4205E90E08491281731F09F5F90323E
:1013900011F03196F8CF9FEF892F0895DB018B3143
:1013A00011F481E303C08F3119F481E68C930BC0F3
:1013B0006C91613331F4E82FF0E0EC5AFE4F8491E8
:1013C0000895613611F080E00895E82FF0E0ED5CBB
:1013D000FE4F849108954FB7F89490910D0121E04C
:1013E00030E002C0220F331F8A95E2F720952923AF
:1013F00020930D014FBF08954FB7F89490910D01C0
:1014000021E030E002C0220F331F8A95E2F7922BD1
:1014100090930D014FBF0895982F8A3991F08B3921
:1014200028F4833941F0863991F405C08C3949F0AC
:10143000893A69F4089581E08093100110921701B0
:10144000089581E0809310018093170108958091A1
:101450008100E82FF0E0E359FF4F90838F5F809386
:10146000810080918100843148F08091820088233E
:1014700011F483E10CC0109281000BC090918100A7
:1014800080918200981729F4809181008150809387
:10149000810080910D01806480930D0180910D0188
:1014A0008F7780930D0108951F920F920FB60F92C0
:1014B00011242F933F934F935F936F937F938F9359
:1014C0009F93AF93BF93EF93FF9380910901909106
:1014D0000A01019690930A018093090181B190E07D
:1014E000887F90708035910509F498C08135910509
:1014F00094F58032910509F48AC0813291059CF4FB
:101500008830910509F460C08930910524F4892B55
:1015100009F472C0CCC08031910509F460C04897CD
:1015200009F0C5C060C08833910509F46AC08933E9
:10153000910544F48832910509F459C0C09709F027
:10154000B6C055C08034910509F491C08834910526
:1015500009F0ADC05CC0803A910509F495C0813AAC
:101560009105CCF48836910509F46AC08936910555
:101570004CF48835910509F451C08036910509F085
:1015800096C063C08038910509F46FC08838910512
:1015900009F08DC06EC0883B910509F472C0893B8B
:1015A00091054CF4883A910509F46BC0803B910594
:1015B00009F07DC061C0803C910509F465C0883C9C
:1015C000910509F074C060C080910B01813039F041
:1015D00080911301816083B91092180168C08091D5
:1015E00013018E7FF8CF80910C0183B960C085E034
:1015F00080930B011092160181E08093180185E51C
:1016000059C0809115018F5F8093150152C085E00C
:1016100080930B0181E080931601EFCF83B180931B
:10162000830080910B01823011F78091830087FD48
:1016300040C085E080930B0183E080931601DCCFEE
:10164000809115018F5F80931501A89510920F016D
:1016500010920E011092180193B1809111018150E6
:10166000969589238093120102C083B1D5DE85E06F
:1016700021C083B1D1DE08C0809115018F5F8093B6
:10168000150180910D01A7CF81E080931801809111
:101690000B01833071F080910B01813051F080910A
:1016A0000B01823031F080910B01843011F085E420
:1016B00001C085E6806886BFFF91EF91BF91AF9131
:1016C0009F918F917F916F915F914F913F912F915A
:1016D0000F900FBE0F901F90189580910B018823DB
:1016E00021F080910B018530C1F70895982F8091EA
:1016F0000B01882321F080910B018530C1F72FB7B2
:10170000F89490930C0197FF02C081E001C082E041
:1017100080930B0180911801882331F006B604FCF8
:10172000FDCF86B7806286BF2FBF0895982F809126
:101730000B01882321F080910B018530C1F72091A6
:1017400013019093130183E080930B0180911801A2
:10175000882331F006B604FCFDCF86B7806286BFD1
:1017600080910B01882321F080910B018530C1F716
:101770002093130180911601882319F02FEF3FEF7A
:1017800004C080918300282F30E0C90108951F9381
:10179000182F82508B3D88F410FD0FC0812FC6DFBB
:1017A00097FF0BC09FB7F89412B986B7806486BFC5
:1017B000109314019FBF81E00BC08FB7F89412B84B
:1017C00096B79F7B96BF9FEF909314018FBF80E0E9
:1017D0001F910895613041F48A3080F4882311F418
:1017E0008CED08958C5908C0623041F4882311F4BF
:1017F00088EC0895843610F4880F08958FEF0895CB
:10180000982FFB0182508B3D10F010820DC09695F1
:10181000953630F081E080839E3630F4945605C0D2
:1018200082E08083943609F490E0892F0895DC01EA
:101830009091820080918100981711F480E00895C2
:1018400090918200E92FF0E0E359FF4F80818C9363
:101850009F5F9093820080918200843110F01092FB
:1018600082009091820080918100981711F081E0B0
:1018700008959FB7F89480910D018F7B80930D019F
:101880009FBF81E0089581E08093180110920B01C1
:101890001092160110921501109282001092810090
:1018A00010920A011092090110920F0110920E017C
:1018B00010920C0181B987E180B9809114018E7F6B
:1018C00082B984E886BF80911101813019F08CE0E3
:1018D00090E09AD5089580918400813099F081300C
:1018E00018F0823021F51FC0809908C085E890E08B
:1018F00078D2C397E0F081E08093840085E890E09F
:101900004FD2089580990AC085E890E06AD281524A
:10191000934068F082E08093840002C010928400BB
:10192000809319010895809B02C01092840008954D
:101930001092190102C0A895CEDF80911901882369
:10194000D1F3809119011092190190E0823009F4CD
:1019500091E0892F0895109225011092260180E8C8
:1019600090E090938A008093890008951F93CF930D
:10197000DF93182FEB0180912601883030F48230FC
:1019800070F5813009F055C004C0883009F051C0AD
:1019900042C080912501882329F08091250188305B
:1019A00009F047C08AE191E01CD2C29708F441C017
:1019B0008AE191E0F5D118828FE191E0F1D182E0E6
:1019C0008093260180912401880F880F880F8093CF
:1019D0002401809124018760809324012AC08FE133
:1019E00091E0FFD1449728F18FE191E064E170E04C
:1019F000E4D180912401188287FF02C081E08883AE
:101A000080912401880F80932401809126018F5FAB
:101A1000809326010EC08FE191E0E3D14E9748F00C
:101A20008FE191E06EE170E0C8D11092260181E073
:101A3000888380912501883048F4823008F042C0C4
:101A4000882339F0813009F09DC017C0883009F033
:101A500099C0112309F096C08AE191E0A1D181E0FB
:101A6000809325011092230180E890E090938A00F2
:101A70008093890010921E0185C0112399F08091F6
:101A8000890090918A00019690938A008093890042
:101A90008091890090918A00873991051CF01092FD
:101AA000250170C08AE191E09CD10B9708F46AC0CF
:101AB00082E08093250180E890E090938A008093F3
:101AC00089001CC08AE191E08CD14497B8F18091E3
:101AD00025018730B9F4112309F454C0809189009D
:101AE00090918A0020E0803891050CF421E0209349
:101AF0001E01809125018F5F809325018AE191E08D
:101B00004FD140C080912301880F809323018091A1
:101B1000890090918A00803891052CF080912301F2
:101B2000816080932301809125018F5F809325013F
:101B30008AE191E035D180E890E020C08AE191E02F
:101B400050D14197F8F0112369F08091890090916C
:101B50008A008F3F9105B4F48091890090918A00AA
:101B600001960CC08091890090918A001816190680
:101B70004CF48091890090918A00019790938A009B
:101B800080938900DF91CF911F910895CF93DF93C8
:101B9000EC012FD58A3431F18B3490F4803329F164
:101BA000813348F48D3209F18E32D0F48823B1F0BC
:101BB0008B3279F717C08133A9F08D3351F710C0FC
:101BC0008A3681F08B3628F48E3479F0893509F71E
:101BD00009C08E3651F08937E1F604C080E007C0B5
:101BE00081E005C081E0888301C0188282E0DF9136
:101BF000CF910895FF920F931F93CF93DF93EC0142
:101C0000062F10E08AE0F82EF4D4282F80538A3073
:101C100068F4112331F088818F9DC0011124805315
:101C2000820F88831F5F101779F716C0822F8D529D
:101C3000823030F02B3221F02D3311F02F3221F48D
:101C4000112351F481E009C0222311F480E005C082
:101C50002930D1F21123C1F282E0DF91CF911F919F
:101C60000F91FF900895EF92FF920F931F93DF93D0
:101C7000CF9300D0CDB7DEB77E010894E11CF11CF4
:101C80008E010E5F1F4F80911401B701B9DD8A8369
:101C900081EC91E059D08A81698141D086EB91E055
:101CA00053D0C80160E0A6DF882341F19091110173
:101CB00091958A8189238A838BEA91E045D08A8134
:101CC00062E02DD080E21FD58A8162E083DD5FDD96
:101CD000882381F085E791E037D01091140180E0EE
:101CE00090E0F9D0181721F080E090E0612FFBD050
:101CF00081E005C08BE791E027D0C5CF80E00F9051
:101D00000F90CF91DF911F910F91FF90EF90089569
:101D10008A3010F4805D01C0895AF5D408951F936C
:101D2000282F362F6AE0CBD0482F822FC8D0192F0A
:101D3000442311F4323024F03150842F632FEFDF2D
:101D4000812FE6DF1F910895CF93DF93EC0102C04E
:101D5000DAD42196FE0184918823D1F7DF91CF91C7
:101D600008958CE085BD80E683BD89B7806889BF12
:101D700008951F920F920FB60F9211248F939F9385
:101D800080912701909128010196909328018093DA
:101D900027019F918F910F900FBE0F901F90189564
:101DA000FC012FB7F894809127019091280191832D
:101DB0008083138212822FBF0895FC01808191815C
:101DC000860F971F9183808382819381861797075F
:101DD00018F4138212820895861B970B93838283D3
:101DE0000895FC018FB7F894409127015091280184
:101DF00020813181421B530B8FBF828193818417D5
:101E0000950710F4538342838281938108958091D2
:101E10001301882321F48BE890E0C2DF08958BE85A
:101E200090E0DFDF835A924088F080911801882388
:101E300069F080910B01882321F080910B0185309E
:101E400029F489EA53DC8BE890E0AADF0895AF9289
:101E5000BF92DF92EF92FF920F931F93DF93CF9386
:101E600000D000D00F92CDB7DEB77C018E010E5F9F
:101E70001F4FC80195DF5E010894A11CB11CD02E34
:101E8000012FC501D4DC882319F089818C3A41F0F7
:101E90008D2D902FA6DFE816F90610F0A895F1CF4A
:101EA0000F900F900F900F900F90CF91DF911F9197
:101EB0000F91FF90EF90DF90BF90AF900895991B26
:101EC00079E004C0991F961708F0961B881F7A9531
:101ED000C9F780950895E199FECF9FBB8EBBE09A2C
:101EE00099278DB30895262FE199FECF9FBB8EBB16
:101EF0002DBB0FB6F894E29AE19A0FBE01960895B1
:041F0000F894FFCF83
:021F04000100DA
:00000001FF
