:100000000C94C9020C94E6020C94E6020C94E602ED
:100010000C94E6020C94E6020C94E6020C94A21CEA
:100020000C94E6020C94E6020C94E6020C94E802AE
:100030000C94E6020C94E6020C94E6020C94E602A0
:100040000C94A70E0C94E6020C94E6020C94E602C3
:100050000C94E6020C94E6020C94E6020C94E60280
:100060000C947D100C94E60214172B172F173317DE
:1000700066186618661866186618661836174A17DE
:100080006117651769176618661866186618661886
:100090007A1780178417AB176618661866186618E3
:1000A00066186618BD17CB17CF17E61766186618BF
:1000B0006618661866186618F8171418251829188F
:1000C0002D18661866186618661866184D185118A7
:1000D000551859185D1862185F5F5F69746C785F16
:1000E00053657269656C6C556E64537065696368BD
:1000F0006572325F5F5F4F6374203133203230327C
:10010000305F5F5F31393A34353A30355F5F5F34A5
:1001100034325F5F5F000D0AE4F6FCC4D6DCDF3CDE
:100120003E5B5D7B7D000D0D616F75414F55732802
:100130002E283A282C000A0A656565656565732EC8
:10014000293A292C29000D0A556E6775656C74696A
:10015000676573204B6F6D6D616E646F000D0A4CA7
:100160006F6B616C626574726965620D0A0020468E
:1001700065686C65723A206E69636874206B6F6E97
:100180006669677572696572742E00202D2D3E2098
:10019000002C204374726C2D543A20537461747592
:1001A000736C69737465000D0A4374726C2D4B3A5D
:1001B000204B6F6E66696775726174696F6E002C93
:1001C000204374726C2D513A2041422D5769656469
:1001D000657267616265002C204374726C2D4C3A25
:1001E000204C6F6B616C62657472696562000D0A08
:1001F0004374726C2D413A20416E7761686C000D3A
:100200000A000D0A53544152540D0A56657273691F
:100210006F6E204F637420313320323032302F31F3
:10022000393A34353A3035006B656E6E776F7274DB
:10023000000D0A7478702D6162000D0A4665686CC5
:1002400065720D0A000D0A416E7275660D0A000D89
:100250000A4265656E6465740D0A000D0A4765748F
:1002600072656E6E740D0A000D0A56657262756EC7
:1002700064656E0D0A000D0A416262727563680062
:100280000D0A576165686C656E3A20000D0A2D2DC8
:100290002D206B65696E6520776569746572656E82
:1002A000204D656C64756E67656E202D2D2D0D0AD1
:1002B000000D0A002E2E2E41626272756368002EB8
:1002C0002E2E4E616563687374652E2E2E002E2EC1
:1002D0002E4C6F65736368652E2E2E000D0A4C6FD1
:1002E00065736368656E2C204E6165636873746521
:1002F0002C20456E64653F202020000D0A2D2D2DF9
:1003000020456E6465204D656C64756E67202D2DEB
:100310002D000D0A6B65696E6520756E67656C65ED
:1003200073656E656E204D656C64756E67656E0DE8
:100330000A000D0A5374617274652057696564651B
:1003400072676162652E2E2E0D0A000D0A003A209A
:10035000000D0A5374617475732064657220616EB8
:1003600067657363686C6F7373656E656E204D6F40
:1003700064756C653A0D0A000D0A20666572746931
:10038000672B2B2B2020200D0A000D0A206861729C
:1003900064776172652068616E647368616B652063
:1003A000617566207365722E207373742E207665D6
:1003B0007277656E64656E3F20616B7475656C6CF9
:1003C0003A20000D0A2068617570746D656E756560
:1003D00020726567656C6D6165737369672061750F
:1003E00073676562656E3F20616B7475656C6C3A0E
:1003F00020000D0A204B656E6E776F72743A2000F4
:100400000D0A204B656E6E756E673A20000D0A204E
:100410006B6F6E66696775726174696F6E20736564
:100420007269656C6C2B73706569636865722076A0
:10043000657273696F6E2034343220646174756D37
:10044000204F637420313320323032300023740D5A
:100450006F20686E6D0A6C726769706376657A6486
:10046000627379667861776A2375716B2323350D22
:100470003920232C2E0A29342338303A3D332B17C8
:100480003F2736232F2D32072337312823206F6B48
:100490002E2000206E65753A2020202020000D0AB5
:1004A000207765697465726C656974756E67656ED1
:1004B00020616277656973656E3F20616B74756555
:1004C0006C6C3A2000207363686F6E2076657267EB
:1004D0006562656E206F64657220756E6775656C08
:1004E0007469672C20616E64657265207761656848
:1004F0006C656E21000D0A207072756566652000BE
:100500000D0A2064757263687761686C20616B7492
:1005100075656C6C3A20006E65696E006A6100203A
:100520002020200D0D0A0020616472657373652020
:10053000006665686C6572636F646520007363684C
:10054000726569626665686C657200736368776579
:10055000726572206C6573656665686C657200779C
:1005600061726E756E67206C6573656665686C6533
:100570007200696E666F20696E697469616C697377
:1005800069657274000D0D0A20656570726F6D20CB
:10059000000011241FBECFEFD4E0DEBFCDBF11E0BD
:1005A000A0E0B1E0EEE8FFE302C005900D92A230BA
:1005B000B107D9F712E0A2E0B1E001C01D92A03E60
:1005C000B107E1F70E945F070C94C51F0C9400006F
:1005D0001F920F920FB60F9211248F939F938091C9
:1005E000360190913701019690933701809336013F
:1005F0009F918F910F900FBE0F901F901895809133
:10060000590284FF08C08091590280FD02C0419ABE
:1006100009C0419807C08091590280FD02C0429AEA
:1006200001C042988091590282FD02C0439A089508
:1006300043980895DF93CF9300D000D0CDB7DEB7B5
:100640007C0180E88093BC008E010F5F1F4FC801C2
:100650000E94B91CDD24BB24C02E012F21E0422EB4
:10066000512C4E205F2092E0692E712C6E207F204D
:1006700084E0882E912C8E209F2028E0E222FF2407
:1006800002C0BB24B394A8958C2D902F0E94DA1C35
:1006900081599140F0F08C2D902F0E94B91C309B15
:1006A00013C0DD2081F3DA9471F7BB2061F3F89475
:1006B0002EE088E190E00FB6F894A8958093600052
:1006C0000FBE20936000FFCF84E08D15D0F2D3944D
:1006D000DACFBB20F1F48C2D902F0E94DA1C893CDC
:1006E0009105B8F04114510411F02A9A01C02A98DA
:1006F0006114710411F0419A01C041988114910470
:1007000011F0429A01C04298E114F10429F0439A91
:10071000BACF2A98419842984398B5CF8EE092E09C
:100720000E947D1391E08927089582E691E00E945E
:100730007D1391E0892708951F93882329F082E68D
:1007400091E00E94CD1304C082E691E00E94F11373
:10075000182F82E691E00E94E313893108F45A9839
:10076000812F1F9108952A9A41984298439880E0DA
:100770000E94E30E8091960180934C0110929601A5
:1007800080910C028E7F80930C028DE094E00E9499
:100790006A150E94B814882309F45DC080E094E0D3
:1007A0000E946A158DE0809338018AE080933901B8
:1007B0008AE391E00E945D1583E994E00E946A1546
:1007C0008AE391E061E10E94F713882309F443C0B2
:1007D00082EF93E00E946A158EE491E00E945D151D
:1007E00083E994E00E946A158EE491E063E10E943F
:1007F000F713882381F183EC93E00E946A158091BE
:100800004D010E94781583E994E00E946A158DE4F9
:1008100091E00E9456148823F1F08DE894E00E9444
:100820006A158AE893E00E946A1580914C010E9443
:10083000781583E994E00E946A158CE491E00E94A7
:100840005614882341F08DE894E00E946A1588E7E9
:1008500093E00E946A15089580914C01809396015F
:1008600080E090E0609160020E94FC1D8EE490E0C8
:100870006091D6010E943F1E8FE490E060914D018F
:100880000E943F1E80E590E0609196010E943F1E0D
:1008900081E090E068E371E044E10E94131E85E18D
:1008A00090E06EE471E044E10E94131E81E00E943A
:1008B000E30E2A9808951F93182F23C00E94A104C5
:1008C0000E9467180E94E80A4B9B04C08091960121
:1008D000882321F480ED91E00E94B91C80ED91E025
:1008E0000E94DA1C895B9B4040F48091D5018823EB
:1008F00021F40E942C0B882321F087E991E00E94CB
:10090000CD1387E991E00E9486138823B9F687E921
:1009100091E0612F0E94A6131F9108951F93182F35
:10092000803220F48D3011F08A3011F4812F05C00F
:100930008EE50E945B04812F805C0E945B041F9106
:100940000895FF920F931F938091C00087FF4EC0C0
:1009500082E691E00E94E3138F3208F040C00091DC
:10096000C6000B3121F481E08093020138C08091F0
:100970000201882319F4E6E1F1E023C0602F6F71D2
:1009800082E691E00E94A61310920201802F0E943D
:100990008E0425C08017A1F48F0106511140F80183
:1009A000EA5DFE4FF49082E691E06F2D0E94A6135F
:1009B0008F2D0E948E040A5C1E4FF801049104C022
:1009C00031968491882331F7802F0E948E0405325E
:1009D00009F407E082E691E0602F0E94A61382E608
:1009E00091E00E94E3138A3108F05A9A87E991E076
:1009F0000E947D138823A1F48091C00085FF10C060
:100A00004B9B04C080919601882351F480ED91E0C6
:100A10000E94B91C87E991E00E94CD138093C60023
:100A20001F910F91FF9008950F931F93DF93CF9322
:100A30000F92CDB7DEB78E010F5F1F4F0CC00E9423
:100A400067180E94A1040E94FF020E94460B88239F
:100A500011F085E606C0C8010E94C20B882379F315
:100A600089810F90CF91DF911F910F9108951F936E
:100A7000182F0AC00E9467180E94A1040E94460B0A
:100A8000882359F40E94FF020E94540B882391F39B
:100A9000812F0E949C0B8823D9F31F9108954F92B8
:100AA0005F926F927F928F929F92AF92BF92DF92EE
:100AB000EF92FF920F931F93DF93CF9300D000D05C
:100AC000CDB7DEB72C017B015A0149018E010F5FC2
:100AD0001F4FC8010E94B91CD02E012F0EC0F50176
:100AE0000995882331F0F40109958D2D902F0E94EE
:100AF000B91C0E9467180E94A1048D2D902F0E949E
:100B0000DA1C845F914058F30E94981B82E393E0C3
:100B1000F70109950E94AE1B882319F482E193E046
:100B200088C03E010894611C711C10E0DD240E9405
:100B300067180E94A1040E94E31B082F882349F430
:100B40008BEF92E0F70109958CED92E0F7010995A2
:100B500023C0F20109951A3F08F41F5F0A30C1F45F
:100B6000113A20F4D39483E08D1590F4C3010E94D0
:100B7000B91C06C0F5010995882341F40E94671845
:100B8000C3010E94DA1C8C5D9540A0F310E0DD24C7
:100B9000F5010995882359F20E9467180E94A10463
:100BA000F4010995082FC3010E94B91C0BC0F5017F
:100BB0000995882329F0F4010995C3010E94B91C05
:100BC0000E946718C3010E94DA1C8C52914078F38E
:100BD000053609F1063660F40333E9F0043328F4EE
:100BE000093269F00C32C1F611C00433A9F69DCF69
:100BF0000E3661F0023709F498CF0C3669F68EECA8
:100C000092E0F70109950E941E1C08C08FEB92E04C
:100C1000F701099503C084EB92E00BC00E94AE1B64
:100C2000882329F081EB92E0F70109957ECF8CE8CB
:100C300092E0F70109950E940C1C0F900F900F9005
:100C40000F90CF91DF911F910F91FF90EF90DF9068
:100C5000BF90AF909F908F907F906F905F904F90DC
:100C600008950EC00E94A1040E94E80A0E9467181D
:100C70008091D501882321F01092D50199E012C00E
:100C800082E691E00E947D13882361F781E00E9453
:100C90009C03982F833111F490E004C081548A3171
:100CA00008F4905E892F0895CF93DF93EC018FE1D4
:100CB0000E946D0B8823D9F307C00E9437058991E4
:100CC0000E948E040E94A10488818823B1F7DF91DD
:100CD000CF9108951F93CF93DF93EC018FE10E9492
:100CE0006D0B8823D9F309C0812F0E943705812F0E
:100CF0000E948E0421960E94A104FE0114911123EA
:100D000099F7DF91CF911F910895AF92BF92CF9243
:100D1000DF92FF920F931F93DF93CF9300D0CDB755
:100D2000DEB7F82E5E010894A11CB11C32E0C32E80
:100D3000D12CCC0EDD1E0E94A104C5010E94C20B65
:100D4000882309F45FC08981873109F054C088E3A2
:100D500091E00E9454068FE10E946D0B8823D9F325
:100D60000EE411E00E9467180E94A1040E94FF0295
:100D7000C6010E94C20B882329F18A810E945B046C
:100D8000FF2019F08A810E94DE1A9A819D3011F0AD
:100D90009A3049F4F80180818823F9F0F1E00E34AB
:100DA0001F0781F02FC0973139F488E391E00E944A
:100DB00054060EE411E006C0F8018081981711F581
:100DC0000F5F1F4F0E94460B8823E1F482E691E0FB
:100DD0000E947D13882331F615C00E948F1B87E384
:100DE00095E06AE676E04EE853E024E135E00E94C3
:100DF0004F05FF2407C00E945B04FF2019F0898182
:100E00000E94DE1A0E94460B882361F0FF2011F039
:100E10000E94631B8BE592E00E946A1581E00E94AC
:100E2000FA0E41C082E691E00E947D138823B1F55D
:100E30000E94540B882391F181E00E949C03182F9B
:100E4000893011F0863051F488E391E00E94540615
:100E5000FF2021F1812F0E94DE1A20C08331B9F4D6
:100E6000FF2011F00E94631B80E00E94FA0E06C072
:100E70000E9467180E94FF020E94A1040E94460B74
:100E80008823B1F38FE492E00E946A150CC0873189
:100E900011F0853009F487E10E9437050E94671838
:100EA0000E94FF0248CF0F900F90CF91DF911F91CA
:100EB0000F91FF90DF90CF90BF90AF900895AF92C9
:100EC000BF92DF92EF92FF920F931F93DF93CF9326
:100ED000CDB7DEB728970FB6F894DEBF0FBECDBFF3
:100EE0002FE088E190E00FB6F894A8958093600019
:100EF0000FBE209360008FEF83B986B989B915B80A
:100F000018B81BB814B817B81AB83898409A229A6B
:100F1000399A3A9A3B9A259A24982C9A2A9A529A64
:100F200053985B980E94931C109280008DE08093F0
:100F300081008FE99CE890938900809388008091DC
:100F40006F00826080936F0080ED91E00E94B91C79
:100F50000E94801D80E090E06EE342E02CED0E9454
:100F6000741F8E7F8093600281E080935D02809386
:100F700046028EE490E060E00E94991F8093D601C3
:100F80001092CF0180E590E060E00E94991F80936D
:100F900096018FE490E061E00E94991F80934D01DB
:100FA00081E090E068E371E044E121E332E00E94F7
:100FB000C91E85E190E06EE471E044E128E232E090
:100FC0000E94C91E8CE490E060E070E040E050E0D8
:100FD0002FEF3FEF0E942D1F90939D0280939C0264
:100FE0001092C50087E28093C4001092C00088E18F
:100FF0008093C10086E08093C2000E946E0F7894B7
:1010000082E092E00E946A158E010F5F1F4FC801B7
:101010000E94B91CF02E012F02C00E94A1048F2D46
:10102000902F0E94DA1C8A3F9105B8F32A98419AC2
:101030000E94DE128E010F5F1F4F02C00E94A104AA
:10104000C8010E94DA1C845F9140C0F34198429A23
:101050008E010F5F1F4F02C00E94A104C8010E94B1
:10106000DA1C8E5E9240C0F34298439A0E948B1A1B
:1010700080E98093BC008E010F5F1F4F02C00E9469
:10108000A104C8010E94DA1C885F9240C0F385EC7D
:101090008093BC008E010F5F1F4F02C00E94A1040D
:1010A000C8010E94DA1C40916002242F30E02851D0
:1010B0003C4F8217930790F3842F0E94AB12DD24DC
:1010C000D3945E010894A11CB11C809160028F3FF3
:1010D00091F4C5010E94DA1C8152934040F4C5018D
:1010E0000E94DA1C8159914028F52A9A24C0C50132
:1010F0000E94B91C20C020919802309199028091E1
:10110000CF029091D00228173907A1F02A98419870
:10111000C5010E94DA1C8154964040F4C5010E942A
:10112000DA1C8152934040F4429A07C0C5010E94E4
:10113000B91C03C02A984198429843980E946718A6
:10114000DD2009F443C08FEF91E00E946A15809181
:10115000D702882319F162E00E9438158EE20E94BE
:101160005B048091DA0262E00E9438158EE20E94F0
:101170005B048091D90262E00E94381580E20E94EF
:101180005B048091D60262E00E9438158AE30E94D7
:101190005B048091D80262E00E9438158EEE91E0E7
:1011A0000E946A1587ED91E00E946A158FEB91E02D
:1011B0000E946A1587EA91E00E946A1581E991E030
:1011C0000E946A158BE891E00E946A150E94E80A65
:1011D0000E94A1040E942C0B882311F4DD2436C048
:1011E000429A2D9A8BEC91E00E94B91C85E492E022
:1011F0000E946A158091D9026091DA024091D7026B
:101200002091D6020091D8020E94201B182F0E9424
:101210002E0F823051F08AE392E00E946A150E94FC
:101220008F1B81E00E94FA0E03C0812F0E94850669
:101230008BEC91E00E94B91C60919C0270919D0220
:101240008CE490E00E94421ED0904D0182E691E035
:101250000E947D13882309F01CC181E00E949C0339
:10126000082F2D9A8BEC91E00E94B91C0D3009F4E7
:1012700075C00E3080F40A3009F470C00B3020F4D1
:10128000013009F0F6C017C00B3009F463C00C3010
:1012900009F0EFC07FC0023109F495C0033120F49A
:1012A000013109F0E6C05DC0043109F49AC0003292
:1012B00009F0DFC053C0809160028F3F09F445C040
:1012C000419A0E942E0F882319F0813091F502C0B7
:1012D000419857C080E892E00E946A1525C00E949C
:1012E000A1040E94671882E691E00E947D13882382
:1012F00079F481E00E949C03982F80538A3018F47F
:101300000E94840B05C0933119F480E00E94FA0E0C
:101310000E94460B882341F086E792E00E946A15FE
:1013200080E00E94FA0E2DC00E942C0B8823B9F297
:1013300004C08DE090E00E941A0388E692E00E94CB
:101340006A1580E00E9485061CC08EE691E00E942E
:101350006A1504C00E94B3030E942C04D0904D0172
:1013600094C080E00E94E30E8EE894E06AE675E1A6
:1013700045E953E021E336E00E944F0581E00E94F9
:10138000E30E60919C0270919D028CE490E00E94BB
:10139000421EE4CF80E00E94E30E8DE591E00E94C2
:1013A0006A150E94A10482E691E00E947D138823C1
:1013B000C1F782E691E00E94CD13833191F781E07D
:1013C0000E94E30ECBCF2EE088E190E00FB6F894B8
:1013D000A895809360000FBE20936000F894439A14
:1013E000FECF80E00E94E30E81E593E00E946A1543
:1013F000FF24F39435C08E2D6F2D0E941613982F65
:1014000080916002981721F480915902082F06C03C
:10141000892F0E9477128C0197FD10C08E2D6F2DA1
:101420000E9438158EE493E00E946A15802F60E0D8
:101430000E9438158BE493E00E946A15E39481E0E2
:10144000F81619F023E630E002C029E030E08E2DD6
:1014500090E0281739077CF6F39423E0F21611F098
:10146000EE24EDCF81E00E94E30E0FC081E00E94E8
:101470009C0382E691E00E947D138823B9F386E401
:1014800091E00E946A15DD24D3948BEC91E00E94D8
:10149000B91C8091D501823049F41092D5010E9487
:1014A000B3030E942C04D0904D016CC08091D501F3
:1014B000813009F067C01092D5012A98419842986E
:1014C000439A80E00E94E30E06C00E94E80A0E9450
:1014D00067180E94A1048091D5018823B1F310926E
:1014E000D50181E00E94E30E43988E010B5F1F4FF0
:1014F000C8010E94B91C80E00E94E30EF02E012F6B
:1015000011E00E94E80A8091D501882319F0109219
:10151000D50131C00E9467180E94A10482E691E0C3
:101520000E947D13882339F18F2D902F0E94DA1CA1
:10153000895E934028F08F2D902F0E94B91C0AC01D
:101540008F2D902F0E94DA1C8955924010F0439AFB
:1015500001C0439880914702882399F26091470225
:1015600089E492E00E945C1D882311F01093CF0162
:1015700010924702C6CF439881E00E94E30E02C05A
:101580000E9467180E94B5198823D1F38091470201
:10159000882369F06091470289E492E00E945C1D13
:1015A000882319F081E08093CF01109247021C99A3
:1015B00005C02D9A8BEC91E00E94B91C8BEC91E058
:1015C0000E94DA1C81569A4E08F47FCD2D987DCD6D
:1015D000809103018130A9F0813018F0823039F513
:1015E00022C0309909C084E091E00E94DA1CC397C0
:1015F000F0F081E08093030184E091E00E94B91C47
:10160000089530990BC084E091E00E94DA1C815269
:10161000934068F082E08093030102C010920301BE
:101620008093D5010895309B02C010920301089564
:101630001092D50103C0A8950E94E80A8091D501B7
:101640008823C9F38091D5011092D50190E08230B2
:1016500009F491E0892F08958091D701833031F00A
:101660008091D70120E030E0843011F421E030E0B7
:10167000822F089580915E02089580910D01089552
:1016800080910B01089580930A0108958091D701FC
:10169000882331F08091D70120E030E0853011F4CB
:1016A00021E030E0822F089588ED91E00E947D13C3
:1016B0000895CF93DF93EC018EE092E00E947D13BA
:1016C000882311F080E006C08EE092E00E94CD13E6
:1016D000888381E0DF91CF9108951F93182F88EDC3
:1016E00091E0612F0E94A613882361F01F3121F43D
:1016F00081E080930C0206C01B3119F483E08093D3
:101700000C0281E01F910895682F8091D7018230EB
:1017100049F480910E01882329F088ED91E00E9420
:10172000A613089589E090E00E941A03089588EDB9
:1017300091E00E9486130895DF93CF9300D0CDB738
:10174000DEB76CE072E0AE014F5F5F4F9E012E5F2F
:101750003F4F0E94CD0F882379F088ED91E0698199
:101760000E94A613882349F06A816F3F29F088ED13
:1017700091E00E94A613811181E00F900F90CF910C
:10178000DF910895EF92FF920F931F93DF93CF9312
:101790000F92CDB7DEB78C017E010894E11CF11CDD
:1017A000C7010E94590B882351F089816CE072E0D7
:1017B0000E94970FF8018083882391F381E00F90B6
:1017C000CF91DF911F910F91FF90EF900895FF92BD
:1017D0000F931F93082F8091D701081709F4CEC0EB
:1017E000FFB6F89410920E01033009F45AC0043089
:1017F00028F40130A9F10230E0F517C0053009F4F2
:10180000A7C0053008F467C0063009F4AAC0073045
:1018100009F0B1C0809159028F778093590280916D
:1018200059028F7E8093590218C0809159028074AA
:101830008093590280915902806880935902809167
:10184000D601882329F08091590280618093590242
:1018500081E080930A0180930B0110925F028BC09C
:10186000809159028F7780935902809159028F7E1F
:1018700080C0809159028F778093590280915902DC
:101880008F7E8093590210920C0110920D0181E01D
:1018900080930E0188ED91E00E94791310920C0262
:1018A0006AC0809159028F778093590280915902C2
:1018B0008F7E8093590280915902806180935902F2
:1018C0008091590288608093590281E0809363027D
:1018D00080930B0150C08091590287FF0FC0809107
:1018E00059028F7780935902809159028F7E80939D
:1018F0005902809159028061809359028091590266
:1019000080628093590280915902826080935902CB
:1019100080915902846080935902809159028160BC
:101920008093590211E01093000188ED91E00E942C
:1019300079138EE092E00E94791310920C020E94BB
:1019400082151093630210930A0110930B0113C0C8
:10195000809159028F7D8093590280915902877F2F
:1019600008C0809159028F7D80935902809159025D
:101970008D7F809359020093D701FFBE1F910F9175
:10198000FF9008950E942F1280910D0160910C012B
:101990000E94161380935F028091600286950E94D8
:1019A00038120E942F128FE091E00E94B91C8091A2
:1019B0006202882369F482E080930E0183EA0E9428
:1019C00038120E942F128FE091E00E94B91C0895F6
:1019D00080916202833059F41092620210925F0289
:1019E00085E00E94E70B82E680930901089510923A
:1019F000620210925F0280910C01823030F085E02B
:101A00000E94E70B88E78093090108951F93DF93F5
:101A1000CF9300D0CDB7DEB7CE0101960E9443131D
:101A2000882309F443C08091D701873021F481E0F5
:101A300090E00E941A039981953AE9F0963A28F4C9
:101A4000903850F0933A91F510C09A3A11F19C3ABF
:101A500031F1963A59F515C08091D701882331F5B7
:101A6000990F90935F0281E01FC08091D701813070
:101A7000E9F483E019C08091D7018230B9F484E0A1
:101A800013C08091D701823089F483E080930E01E6
:101A90000DC08091D701882349F085E005C0809171
:101AA000D701863019F480E00E94E70B8091D701BE
:101AB000843009F444C0863009F4E8C0823009F06B
:101AC000EFC088ED91E00E947D13882309F0E8C003
:101AD00080910E01823009F4E3C088ED91E00E940C
:101AE000CD13182F80910C018F5F80930C01809192
:101AF0000E018130B1F480910C01813019F4109302
:101B00000D010DC080910C01823059F480910D01BE
:101B10002AE0829FC0011124810F80930D010E9451
:101B2000C20C80910E01833009F0BAC0812F80551C
:101B30000E9438128FE091E00E94B91CB1C08091E0
:101B40005C02882359F080916302882321F082E0AF
:101B50000E94251003C082E00E94141088ED91E0DD
:101B60000E947D13882369F480917102882349F4CF
:101B700088ED91E00E94CD1380936F0281E0809305
:101B8000710280910D02882319F480910A0119C015
:101B9000813019F48091630214C0823089F48091FD
:101BA0006302882319F480E090E00BC080910A0161
:101BB00090E0882309F491E081E09827892F01C003
:101BC00081E0BE016E5F7F4F0E948D158091700293
:101BD000883041F460916E028EE092E00E94A6137C
:101BE000109270028091630280930B0110910A01A0
:101BF000809171028823A9F080917102813089F06F
:101C000080914202882321F48A8180930B0109C0CC
:101C1000813011F41A8105C0823019F41A811093B1
:101C20000B01112321F080E00E94251003C080E009
:101C30000E94141080916402882391F180914502E2
:101C4000882371F5112381F080910001823021F009
:101C500080910001833011F48CE90FC08091000164
:101C60008823F1F48AE909C080910001882321F0DA
:101C700080910001813021F483E90E94381210C064
:101C800080910001823061F486E9F7CF83E191E031
:101C90000E94DA1C815A9F4018F080E00E94E70BF6
:101CA00080914502853011F58FE091E00E94B91CCA
:101CB000809162028823C1F480914802863961F0E4
:101CC000873918F4833981F405C08A3951F08C3989
:101CD00059F404C082E006C083E004C01092000101
:101CE00003C081E0809300011092450280915F0261
:101CF0008823D1F0809164028823B1F0809145025D
:101D0000882321F080914502853071F48FE091E0C5
:101D10000E94DA1C8251934038F089EA0E943812FE
:101D20008FE091E00E94B91C80915F02882341F00E
:101D30008091D701863021F08091D701853009F458
:101D4000A8950F900F90CF91DF911F9108951F924A
:101D50000F920FB60F9211242F933F934F935F93DF
:101D60006F937F938F939F93AF93BF93EF93FF9363
:101D7000809108018823B1F481E08093080180916B
:101D80006E008E7F80936E0078940E94060D84EB27
:101D900086BD81E085BB80916E00816080936E007E
:101DA00010920801FF91EF91BF91AF919F918F9198
:101DB0007F916F915F914F913F912F910F900FBE47
:101DC0000F901F9018951F93182F8091D70188238B
:101DD00041F08091D701873021F08AE090E00E94A5
:101DE0001A03112311F080E001C087E00E94E70B85
:101DF0001F9108951F93182F8091D701882361F1B7
:101E000080915F02882319F40E94E70B25C081E0CE
:101E1000809308018091D701853049F48CEA0E94B3
:101E200038120E942F1280E00E94E70B0AC08AEA53
:101E30000E94381286E00E94E70B83E191E00E9445
:101E4000B91C1092080102C00E94060D8091D701B2
:101E5000863011F41123C1F71F9108958091D701A5
:101E6000833091F481E08093080185EA0E94381262
:101E70000E942F1289EA0E94381284E00E94E70B28
:101E80001092080182E00895809160028F3F11F462
:101E900080E008958091D701882321F088E090E0C8
:101EA0000E941A0381E0809308019FB7F894809103
:101EB00059028F7780935902809159028F7E8093C7
:101EC0005902809159028F7E809359029FBF82E010
:101ED0000E94E70B1092080181E0089514BC82E093
:101EE00085BD80916E00816080936E0080E8809354
:101EF00059028091D601882329F08091590280618E
:101F0000809359020E94821580E00E94E70B88EDC1
:101F100091E00E9479138EE092E00E947913109272
:101F2000080181E08093420280930D020895982F6A
:101F3000FB018B3119F482E0808303C08F3119F4E7
:101F4000108280E0089580818E7F80838670E92FE3
:101F5000F0E0823021F4E359FB4F84910895E35B74
:101F6000FB4F84910895282F6670623019F0EDE4DC
:101F7000F4E002C0EDE6F4E0822F81548A3108F4E7
:101F8000205E90E08491281731F09F5F903211F02D
:101F90003196F8CF9FEF892F0895CF92DF92FF926D
:101FA0000F931F93CF93DF93F82E6B01EA01890102
:101FB0008FEFF9018083FFE0FF1641F1FEE0FF168D
:101FC000A9F0FB01608160FF09C0F7E1FF1631F065
:101FD0008F2D0E94B30F88838F3FE9F48F2D60E02F
:101FE0000E94B30FF80180838F3F31F08FE1888327
:101FF00081E0F601808310C08F2D62E00E94B30F54
:10200000F80180838F3F11F480E006C08BE1888364
:1020100083E0F601808381E0DF91CF911F910F91E2
:10202000FF90DF90CF9008954FB7F89490915902A8
:1020300021E030E002C0220F331F8A95E2F720959D
:102040002923209359024FBF08954FB7F8949091D8
:10205000590221E030E002C0220F331F8A95E2F7D7
:10206000922B909359024FBF0895982F8A3991F07F
:102070008B3928F4833941F0863991F405C08C39C5
:1020800049F0893A69F4089581E080935C021092E6
:102090006302089581E080935C0280936302089557
:1020A00080912B01E82FF0E0E95EFE4F90838F5F77
:1020B00080932B0180912B01843148F080912C0179
:1020C000882311F483E10CC010922B010BC0909176
:1020D0002B0180912C01981729F480912B018150BC
:1020E00080932B01809159028064809359028091E2
:1020F00059028F778093590208951F920F920FB65D
:102100000F9211242F933F934F935F936F937F937D
:102110008F939F93AF93BF93EF93FF93809143026D
:1021200090914402019690934402809343028091DF
:10213000B90090E0887F90708036910509F4F5C071
:1021400081369105CCF58832910509F4A8C0893211
:102150009105B4F48031910509F480C08131910575
:102160003CF4009709F4B7C0089709F061C165C055
:102170008831910509F476C0809709F059C186C06D
:102180008034910509F4E8C08134910544F480332A
:10219000910509F484C0C89709F04AC1A1C08035EF
:1021A000910509F4AAC08835910509F4A6C08834C0
:1021B000910509F03DC19AC08839910509F404C11F
:1021C00089399105ECF48837910509F4DBC089372A
:1021D00091054CF48836910509F4A2C08037910529
:1021E00009F026C1D4C08838910509F4B7C08039F8
:1021F000910509F4D7C08038910509F019C1A8C02C
:10220000803B910509F4F5C0813B91054CF4803A7F
:10221000910509F4A8C0883A910509F009C1EEC0FA
:10222000803C910509F4F1C0883C910509F4EDC0AA
:10223000883B910509F0FCC0E1C0809145028430E3
:1022400029F41092BB0010922E01DCC0809145024F
:10225000813021F080915F028160D2C080915F0265
:102260008E7FCEC080914502843059F480912E013A
:10227000E82FF0E0E75BFD4FE0818F5F80932E0158
:1022800002C0E0914802E093BB00D2C085E0809399
:102290004502809145028430E1F081E03EC08091AA
:1022A0004502843099F490912E018091470298174D
:1022B00068F480912E01E82FF0E0E75BFD4F9081FC
:1022C0008F5F80932E019093BB00B2C085E0809316
:1022D00045021092620281E08093640285E5ABC002
:1022E000809161028F5F80936102A4C085E080933A
:1022F000450281E080936202EFCF8091BB00809322
:102300002D0180914502823009F780912D0187FDD2
:1023100091C085E08093450283E080936202DBCF29
:10232000809161028F5F80936102A89510925B0299
:1023300010925A021092640210922E019091BB00EA
:1023400080915D0281509695892380935E0204C03E
:102350008091BB000E94351085E06DC08091BB006C
:102360000E94351052C081E08093640290912E014A
:1023700080914702891708F04BC080912E0180930D
:10238000470246C0809161028F5F80936102109284
:102390005B0210925A021092640210922E01109267
:1023A000470246C09091BB0080912E01803108F019
:1023B0003FC080912E01E82FF0E0E75BFD4F908356
:1023C0008F5F80932E0134C09091BB0080912E01CD
:1023D000803150F480912E01E82FF0E0E75BFD4F53
:1023E00090838F5F80932E0180912E01809347020E
:1023F0000CC0809161028F5F8093610280915902CD
:102400008093BB001092640213C081E08093640249
:1024100080914502833071F080914502813051F006
:1024200080914502823031F080914502843011F074
:1024300085E401C085E680688093BC00FF91EF9140
:10244000BF91AF919F918F917F916F915F914F91CC
:102450003F912F910F900FBE0F901F901895809174
:102460004502882321F0809145028530C1F7089507
:10247000982F80914502882321F080914502853074
:10248000C1F72FB7F8949093480297FF02C081E0FC
:1024900001C082E08093450280916402882349F064
:1024A0008091BC0084FDFCCF8091BC008062809351
:1024B000BC002FBF089580914502882321F08091B0
:1024C00045028530C1F79FB7F89484E080934502B8
:1024D00080916402882349F08091BC0084FDFCCF88
:1024E0008091BC0080628093BC009FBF0895982FAC
:1024F00080914502882321F0809145028530C1F703
:1025000020915F0290935F0283E080934502809167
:102510006402882349F08091BC0084FDFCCF809147
:10252000BC0080628093BC0080914502882321F02A
:10253000809145028530C1F720935F02809162024D
:10254000882319F02FEF3FEF04C080912D01282F31
:1025500030E0C90108951F93182F82508B3DF0F48D
:1025600010FD1CC0812F0E94771297FF17C09FB7E4
:10257000F8941093BA0080914602882329F0809144
:10258000BA0081608093BA008091BC00806480931F
:10259000BC00109360029FBF81E00EC08FB7F8941B
:1025A0001092BA009091BC009F7B9093BC009FEF6B
:1025B000909360028FBF80E01F91089581E0809327
:1025C000640210924502109262021092610210920F
:1025D0002C0110922B01109244021092430210928F
:1025E0005B0210925A02109248028093B90087E170
:1025F0008093B800809160028E7F8093BA00109221
:10260000470210922E0180914602882329F0809182
:10261000BA0081608093BA0084E88093BC00809106
:102620005D028150880F8093BD000895613041F4B0
:102630008A3080F4882311F48CED08958C5908C0F9
:10264000623041F4882311F488EC0895843610F444
:10265000880F08958FEF0895982FFB0182508B3DCE
:1026600010F010820DC09695953630F081E0808391
:102670009E3630F4945605C082E08083943609F487
:1026800090E0892F0895DC0190912C0180912B011D
:10269000981711F480E0089590912C01E92FF0E053
:1026A000E95EFE4F80818C939F5F90932C01809117
:1026B0002C01843110F010922C0190912C0180910A
:1026C0002B01981711F081E008959FB7F89480913D
:1026D00059028F7B809359029FBF81E008959091AA
:1026E0002C0180912B0120E0981709F421E0822F22
:1026F0000895FC0112AA13AA0895FC0193A982A9C6
:1027000020E0981709F421E0822F0895FC0182A9A6
:10271000813310F090E002C0982F9F5F83A9981733
:1027200089F082A9813310F080E005C08F5F81338A
:1027300011F490E002C0982F9F5F83A920E030E061
:10274000981711F421E030E0822F0895DC01D29631
:102750008C91D297813310F090E002C0982F9F5F48
:10276000D3968C91D397981711F480E008959FB772
:10277000F894D2968C91D297FD01E80FF11D6083F9
:10278000D2968C91D297813310F080E001C08F5F98
:10279000D2968C939FBF81E00895DC012FB7F89407
:1027A000D3968C91D397FD01E80FF11D8081D396CC
:1027B0009C91D397913310F090E001C09F5FD39626
:1027C0009C932FBF0895FC0192A983A9981718F034
:1027D00022A983A903C022A983A92E5C281B822FCA
:1027E0000895FC0183A9E80FF11D80810895FF92EF
:1027F0000F931F93CF93DF93EC01F62E10E000E0D0
:1028000001C000E20E9431068A30A9F08B3028F422
:10281000882351F0893051F5F5CF803221F1833290
:1028200089F38D3019F507C0112319F0C10FD11D9F
:10283000188280E035C0112389F4002319F3802F1A
:102840008D52823060F10B3251F10D3341F10F3274
:1028500031F1003229F00883198203C0C10FD11D64
:10286000188282E01DC0112361F202C0803250F252
:102870001F1540F6112369F4002311F4082FC2CF6D
:10288000003219F4888311E0BDCF0883898312E0F8
:10289000B9CFFE01E10FF11D80831F5FB3CF81E04F
:1028A000DF91CF911F910F91FF900895CF93DF9308
:1028B000EC010E9431068133E9F0823358F4803311
:1028C000E0F48E32A8F48B32A9F08D32B1F0882377
:1028D00069F0EFCF8E3689F08F3628F48D3341F0D2
:1028E0008A3639F707C0893721F704C080E007C06E
:1028F00081E005C081E0888301C0188282E0DF9119
:10290000CF910895FF920F931F93CF93DF93EC0124
:10291000062F10E08AE0F82E0E943106282F8053FF
:102920008A3068F4112331F088818F9DC001112411
:102930008053820F88831F5F101771F712C0822F98
:102940008D52823070F02B3261F02D3351F02F32E6
:1029500041F0222311F48FEF05C02930E9F2112351
:10296000D9F2812FDF91CF911F910F91FF900895A0
:10297000EF92FF920F931F93DF93CF9300D0CDB7C9
:10298000DEB78E010F5F1F4F92E0E92EF12CEC0EA7
:10299000FD1E80916002B8010E942C138A8380E0A2
:1029A00095E00E946A158A8169810E94381583E941
:1029B00094E00E946A15C70162E00E94821487FDBC
:1029C00045C0882339F480916002B8010E942C131D
:1029D0008A8301C0898390915D0291958A818923C0
:1029E0008A8385EF94E00E946A158A8169810E943A
:1029F000381580E20E945B048A8169810E94161367
:102A00000E94AB128823B9F08DE894E00E946A1509
:102A10008EE994E00E946A158091D6010E94781593
:102A200083E994E00E946A1586ED91E00E945614B5
:102A3000882361F005C085EC94E00E946A15A9CF57
:102A40008DE894E00E946A1581E001C080E00F905B
:102A50000F90CF91DF911F910F91FF90EF9008950C
:102A60008A3010F4805D01C0895A0E945B04089589
:102A70001F93282F362F6AE00E94A31F482F822F12
:102A80000E94A31F192F442311F432302CF031502F
:102A9000842F632F0E943815812F0E9430151F91BB
:102AA00008951F93182F82958F700E943015812FE3
:102AB0008F700E9430151F910895CF93DF93EC0122
:102AC00003C00E945B04219688818823D1F7DF919F
:102AD000CF910895CF93DF93EC0103C00E945B0474
:102AE0002196FE0184918823C9F7DF91CF91089543
:102AF000882319F487E195E002C08CE195E00E94FB
:102B00006A150895109270021092710280E890E0A8
:102B10009093300180932F0108951F93CF93DF93FB
:102B2000182FEB0180917102883030F4823088F5E3
:102B3000813009F05AC004C0883009F056C047C03F
:102B400080917002882329F080917002883009F00A
:102B50004CC085E692E00E94DA1CCC9708F445C090
:102B600018828AE692E00E94B91C82E0809371028A
:102B700080916F028F7180936F0280916F02880F36
:102B8000880F80936F0280916F02836080936F0241
:102B90002CC080916F02188287FF02C081E0888379
:102BA0008AE692E00E94DA1C4497F8F08AE692E006
:102BB00064E170E00E94C61C80916F02880F8093D0
:102BC0006F02809171028F5F809371020EC081E06D
:102BD00088838AE692E00E94DA1C4E9730F08AE6FB
:102BE00092E00E94B91C10927102809170028730AD
:102BF00048F4823008F06FC0882389F0813009F0F2
:102C0000FFC022C0873009F494C0883009F0F8C0B2
:102C100085E692E00E94DA1C039708F4F1C01123C4
:102C200009F0EEC085E692E00E94B91C81E0809335
:102C3000700210926E0280E890E0909330018093D1
:102C40002F0110926902DCC0112369F080912F01DD
:102C5000909130018F3F9105B4F480912F019091B4
:102C6000300101960CC080912F019091300118160F
:102C700019064CF480912F019091300101979093A7
:102C8000300180932F0180912F019091300187397D
:102C90009105F4F485E692E00E94DA1C0B9708F4A3
:102CA000AFC080912F01909130018038910584F45C
:102CB00082E08093700280E890E0909330018093EE
:102CC0002F0185E692E068E070E00E94C61C98C083
:102CD0001092700295C085E692E00E94DA1C40973F
:102CE00008F48EC0112369F080912F01909130017A
:102CF0008F3F9105B4F480912F019091300101969E
:102D00000CC080912F0190913001181619064CF4D7
:102D100080912F0190913001019790933001809321
:102D20002F0185E692E00E94DA1C449708F046C025
:102D300067C085E692E00E94DA1C409708F460C004
:102D4000112369F080912F01909130018F3F9105FF
:102D5000B4F480912F019091300101960CC08091C4
:102D60002F0190913001181619064CF480912F0113
:102D70009091300101979093300180932F0185E667
:102D800092E00E94DA1C0F97D8F180917002873090
:102D9000A9F41123A9F180912F019091300120E035
:102DA000803891050CF421E02093690288E080933B
:102DB000700285E692E00E94B91C22C080916E02EA
:102DC000880F80936E0280912F019091300180389E
:102DD00091052CF080916E02816080936E0280914B
:102DE00070028F5F8093700285E692E064E170E08C
:102DF0000E94C61C80E890E09093300180932F01E0
:102E0000DF91CF911F910895DC018C91E82FF0E0C4
:102E1000E833F10508F05AC1EC5CFF4FEE0FFF1FDD
:102E20000590F491E02D099414968C9114978823C1
:102E300009F44CC118961C92189787E017968C934A
:102E4000179711968C91119716968C931697209A36
:102E5000289881E035C1189939C182E031C1579A6B
:102E60005F9883E02DC14F9B86C030C116968C9130
:102E7000169717962C91179790E002C09595879515
:102E80002A95E2F780FF02C0209801C0209A289876
:102E90008BE016C116968C91169717962C91179762
:102EA00090E002C0959587952A95E2F780FF03C0D0
:102EB000189B0CC102C0189909C157985F988CE003
:102EC000FFC04F9B03C18DE0FBC0579A5F988EE017
:102ED000F7C04F99FBC017968C911797882311F470
:102EE00084E1EEC017968C911797815017968C93BA
:102EF000179741C02098289857985F9885E1E0C0BF
:102F00004F9BE4C086E1DCC0189B02C082E31FC077
:102F10001296ED91FC91139718968C911897E80FE3
:102F2000F11D808116968C93169718968C911897A0
:102F30008F5F18968C93189718968C911897159602
:102F40008C93159787E017968C93179787E18C934E
:102F5000579A5F9808954F99B9C018969C91189701
:102F600014968C911497891708F495C011968C913A
:102F7000119780FD3BC08AE0A3C017968C911797EC
:102F8000873019F416961C9216972098289857980F
:102F90005F988FE195C04F9B99C080E291C0189BCC
:102FA00011C016968C91169717969C91179721E051
:102FB00030E002C0220F331F9A95E2F7822B16965B
:102FC0008C931697579A5F9881E27AC04F997EC08A
:102FD00017968C911797882311F488E271C0179681
:102FE0008C911797815017968C9317978EE168C034
:102FF0001296ED91FC91139718968C91189716964E
:103000009C911697E80FF11D3197908318969C912B
:10301000189714968C911497981710F4209A01C061
:103020002098289889E24CC018969C91189714967D
:103030008C911497981718F4189948C002C0189BDF
:1030400045C057985F988AE23BC04F9B3FC08BE2D8
:1030500037C0579A5F988CE233C04F9937C0209899
:10306000289818968C9118978F5F18968C931897BC
:1030700087E017968C93179718968C91189715964A
:103080008C93159718969C91189714968C91149779
:10309000891708F0ABCF82E313C0209A289883E306
:1030A0000FC0189913C084E30BC057985F9885E34D
:1030B00007C04F9B0BC086E303C02098289887E386
:1030C0008C930895189B02C08FEF8C93089580EA2B
:1030D00092E00E94041708952098289857985F98C6
:1030E0001092D1021092CD021092CE02109296024E
:1030F00010929702EBEAF2E0A4E7B2E095E587E7E9
:1031000091938D9322E0ED3CF207D1F708950E9450
:103110006C1808958091A0028F3F09F05BC0209148
:10312000A5028091A40230E090E0019628173907AB
:1031300019F01092A00208951092A4028091D10279
:103140008130A1F48091A10280FD40C02FB7F89496
:1031500081EA8093A1028DEA92E09093A30280938A
:10316000A20280E28093A4022FBF32C0823081F598
:103170001092CD0240919602442331F15FB7F8944A
:1031800080917202909173029093AA028093A90297
:1031900092E0242F30E02F5F3F4F09C0FD01EE5831
:1031A000FD4F8281A755BD4F12968C939F5FA92F2B
:1031B000B0E02A173B0794F74093CD021092960295
:1031C0001092CE025FBF04C01092D1021092CE02C4
:1031D0001092A00208952091D1022223A9F180919A
:1031E000A002882389F58091CE02882369F52230D8
:1031F00021F48091CD02882339F13FB7F89481E022
:103200008093CE029091A9028091AA024BEA52E0EB
:103210008093AB029093AC02213049F480EA809312
:10322000A1025093A3024093A20282E00AC080EA66
:103230008093A1025093A3024093A2028091CD02F9
:103240008E5F8093A4023FBF08951F93DC01142F6B
:1032500094969C919497992351F411967C936E9334
:1032600014964C93149781E094968C932CC0959669
:103270008C919597882331F52D913C911197621788
:10328000730700F1A901490F511D46175707D0F0E8
:10329000C901807E809668177907A0F482E090E0EB
:1032A000821B930BFD01E60FF71FE80FF91F128336
:1032B0006417750728F0862F821B8F5F94968C9376
:1032C00081E001C080E01F9108950F931F93CF9379
:1032D000DF93EC01162F042F8091D102813011F47D
:1032E0001092D1020E948A188091D102882339F469
:1032F00082E08093D1021092CD021092CE026881BA
:10330000798189EA92E0412F0E942519882381F072
:10331000002329F18091A9029091AA02807E4F9604
:103320002881398128173907A1F40E94EB1811C0B0
:103330008091A002882311F40E94EB1868817981A2
:1033400082E792E0412F0E942519882349F000234B
:1033500031F08881998101969F779983888381E0F4
:10336000DF91CF911F910F9108958091D10281300B
:1033700011F41092D1028091D102823071F48091C7
:10338000CE02882319F00E948A1802C00E94EB180E
:1033900090E08091D102823009F091E0892F089568
:1033A000FF920F931F93CF93DF93EC018B01F42EC9
:1033B0008091D102823029F40E94B519882309F442
:1033C00047C00E948A188091D102882359F481E075
:1033D0008093D10288819981807E9093AA02809304
:1033E000A90234C08091CE02882391F5E881F98149
:1033F0009F01207E8091A9029091AA022817390787
:1034000009F5E21BF30BE555FD4F8281F80180833E
:10341000FF2001F18881998101969C013F773983D2
:1034200028839C01207E3F778091A9029091AA0277
:103430002817390779F03093AA022093A9020E9435
:10344000EB1808C03093AA022093A9020E94EB183F
:1034500080E001C081E0DF91CF911F910F91FF903B
:103460000895EF92FF920F931F93DF93CF9300D0B5
:103470000F92CDB7DEB79B838A8382E0E82EF12CD2
:10348000EC0EFD1E8E010F5F1F4F02C00E946718D9
:10349000C701B80140E00E94D0198823B9F389819F
:1034A0000F900F900F90CF91DF911F910F91FF9090
:1034B000EF90089510929D0210929C021092990232
:1034C000109298021092D0021092CF021092D30262
:1034D0001092D20202C00E94671882ED92E06EEE56
:1034E00040E00E9465198823B1F302C00E9467186A
:1034F0000E94B5198823D1F38EEF9FEF9093D302EA
:103500008093D20290939B0280939A0290939F02A1
:1035100080939E0208951F93CF93DF93309B08C042
:10352000C0919C02D0919D028EEECE3ED80719F438
:103530000E945A1A3FC010E00E946718CE010E94F4
:10354000311A8A3A41F4112399F4D0939902C09325
:10355000980211E00DC08E3E59F4D093D002C09372
:10356000CF02112389F4D0939902C09398020CC022
:103570002196DF7780919C0290919D02C817D90710
:10358000D9F602C00E9467180E94B5198823D1F3AA
:10359000112311F40E945A1A8EEF9FEF90939B0211
:1035A00080939A029093D3028093D20290939F02C9
:1035B00080939E02DF91CF911F910895682F809193
:1035C000D2029091D3028E5F9F4F31F06F7782EDE0
:1035D00092E041E00E9465190895FF920F931F93B6
:1035E000082F6AE00E94A31FF82E8091D2029091CA
:1035F000D3028E5F9F4F21F41FC00E94671802C044
:103600001F2D105D82ED92E0612F41E00E9465194F
:10361000882399F3005D86EF9FEFF89E102D11240B
:10362000100F02C00E94671882ED92E0612F41E006
:103630000E9465198823B1F31F910F91FF9008959F
:10364000DF92EF92FF920F931F93E82EF62E142F26
:10365000D22E8091CF029091D00201969F779093C5
:10366000D3028093D20282ED92E06AEA41E00E94A6
:103670006519882311F1812F0E94ED1A8EE20E94B4
:10368000DE1A8F2D0E94ED1A8EE20E94DE1A8E2D18
:103690000E94ED1A80E20E94DE1A8D2D0E94ED1A22
:1036A0008AE30E94DE1A802F0E94ED1A8DE00E94AC
:1036B000DE1A8AE00E94DE1A81E01F910F91FF90CE
:1036C000EF90DF90089502C00E94671882ED92E0AB
:1036D0006EEE40E00E9465198823B1F302C00E949B
:1036E00067180E94B5198823D1F302C00E94671899
:1036F0008FEC92E06DED40E00E9465198823B1F3F4
:103700008091D2029091D3029093D0028093CF0205
:103710008EEF9FEF9093D3028093D20208950E9480
:103720006C188EEF9FEF9093D3028093D20208958E
:1037300002C00E9467180E94B5198823D1F38091B6
:1037400098029091990290939B0280939A028EEF37
:103750009FEF90939F0280939E02089580919A021A
:1037600090919B028E5F9F4F61F180919A029091A0
:103770009B020E94311A8A3A51F480919A029091E8
:103780009B0290939F0280939E0281E00895209176
:103790009A0230919B028E3E61F43093D0022093C6
:1037A000CF028EEF9FEF90939B0280939A0280E06E
:1037B00008952F5F3F4F3F7730939B0220939A02EB
:1037C000D4CF80E0089580919A0290919B028E5F01
:1037D0009F4F01F180919A0290919B020E94311AB1
:1037E0008D3DC1F020919A0230919B028E3E31F4C2
:1037F0003093D0022093CF0280E008952F5F3F4F97
:103800003F7730939B0220939A028A3A19F38C3CBB
:1038100009F3089580E0089502C00E9467180E948D
:10382000B5198823D1F38EEF9FEF90939B0280937D
:103830009A0290939F0280939E020895CF92DF9206
:10384000EF92FF920F931F93DF93CF9300D0CDB7EA
:10385000DEB720919E0230919F028FEF2E3F3807F6
:1038600009F456C08091980290919902281739075F
:1038700039F0EE24FF2401969F772817390719F4B1
:1038800091E0E92EF12C3A8329830E94AE1B882314
:1038900029F000919E0210919F0207C00091CF0273
:1038A0001091D00202C00E9467180E94B5198823A7
:1038B000D1F389819A810E94311A8A3A39F08BE0DA
:1038C0000E941A0303C00E94671804C06E01089486
:1038D000C11CD11CC6016CEC40E00E946519882314
:1038E00091F3EF28A9F01093990200939802209188
:1038F0009C0230919D02C9018C509E4F8017910708
:1039000018F00217130720F410939D0200939C02F5
:103910000F900F90CF91DF911F910F91FF90EF903B
:10392000DF90CF90089582E08093B00083E0809391
:10393000B1008FEB8093B300E0E7F0E0808182601C
:10394000808308951F920F920FB60F9211248F93C8
:103950009F938091D4029091D50201969093D502C5
:103960008093D4029F918F910F900FBE0F901F9064
:103970001895FC012FB7F8948091D4029091D5024C
:1039800091838083138212822FBF0895FC0180816E
:103990009181860F971F91838083828193818617FF
:1039A000970718F4138212820895861B970B93834E
:1039B00082830895FC018FB7F8944091D40250910E
:1039C000D50220813181421B530B8FBF82819381AD
:1039D0008417950710F4538342838281938108955D
:1039E00080915F02882329F482E391E00E94B91C50
:1039F000089582E391E00E94DA1C835A924098F085
:103A000080916402882379F080914502882321F017
:103A100080914502853039F489EA0E94381282E3A8
:103A200091E00E94B91C0895AF92BF92DF92EF928D
:103A3000FF920F931F93DF93CF9300D000D00F928C
:103A4000CDB7DEB77C018E010E5F1F4FC8010E940B
:103A5000B91C5E010894A11CB11CD02E012FC50118
:103A60000E944313882319F089818C3A49F08D2DE7
:103A7000902F0E94DA1CE816F90610F0A895EFCFF7
:103A80000F900F900F900F900F90CF91DF911F919B
:103A90000F91FF90EF90DF90BF90AF90089510923C
:103AA000D9021092DA021092D7021092D602109226
:103AB000D8021092DB020895FC016830F8F0808192
:103AC0008336E1F481818C36C9F482818B36B1F47E
:103AD00083818093D90284818093DA0285818093E7
:103AE000D70286818093D60287818093D80268307E
:103AF00019F080858093DB0281E0089580E00895CD
:103B00001092DE028FEF90E09093DD028093DC0252
:103B10001092DF0208959091DE02882311F0109236
:103B2000DE02892F08958091DC029091DD020895D4
:103B30008091DE028823D9F185E895E00E946A151C
:103B40008091DE02823069F0833018F48130A1F474
:103B500005C0833059F0843079F40BC082E795E0DA
:103B600002C08FE595E00E946A150FC08BE495E0D6
:103B7000FACF8DE395E0F7CF81E395E00E946A15D7
:103B80008091DE0260E00E94381587E295E00E9495
:103B90006A158091DD020E9451158091DC020E941D
:103BA00051158FE195E00E946A151092DE0208958A
:103BB000FF920F931F93082FF92E162F0E94AF1F0D
:103BC0001817B1F0802F9F2D612F0E94B71F802FF3
:103BD0009F2D0E94AF1F181759F08091DE0284308C
:103BE00038F484E08093DE020093DC02F092DD0280
:103BF0001F910F91FF900895FF920F931F938C01D7
:103C0000F62E0E94D81DC80180569F4F6F2D0E942E
:103C1000D81DC801805C9E4F6F2D0E94D81D1F913A
:103C20000F91FF900895CF92DF92EF92FF921F9332
:103C3000CF93DF937C016B0110E0C42FD0E021977C
:103C400005C08E0D9F1D0E94FC1D1F5F812F90E0FF
:103C50008C179D0734F4F601E80FF91F6081662385
:103C600081F7C701810F911D60E00E94FC1DDF916B
:103C7000CF911F91FF90EF90DF90CF9008950E9419
:103C8000FC1D0895FF920F931F938C01F62E672F52
:103C900001960E94FC1DC8016F2D0E94FC1D1F9102
:103CA0000F91FF900895BF92CF92DF92EF92FF9213
:103CB0000F931F93CF93DF93EC01B62E0E94AF1F9B
:103CC000182F90EAC92ED12CCC0EDD1EC6010E9401
:103CD000AF1F082F80E4E82E81E0F82EEC0EFD1EC9
:103CE000C7010E94AF1F101719F4181709F446C036
:103CF0000F3F11F48F3FD9F0101761F48091DE026D
:103D00008230A8F482E08093DE02F092DD02E0923D
:103D1000DC020DC0181781F48091DE02823038F485
:103D200082E08093DE02D092DD02C092DC02CE01FE
:103D3000612F0E94FC1D22C09091DE02081789F4B9
:103D4000923048F482E08093DE0280EA90E0909323
:103D5000DD028093DC02CE01602F0E94FC1D102F3B
:103D60000DC0933038F483E08093DE02D093DD02FF
:103D7000C093DC0281E08093DF021B2D812FDF9155
:103D8000CF911F910F91FF90EF90DF90CF90BF9058
:103D900008955F926F927F928F929F92AF92BF929F
:103DA000CF92DF92EF92FF920F931F93CF93DF9307
:103DB0003C01EB01D42E49011092DF025B017B0133
:103DC00000E010E0552453941DC0F401E00FF11FF2
:103DD000E491C801860D971D6E2F0E94531ED701D6
:103DE0008C938F3710F05092DF02F7018081882387
:103DF00061F00F5F1F4F0894E11CF11C8091DF02FE
:103E0000882319F4C02E0D1500F38091DF0288235A
:103E100071F080E090E008C0F401E80FF91FE49130
:103E2000D501ED935D0101968D15B0F302C0CD145F
:103E300020F0CD0DD11D21971882DF91CF911F91D8
:103E40000F91FF90EF90DF90CF90BF90AF909F9039
:103E50008F907F906F905F900895AF92BF92CF92B6
:103E6000DF92FF920F931F93CF93DF93EC01162FF6
:103E7000072F6A0159011092DF020196672F0E94F5
:103E8000531EF82ECE01612F0E94531E282F8091C1
:103E9000DF028823D9F49F2D80E030E0282B392BD6
:103EA0002C153D0518F0A216B30698F48091DE0299
:103EB000882339F481E08093DE02D093DD02C09341
:103EC000DC02CE01612F702F0E94421E812F902FA5
:103ED0009C01C901DF91CF911F910F91FF90DF905D
:103EE000CF90BF90AF900895FF920F931F93CF9301
:103EF000DF93EC01062F142FF22E0E94531E811720
:103F000010F0F81680F48091DE02882339F481E005
:103F10008093DE02D093DD02C093DC02CE01602FDD
:103F20000E94FC1D802FDF91CF911F910F91FF9078
:103F3000089540E021E00E94741F90E0813009F470
:103F400091E0892F0895991B79E004C0991F961775
:103F500008F0961B881F7A95C9F780950895F999FE
:103F6000FECF92BD81BDF89A992780B50895262F7E
:103F7000F999FECF1FBA92BD81BD20BD0FB6F8944E
:0E3F8000FA9AF99A0FBE01960895F894FFCFB1
:023F8E00010030
:00000001FF
