:100000000C94E3030C9400040C9400040C9400047E
:100010000C9400040C9400040C9400040C94080F3D
:100020000C9400040C9400040C9400040C94AB0792
:100030000C9400040C9400040C9400040C94000430
:100040000C949E180C9400040C9400040C9400046E
:100050000C9400040C9400040C9400040C94000410
:100060000C94EE0F0C94000436154F1556156C15B4
:100070008815C315CA152D15591759176E16591716
:10008000AB1659174F1759170D0A6C6F630D0A00FD
:100090000D0A202B2B2B200D0A0A0A0A0029206E9C
:1000A00065753A2020202020000D0A2066756E6BB1
:1000B00074696F6E20746173746520616D206D6F5B
:1000C00064756C2028616B742E200029206E657584
:1000D0003A2020202020000D0A207665727A6F6574
:1000E000676572756E6720727565636B6D656C64AC
:1000F000756E672066732D616E6C61756620696E22
:10010000202F31302073656B756E64656E0D0A208B
:1001100028332D3230302C20616B742E20002920A2
:100120006E65753A2020202020000D0A206D617830
:10013000696D616C6520686F63686C6175662D7AA6
:1001400065697420696E2073656B756E64656E20D9
:1001500028332D32352C20616B742E20002B290D75
:100160000A2020000D0A207761686C7A696666654E
:10017000726E2065696E676562656E2C20656E64BF
:1001800065206D6974202B2028616B742E3A200045
:100190000D0A206175746F6D617469736368652001
:1001A000766F727761686C20616B746976696572CD
:1001B000656E3F20616B7475656C6C3A2020200081
:1001C00029206E65753A202020000D0A2065696E91
:1001D000736368616C7473636877656C6C65202801
:1001E0006E6F726D616C20302C20616B742E20005C
:1001F00029206E6575202830203D20617573293ACD
:10020000202020202000617573000D0A206C6F6B88
:10021000616C6265747269656220776165686C659E
:100220006E206D69743A2028616B742E200029209D
:100230006E6575202830203D20617573293A202095
:1002400020202000617573000D0A206B6F6D6D65B5
:100250006E646520616E727566652073706572727A
:10026000656E206D69743A2028616B742E20000D34
:100270000A20737461727420636F6465206675650B
:1002800072207761686C617566666F7264657275FD
:100290006E67202830203D206B65696E2C2031353B
:1002A000203D2076293A20616B742E20002F3130BA
:1002B000302073656B2C20000D0A206C61656E6721
:1002C00065207761686C617566662D696D702E3A80
:1002D00020616B742E20000D0A20776165686C73B5
:1002E00063686569626520766F7268616E64656EC9
:1002F0003F20616B7475656C6C3A20000D0A202BF1
:100300002B2B200D0A0A0A0A000D0A2065696E6669
:1003100061636865206B6F6E666967757261746989
:100320006F6E3F20202020000D0A206B6F6E6669E3
:100330006775726174696F6E20656431303030208A
:1003400076657273696F6E20353636206461747518
:100350006D204175672020312032303232000D0A85
:10036000766F67656C2071756178207A7769636B49
:1003700074206A6F686E797320706665726420629B
:10038000696D0D0A73796C766961207761677420F5
:10039000717569636B2064656E206A75782062658B
:1003A000692070666F727A6865696D0D0A70726196
:1003B0006C6C20766F6D20776869736B7920666C42
:1003C0006F6720717561782064656E206A6574209E
:1003D0007A752062727563680D0A6A6564657220B9
:1003E0007761636B657265206261796572207665FD
:1003F0007274696C67742062657175656D207A77B7
:100400006F207066756E64206B616C6273686178D2
:10041000656E0D0A6672616E7A206A616774206982
:100420006D206B6F6D706C6574742076657277618A
:1004300068726C6F7374656E207461786920717571
:1004400065722064757263682062617965726E0DF1
:100450000A626569206A6564656D206B6C75676505
:100460006E20776F727420766F6E20736F6B72617F
:1004700074657320726965662078616E746869704E
:100480007065207A796E697363683A20717561745A
:100490007363680D0A313233343536373839302CCE
:1004A0002E3A2D2B3D2F28290D0A727972797279F7
:1004B00072797279727972797279727972797279E4
:1004C00072797279727972797279727972797279D4
:1004D00072797279727972797279727972797279C4
:1004E0007279727972797279720D0A723479367210
:1004F00034793672347936723479367234793672A8
:100500003479367234793672347936723479367297
:100510003479367234793672347936723479367287
:1005200034793672347936723479360D0A005F5F69
:100530005F69746C785F5632315F5F5F4175672029
:10054000203120323032325F5F5F31373A34343A13
:1005500034305F5F5F3536365F5F5F0020222325D2
:100560002628292A2C2D2F30313234353637383988
:100570003A3B3B3C3D3D3E3E3E3F3F3F3F3F3F3FA2
:100580003E3E3E3D3D3C3B3B3A39383736353432D2
:1005900031302F2D2C2A292826252322201E1D1BF1
:1005A0001A181716141311100F0E0C0B0A0908074E
:1005B0000605050403030202020101010101010114
:1005C0000202020303040505060708090A0B0C0EC4
:1005D0000F101113141617181A1B1D1E23350D3971
:1005E00020232C2E0A29342338303A3D332B173F51
:1005F0002736232F2D3207233731282323740D6FFD
:1006000020686E6D0A6C726769706376657A6462E1
:100610007379667861776A2375716B2320736368D9
:100620006F6E20766572676562656E206F646572B5
:1006300020756E6775656C7469672C20616E6465E2
:10064000726520776165686C656E21000D0A207700
:1006500065697465726C656974756E67656E206135
:100660006277656973656E3F20616B7475656C6C4C
:100670003A20000D0A2070727565666520000D0A2B
:100680002064757263687761686C20616B7475654E
:100690006C6C3A2000206E65753A202020202000E6
:1006A000206F6B2E20006E65696E006A61000D0A76
:1006B0002073706572727A65697420776F636865FC
:1006C0006E656E642D61626861656E6769673F2063
:1006D000616B7475656C6C3A20000D0A202E2E2E0D
:1006E000206269733A200020766F6E3A20000D0A6E
:1006F0002073706572727A65697420000D0A207A21
:10070000656974656E20766965727374656C6C6971
:1007100067206F686E652070756E6B7420756E64EF
:10072000206B6F6D6D612065696E676562656E0037
:100730000D0A207A65697473706572726520616B49
:10074000746976696572656E3F20616B7475656C5E
:100750006C3A2000202020200D0D0A0020616472D8
:100760006573736520006665686C6572636F6465A8
:100770002000736368726569626665686C65720003
:100780007363687765726572206C6573656665680A
:100790006C6572007761726E756E67206C6573654B
:1007A0006665686C657200696E666F20696E697453
:1007B00069616C697369657274000D0D0A20656565
:1007C00070726F6D200011241FBECFEFD4E0DEBF2A
:1007D000CDBF11E0A0E0B1E0EEEFF9E302C005907B
:1007E0000D92A230B107D9F722E0A2E0B1E001C03A
:1007F0001D92AD33B207E1F70E94A7080C94FD1CCF
:100800000C940000599A0895599808955A9A089599
:100810005A9808955B9A08955B9808951F93CF9313
:10082000DF9380918101882341F090918901992380
:1008300021F08AE08093240105C09CE0909324017C
:10084000882339F080918901811103C081E0809370
:10085000870140E058E16CE078E0E8E2F1E0909157
:10086000020180910301981709F4BCC0A92FB0E0E0
:10087000AC5FBE4F8C91809364019F5F9F7190939A
:100880000201082E000C990B20916301821B910933
:1008900027FD939530916001589FD001599FB00D6D
:1008A000112428E43202A00DB11D11242091580119
:1008B0002603E001D21B1124AC0FBD1F3B0F309368
:1008C000790120917701820F911D27FD9A95A5E06E
:1008D000880F991FAA95E1F7109180011703D001A5
:1008E000B11B11248A0F9B1F822F890F80935901FE
:1008F000865A853B20F43B3514F4363A1CF4E093D9
:10090000820107C080918201882319F08150809371
:10091000820180917801811107C081E0909182016C
:10092000911103C080E001C081E080FF02C0589AAD
:1009300001C0589880917F01809363018091640188
:1009400080937F018091600180935801909179019B
:10095000909360018091770180938001809159018B
:100960008093770197FF03C091959093790187FF5A
:1009700003C081958093590190917901809159012B
:1009800089171CF55E9A80915A01811115C08091DA
:100990008101811111C020917901022E000C330BCD
:1009A000A091590180917E0190E08A0F911DA7FDD1
:1009B0009A9528173907A4F080916101823310F4C9
:1009C0008F5F09C0F09362010BC05E988091610156
:1009D000882321F081508093610102C0109262014E
:1009E0004F5F3DCF9091620180915A01992341F070
:1009F00021E02093880110928701811118C00BC05B
:100A000090918701992321F091E09093880147C04C
:100A10001092880144C08091650190916601840F15
:100A2000911D853E34E0930738F020935A011092CF
:100A300066011092650104C0909366018093650180
:100A400080918101882349F080918901811103C03F
:100A50000E940A0402C00E940C0480915A0188235B
:100A600069F19091A4018091880194FF0CC08111DB
:100A700005C0DF91CF911F910C940204DF91CF91BB
:100A80001F910C940404811105C0DF91CF911F9137
:100A90000C940604DF91CF911F910C9408048823D5
:100AA00031F28091650190916601840F911D8D371F
:100AB00028E1920708F210925A01B9CFDF91CF9145
:100AC0001F910895EF92FF920F931F93CF93DF939F
:100AD000CDB7DEB728970FB6F894DEBF0FBECDBFF7
:100AE000182FCE0105960E941F0FCE0101960E947D
:100AF0001F0F429A8AE791E00E941F0F80918101A7
:100B0000811110E001E088EEE82E83E0F82E0093DA
:100B10008101009389010E940E0480915A01811184
:100B200004C0CE0105960E941F0FCE0101960E94BF
:100B3000400F40915B014E9D90014F9D300D11245F
:100B40002817390768F41092810181E080938901A8
:100B50000E940E048AE791E00E941F0F80E01FC0F0
:100B6000CE0105960E94400F8C32914080F2111107
:100B700002C081E014C0CE0105960E941F0FCE0175
:100B800005960E94400F20915F0144E6249F90014A
:100B900011248217930768F70E940E04F0CF28965D
:100BA0000FB6F894DEBF0FBECDBFDF91CF911F917E
:100BB0000F91FF90EF9008951F93CF93DF9300D094
:100BC00000D0CDB7DEB780915A01882331F08091F3
:100BD0008101811102C00E946205CE0101960E942E
:100BE0001F0F11E010928101109389010E940E04E1
:100BF00080915A01882321F0CE0101960E941F0F97
:100C0000CE0101960E94400F843F914058F38AE73D
:100C100091E00E941F0F0F900F900F900F90DF91A7
:100C2000CF911F910895109229028093BA0181E01B
:100C30008093BC018091BC01882349F069E871E090
:100C4000809188010E94EF130E940E04F3CF089553
:100C5000CF93C1E0C093780180E00E948818C093D0
:100C6000890180918101811103C081E00E946205A8
:100C700088E890E00E94DB1880915A01882319F0DF
:100C80000E940E04F9CF0E94DC0581E00E948818C2
:100C900010927801CF910895CF92DF92EF92FF9258
:100CA0001F93CF93DF9300D000D0CDB7DEB7182FBE
:100CB000CE0101960E941F0F80E00E948818112328
:100CC00031F0133021F0123021F081E003C082E0D6
:100CD00001C084E090E024EF31E0829F7001839FA7
:100CE000F00C929FF00C11242CE231E0829F600105
:100CF000839FD00C929FD00C11240E94560F80919C
:100D00008D01882329F010928D010E94601A38C04D
:100D10000E940E0480915A01811132C0CE010196C9
:100D20000E94400FE816F90628F4CE0101960E94B1
:100D30001F0F0CC0CE0101960E94400FC816D906A5
:100D400018F40E940A0402C00E940C0480919201CF
:100D5000882399F26091920184E991E00E945219EE
:100D6000882349F0123049F40E94FD19811105C011
:100D70001092920105C01092920110929201BDCF83
:100D80000E940C0481E00E9488180F900F900F9031
:100D90000F90DF91CF911F91FF90EF90DF90CF9058
:100DA0000895CF93C82F81E0809378010E94451861
:100DB00080E00E948818CC2319F00E94DC0504C052
:100DC0008AE791E00E941F0F80915A01882319F051
:100DD0000E940E04F9CF1092780181E0CF910C941B
:100DE00088180F931F93CF93DF9300D000D0CDB717
:100DF000DEB7182FCE0101960E941F0F81E00E94DE
:100E0000421881E0809329028093F40100E00E945F
:100E10000E040E94560F80915A0181110BC00E944E
:100E200045180E94DC050E947A1881115DC00E945D
:100E30000E04F9CF0E947A18882331F00E94DC0555
:100E400080E00E94451850C00E943F18809389019D
:100E50008091BC01823060F4809188010E94421828
:100E600007C085EF91E00E9441198F3109F010E031
:100E700085EF91E00E941D19882399F3112331F128
:100E8000CE0101960E94400F002319F028E833E1BB
:100E900002C024EF31E082179307C0F06BE18FEBC3
:100EA00091E00E9424196BE18FEB91E00E942419DC
:100EB00062E18FEB91E00E942419CE0101960E941D
:100EC0001F0F0F5F11E0053008F010E0CE01019612
:100ED0000E94400F893E934008F499CF8091880189
:100EE000811195CF10E093CF0F900F900F900F903E
:100EF000DF91CF911F910F910895109225011092CB
:100F000024011092020110920301109280008AE0E5
:100F1000809381001092820082E990E09093890092
:100F200080938800EFE6F0E08081826080830895FE
:100F300080E680937C0086EC80937A0080917A0032
:100F400086FDFCCF80917A00806180937A0081E0F9
:100F500080937E0008951F920F920FB60F92112476
:100F60008F939F93EF93FF93E091030181E08E0FA6
:100F700080930301F0E0809179008058EC5FFE4F90
:100F80008083809103018F718093030190912401EC
:100F900080912501890F80932501809125018F770C
:100FA00080932501E0912501F0E0E45AFA4FE491A5
:100FB000E5B9EAE7F0E0808180648083FF91EF91FA
:100FC0009F918F910F900FBE0F901F901895CF9308
:100FD000DF9300D000D0CDB7DEB77C0180E88093EE
:100FE000BC001092810181E0809389010E940E046F
:100FF0004298CE0101960E941F0F00E010E06701A9
:1010000021E0C222DD24570182E0A822BB2447014F
:1010100024E08222992488E0E822FF24A895CE01CA
:1010200001960E94400F81399140F0F0CE01019667
:101030000E941F0F319906C0153010F001E0EECF6D
:101040001F5FECCF112351F3115041F7002331F30F
:10105000F8949EE088E10FB6F894A895809360001C
:101060000FBE90936000FFCF011123C0CE01019607
:101070000E94400F893C9105E0F0C114D10411F0A9
:10108000589A01C05898A114B10419F00E940204A2
:1010900002C00E9404048114910419F00E94060405
:1010A00002C00E940804E114F10441F00E940A0405
:1010B000B5CF58980E9404040E9408040E940C04B2
:1010C000ADCF1092F4010E94560F0E940E0469E801
:1010D00071E0809188010E94EF138091BB018830FC
:1010E00029F080915A0181110CC008958091B901B5
:1010F00063EF71E00E9479121092BB01882389F39B
:10110000089580918D018823F1F210928D0180E085
:101110000895CF93DF9300D0CDB7DEB79E012F5F48
:101120003F4FAE014E5F5F4F63EF71E00E94AD1223
:10113000882341F08A810E94130689818F3F11F034
:101140000E9413060F900F90DF91CF910895CF93D7
:10115000DF93CDB7DEB729970FB6F894DEBF0FBE89
:10116000CDBF9FE088E10FB6F894A895809360000A
:101170000FBE90936000509A519A529A539A209AB7
:10118000219A229A239A249A259A38984098399835
:10119000419A3A9A3B98439A569A11E010937801F3
:1011A0000E9498070E947D1B0E94F90E10928001F8
:1011B000109277011092590110925801109260011B
:1011C000109279011092630110927F0110926401D4
:1011D000109262011092810110925A0110938901BC
:1011E000109388010E947D070E94E819EEE2F5E065
:1011F000E4912CED42E06EE380E090E00E94161C4A
:101200008E7F8093AB011093A8011093910161E050
:1012100085E290E00E94341C80938A0124E641E03C
:1012200063E086E290E00E94161C809376012FE135
:1012300040E060E087E290E00E94161C80935E012F
:1012400060E087E190E00E94341C8093BD0123E6BA
:1012500040E060E081E090E00E94161C80935C0119
:1012600022E040E060E086E190E00E94161C80935E
:101270005D0182E090E00E94641A23E640E068E5A8
:1012800088E190E00E94161C8093710128EC42E0F6
:1012900065E084E290E00E94161C80935F0128ECD8
:1012A00040E060E088E290E00E94161C80937E019E
:1012B000B7E6EB2EB1E0FB2E09E110E06FEFC801BD
:1012C0000E94BB1BF70181937F010F5F1F4F033209
:1012D0001105A1F729E143E067E083E290E00E9475
:1012E000161C80935B011092810181E0809389013B
:1012F00010925A01809388010E94AD17CE01059685
:101300000E941F0F78940E940E04CE0105960E9441
:10131000400F8A3F9105C8F316B112705898109289
:1013200078010E9402040E94EF11CE0105960E94EE
:10133000400F843F9140C8F30E9404040E940604B9
:10134000CE0105960E94400F8E3E9240C8F30E9447
:1013500008040E940A0480E98093BC00CE0105962F
:101360000E94400F883F9240C8F385EC8093BC00F8
:10137000CE0105960E94400F4091AB01242F30E032
:1013800028513C4F8217930798F311114BC01092CC
:10139000810110925A011092890110928801CE01A8
:1013A00005960E941F0F11E001E0319903C01092D1
:1013B000890106C000938901CE0105960E941F0F86
:1013C0000E940E04809181018093780180915A01DE
:1013D000882319F00E94020402C00E940404809134
:1013E0008901882319F00E94060402C00E940804A3
:1013F00080918801882319F00E940A0402C00E948B
:101400000C04CE0105960E94400F893E934068F27D
:1014100080918101812780938101CE0105960E94F0
:101420001F0FC3CF842F0E94BC111092810181E055
:10143000809389018AE791E00E941F0F11E0A1E7E4
:10144000CA2EA1E0DA2E7FE1972EE8EC8E2EF9E18C
:101450007F2E03E0CE0105960E94400F813B944011
:1014600018F41092780114C0CE0105960E94400F26
:101470008937954048F481E09091AB019F3F09F096
:1014800080E08093780104C0CE0105960E941F0F72
:101490000E9404040E9408040E940C040E94560F3B
:1014A0000E940E0480918D01823009F038C21092A2
:1014B0008D010E94E41380E00E9488181093780147
:1014C00081E00E946205882309F4C6C18091F3017E
:1014D0008E7F8093F30188E293E00E94DB1889E01D
:1014E00093E00E94DB18CE0109960E942C138823FA
:1014F00009F4B2C180EA96E00E94DB180E945513FD
:10150000882309F4A9C189858823D9F010928A011A
:101510000093760110925E0110925C0188E5809341
:10152000710187E080935B0185E080935F010E94F9
:10153000E81910925D018FEF809367018CEF92E0C4
:1015400089C187ED92E00E94DB1880918A010E9498
:10155000101985E996E00E94DB188AE891E00E9464
:101560002C13882309F478C180EA96E00E94DB18E6
:1015700080918A01882371F188EB92E00E94DB1848
:1015800060E0809176010E94FD188DEA92E00E9451
:10159000DB1885E996E00E94DB1860E086E791E0C1
:1015A0000E94F71287FD58C180917601811102C017
:1015B0001093760180EA96E00E94DB1888E492E0BE
:1015C0000E94DB1880915C018823F9F062E00E94A0
:1015D000FD181FC08FE692E00E94DB1860E080914A
:1015E0005E010E94FD1885E996E00E94DB1860E02C
:1015F0008EE591E00E94F71287FD2EC180915E0179
:101600008032C0F290925E01D5CF84E492E00E94D5
:10161000DB188EE292E00E94DB1862E08CE591E03C
:101620000E94F71287FD18C180EA96E00E94DB183D
:101630008AE092E00E94DB1880917101882321F0FA
:1016400062E00E94FD1804C086E092E00E94DB1870
:1016500080EF91E00E94DB1862E081E791E00E9458
:10166000F71287FDF9C080EA96E00E94DB180E941D
:10167000D41A882309F4F0C08AEC91E00E94DB18A8
:1016800060E080917E010E94FD1880EC91E00E9454
:10169000DB1860E08EE791E00E94F71287FDDCC066
:1016A00080EA96E00E94DB1880E991E00E94DB1856
:1016B00081E0909167019A3008F080E089830E9470
:1016C000101985E996E00E94DB18CE0101960E9470
:1016D0002C13882309F4C0C080EA96E00E94DB182E
:1016E0008981882309F452C084E691E00E94DB18C6
:1016F00067E6E62E61E0F62EF70181917F018A30E0
:1017000050F08DE591E00E94DB1885E996E00E949B
:10171000DB18F12C14C060E00E94FD18CE14DF0429
:1017200059F7EFCF8B3239F18D33B1F092ED980F3D
:10173000923090F08823A9F0F9E0FF16E1F00E94C2
:10174000610890ED980F9A3068F7EF2DF0E0E959B5
:10175000FE4F9083F394F0CFF1100DC059E0F52EB9
:101760000AC0FF2009F478C0EF2DF0E0E959FE4FE0
:101770008FEF808371C0EF2DF0E0E959FE4F8FEFBE
:10178000808380EA96E00E94DB1803C08FEF80938D
:1017900067018AE291E00E94DB1860E080915B01C2
:1017A0000E94FD188EE191E00E94DB1860E08BE55D
:1017B00091E00E94F71287FD4FC080915B0183305A
:1017C00018F400935B0104C08A3110F070925B0141
:1017D00080EA96E00E94DB1887ED90E00E94DB181B
:1017E00060E080915F010E94FD188BEC90E00E9408
:1017F000DB1860E08FE591E00E94F71287FD2CC0B6
:1018000080915F01823020F482E080935F0104C008
:10181000893C10F080925F0180EA96E00E94DB181C
:1018200089EA90E00E94DB1860E080915D010E94EF
:10183000FD188DE990E00E94DB1860E08DE591E0F5
:101840000E94F71287FD08C080EA96E00E94DB182C
:1018500080E990E00E94DB180E94DC056091AB01FA
:1018600080E090E00E94A51B6091BD0187E190E0BF
:101870000E94A51B60918A0185E290E00E94871C6E
:101880006091760186E290E00E94A51B60915E0166
:1018900087E290E00E94A51B60915C0181E090E0EE
:1018A0000E94A51B6091710188E190E00E94A51B38
:1018B00060917E0188E290E00E94A51B60915D012D
:1018C00086E190E00E94A51B60915B0183E290E0BD
:1018D0000E94A51B60915F0184E290E00E94A51B1D
:1018E00037E6A32E31E0B32E49E1E42EF12CF501C9
:1018F00061915F01C7010E94A51BFFEFEF1AFF0A6C
:1019000023E2E216F10499F782E090E00E94A91A1E
:1019100081E00E9488181092780110928D018091C8
:101920008D01813009F057C010928D0180915D01C9
:10193000813041F08230B9F5429A8AE791E00E9405
:101940001F0F49C00E94E41380E00E94881881E0C4
:101950000E946205882309F43EC00E940A042EE515
:10196000E22E23E0F22EF7018491882369F0F7013B
:1019700084910E948908FFEFEF1AFF0A0E94560F18
:1019800080918D01882351F010928D010E94DC0519
:1019900081E00E9488180E940C041DC080915A01A9
:1019A0008111E1CFF1CF0E940A0480E00E948818E3
:1019B00080918D01811103C00E94560FF9CF1092C2
:1019C0008D0181E00E9488180E940C041092780119
:1019D00080E00E944C0680915A01882309F49BC143
:1019E0008091AB018F3F19F40E94DC0594C10E94E5
:1019F000601A0E9402040E94E417811103C00E9431
:101A0000040489C180918A01882309F49CC0CE0115
:101A100001960E941F0FCE0101960E94400F8C3B41
:101A2000924018F40E940E04F6CF10938101109397
:101A30008901CE0101960E941F0FCE0101960E94DE
:101A4000400F209176014AE0249F900111248217D3
:101A5000930718F40E940E04F0CF109281011093A6
:101A6000890197E6E92E91E0F92EF70181917F0136
:101A70008A3038F0CE0101960E941F0FE12CF12C24
:101A800006C00E942B18CE14DF0479F7F3CF0E9412
:101A90000E048091880181110FC0F3940E940E04FE
:101AA00080918801811104C080915A018111F6CF83
:101AB000CE0101960E941F0F80915A018823B1F137
:101AC0000E947A18811132C0FF2091F0CE01019658
:101AD0000E94400F893C910558F0F9E0FF1510F481
:101AE00080E001C08F2D0E942B18EE24E394F12C8E
:101AF0000E94D617811123C0CE0101960E94400F8B
:101B0000A0E0B0E0E11005C048E95AE360E070E011
:101B100004C048EC5FEA60E070E0481759076A07C4
:101B20007B070CF0B4CF8E2D0E94D10681E00E947D
:101B3000451880915C01882309F4C7C0B8C081E0D2
:101B40000E946205D7C0CE0101960E941F0FCE01F0
:101B500001960E94400F8436910518F40E940E04ED
:101B6000F6CF80E00E946205882301F30E94E4130F
:101B70008091F3018B7F82608093F30180915E01FD
:101B8000882391F0CE0101960E941F0FCE0101968D
:101B90000E94400F8C3B924018F40E940E04F6CF36
:101BA00080915E010E94130687E6E82E81E0F82E00
:101BB000F70181917F018A3040F0CE0101960E94A9
:101BC0001F0FE12CF12CB12C0FC00E942B18CE144A
:101BD000DF0471F7F2CF80915A01882309F4A6CF70
:101BE0000E947A188111A2CF0E940E0469E871E068
:101BF000809188010E94EF138091BB018830B9F574
:101C00008091B90163EF71E00E9479121092BB01DB
:101C100090ED980F9A3030F4892F0E942B18BB2436
:101C2000B39413C08C3629F4B1100CC00E9428065E
:101C30007DCF982F9F7D49F08B3239F08D3029F080
:101C40008A3019F0FFEFEF1AFF0ACE0101960E94C9
:101C50001F0F0DC0CE0101960E94400F883C9105D8
:101C600048F08FE30E94890821E0E21AF108E114AC
:101C7000F10481F70E94D61781113CC0CE01019674
:101C80000E94400FA0E0B0E0B11005C048E95AE35F
:101C900060E070E004C048EC5FEA60E070E0481784
:101CA00059076A077B070CF096CF8B2D3DCF0E941A
:101CB0003C1890915C01891308C00E9404040E94A2
:101CC000DC0583E00E944C0624C0809171018111E3
:101CD00008C00E943C189091AB019695891317C0DB
:101CE00006C00E943C18909171018913F2CF0E94A6
:101CF00028060FC00E940E18882331F080918A01B7
:101D000081270E94F10605C081E00E9445180E94CB
:101D1000DC050E94601A0E94D617882329F10E94D0
:101D20000E040E9406041093780181E00E9462056F
:101D300081110BC00E94080481E00E94451881E0D7
:101D40000E944C06109278010FC0109278010E94F8
:101D50000E18811106C081E00E9445180E94DC0522
:101D600003C080E00E94F10680E00E94891C882365
:101D7000D1F00E94E41380E00E948818109378014B
:101D800081E00E946205882371F08091F3018E7FCB
:101D90008093F3010E94901C0E94DC0581E00E9468
:101DA00088181092780180919201882389F06091BF
:101DB000920184E991E00E945219882339F00E942F
:101DC000FD19882319F082E00E944C0610929201BE
:101DD000339905C0429A8AE791E00E941F0F8AE773
:101DE00091E00E94400F81369A4E08F433CB42981E
:101DF0002ACB82E08093B00084E08093B10085EE2E
:101E00008093B300E0E7F0E08081826080830895F2
:101E10001F920F920FB60F9211248F939F93809170
:101E20008B0190918C01019690938C0180938B0192
:101E30009F918F910F900FBE0F901F9018952FB705
:101E4000F89440918B0150918C01FC0151834083A7
:101E5000138212822FBF0895FC0180819181860F29
:101E6000971F91838083828193818617970718F447
:101E7000138212820895861B970B938382830895A1
:101E8000FC012FB7F89480918B0190918C014081D7
:101E90005181841B950B2FBF22813381281739076D
:101EA00010F49383828382819381089580912A0123
:101EB000813099F018F0823011F1089586E291E0B6
:101EC000319909C00E94400FC397E0F081E08093F0
:101ED0002A0186E291E00C941F0F31990BC086E233
:101EE00091E00E94400F8132934060F082E0809345
:101EF0002A0102C010922A0180938D010895319920
:101F000010922A0108958A3989F028F4833941F022
:101F1000863931F011C08C3949F0893AC9F10CC0C9
:101F200081E08093A7011092AE01089581E0809333
:101F3000A7018093AE010895E0912E0191E09E0FDC
:101F400090932E01F0E0E15DFE4F808380912E01A1
:101F5000843148F080912D01811102C083E10CC0D1
:101F600010922E010BC090912E0180912D0198139B
:101F700005C080912E01815080932E018091A40193
:101F800080648093A4018091A4018F778093A40141
:101F900008955FB7F8944091A40121E030E0B901C1
:101FA00002C0660F771F8A95E2F7CB0180958423E4
:101FB0008093A4015FBF08954FB7F8945091A40196
:101FC00021E030E0B90102C0660F771F8A95E2F781
:101FD000CB01852B8093A4014FBF08951F920F92D0
:101FE0000FB60F9211242F933F934F935F936F93EC
:101FF0007F938F939F93AF93BF93EF93FF938091C2
:102000008E0190918F01019690938F0180938E01A4
:102010008091B900887F803609F4CBC0B0F5883252
:1020200009F48EC090F4803109F476C038F4882326
:1020300009F4AAC0883009F45AC037C1883109F4BC
:102040006FC0803209F473C030C1803409F42BC1F1
:1020500060F4803309F474C0883309F026C180919C
:10206000AC018F5F8093AC01DAC0803509F47FC08A
:10207000883509F47CC0883409F017C185E0809365
:10208000900181E08093AD0180C0883909F4EAC0F5
:10209000C8F4883709F4C5C038F4883609F484C018
:1020A000803709F4C3C001C1883809F495C080396C
:1020B00009F4C7C0803809F0F8C08091BB000E94C5
:1020C000830FF1C0803B09F4E2C038F4803A09F490
:1020D00088C0883A09F4E0C0E8C0803C09F4DFC059
:1020E000883C09F4DCC0883B09F0DFC0D5C0809192
:1020F0009001843029F41092BB0010922B0109C08A
:1021000080919001813041F08091AA01816080939B
:10211000BB001092AF01C9C08091AA018E7FF7CF9A
:10212000809190018430B1F0809193011DC085E0D1
:102130008093900180919001843021F181E031C041
:10214000809190018430D9F490912B01809192017B
:102150009817A8F4E0912B0181E08E0F80932B015A
:10216000F0E0EC56FE4F80818093BB009EC08091D2
:10217000BB0080932C0180919001823051F085E06A
:10218000809390011092AD0181E08093AF0185E5CD
:102190008DC080912C0187FD42C085E08093900125
:1021A00083E08093AD01F0CF8091AC018F5F80938D
:1021B000AC01A8951092A6011092A5011092AF0152
:1021C00010922B018091BB009091A80191508695AF
:1021D00089238093A90167C08091BB000E94830F6F
:1021E0005EC081E08093AF0190912B0180919201BC
:1021F000891720F480912B018093920180919001A6
:10220000833069F080919001813049F08091900194
:10221000823029F080919001843009F046C085E633
:1022200045C08091AC018F5F8093AC011092A601F4
:102230001092A5011092AF0110922B011092920101
:1022400034C08091BB0090912B01903170F5E091EA
:102250002B0191E09E0F90932B01F0E0EC56FE4F86
:10226000808323C08091BB0090912B01903150F46A
:10227000E0912B0191E09E0F90932B01F0E0EC5642
:10228000FE4F808380912B018093920108C0809142
:10229000AC018F5F8093AC018091A40138CF81E0C5
:1022A0008093AF01ABCF85E001C085E48068809367
:1022B000BC00FF91EF91BF91AF919F918F917F9162
:1022C0006F915F914F913F912F910F900FBE0F90A3
:1022D0001F90189580919001882321F080919001A2
:1022E0008530C1F70895CF93C82F0E946A119FB718
:1022F000F894C0939301C7FF02C081E001C082E05F
:10230000809390018091AF01882349F08091BC00B7
:1023100084FDFCCF8091BC0080628093BC009FBF95
:10232000CF910895CF93DF93D82F0E946A11C09167
:10233000AA01D093AA0183E0809390018091AF011C
:10234000882349F08091BC0084FDFCCF8091BC00C3
:1023500080628093BC000E946A11C093AA018091A0
:10236000AD01811104C080912C0190E002C08FEF7B
:102370009FEFDF91CF910895CF939EEF980F9B3DF4
:10238000F0F480FD1CC0C82F0E94921197FF17C067
:102390009FB7F894C093BA0080919101882329F0E7
:1023A0008091BA0081608093BA008091BC00806403
:1023B0008093BC00C093AB019FBF81E00EC09FB76C
:1023C000F8941092BA008091BC008F7B8093BC007F
:1023D0008FEF8093AB019FBF80E0CF91089581E0A4
:1023E0008093AF01109290011092AD011092AC0158
:1023F00010922D0110922E0110928F0110928E01D9
:102400001092A6011092A501109293018093B90039
:102410008BE38093B8008091AB018E7F8093BA00EC
:102420001092920110922B0180919101882329F042
:102430008091BA0081608093BA0084E88093BC00E8
:102440008091A8018150880F8093BD00089561306C
:1024500031F48A3080F4882351F08C5906C0623000
:1024600051F4882331F0843630F4880F08958CEDD0
:10247000089588EC08958FEF0895FB019EEF980F63
:102480009B3D10F010820DC08695853630F091E0AE
:1024900090838E3631F08456089592E0908384368E
:1024A00009F480E0089530912D0120912E0132171A
:1024B000E1F0E0912D0121E02E0F20932D01F0E0BD
:1024C000E15DFE4F2081FC01208380912D0184314C
:1024D00010F010922D0190912D0180912E019813F2
:1024E00006C086E00E94C90F02C080E0089581E026
:1024F0000895FB018B3119F482E0808303C08F3192
:1025000019F4108280E008959081292F2E7F208376
:102510009670E82FF0E0923019F4E452FA4F02C0BE
:10252000E450FA4F849108956670623019F0ECEF30
:10253000F5E002C0ECEDF5E09FEB980F9A3108F45E
:10254000805E90E02491821731F031969F5F903247
:10255000C9F78FEF0895892F0895CF92DF92EF92F8
:10256000FF920F931F93CF93C82F7B016A018901BC
:102570008FEFF9018083CF3039F48BE1F60180834E
:1025800083E0F70180832AC0CE3039F48FE1F60171
:10259000808381E0F701808322C0FB01608160FDC0
:1025A00009C060E08C2F0E949412F80180838F3F55
:1025B00069F70AC0C731A9F38C2F0E949412F60163
:1025C00080838F3F59F4EDCF62E08C2F0E949412EC
:1025D000F80180838F3F89F680E001C081E0CF91D0
:1025E0001F910F91FF90EF90DF90CF9008950F9380
:1025F0001F93CF93DF938C01D62FC0E00E94610818
:1026000090ED980F9A3090F4F801CC2351F090811E
:10261000990F292F220F220F920F9053890F808339
:1026200001C09083CF5FCD13E9CF0EC093ED980F1B
:10263000933050F08B3241F08D3331F0882331F0FC
:102640008930E1F2CC23D1F28C2F01C08FEFDF91E2
:10265000CF911F910F910895CF93DF93EC010E94CA
:1026600061088033D9F040F48D32C1F0D0F4882372
:1026700081F08B32A1F70FC08A3669F028F48133DC
:1026800051F08D3371F0EBCF8E3641F0893719F070
:10269000E6CF80E007C081E0888301C0188282E035
:1026A00001C081E0DF91CF9108951F93CF93DF9315
:1026B00000D0CDB7DEB7BE016E5F7F4F8091AB011A
:1026C0000E943D1289838EE796E00E94DB186A81A2
:1026D00089810E94FD1885E996E00E94DB1862E07E
:1026E000CE0101960E94F71287FD46C0811109C0F4
:1026F000BE016E5F7F4F8091AB010E943D128983C6
:1027000001C08A838091A801819599818923898359
:1027100083E796E00E94DB186A8189810E94FD1898
:1027200080E20E9489086A8189810E9427120E94A2
:10273000BC11182F8823D9F080EA96E00E94DB189C
:102740008CE496E00E94DB188091BD010E94101974
:1027500085E996E00E94DB188DEB91E00E942C1336
:10276000882351F080EA96E00E94DB1806C08CE1D5
:1027700096E00E94DB189FCF10E0812F0F900F9002
:10278000DF91CF911F910895882369F080914301D3
:10279000909144018F3F9105B4F480914301909151
:1027A000440101960CC08091430190914401181698
:1027B00019064CF480914301909144010197909344
:1027C00044018093430108951092BB011092BC0113
:1027D00080E890E0909344018093430108950F9323
:1027E0001F93CF93C82F8B018091BC01883028F4B0
:1027F000823088F5813029F05BC0883009F449C007
:1028000057C08091BB01882329F08091BB0188309B
:1028100009F04EC080EB91E00E94400FCC9708F485
:1028200047C0F801108285EB91E00E941F0F82E003
:102830008093BC018091BA018F718093BA0180911D
:10284000BA01880F880F8093BA018091BA01836022
:102850008093BA012DC08091BA01881F8827881FF4
:10286000FB01808385EB91E00E94400F449700F1CB
:1028700064E170E085EB91E00E942C0F8091BA0139
:10288000880F8093BA018091BC018F5F8093BC0157
:102890000FC081E0FB01808385EB91E00E94400F37
:1028A0004E9730F085EB91E00E941F0F1092BC0113
:1028B0008091BB01873040F4823008F053C08823F8
:1028C00081F0813011F1ACC0873009F483C08830C9
:1028D00009F0A6C080EB91E00E94400F039708F436
:1028E0009FC0C1119DC080EB91E00E941F0F81E04D
:1028F0008093BB011092B90180E890E0909344016D
:10290000809343011092B4018BC08C2F0E94C4139A
:1029100080914301909144018739910504F580EB42
:1029200091E00E94400F0A9708F47AC08091430119
:10293000909144018038910594F482E08093BB012A
:1029400080E890E090934401809343016AE070E056
:1029500080EB91E0CF911F910F910C942C0F10926E
:10296000BB015EC080EB91E00E94400F439708F4EA
:1029700057C08091BB018C2F0E94C41380EB91E063
:102980000E94400F469708F44BC08091BB01809194
:10299000B901880F8093B90180914301909144015E
:1029A000803891052CF08091B90181608093B90144
:1029B0008091BB018F5F8093BB0164E170E080EB8D
:1029C00091E00E942C0F80E890E090934401809366
:1029D000430126C080EB91E00E94400F439700F135
:1029E0008C2F0E94C41380EB91E00E94400F469709
:1029F000B8F0CC23A9F0209143013091440181E04B
:102A0000203831050CF080E08093B40188E0809399
:102A1000BB0180EB91E0CF911F910F910C941F0FA0
:102A2000CF911F910F9108951F93CF93DF939091B2
:102A3000BE01981709F4B9C0C82F1FB7F8941092B7
:102A40004D0190E08830910508F0ACC0FC01EC5CD1
:102A5000FF4F8091A4010C94E11C8F778093A40117
:102A60008091A4018F7E8093A40116C0807480930E
:102A7000A4018091A40180688093A4018091BD018C
:102A8000882329F08091A40180618093A40181E0D2
:102A900080935201809351011092AA0183C08F77D5
:102AA0008093A4018091A4018F7E7AC08F77809358
:102AB000A4018091A4018F7E8093A40110924F0104
:102AC00010924E0181E080934D018FEB91E00E94C6
:102AD00019191092F30166C08F778093A401809139
:102AE000A4018F7E8093A4018091BE01813029F4DE
:102AF0008091A40180618093A4018091A4018860E9
:102B00008093A40181E08093AE01809351014AC07B
:102B100087FF0FC08091A4018F778093A4018091DB
:102B2000A4018F7E8093A4018091A4018061809391
:102B3000A4018091A40180628093A4018091A401EA
:102B400082608093A4018091A40184608093A40199
:102B50008091A40181608093A401D1E0D093000111
:102B60008FEB91E00E94191985EF91E00E941919ED
:102B70001092F3010E94E413D093AE01D09352015E
:102B8000D09351010FC08F7D8093A4018091A40147
:102B9000877F06C08F7D8093A4018091A4018D7FE3
:102BA0008093A401C093BE011FBFDF91CF911F91FD
:102BB00008950E946A1160914F0180914E010E9418
:102BC00027128093AA018091AB0186950E94731110
:102BD0000E946A1189E491E00E941F0F8091AD016B
:102BE00081110CC082E080934D0183EA0E94731131
:102BF0000E946A1189E491E00C941F0F8091AD014D
:102C00001092AD011092AA01833021F080914F0102
:102C1000823018F085E00C94141508951F93CF931B
:102C2000DF9300D0CDB7DEB7CE0102960E945312DB
:102C3000882309F446C08091BE01873021F481E0E9
:102C400090E00E94E7078A81853A01F128F48038F4
:102C500050F0833A89F035C08A3A31F18C3A51F11B
:102C6000863A79F519C09091BE0191112AC0880F5A
:102C70008093AA0181E023C08091BE01813021F0C0
:102C80008091BE018230E9F483E019C08091BE01D9
:102C90008230B9F484E013C08091BE01823089F49F
:102CA00083E080934D010DC08091BE01882349F0DF
:102CB00085E005C08091BE01863019F480E00E9455
:102CC0001415E091BE018E2F90E08830910508F038
:102CD000F0C0FC01E45CFF4F0C94E11C8FEB91E031
:102CE0000E941D198111E5C080914D01823009F4C7
:102CF000E0C08FEB91E00E944119182F80914F01A5
:102D00008F5F80934F0180914D018130B1F48091AC
:102D10004F01813019F410934E010DC080914F0185
:102D2000823059F480914E01912F2AE0829F900DBC
:102D3000112490934E010E94D91580914D0183304A
:102D400009F0B7C080EB810F0E94731189E491E014
:102D50000E941F0FAEC08091A701882359F0809177
:102D6000AE01882321F082E00E94DC0F03C082E0E4
:102D70000E94C90F8FEB91E00E941D1981110DC0B7
:102D80008091BC01811109C08FEB91E00E94411933
:102D90008093BA0181E08093BC018091F40181119C
:102DA00003C08091520104C0813031F48091AE01A2
:102DB000BE016F5F7F4F14C0823071F48091AE010D
:102DC000882319F08091520102C080E090E0BE019A
:102DD0006F5F7F4F817004C0BE016F5F7F4F81E0E6
:102DE0000E94EF138091BB01883041F46091B901DA
:102DF00085EF91E00E9424191092BB018091AE01F1
:102E000080935101109152018091BC018823A9F057
:102E10008091BC01813089F080912902811104C028
:102E200089818093510109C0813011F4198105C055
:102E3000823019F419811093510180E0112319F0A7
:102E40000E94DC0F02C00E94C90F8091AF0188234D
:102E500081F18091900181112CC08091000111239A
:102E600081F0823021F080910001833011F48CE9EF
:102E700005C08091000181111CC08AE90E94731174
:102E800018C0882321F080910001813011F483E97A
:102E9000F5CF80910001823061F486E9EFCF85E4BF
:102EA00091E00E94400F813A9F4018F080E00E941C
:102EB0001415809190018530F9F489E491E00E9425
:102EC0001F0F8091AD01811115C08091930186394A
:102ED00061F020F4833971F482E00AC08A3939F054
:102EE0008C3941F41092000105C083E001C081E0FB
:102EF00080930001109290018091AA018823D1F063
:102F00008091AF018823B1F080919001882321F056
:102F100080919001853071F489E491E00E94400F26
:102F20008231934038F089EA0E94731189E491E07C
:102F30000E941F0F8091AA01882341F08091BE0159
:102F4000863021F08091BE01853009F4A8950F905C
:102F50000F90DF91CF911F91089514BC82E085BD41
:102F600080916E00816080936E0080E88093A40160
:102F70008091BD01882329F08091A4018061809314
:102F8000A4010E94E41380E00E9414158FEB91E0ED
:102F90000E94191985EF91E00E94191910925001B1
:102FA00081E0809329028093F40108958091BE010D
:102FB000833039F09091BE0181E0943019F080E0C7
:102FC00001C081E0817008958091AB018F3F21F1B4
:102FD0008091BE01882321F088E090E00E94E707FD
:102FE00081E0809350019FB7F8948091A4018F777E
:102FF0008093A4018091A4018F7E8093A40180918D
:10300000A4018F7E8093A4019FBF82E00E941415CB
:103010001092500181E0089580E008958091BE01F2
:10302000833091F481E08093500185EA0E9473110E
:103030000E946A1189EA0E94731184E00E941415AB
:103040001092500181E008959091BE0181E094308A
:1030500009F080E008959091BE01923049F490917A
:103060004D01992329F0682F8FEB91E00C942419DE
:1030700089E090E00C94E70780914E0108958091DB
:1030800051010895809352010895CF939091BE010C
:10309000992371F19091AA01911104C080E0CF9120
:1030A0000C941415C82F81E0809350018091BE01CB
:1030B000853049F48CEA0E9473110E946A1180E005
:1030C0000E9414150AC08AEA0E94731186E00E94C9
:1030D000141585E491E00E941F0F10925001809119
:1030E000BE01863029F4CC2319F00E940E16F7CFCA
:1030F000CF9108958091BE01882339F09091BE014F
:1031000081E0953019F080E001C081E08170089580
:10311000CF93C82F8091BE01882341F08091BE01DA
:10312000873021F08AE090E00E94E707CC2311F07D
:1031300080E001C087E0CF910C9414151F920F928C
:103140000FB60F9211242F933F934F935F936F937A
:103150007F938F939F93AF93BF93CF93EF93FF93FF
:1031600080915001811115C0C1E0C0935001809140
:103170006E008E7F80936E0078940E940E1688E415
:1031800086BDC5BB80916E00816080936E001092F9
:103190005001FF91EF91CF91BF91AF919F918F918E
:1031A0007F916F915F914F913F912F910F900FBE43
:1031B0000F901F901895CF93DF93EC01FE0184913F
:1031C000882331F0FE0184910E9489082196F6CF70
:1031D000DF91CF9108958A3010F4805D01C0895A43
:1031E0000C948908CF93C82F82958F700E94EB189A
:1031F0008C2F8F70CF910C94EB18CF93C82F80E059
:10320000CA3018F08F5FCA50FBCF811102C0623004
:103210001CF061500E94FD188C2FCF910C94EB187C
:10322000811103C086EA96E002C08BEA96E00C9416
:10323000DB18FC0112AA13AA0895FC0123A992A984
:1032400081E0291380E00895FC0182A9813310F404
:103250008F5F01C080E093A9891789F09FB7F89428
:1032600082A9DF01A80FB11D6C9382A9813310F4EC
:103270008F5F01C080E082AB9FBF81E0089580E056
:103280000895FC012FB7F89483A9DF01A80FB11DA1
:103290008C9193A9913310F49F5F01C090E093ABA0
:1032A0002FBF0895FC016830F0F080818336D9F497
:1032B00081818C36C1F482818B36A9F4838180931D
:1032C0002D02848180932E02858180932B0286813A
:1032D00080932A02878180932C02683031F08085A8
:1032E00080932F0202C080E0089581E00895FA01E2
:1032F000208131814281538124173507E1F09CE31D
:10330000899FF001112470E06E0F7F1F241735078D
:1033100040F46217730760F081E06417750748F0A6
:1033200007C081E06417750720F06217730708F47F
:1033300080E08170089580E008950F931F93CF93EC
:10334000DF9300D0CDB7DEB78C01FC0120819181E5
:10335000822F6CE370E00E94CD1C862F6A83FCE311
:103360006F9F20191124298362E00E94FD1862E0FA
:1033700089810E94FD1885E996E00E94DB1862E0D1
:10338000CE0102960E94F7128823C1F062E0CE01BE
:1033900001960E94F71287FD13C02A81898190E06F
:1033A0003CE3239F800D911D1124813AE5E09E07A7
:1033B00014F080EA95E0F8019183808381E001C0F8
:1033C00080E00F900F90DF91CF911F910F910895A2
:1033D000E1E3F2E0118210821382128215821482DC
:1033E000178216821092300210925701E3E5F1E045
:1033F00011821082138212820895CF93DF938091FD
:103400005701D0912A02C0912C02882301F1109219
:1034100057016C2F70E02CE3D29F600D711D1124B9
:103420007093540160935301CB010A96813A25E0D1
:10343000920728F4909356018093550106C066596F
:103440007540709356016093550180E036C043E5A6
:1034500051E06C2F8D2F0E9477198111F6CF1092B9
:10346000540110925301109256011092550180910F
:103470003002811113C041E352E06C2F8D2F0E9466
:103480007719811107C045E352E06C2F8D2F0E9400
:10349000771902C081E090E081700FC080912F0207
:1034A000863018F045E352E002C041E352E06C2F51
:1034B0008D2FDF91CF910C947719DF91CF910895E3
:1034C00081E08093570108950F931F93CF93DF936B
:1034D000EC012FE935E040E050E060E070E00E9450
:1034E0004E1C01E312E0F801918380832FE935E05F
:1034F00040E050E060E070E0CE0102960E944E1C79
:10350000F801938382832FE935E040E050E060E0EA
:1035100070E0CE0104960E944E1CF80195838483CE
:103520002FE935E040E050E060E070E0CE01069623
:103530000E944E1CF8019783868360E0CE010896B6
:103540000E94341C80933002DF91CF911F910F9124
:1035500008950F931F93CF93DF93EC0101E312E0E3
:10356000F801608171810E943E1CF80162817381C3
:10357000CE0102960E943E1CF80164817581CE0145
:1035800004960E943E1CF80166817781CE01069662
:103590000E943E1C60913002CE010896DF91CF91CF
:1035A0001F910F910C94871CEF92FF920F931F9322
:1035B000CF93DF931F92CDB7DEB780E397E00E94F1
:1035C000DB182091310230913202809133029091C8
:1035D00034022817390771F481E040913502509187
:1035E000360220913702309138024217530719F4FE
:1035F00080E001C081E0817089830E94101985E913
:1036000096E00E94DB18CE0101960E942C138111D6
:1036100002C010E05EC08981811112C08091310228
:10362000909132029093340280933302809135025C
:1036300090913602909338028093370211E049C08E
:103640008CEF96E00E94DB1881E3E82E82E0F82EF2
:1036500001E68EEE96E00E94DB18802F0E9489081A
:1036600087EE96E00E94DB18C7010E949D1988230F
:1036700081F280EA96E00E94DB188AED96E00E94D3
:10368000DB18C70102960E949D19182F882309F2A2
:1036900080EA96E00E94DB180F5F84E0E80EF11CE0
:1036A0000336B9F68EEA96E00E94DB18809130026C
:1036B0000E94101985E996E00E94DB1880E392E0F1
:1036C0000E942C13882309F4A4CF80EA96E00E947C
:1036D000DB18812F0F90DF91CF911F910F91FF90F9
:1036E000EF90089590913B02981730F480933B023D
:1036F00070933A0260933902089510923B028FEF63
:1037000090E090933A028093390210923C0208951F
:103710001F93CF93DF93EC01162F0E94E71C8117B4
:1037200081F0612FCE010E94EF1CCE010E94E71CA8
:10373000181739F0BE0184E0DF91CF911F910C94EE
:10374000721BDF91CF911F9108951F93CF93DF9349
:10375000EC01162F0E94881B612FCE0180569F4FCF
:103760000E94881B612FCE01805C9E4FDF91CF911C
:103770001F910C94881BBF92CF92DF92EF92FF9221
:103780000F931F93CF93DF938C01B62E0E94E71CFB
:10379000C82F680180EAC80ED11CC6010E94E71C30
:1037A000D82F780180ECE81A8EEFF80AC7010E9442
:1037B000E71CCD1303C0C8130BC008C0DF3F79F46A
:1037C0008F3F69F46C2FC8010E94A51B8C2F24C069
:1037D000CF3FF9F0B70182E00E94721BF3CFC8130C
:1037E00002C0B601F8CFD8130BC060EA70E082E0E7
:1037F0000E94721B6D2FC8010E94A51B8D2F0CC04B
:10380000B80183E00E94721B81E080933C028B2D03
:1038100003C08F3FB9F2DECFDF91CF911F910F919F
:10382000FF90EF90DF90CF90BF900895FF920F939D
:103830001F93CF93DF938C01C62FF42ED22F0E94BB
:10384000BB1B8F1510F0D81748F4B80181E00E9417
:10385000721B6C2FC8010E94A51B8C2FDF91CF918A
:103860001F910F91FF90089521E040E00E94161CE7
:1038700091E0813009F090E0892F08951F93CF9354
:10388000DF93EC01162F672F01960E94A51B612F75
:10389000CE01DF91CF911F910C94A51BBF92CF92C7
:1038A000DF92EF92FF920F931F93CF93DF93EC0180
:1038B0006B017A01890110923C026D2D01960E94E4
:1038C000BB1BB82E6C2DCE010E94BB1B90913C02FD
:1038D000911112C090E09B298E159F0518F00817D2
:1038E000190748F4BE0181E00E94721BB601CE01A7
:1038F0000E943E1C01C06C01C601DF91CF911F9157
:103900000F91FF90EF90DF90CF90BF9008950C94AF
:10391000A51B90913B02811110923B02892F0895C3
:1039200080913B028823C1F18AEB97E00E94DB186B
:1039300080913B02823069F028F4813091F487EA6B
:1039400097E009C0833051F0843059F482E797E062
:1039500002C084E997E00E94DB180CC080E897E081
:10396000FACF86E697E00E94DB1860E080913B0288
:103970000E94FD188CE597E00E94DB1880913A02C6
:103980000E94F218809139020E94F21884E597E0B3
:103990000E94DB1810923B020895AA1BBB1B51E149
:1039A00007C0AA1FBB1FA617B70710F0A61BB70BAF
:1039B000881F991F5A95A9F780959095BC01CD0154
:1039C0000895EE0FFF1F0590F491E02D0994F999E9
:1039D000FECF92BD81BDF89A992780B50895262F14
:1039E000F999FECF1FBA92BD81BD20BD0FB6F894E4
:0E39F000FA9AF99A0FBE01960895F894FFCF47
:0239FE000100C6
:00000001FF
