:100000000C9473030C9490030C9490030C94900341
:100010000C9490030C9490030C9490030C94E917A7
:100020000C9490030C9490030C9490030C94900304
:100030000C9490030C9490030C9490030C949003F4
:100040000C9468110C9490030C9490030C949003FE
:100050000C9490030C9490030C9490030C949003D4
:100060000C94C7120C949003040E1D0E240E3A0E2D
:10007000520E8D0E940EFB0D23102310380F2310FB
:10008000750F231019102310202020200D0D0A00B9
:10009000206164647265737320006572726F7220F0
:1000A000636F646520006572726F72207772697485
:1000B000696E67006572726F722072656164696E45
:1000C00067007761726E696E672072656164206691
:1000D00061696C656400696E666F20696E69746938
:1000E000616C697A6564000D0D0A20656570726F38
:1000F0006D20000D0A6C6F630D0A000D0A202B2B7A
:100100002B200D0A0A0A0A0029206E65773A202062
:10011000202020000D0A206D6F64756C65206275CB
:1001200074746F6E2066756E6374696F6E202863D9
:1001300075722E200029206E65773A20202020201D
:10014000000D0A2064656C617920636F6E666972C8
:100150006D6174696F6E206F66207374617274755F
:100160007020696E202F3130207365636F6E647369
:100170000D0A2028332D3230302C206375722E204A
:100180000029206E65773A2020202020000D0A20CB
:1001900074696D656F757420666F7220696E636F28
:1001A0006D696E672063616C6C7320696E20736586
:1001B000636F6E64732028332D32352C2063757283
:1001C0002E20002B290D0A2020000D0A20656E74B8
:1001D0006572206469616C696E672064696769741F
:1001E000732C2066696E6973682077697468202BA8
:1001F00020286375722E3A20000D0A20616374690D
:1002000076617465206175746F6D617465642070CA
:100210007265666978206469616C696E673F206306
:10022000757272656E743A2020200029206E657701
:10023000202830203D206F6666293A20202020208B
:10024000006F6666000D0A206C6F63616C206F7032
:1002500065726174696F6E206279206E756D62657A
:10026000723A20286375722E200029206E6577204F
:100270002830203D206F6666293A2020202020006B
:100280006F6666000D0A20626C6F636B20696E6397
:100290006F6D696E672063616C6C732062793A20C0
:1002A000286375722E20000D0A202B2B2B200D0A9F
:1002B0000A0A0A002F313030207365632C20000DAC
:1002C0000A206475726174696F6E206469616C20C4
:1002D00070726F636565642070756C73653A206336
:1002E00075722E20000D0A2068617320726F746190
:1002F0007279206469616C3F2063757272656E74F7
:100300003A20000D0A2073696D706C6520636F6E72
:1003100066696775726174696F6E3F2020202000E6
:100320000D0A20636F6E66696775726174696F6E1E
:100330002074773339706C75732076657273696FCA
:100340006E20343833206461746520466562203243
:10035000372032303231000D0A766F67656C2071BC
:10036000756178207A7769636B74206A6F686E793B
:10037000732070666572642062696D0D0A73796C12
:10038000766961207761677420717569636B206499
:10039000656E206A7578206265692070666F727A72
:1003A0006865696D0D0A7072616C6C20766F6D20E6
:1003B000776869736B7920666C6F672071756178F7
:1003C0002064656E206A6574207A75206272756398
:1003D000680D0A6A65646572207761636B65726592
:1003E0002062617965722076657274696C67742029
:1003F00062657175656D207A776F207066756E64C1
:10040000206B616C6273686178656E0D0A6672615B
:100410006E7A206A61677420696D206B6F6D706CF5
:1004200065747420766572776168726C6F73746539
:100430006E207461786920717565722064757263CD
:10044000682062617965726E0D0A626569206A656D
:1004500064656D206B6C7567656E20776F727420B4
:10046000766F6E20736F6B7261746573207269654D
:10047000662078616E746869707065207A796E693B
:100480007363683A20717561747363680D0A313261
:1004900033343536373839302C2E3A2D2B3D2F2832
:1004A000290D0A7279727972797279727972797218
:1004B00079727972797279727972797279727972E4
:1004C00079727972797279727972797279727972D4
:1004D00079727972797279727972797279727972C4
:1004E00079720D0A7234793672347936723479360B
:1004F00072347936723479367234793672347936A8
:100500007234793672347936723479367234793697
:100510007234793672347936723479367234793687
:10052000723479360D0A005F5F5F69746C785F54CE
:10053000573339706C75732D454E5F5F5F4665624A
:1005400020323720323032315F5F5F31343A303021
:100550003A31365F5F5F3438335F5F5F0023350DBC
:100560003920232C2E0A29342338303A3D332B17D7
:100570003F2736232F2D3207233731282323740DAD
:100580006F20686E6D0A6C726769706376657A6455
:10059000627379667861776A2375716B2320616C69
:1005A00072656164792075736564206F7220696E6D
:1005B00076616C69642C2063686F6F736520646971
:1005C00066666572656E742E000D0A206465636C44
:1005D000696E6520666F727761726465642063611D
:1005E0006C6C733F2063757272656E743A20000DF7
:1005F0000A20636865636B696E6720000D0A2063DB
:10060000757272656E74206C6F63616C206E756DAF
:100610006265723A2000206E65773A202020202003
:1006200000206F6B2E20006E6F00796573000D0A3D
:1006300020626C6F636B2074696D657320646570F4
:10064000656E64696E67206F6E207765656B656E99
:10065000643F2063757272656E743A20000D0A2043
:100660002E2E2E20756E74696C3A200020737461F2
:100670007274696E672061743A20000D0A20626C02
:100680006F636B2074696D6520000D0A20656E74C0
:1006900065722074696D65732077697468203420F1
:1006A00064696769747320776974686F7574207002
:1006B000756E6374756174696F6E000D0A206163F5
:1006C0007469766174652074696D65642063616C1A
:1006D0006C20626C6F636B696E673F20637572722A
:1006E000656E743A200011241FBECFEFD4E0DEBF48
:1006F000CDBF11E0A0E0B1E0E2E1F5E302C005907A
:100700000D92A230B107D9F722E0A2E0B1E001C01A
:100710001D92A730B207E1F70E9443080C94871A94
:100720000C94000090913601981730F480933601B4
:1007300070933501609334010895109236018FEF64
:1007400090E0909335018093340110923701089521
:100750001F93CF93DF93EC01162F0E94711A81171C
:1007600081F0612FCE010E94791ACE010E94711A88
:10077000181739F0BE0184E0DF91CF911F910C94DE
:100780009203DF91CF911F9108951F93CF93DF9331
:10079000EC01162F0E94A803612FCE0180569F4FB7
:1007A0000E94A803612FCE01805C9E4FDF91CF9104
:1007B0001F910C94A803BF92CF92DF92EF92FF9209
:1007C0000F931F93CF93DF938C01B62E0E94711A63
:1007D000C82F680180EAC80ED11CC6010E94711A98
:1007E000D82F780180ECE81A8EEFF80AC7010E9432
:1007F000711ACD1303C0C8130BC008C0DF3F79F4D2
:100800008F3F69F46C2FC8010E94C5038C2F24C050
:10081000CF3FF9F0B70182E00E949203F3CFC813F3
:1008200002C0B601F8CFD8130BC060EA70E082E0D6
:100830000E9492036D2FC8010E94C5038D2F0CC02A
:10084000B80183E00E94920381E0809337018B2DF1
:1008500003C08F3FB9F2DECFDF91CF911F910F918F
:10086000FF90EF90DF90CF90BF900895FF920F938D
:100870001F93CF93DF938C01C62FF42ED22F0E94AB
:10088000DB038F1510F0D81748F4B80181E00E94FF
:1008900092036C2FC8010E94C5038C2FDF91CF916A
:1008A0001F910F91FF90089521E040E00E943604CF
:1008B00091E0813009F090E0892F08951F93CF9344
:1008C000DF93EC01162F672F01960E94C503612F5D
:1008D000CE01DF91CF911F910C94C503BF92CF92AF
:1008E000DF92EF92FF920F931F93CF93DF93EC0170
:1008F0006B017A018901109237016D2D01960E94DA
:10090000DB03B82E6C2DCE010E94DB0390913701E2
:10091000911112C090E09B298E159F0518F00817C1
:10092000190748F4BE0181E00E949203B601CE018E
:100930000E945E0401C06C01C601DF91CF911F913E
:100940000F91FF90EF90DF90CF90BF9008950C949F
:10095000C50390913601811110923601892F0895B7
:10096000809136018823C1F187EE90E00E949C17A8
:1009700080913601823069F028F4813091F486ED5F
:1009800090E009C0833051F0843059F486EA90E059
:1009900002C082EC90E00E949C170CC084EB90E0B7
:1009A000FACF8AE990E00E949C1760E080913601BE
:1009B0000E94BE1780E990E00E949C17809135014B
:1009C0000E94B317809134010E94B31788E890E029
:1009D0000E949C17109236010895599A08955998CB
:1009E00008955A9A08955A9808955B9A08955B98C5
:1009F00008955C9A08955C98089580915101882328
:100A000011F05F9A01C05F9880915101882349F0ED
:100A100080915701811103C00E94F90402C00E9415
:100A2000FB0480915701882311F0289A01C028986F
:100A3000809138014E9B0CC0882361F088E491E0DE
:100A40000E9421188132934098F01092380110C012
:100A5000882329F088E491E00E94001809C088E406
:100A600091E00E942118069718F081E080933801E8
:100A700080915701882321F080913801811104C0B1
:100A800081E08093560111C0809156014E9B0BC0AE
:100A9000882359F082E591E00E942118049798F08C
:100AA0001092560110C0882329F082E591E00E943F
:100AB000001809C082E591E00E942118049718F0FF
:100AC00081E0809356019091DC018091560194FF62
:100AD00006C0811102C00C94F1040C94F30481113E
:100AE00002C00C94F5040C94F704EF92FF920F935C
:100AF0001F93CF93DF93CDB7DEB728970FB6F89447
:100B0000DEBF0FBECDBF182FCE0105960E94001884
:100B1000CE0101960E9400182D9A8DE491E00E946A
:100B2000001880915101811110E001E088EEE82E5B
:100B300083E0F82E00935101009357010E94FD04B9
:100B400080913801811104C0CE0105960E940018E1
:100B5000CE0101960E942118409139014E9D9001CD
:100B60004F9D300D11242817390768F41092510158
:100B700081E0809357010E94FD048DE491E00E9482
:100B8000001880E01FC0CE0105960E9421188C320B
:100B9000914080F2111102C081E014C0CE0105968F
:100BA0000E940018CE0105960E94211820913C0158
:100BB00044E6249F900111248217930768F70E944E
:100BC000FD04F0CF28960FB6F894DEBF0FBECDBF60
:100BD000DF91CF911F910F91FF90EF9008951F9398
:100BE000CF93DF9300D000D0CDB7DEB7809138012E
:100BF000882331F080915101811102C00E94750556
:100C0000CE0101960E94001811E01092510110933C
:100C100057010E94FD0480913801882321F0CE0104
:100C200001960E940018CE0101960E942118843F6F
:100C3000914058F38DE491E00E9400180F900F90BE
:100C40000F900F90DF91CF911F9108951092C501E1
:100C50008093F30181E08093F5018091F501882371
:100C600049F067E571E0809156010E94AA150E9443
:100C7000FD04F3CF08950E94ED0480E00E9452111C
:100C800081E08093570180915101811103C081E07F
:100C90000E94750583EF90E00E949C1780913801B7
:100CA000882319F00E94FD04F9CF0E94EF0581E02E
:100CB0000E9452110C94EF04CF92DF92EF92FF92B8
:100CC0001F93CF93DF9300D000D0CDB7DEB7182F9E
:100CD000CE0101960E94001880E00E94521111235B
:100CE00031F0133021F0123021F081E003C082E0B6
:100CF00001C084E0E7E2F5E0E49190E024EF31E028
:100D0000829F7001839FF00C929FF00C11242CE2C3
:100D100031E0829F6001839FD00C929FD00C112400
:100D20000E9452158091E801882329F01092E80171
:100D30000E94451936C00E94FD048091380181113E
:100D400030C0CE0101960E942118E816F90628F459
:100D5000CE0101960E9400180CC0CE0101960E949F
:100D60002118C816D90618F40E94F90402C00E947E
:100D7000FB048091CA01882399F26091CA018CEC2E
:100D800091E00E943718882349F0123039F40E940C
:100D9000E218811103C01092CA0103C01092CA0167
:100DA000BFCF0E94FB0481E00E9452110F900F9070
:100DB0000F900F90DF91CF911F91FF90EF90DF90F8
:100DC000CF900895CF93C82F0E94ED0481E00E9438
:100DD0000F1180E00E945211CC2319F00E94EF0500
:100DE00004C08DE491E00E940018809138018823AE
:100DF00019F00E94FD04F9CF0E94EF0481E0CF9129
:100E00000C9452110F931F93CF93DF9300D000D017
:100E1000CDB7DEB7182FCE0101960E94001881E0F1
:100E20000E940C1181E08093C5018093900101E044
:100E30000E94FD040E9452158091380181110BC05F
:100E40000E940F110E94EF050E944411811159C0A8
:100E50000E94FD04F9CF0E944411882331F00E94C2
:100E6000EF0580E00E940F114CC00E940911809391
:100E700057018091F501823060F4809156010E9403
:100E80000C1107C081E991E00E94CD118F3109F06A
:100E900010E081E991E00E94A911882399F31123C0
:100EA00011F1CE0101960E942118011103C028E81A
:100EB00033E102C024EF31E082179307A0F06BE129
:100EC0008BE591E00E94B0116BE18BE591E00E940F
:100ED000B01162E18BE591E00E94B011CE01019664
:100EE0000E94001800E0CE0101960E942118893E60
:100EF000934008F49DCF80915601811199CF10E065
:100F000097CF0F900F900F900F90DF91CF911F917F
:100F10000F910895CF93DF9300D000D0CDB7DEB707
:100F20007C0180E88093BC001092510181E08093A5
:100F300057010E94FD042D98CE0101960E940018D1
:100F400000E010E0670121E0C222DD24570182E0C9
:100F5000A822BB24470124E08222992488E0E822C9
:100F6000FF24A895CE0101960E9421188139914055
:100F7000F0F0CE0101960E940018489906C0153085
:100F800010F001E0EECF1F5FECCF112351F31150B1
:100F900041F7002331F3F8949EE088E10FB6F8940E
:100FA000A895809360000FBE90936000FFCF011161
:100FB00025C0CE0101960E942118893C9105F0F0D0
:100FC000C114D10419F00E94ED0402C00E94EF0484
:100FD000A114B10419F00E94F10402C00E94F304AC
:100FE0008114910419F00E94F50402C00E94F704D4
:100FF000E114F10449F00E94F904B3CF0E94EF0418
:101000000E94F3040E94F7040E94FB04AACF1092EE
:1010100090010E94FD0467E571E0809156010E94F5
:10102000AA158091F401883029F08091380181114E
:10103000F0CF08958091F2016FE871E00E94DE1117
:101040001092F401882389F30895CF93DF9300D0A1
:10105000CDB7DEB79E012F5F3F4FAE014E5F5F4FB2
:101060006FE871E00E941212882341F08A810E9489
:10107000260689818F3F11F00E9426060F900F905F
:10108000DF91CF910895CF93DF93CDB7DEB7299746
:101090000FB6F894DEBF0FBECDBF9FE088E10FB65C
:1010A000F894A895809360000FBE90936000519AC9
:1010B000529A539A549A209A579A56985E9A5098F0
:1010C000589A259A24982C9A0E94ED040E949D0318
:1010D0000E94DA170E94CD1821E040E060E088E12C
:1010E00090E00E94360480933B0184E090E00E94EF
:1010F000491923E640E060E083E090E00E94360476
:1011000080933A012CED42E066E180E090E00E949D
:1011100036048E7F8093E30181E08093E001809329
:10112000C90160E089E190E00E9454048093590174
:1011300061E081E090E00E9454048093580124E62D
:1011400041E064E182E090E00E94360480934C012B
:1011500023E640E068E58AE190E00E94360480934F
:10116000470128EC42E065E086E290E00E94360408
:1011700080933C017DE3E72E71E0F72E0BE110E058
:101180006FEFC8010E94DB03F70181937F010F5FBE
:101190001F4F05321105A1F729E143E067E085E221
:1011A00090E00E943604809339011092510181E051
:1011B0008093570110923801809356010E94771056
:1011C000CE0105960E94001878940E94FD04CE017D
:1011D00005960E9421188A3F9105C8F319B1117034
:1011E0000E94EF040E94F1040E94C814CE010596EB
:1011F0000E942118843F9140C8F30E94F3040E948A
:10120000F504CE0105960E9421188E3E9240C8F347
:101210000E94F7040E94F90480E98093BC00CE018B
:1012200005960E942118883F9240C8F385EC809370
:10123000BC00CE0105960E9421184091E30154E1C3
:10124000459F9001112428513C4F8217930788F342
:10125000111150C010925101109238011092570193
:1012600010925601CE0105960E94001811E001E08F
:10127000489903C01092570106C000935701CE0150
:1012800005960E9400180E94FD0480915101882358
:1012900019F00E94ED0402C00E94EF048091380111
:1012A000882319F00E94F10402C00E94F304809187
:1012B0005701882319F00E94F50402C00E94F70428
:1012C00080915601882319F00E94F90402C00E94FF
:1012D000FB04CE0105960E942118893E934040F2FE
:1012E00080915101812780935101CE0105960E9482
:1012F0000018BECF842F0E9495141092510181E0F6
:10130000809357018DE491E00E94001858EC652EFF
:1013100067E4C62E61E0D62E99E1E92E23E0922EF5
:10132000FF24FA9438E5832E47E0742ECE0105960B
:101330000E942118813B944018F40E94EF0412C0CF
:10134000CE0105960E9421188937954038F4809186
:10135000E3018F3F91F70E94ED0404C0CE01059692
:101360000E9400180E94F3040E94F7040E94FB04EC
:101370000E9452150E94FD048091E801823009F01C
:10138000E8C11092E8010E949F1580E00E9452116E
:101390000E94ED0481E00E947505882309F485C14F
:1013A00080918F018E7F80938F0180E293E00E9475
:1013B0009C1783E093E00E949C17CE0109960E943F
:1013C0000417882309F471C181E296E00E949C17FA
:1013D0000E942D17882309F468C185EE92E00E94CF
:1013E0009C17809158010E94D11786E196E00E94D7
:1013F0009C1788E591E00E940417882309F455C1E1
:1014000081E296E00E949C1780915801882319F18F
:101410008FEB92E00E949C1760E080914C010E944B
:10142000BE1784EB92E00E949C1786E196E00E9432
:101430009C1760E08CE491E00E94CF1687FD35C1D7
:1014400080914C01811103C081E080934C0181E2C5
:1014500096E00E949C178985882391F010923A01AA
:10146000809247017092390185E080933C010E948F
:10147000CD1810923B01F0923D0187EA92E013C132
:1014800084E892E00E949C1780913A01882321F021
:1014900062E00E94BE1704C080E892E00E949C17A0
:1014A0008AE692E00E949C1762E08AE391E00E9443
:1014B000CF1687FDFAC081E296E00E949C1785E472
:1014C00092E00E949C1780914701882321F062E0FE
:1014D0000E94BE1704C081E492E00E949C178BE238
:1014E00092E00E949C1762E087E491E00E94CF1690
:1014F00087FDDBC081E296E00E949C170E94B9192B
:10150000882309F4D2C089EF91E00E949C1781E002
:1015100090913D019A3008F080E089830E94D117B4
:1015200086E196E00E949C17CE0101960E94041766
:10153000882309F4BAC081E296E00E949C17898151
:10154000882309F44DC08AEC91E00E949C170DE3BA
:1015500011E0F80181918F018A3050F083EC91E025
:101560000E949C1786E196E00E949C1710E013C031
:1015700060E00E94BE17C016D10659F7EFCF8B323C
:1015800029F18D33A9F092ED980F923088F08823DD
:10159000A1F01930D9F00E94070890ED980F9A3009
:1015A00070F7E12FF0E0E35CFE4F90831F5FF1CF17
:1015B00011110CC081E296E076C0112309F475C0C8
:1015C000E12FF0E0E35CFE4FF0826FC0E12FF0E02E
:1015D000E35CFE4FF08281E296E00E949C1702C01D
:1015E000F0923D018DE891E00E949C1760E08091AF
:1015F00039010E94BE1781E891E00E949C1760E0CB
:1016000089E391E00E94CF1687FD4FC08091390198
:10161000833018F49092390104C08A3110F0E092BE
:10162000390181E296E00E949C1781E491E00E94DA
:101630009C1760E080913C010E94BE1785E391E019
:101640000E949C1760E08CE391E00E94CF1687FD1A
:101650002CC080913C01823020F482E080933C01D8
:1016600004C0893C10F060923C0181E296E00E9447
:101670009C1784E191E00E949C1760E080913B01FF
:101680000E94BE1788E091E00E949C1760E08BE307
:1016900091E00E94CF1687FD08C081E296E00E948B
:1016A0009C178BEF90E00E949C170E94EF056091C1
:1016B000E30180E090E00E94C5036091590189E157
:1016C00090E00E94C5036091580181E090E00E9483
:1016D000A70460914C0182E090E00E94C5036091F4
:1016E0003A0183E090E00E94C503609147018AE1DE
:1016F00090E00E94C50360913B0188E190E00E9468
:10170000C5036091390185E290E00E94C5036091B4
:101710003C0186E290E00E94C5038DE3A82E81E0A3
:10172000B82E0BE110E0F50161915F01C8010E9444
:10173000C5030F5F1F4F05321105A9F784E090E044
:101740000E948E1981E00E9452110E94EF041092B3
:10175000E8018091E801813009F054C01092E8015D
:1017600080913B01813041F08230A1F52D9A8DE4CA
:1017700091E00E94001846C00E949F1580E00E94E0
:10178000521181E00E947505882309F43BC00E9434
:10179000F90407E513E0F8018491882361F0F8016A
:1017A00084910E9425080F5F1F4F0E94521580915F
:1017B000E801882351F01092E8010E94EF0581E0D2
:1017C0000E9452110E94FB041DC0809138018111BA
:1017D000E2CFF1CF0E94F90480E00E945211809183
:1017E000E801811103C00E945215F9CF1092E8015F
:1017F00081E00E9452110E94FB040E94EF0480E0ED
:101800000E945C0680913801882309F46DC18091A3
:10181000E3018F3F19F40E94EF0566C10E9445194C
:101820000E94F1040E94AE10811103C00E94F304D3
:101830005BC180915801882309F495C0CE010196BF
:101840000E940018CE0101960E9421188C3B924004
:1018500018F40E94FD04F6CF10925701CE010196B4
:101860000E940018CE0101960E94211820914C017F
:101870004AE0249F900111248217930718F40E94D4
:10188000FD04F0CF81E0809357010DE311E0F801F2
:1018900081918F018A3038F0CE0101960E940018A4
:1018A00000E010E006C00E94F510C016D10679F7DE
:1018B000F3CF0E94FD048091560181110FC01F5F7C
:1018C0000E94FD0480915601811104C0809138016D
:1018D0008111F6CFCE0101960E9400188091380147
:1018E0008823A1F10E944411811130C0112381F09D
:1018F000CE0101960E942118893C910548F01A30CA
:1019000010F080E001C0812F0E94F51001E010E08E
:101910000E94A010811123C0CE0101960E942118BF
:10192000A0E0B0E0011105C048E95AE360E070E0D2
:1019300004C048EC5FEA60E070E0481759076A07A6
:101940007B070CF0B6CF802F0E94E20681E00E9458
:101950000F1180913A01882309F49FC090C081E063
:101960000E947505AFC080E00E947505882371F361
:101970000E949F158BE10E94260680918F018B7F2C
:10198000826080938F010DE311E0F80181918F0156
:101990008A3040F0CE0101960E94001800E010E06D
:1019A000B12C0EC00E94F510C016D10671F7F2CF0F
:1019B00080913801882351F20E9444118111C6CFD1
:1019C0000E94FD0467E571E0809156010E94AA150E
:1019D0008091F401883099F58091F2016FE871E00F
:1019E0000E94DE111092F40190ED980F9A3030F4BD
:1019F000892F0E94F510BB24B39410C08C3629F4B3
:101A0000B1100AC00E943B06A1CF982F9F7D31F0F4
:101A10008D3021F08A3011F00F5F1F4FCE010196FB
:101A20000E9400180CC0CE0101960E942118883C2B
:101A3000910540F08FE30E9425080150110901151E
:101A4000110589F70E94A01081113CC0CE010196BA
:101A50000E942118A0E0B0E0B11005C048E95AE3A7
:101A600060E070E004C048EC5FEA60E070E04817B6
:101A700059076A077B070CF09BCF8B2D65CF0E941F
:101A8000061190913A01891308C00E94F3040E9444
:101A9000EF0583E00E945C0625C08091470181111B
:101AA00008C00E9406119091E3019695891318C011
:101AB00006C00E940611909147018913F2CF0E943F
:101AC0003B0610C00E94D810882339F0909158012D
:101AD00081E089270E94020705C081E00E940F1162
:101AE0000E94EF050E9445190E94A010882329F149
:101AF0000E94FD040E94F5040E94ED0481E00E9412
:101B0000750581110BC00E94F70481E00E940F113E
:101B100081E00E945C060E94EF040FC00E94EF0467
:101B20000E94D810811106C081E00E940F110E940E
:101B3000EF0503C080E00E94020780E00E94A90434
:101B40008823D1F00E949F1580E00E9452110E94CC
:101B5000ED0481E00E947505882371F080918F016A
:101B60008E7F80938F010E94B0040E94EF0581E078
:101B70000E9452110E94EF048091CA01882389F0CB
:101B80006091CA018CEC91E00E943718882339F0EB
:101B90000E94E218882319F082E00E945C061092ED
:101BA000CA011C9905C02D9A8DE491E00E9400188D
:101BB0008DE491E00E94211881369A4E08F4B6CB4C
:101BC0002D98AACB1F93CF93DF9390915A0198172A
:101BD00009F4B5C0C82F1FB7F89410920A0190E01D
:101BE0008830910508F0A8C0FC01EC5CFF4F8091A3
:101BF000DC010C946B1A8F778093DC018091DC01FF
:101C00008F7E8093DC0116C080748093DC0180910C
:101C1000DC0180688093DC0180915901882329F0E0
:101C20008091DC0180618093DC0181E080930F0171
:101C300080930E011092E2017FC08F778093DC01C8
:101C40008091DC018F7E76C08F778093DC0180915C
:101C5000DC018F7E8093DC0110920C0110920B014D
:101C600081E080930A018BE591E00E94A51110921A
:101C70008F0162C08F778093DC018091DC018F7EC1
:101C80008093DC018091DC0180618093DC01809194
:101C9000DC0188608093DC0181E08093E601809321
:101CA0000E014AC087FF0FC08091DC018F778093BF
:101CB000DC018091DC018F7E8093DC018091DC016E
:101CC00080618093DC018091DC0180628093DC0183
:101CD0008091DC0182608093DC018091DC01846072
:101CE0008093DC018091DC0181608093DC01D1E094
:101CF000D09300018BE591E00E94A51181E991E06C
:101D00000E94A51110928F010E949F15D093E601A9
:101D1000D0930F01D0930E010FC08F7D8093DC0113
:101D20008091DC01877F06C08F7D8093DC018091EC
:101D3000DC018D7F8093DC01C0935A011FBFDF91CE
:101D4000CF911F9108950E94431460910C018091DE
:101D50000B010E9400158093E2018091E3018695BA
:101D60000E944C140E94431486E091E00E940018E7
:101D70008091E50181110CC082E080930A0183EA21
:101D80000E944C140E94431486E091E00C940018C9
:101D90008091E5011092E5011092E201833021F07B
:101DA00080910C01823018F085E00C94E20D0895CA
:101DB0001F93CF93DF9300D0CDB7DEB7CE0102964D
:101DC0000E942C15882309F446C080915A0187305F
:101DD00021F481E090E00E948A078A81853A01F12E
:101DE00028F4803850F0833A89F035C08A3A31F1CE
:101DF0008C3A51F1863A79F519C090915A019111B6
:101E00002AC0880F8093E20181E023C080915A01AB
:101E1000813021F080915A018230E9F483E019C0C9
:101E200080915A018230B9F484E013C080915A0144
:101E3000823089F483E080930A010DC080915A01B9
:101E4000882349F085E005C080915A01863019F455
:101E500080E00E94E20DE0915A018E2F90E08830E0
:101E6000910508F0F0C0FC01E45CFF4F0C946B1A84
:101E70008BE591E00E94A9118111E5C080910A01D2
:101E8000823009F4E0C08BE591E00E94CD11182F5B
:101E900080910C018F5F80930C0180910A01813049
:101EA000B1F480910C01813019F410930B010DC035
:101EB00080910C01823059F480910B01912F2AE01E
:101EC000829F900D112490930B010E94A30E80918C
:101ED0000A01833009F0B7C080EB810F0E944C14D7
:101EE00086E091E00E940018AEC08091DF01882357
:101EF00059F08091E601882321F082E00E94B5121A
:101F000003C082E00E94A2128BE591E00E94A91119
:101F100081110DC08091F501811109C08BE591E01F
:101F20000E94CD118093F30181E08093F5018091AF
:101F30009001811103C080910F0104C0813031F400
:101F40008091E601BE016F5F7F4F14C0823071F453
:101F50008091E601882319F080910F0102C080E092
:101F600090E0BE016F5F7F4F817004C0BE016F5F64
:101F70007F4F81E00E94AA158091F401883041F4DE
:101F80006091F20181E991E00E94B0111092F40198
:101F90008091E60180930E0110910F018091F5016F
:101FA0008823A9F08091F501813089F08091C501E5
:101FB000811104C0898180930E0109C0813011F420
:101FC000198105C0823019F4198110930E0180E047
:101FD000112319F00E94B51202C00E94A212809132
:101FE000E701882381F18091C80181112CC0809183
:101FF0000001112381F0823021F0809100018330B3
:1020000011F48CE905C08091000181111CC08AE99E
:102010000E944C1418C0882321F080910001813067
:1020200011F483E9F5CF80910001823061F486E9F3
:10203000EFCF82E091E00E942118813A9F4018F092
:1020400080E00E94E20D8091C8018530F9F486E0BD
:1020500091E00E9400188091E501811115C08091E6
:10206000CB01863961F020F4833971F482E00AC033
:102070008A3939F08C3941F41092000105C083E0AF
:1020800001C081E0809300011092C8018091E201BB
:102090008823D1F08091E7018823B1F08091C801B5
:1020A000882321F08091C801853071F486E091E0A9
:1020B0000E9421188231934038F089EA0E944C1422
:1020C00086E091E00E9400188091E201882341F0AF
:1020D00080915A01863021F080915A01853009F4AF
:1020E000A8950F900F90DF91CF911F91089514BC88
:1020F00082E085BD80916E00816080936E0080E8F3
:102100008093DC0180915901882329F08091DC01C2
:1021100080618093DC010E949F1580E00E94E20DA7
:102120008BE591E00E94A51181E991E00E94A51143
:1021300010920D0181E08093C50180939001089574
:1021400080915A01833039F090915A0181E09430A6
:1021500019F080E001C081E0817008958091E30171
:102160008F3F21F180915A01882321F088E090E08F
:102170000E948A0781E080930D019FB7F8948091B7
:10218000DC018F778093DC018091DC018F7E80936E
:10219000DC018091DC018F7E8093DC019FBF82E0B7
:1021A0000E94E20D10920D0181E0089580E00895F3
:1021B00080915A01833091F481E080930D0185EA8A
:1021C0000E944C140E94431489EA0E944C1484E03B
:1021D0000E94E20D10920D0181E0089590915A0144
:1021E00081E0943009F080E0089590915A01923096
:1021F00049F490910A01992329F0682F8BE591E029
:102200000C94B01189E090E00C948A0780910B0146
:10221000089580910E01089580930F010895CF9342
:1022200090915A01992371F19091E201911104C0AA
:1022300080E0CF910C94E20DC82F81E080930D01D6
:1022400080915A01853049F48CEA0E944C140E9416
:10225000431480E00E94E20D0AC08AEA0E944C14F6
:1022600086E00E94E20D82E091E00E940018109248
:102270000D0180915A01863029F4CC2319F00E9477
:10228000D80EF7CFCF91089580915A01882339F065
:1022900090915A0181E0953019F080E001C081E011
:1022A00081700895CF93C82F80915A01882341F0FF
:1022B00080915A01873021F08AE090E00E948A07DD
:1022C000CC2311F080E001C087E0CF910C94E20DA7
:1022D0001F920F920FB60F9211242F933F934F939B
:1022E0005F936F937F938F939F93AF93BF93CF939E
:1022F000EF93FF9380910D01811115C0C1E0C09350
:102300000D0180916E008E7F80936E0078940E9404
:10231000D80E84EB86BDC5BB80916E008160809332
:102320006E0010920D01FF91EF91CF91BF91AF918F
:102330009F918F917F916F915F914F913F912F91DD
:102340000F900FBE0F901F901895FC0112AA13AAB0
:102350000895FC0123A992A981E0291380E0089542
:10236000FC0182A9813310F48F5F01C080E093A942
:10237000891789F09FB7F89482A9DF01A80FB11DD2
:102380006C9382A9813310F48F5F01C080E082AB2F
:102390009FBF81E0089580E00895FC012FB7F89475
:1023A00083A9DF01A80FB11D8C9193A9913310F47B
:1023B0009F5F01C090E093AB2FBF0895FB018B316D
:1023C00019F482E0808303C08F3119F4108280E019
:1023D00008959081292F2E7F20839670E82FF0E0BA
:1023E000923019F4E35AFA4F02C0E358FA4F84913D
:1023F00008956670623019F0EDE7F5E002C0EDE592
:10240000F5E09FEB980F9A3108F4805E90E02491FC
:10241000821731F031969F5F9032C9F78FEF0895A0
:10242000892F0895CF92DF92EF92FF920F931F931F
:10243000CF93C82F7B016A0189018FEFF901808357
:10244000CF3039F48BE1F601808383E0F70180839C
:102450002AC0CE3039F48FE1F601808381E0F701A4
:10246000808322C0FB01608160FD09C060E08C2F89
:102470000E94F911F80180838F3F69F70AC0C731C4
:10248000A9F38C2F0E94F911F60180838F3F59F434
:10249000EDCF62E08C2F0E94F911F80180838F3F0D
:1024A00089F680E001C081E0CF911F910F91FF90EC
:1024B000EF90DF90CF9008958A3989F028F483391E
:1024C00041F0863931F011C08C3949F0893AC9F1AF
:1024D0000CC081E08093DF011092E601089581E055
:1024E0008093DF018093E6010895E091130191E06C
:1024F0009E0F90931301F0E0EC5EFE4F808380917D
:102500001301843148F080911201811102C083E1EE
:102510000CC0109213010BC0909113018091120115
:10252000981305C08091130181508093130180910D
:10253000DC0180648093DC018091DC018F778093E3
:10254000DC0108955FB7F8944091DC0121E030E0B0
:10255000B90102C0660F771F8A95E2F7CB0180951B
:1025600084238093DC015FBF08954FB7F8945091A6
:10257000DC0121E030E0B90102C0660F771F8A95C7
:10258000E2F7CB01852B8093DC014FBF08951F92AA
:102590000F920FB60F9211242F933F934F935F9397
:1025A0006F937F938F939F93AF93BF93EF93FF931B
:1025B0008091C6019091C70101969093C7018093C5
:1025C000C6018091B900887F803609F4CBC0B0F590
:1025D000883209F48EC090F4803109F476C038F462
:1025E000882309F4AAC0883009F45AC037C1883159
:1025F00009F46FC0803209F473C030C1803409F42B
:102600002BC160F4803309F474C0883309F026C10B
:102610008091E4018F5F8093E401DAC0803509F492
:102620007FC0883509F47CC0883409F017C185E083
:102630008093C80181E08093E50180C0883909F466
:10264000EAC0C8F4883709F4C5C038F4883609F4FC
:1026500084C0803709F4C3C001C1883809F495C02B
:10266000803909F4C7C0803809F0F8C08091BB00F8
:102670000E945C12F1C0803B09F4E2C038F4803A59
:1026800009F488C0883A09F4E0C0E8C0803C09F445
:10269000DFC0883C09F4DCC0883B09F0DFC0D5C04E
:1026A0008091C801843029F41092BB00109210016F
:1026B00009C08091C801813041F08091E2018160C0
:1026C0008093BB001092E701C9C08091E2018E7F28
:1026D000F7CF8091C8018430B1F08091CB011DC04B
:1026E00085E08093C8018091C801843021F181E0A8
:1026F00031C08091C8018430D9F49091100180914B
:10270000CA019817A8F4E091100181E08E0F809320
:102710001001F0E0E453FE4F80818093BB009EC027
:102720008091BB00809311018091C801823051F0EB
:1027300085E08093C8011092E50181E08093E70174
:1027400085E58DC08091110187FD42C085E08093B1
:10275000C80183E08093E501F0CF8091E4018F5FB1
:102760008093E401A8951092DE011092DD01109291
:10277000E701109210018091BB009091E00191500F
:10278000869589238093E10167C08091BB000E94F8
:102790005C125EC081E08093E7019091100180910E
:1027A000CA01891720F4809110018093CA01809199
:1027B000C801833069F08091C801813049F080916F
:1027C000C801823029F08091C801843009F046C0E8
:1027D00085E645C08091E4018F5F8093E40110920B
:1027E000DE011092DD011092E701109210011092AB
:1027F000CA0134C08091BB0090911001903170F5F6
:10280000E091100191E09E0F90931001F0E0E453ED
:10281000FE4F808323C08091BB00909110019031C6
:1028200050F4E091100191E09E0F90931001F0E0C0
:10283000E453FE4F8083809110018093CA0108C049
:102840008091E4018F5F8093E4018091DC0138CFB7
:1028500081E08093E701ABCF85E001C085E480682B
:102860008093BC00FF91EF91BF91AF919F918F91A9
:102870007F916F915F914F913F912F910F900FBE7C
:102880000F901F9018958091C801882321F08091A6
:10289000C8018530C1F70895CF93C82F0E94431413
:1028A0009FB7F894C093CB01C7FF02C081E001C07D
:1028B00082E08093C8018091E701882349F08091EC
:1028C000BC0084FDFCCF8091BC0080628093BC0082
:1028D0009FBFCF910895CF93DF93D82F0E944314C9
:1028E000C091E201D093E20183E08093C80180911E
:1028F000E701882349F08091BC0084FDFCCF8091E2
:10290000BC0080628093BC000E944314C093E2012B
:102910008091E501811104C08091110190E002C015
:102920008FEF9FEFDF91CF910895CF939EEF980F98
:102930009B3DF0F480FD1CC0C82F0E946B1497FFD4
:1029400017C09FB7F894C093BA008091C90188233B
:1029500029F08091BA0081608093BA008091BC0018
:1029600080648093BC00C093E3019FBF81E00EC0F0
:102970009FB7F8941092BA008091BC008F7B80932F
:10298000BC008FEF8093E3019FBF80E0CF9108955B
:1029900081E08093E7011092C8011092E501109246
:1029A000E40110921201109213011092C7011092CB
:1029B000C6011092DE011092DD011092CB018093CE
:1029C000B90087E18093B8008091E3018E7F809306
:1029D000BA001092CA01109210018091C901882397
:1029E00029F08091BA0081608093BA0084E88093D6
:1029F000BC008091E0018150880F8093BD00089554
:102A0000613031F48A3080F4882351F08C5906C04B
:102A1000623051F4882331F0843630F4880F089501
:102A20008CED089588EC08958FEF0895FB019EEFDB
:102A3000980F9B3D10F010820DC08695853630F0C2
:102A400091E090838E3631F08456089592E0908321
:102A5000843609F480E00895309112012091130129
:102A60003217E1F0E091120121E02E0F20931201C4
:102A7000F0E0EC5EFE4F2081FC012083809112018A
:102A8000843110F010921201909112018091130183
:102A9000981306C086E00E94A21202C080E008954A
:102AA00081E0089580912C01813099F018F08230F6
:102AB00011F1089588E291E0489909C00E94211817
:102AC000C397E0F081E080932C0188E291E00C94C0
:102AD000001848990BC088E291E00E9421188132C9
:102AE000934060F082E080932C0102C010922C0190
:102AF0008093E8010895489910922C010895882345
:102B000069F080912D0190912E018F3F9105B4F4D1
:102B100080912D0190912E0101960CC080912D0184
:102B200090912E01181619064CF480912D01909168
:102B30002E01019790932E0180932D0108951092FC
:102B4000F4011092F50180E890E090932E018093BB
:102B50002D0108950F931F93CF93C82F8B01809160
:102B6000F501883028F4823088F5813029F05BC087
:102B7000883009F449C057C08091F401882329F0B6
:102B80008091F401883009F04EC089EE91E00E94F6
:102B90002118CC9708F447C0F80110828EEE91E01E
:102BA0000E94001882E08093F5018091F3018F71FB
:102BB0008093F3018091F301880F880F8093F301D4
:102BC0008091F30183608093F3012DC08091F30124
:102BD000881F8827881FFB0180838EEE91E00E946A
:102BE0002118449700F164E170E08EEE91E00E94BC
:102BF0000D188091F301880F8093F3018091F50106
:102C00008F5F8093F5010FC081E0FB0180838EEE22
:102C100091E00E9421184E9730F08EEE91E00E94D4
:102C200000181092F5018091F401873040F4823051
:102C300008F053C0882381F0813011F1ACC0873097
:102C400009F45CC0883009F0A6C089EE91E00E94CA
:102C50002118039708F49FC0C1119DC089EE91E02F
:102C60000E94001881E08093F4011092F20180E844
:102C700090E090932E0180932D011092ED018BC076
:102C80008C2F0E947F1580912D0190912E01873904
:102C9000910504F589EE91E00E9421180B9708F444
:102CA0007AC080912D0190912E018038910594F485
:102CB00082E08093F40180E890E090932E0180936D
:102CC0002D0168E070E089EE91E0CF911F910F91A6
:102CD0000C940D181092F4015EC089EE91E00E94F0
:102CE0002118409708F457C08C2F0E947F1589EE59
:102CF00091E00E942118449760F54DC089EE91E063
:102D00000E942118409708F446C08C2F0E947F151E
:102D100089EE91E00E9421180F97E8F18091F4016B
:102D20008730B9F4CC23B9F120912D0130912E01D7
:102D300081E0203831050CF080E08093ED0188E0DF
:102D40008093F40189EE91E0CF911F910F910C9443
:102D500000188091F201880F8093F20180912D017B
:102D600090912E01803891052CF08091F2018160C4
:102D70008093F2018091F4018F5F8093F40164E10C
:102D800070E089EE91E00E940D1880E890E0909349
:102D90002E0180932D01CF911F910F9108950F93D4
:102DA0001F93CF93DF938C01D62FC0E00E940708BA
:102DB00090ED980F9A3090F4F801CC2351F0908167
:102DC000990F292F220F220F920F9053890F808382
:102DD00001C09083CF5FCD13E9CF0EC093ED980F64
:102DE000933050F08B3241F08D3331F0882331F045
:102DF0008930E1F2CC23D1F28C2F01C08FEFDF912B
:102E0000CF911F910F910895CF93DF93EC010E9412
:102E100007088033D9F040F48D32C1F0D0F4882314
:102E200081F08B32A1F70FC08A3669F028F4813324
:102E300051F08D3371F0EBCF8E3641F0893719F0B8
:102E4000E6CF80E007C081E0888301C0188282E07D
:102E500001C081E0DF91CF9108951F93CF93DF935D
:102E600000D0CDB7DEB7BE016E5F7F4F8091E3012A
:102E70000E94161589838CEF95E00E949C176A8149
:102E800089810E94BE1786E196E00E949C1762E04D
:102E9000CE0101960E94CF1687FD46C0811109C060
:102EA000BE016E5F7F4F8091E3010E9416158983FA
:102EB00001C08A838091E00181959981892389836A
:102EC0008FEE95E00E949C176A8189810E94BE174F
:102ED00080E20E9425086A8189810E9400150E9473
:102EE0009514182F8823D9F081E296E00E949C1750
:102EF00089EC95E00E949C17809159010E94D1179E
:102F000086E196E00E949C1789E591E00E940417F3
:102F1000882351F081E296E00E949C1706C08DE95B
:102F200095E00E949C179FCF10E0812F0F900F908B
:102F3000DF91CF911F910895CF93DF93EC01FE01B4
:102F40008491882331F0FE0184910E942508219606
:102F5000F6CFDF91CF9108958A3010F4805D01C0E3
:102F6000895A0C942508CF93C82F82958F700E94A0
:102F7000AC178C2F8F70CF910C94AC17CF93C82FB8
:102F800080E0CA3018F08F5FCA50FBCF811102C0B9
:102F900062301CF061500E94BE178C2FCF910C94B0
:102FA000AC17811103C087E296E002C08AE296E086
:102FB0000C949C1782E08093B00083E08093B10072
:102FC0008FEB8093B300E0E7F0E080818260808344
:102FD00008951F920F920FB60F9211248F939F9313
:102FE0008091F6019091F70101969093F7018093FB
:102FF000F6019F918F910F900FBE0F901F90189523
:103000002FB7F8944091F6015091F701FC015183DC
:103010004083138212822FBF0895FC018081918129
:10302000860F971F918380838281938186179707EC
:1030300018F4138212820895861B970B9383828360
:103040000895FC012FB7F8948091F6019091F70153
:1030500040815181841B950B2FBF2281338128171A
:10306000390710F493838283828193810895FC0150
:103070006830F0F080818336D9F481818C36C1F4D8
:1030800082818B36A9F483818093FB0184818093B4
:10309000FC0185818093F90186818093F801878105
:1030A0008093FA01683031F080858093FD0102C081
:1030B00080E0089581E00895FA0120813181428104
:1030C000538124173507E1F09CE3899FF001112417
:1030D00070E06E0F7F1F2417350740F462177307E7
:1030E00060F081E06417750748F007C081E064175D
:1030F000750720F06217730708F480E08170089567
:1031000080E008950F931F93CF93DF9300D0CDB746
:10311000DEB78C01FC0120819181822F6CE370E08D
:103120000E94571A862F6A83FCE36F9F201911248F
:10313000298362E00E94BE1762E089810E94BE1767
:1031400086E196E00E949C1762E0CE0102960E9402
:10315000CF168823C1F062E0CE0101960E94CF16FF
:1031600087FD13C02A81898190E03CE3239F800D75
:10317000911D1124813AE5E09E0714F080EA95E064
:10318000F8019183808381E001C080E00F900F906F
:10319000DF91CF911F910F910895EFEFF1E0118230
:1031A0001082138212821582148217821682109264
:1031B000FE0110923301EFE2F1E0118210821382DE
:1031C00012820895CF93DF9380913301D091F8015B
:1031D000C091FA01882301F1109233016C2F70E045
:1031E0002CE3D29F600D711D112470933001609308
:1031F0002F01CB010A96813A25E0920728F490939B
:1032000032018093310106C06659754070933201D6
:103210006093310180E036C04FE251E06C2F8D2F7A
:103220000E945C188111F6CF1092300110922F018C
:1032300010923201109231018091FE01811113C070
:103240004FEF51E06C2F8D2F0E945C18811107C049
:1032500043E052E06C2F8D2F0E945C1802C081E089
:1032600090E081700FC08091FD01863018F043E03E
:1032700052E002C04FEF51E06C2F8D2FDF91CF91C4
:103280000C945C18DF91CF91089581E08093330115
:1032900008950F931F93CF93DF93EC012FE935E04F
:1032A00040E050E060E070E00E946E040FEF11E03B
:1032B000F801918380832FE935E040E050E060E041
:1032C00070E0CE0102960E946E04F801938382831F
:1032D0002FE935E040E050E060E070E0CE01049678
:1032E0000E946E04F801958384832FE935E040E065
:1032F00050E060E070E0CE0106960E946E04F80196
:103300009783868360E0CE0108960E9454048093E0
:10331000FE01DF91CF911F910F9108950F931F939D
:10332000CF93DF93EC010FEF11E0F8016081718121
:103330000E945E04F80162817381CE0102960E94B0
:103340005E04F80164817581CE0104960E945E04DA
:10335000F80166817781CE0106960E945E04609135
:10336000FE01CE010896DF91CF911F910F910C9431
:10337000A704EF92FF920F931F93CF93DF931F92B7
:10338000CDB7DEB78BEB96E00E949C172091FF0132
:1033900030910002809101029091020228173907B2
:1033A00071F481E0409103025091040220910502E2
:1033B000309106024217530719F480E001C081E002
:1033C000817089830E94D11786E196E00E949C1744
:1033D000CE0101960E940417811102C010E05EC068
:1033E0008981811112C08091FF0190910002909318
:1033F0000202809301028091030290910402909353
:1034000006028093050211E049C08AE896E00E9416
:103410009C178FEFE82E81E0F82E01E68BE796E00F
:103420000E949C17802F0E9425088CE696E00E943F
:103430009C17C7010E948218882381F281E296E0DE
:103440000E949C178DE596E00E949C17C70102968A
:103450000E948218182F882309F281E296E00E94C8
:103460009C170F5F84E0E80EF11C0336B9F68EE27C
:1034700096E00E949C178091FE010E94D11786E180
:1034800096E00E949C178EEF91E00E94041788231B
:1034900009F4A4CF81E296E00E949C17812F0F903F
:1034A000DF91CF911F910F91FF90EF900895AA1B8C
:1034B000BB1B51E107C0AA1FBB1FA617B70710F01F
:1034C000A61BB70B881F991F5A95A9F78095909551
:1034D000BC01CD010895EE0FFF1F0590F491E02D82
:1034E0000994F999FECF92BD81BDF89A992780B5CC
:1034F0000895262FF999FECF1FBA92BD81BD20BD38
:103500000FB6F894FA9AF99A0FBE01960895F894B6
:02351000FFCFEB
:023512000100B6
:00000001FF
